{
	"contracts/DEX.sol": {
		"DEX": {
			"abi": [
				{
					"inputs": [
						{
							"internalType": "address",
							"name": "_tokenA",
							"type": "address"
						},
						{
							"internalType": "address",
							"name": "_tokenB",
							"type": "address"
						}
					],
					"stateMutability": "nonpayable",
					"type": "constructor"
				},
				{
					"anonymous": false,
					"inputs": [
						{
							"indexed": true,
							"internalType": "address",
							"name": "provider",
							"type": "address"
						},
						{
							"indexed": false,
							"internalType": "uint256",
							"name": "amountA",
							"type": "uint256"
						},
						{
							"indexed": false,
							"internalType": "uint256",
							"name": "amountB",
							"type": "uint256"
						},
						{
							"indexed": false,
							"internalType": "uint256",
							"name": "lpMinted",
							"type": "uint256"
						}
					],
					"name": "LiquidityAdded",
					"type": "event"
				},
				{
					"anonymous": false,
					"inputs": [
						{
							"indexed": true,
							"internalType": "address",
							"name": "provider",
							"type": "address"
						},
						{
							"indexed": false,
							"internalType": "uint256",
							"name": "amountA",
							"type": "uint256"
						},
						{
							"indexed": false,
							"internalType": "uint256",
							"name": "amountB",
							"type": "uint256"
						},
						{
							"indexed": false,
							"internalType": "uint256",
							"name": "lpBurned",
							"type": "uint256"
						}
					],
					"name": "LiquidityRemoved",
					"type": "event"
				},
				{
					"anonymous": false,
					"inputs": [
						{
							"indexed": true,
							"internalType": "address",
							"name": "trader",
							"type": "address"
						},
						{
							"indexed": false,
							"internalType": "address",
							"name": "tokenIn",
							"type": "address"
						},
						{
							"indexed": false,
							"internalType": "uint256",
							"name": "amountIn",
							"type": "uint256"
						},
						{
							"indexed": false,
							"internalType": "uint256",
							"name": "amountOut",
							"type": "uint256"
						}
					],
					"name": "Swap",
					"type": "event"
				},
				{
					"inputs": [
						{
							"internalType": "uint256",
							"name": "amountA",
							"type": "uint256"
						},
						{
							"internalType": "uint256",
							"name": "amountB",
							"type": "uint256"
						}
					],
					"name": "addLiquidity",
					"outputs": [],
					"stateMutability": "nonpayable",
					"type": "function"
				},
				{
					"inputs": [],
					"name": "getReserves",
					"outputs": [
						{
							"internalType": "uint256",
							"name": "",
							"type": "uint256"
						},
						{
							"internalType": "uint256",
							"name": "",
							"type": "uint256"
						}
					],
					"stateMutability": "view",
					"type": "function"
				},
				{
					"inputs": [],
					"name": "lpToken",
					"outputs": [
						{
							"internalType": "contract LPToken",
							"name": "",
							"type": "address"
						}
					],
					"stateMutability": "view",
					"type": "function"
				},
				{
					"inputs": [
						{
							"internalType": "uint256",
							"name": "lpAmount",
							"type": "uint256"
						}
					],
					"name": "removeLiquidity",
					"outputs": [],
					"stateMutability": "nonpayable",
					"type": "function"
				},
				{
					"inputs": [],
					"name": "reserveA",
					"outputs": [
						{
							"internalType": "uint256",
							"name": "",
							"type": "uint256"
						}
					],
					"stateMutability": "view",
					"type": "function"
				},
				{
					"inputs": [],
					"name": "reserveB",
					"outputs": [
						{
							"internalType": "uint256",
							"name": "",
							"type": "uint256"
						}
					],
					"stateMutability": "view",
					"type": "function"
				},
				{
					"inputs": [],
					"name": "spotPrice",
					"outputs": [
						{
							"internalType": "uint256",
							"name": "",
							"type": "uint256"
						}
					],
					"stateMutability": "view",
					"type": "function"
				},
				{
					"inputs": [],
					"name": "spotPriceInverse",
					"outputs": [
						{
							"internalType": "uint256",
							"name": "",
							"type": "uint256"
						}
					],
					"stateMutability": "view",
					"type": "function"
				},
				{
					"inputs": [
						{
							"internalType": "uint256",
							"name": "amountAIn",
							"type": "uint256"
						}
					],
					"name": "swapAForB",
					"outputs": [],
					"stateMutability": "nonpayable",
					"type": "function"
				},
				{
					"inputs": [
						{
							"internalType": "uint256",
							"name": "amountBIn",
							"type": "uint256"
						}
					],
					"name": "swapBForA",
					"outputs": [],
					"stateMutability": "nonpayable",
					"type": "function"
				},
				{
					"inputs": [],
					"name": "tokenA",
					"outputs": [
						{
							"internalType": "contract IERC20",
							"name": "",
							"type": "address"
						}
					],
					"stateMutability": "view",
					"type": "function"
				},
				{
					"inputs": [],
					"name": "tokenB",
					"outputs": [
						{
							"internalType": "contract IERC20",
							"name": "",
							"type": "address"
						}
					],
					"stateMutability": "view",
					"type": "function"
				}
			],
			"devdoc": {
				"kind": "dev",
				"methods": {},
				"version": 1
			},
			"evm": {
				"assembly": "    /* \"contracts/DEX.sol\":458:12040  contract DEX {... */\n  mstore(0x40, 0x80)\n    /* \"contracts/DEX.sol\":2358:2920  constructor(address _tokenA, address _tokenB) {... */\n  callvalue\n  dup1\n  iszero\n  tag_1\n  jumpi\n  revert(0x00, 0x00)\ntag_1:\n  pop\n  mload(0x40)\n  sub(codesize, bytecodeSize)\n  dup1\n  bytecodeSize\n  dup4\n  codecopy\n  dup2\n  dup2\n  add\n  0x40\n  mstore\n  dup2\n  add\n  swap1\n  tag_2\n  swap2\n  swap1\n  tag_3\n  jump\t// in\ntag_2:\n    /* \"contracts/DEX.sol\":2565:2566  0 */\n  0x00\n    /* \"contracts/DEX.sol\":2546:2567  _tokenA != address(0) */\n  0xffffffffffffffffffffffffffffffffffffffff\n  and\n    /* \"contracts/DEX.sol\":2546:2553  _tokenA */\n  dup3\n    /* \"contracts/DEX.sol\":2546:2567  _tokenA != address(0) */\n  0xffffffffffffffffffffffffffffffffffffffff\n  and\n  eq\n  iszero\n    /* \"contracts/DEX.sol\":2546:2592  _tokenA != address(0) && _tokenB != address(0) */\n  dup1\n  iszero\n  tag_6\n  jumpi\n  pop\n    /* \"contracts/DEX.sol\":2590:2591  0 */\n  0x00\n    /* \"contracts/DEX.sol\":2571:2592  _tokenB != address(0) */\n  0xffffffffffffffffffffffffffffffffffffffff\n  and\n    /* \"contracts/DEX.sol\":2571:2578  _tokenB */\n  dup2\n    /* \"contracts/DEX.sol\":2571:2592  _tokenB != address(0) */\n  0xffffffffffffffffffffffffffffffffffffffff\n  and\n  eq\n  iszero\n    /* \"contracts/DEX.sol\":2546:2592  _tokenA != address(0) && _tokenB != address(0) */\ntag_6:\n    /* \"contracts/DEX.sol\":2525:2639  require(... */\n  tag_7\n  jumpi\n  mload(0x40)\n  0x08c379a000000000000000000000000000000000000000000000000000000000\n  dup2\n  mstore\n  0x04\n  add\n  tag_8\n  swap1\n  tag_9\n  jump\t// in\ntag_8:\n  mload(0x40)\n  dup1\n  swap2\n  sub\n  swap1\n  revert\ntag_7:\n    /* \"contracts/DEX.sol\":2668:2675  _tokenB */\n  dup1\n    /* \"contracts/DEX.sol\":2657:2675  _tokenA != _tokenB */\n  0xffffffffffffffffffffffffffffffffffffffff\n  and\n    /* \"contracts/DEX.sol\":2657:2664  _tokenA */\n  dup3\n    /* \"contracts/DEX.sol\":2657:2675  _tokenA != _tokenB */\n  0xffffffffffffffffffffffffffffffffffffffff\n  and\n  sub\n    /* \"contracts/DEX.sol\":2649:2704  require(_tokenA != _tokenB, \"Tokens must be different\") */\n  tag_10\n  jumpi\n  mload(0x40)\n  0x08c379a000000000000000000000000000000000000000000000000000000000\n  dup2\n  mstore\n  0x04\n  add\n  tag_11\n  swap1\n  tag_12\n  jump\t// in\ntag_11:\n  mload(0x40)\n  dup1\n  swap2\n  sub\n  swap1\n  revert\ntag_10:\n    /* \"contracts/DEX.sol\":2731:2738  _tokenA */\n  dup2\n    /* \"contracts/DEX.sol\":2715:2721  tokenA */\n  0x00\n  0x00\n    /* \"contracts/DEX.sol\":2715:2739  tokenA = IERC20(_tokenA) */\n  0x0100\n  exp\n  dup2\n  sload\n  dup2\n  0xffffffffffffffffffffffffffffffffffffffff\n  mul\n  not\n  and\n  swap1\n  dup4\n  0xffffffffffffffffffffffffffffffffffffffff\n  and\n  mul\n  or\n  swap1\n  sstore\n  pop\n    /* \"contracts/DEX.sol\":2765:2772  _tokenB */\n  dup1\n    /* \"contracts/DEX.sol\":2749:2755  tokenB */\n  0x01\n  0x00\n    /* \"contracts/DEX.sol\":2749:2773  tokenB = IERC20(_tokenB) */\n  0x0100\n  exp\n  dup2\n  sload\n  dup2\n  0xffffffffffffffffffffffffffffffffffffffff\n  mul\n  not\n  and\n  swap1\n  dup4\n  0xffffffffffffffffffffffffffffffffffffffff\n  and\n  mul\n  or\n  swap1\n  sstore\n  pop\n    /* \"contracts/DEX.sol\":2900:2913  new LPToken() */\n  mload(0x40)\n  tag_13\n  swap1\n  tag_14\n  jump\t// in\ntag_13:\n  mload(0x40)\n  dup1\n  swap2\n  sub\n  swap1\n  0x00\n  create\n  dup1\n  iszero\n  dup1\n  iszero\n  tag_15\n  jumpi\n  returndatacopy(0x00, 0x00, returndatasize)\n  revert(0x00, returndatasize)\ntag_15:\n  pop\n    /* \"contracts/DEX.sol\":2890:2897  lpToken */\n  0x02\n  0x00\n    /* \"contracts/DEX.sol\":2890:2913  lpToken = new LPToken() */\n  0x0100\n  exp\n  dup2\n  sload\n  dup2\n  0xffffffffffffffffffffffffffffffffffffffff\n  mul\n  not\n  and\n  swap1\n  dup4\n  0xffffffffffffffffffffffffffffffffffffffff\n  and\n  mul\n  or\n  swap1\n  sstore\n  pop\n    /* \"contracts/DEX.sol\":2358:2920  constructor(address _tokenA, address _tokenB) {... */\n  pop\n  pop\n    /* \"contracts/DEX.sol\":458:12040  contract DEX {... */\n  jump(tag_16)\ntag_14:\n  dataSize(sub_1)\n  dup1\n  dataOffset(sub_1)\n  dup4\n  codecopy\n  add\n  swap1\n  jump\t// out\n    /* \"#utility.yul\":88:205   */\ntag_18:\n    /* \"#utility.yul\":197:198   */\n  0x00\n    /* \"#utility.yul\":194:195   */\n  0x00\n    /* \"#utility.yul\":187:199   */\n  revert\n    /* \"#utility.yul\":334:460   */\ntag_20:\n    /* \"#utility.yul\":371:378   */\n  0x00\n    /* \"#utility.yul\":411:453   */\n  0xffffffffffffffffffffffffffffffffffffffff\n    /* \"#utility.yul\":404:409   */\n  dup3\n    /* \"#utility.yul\":400:454   */\n  and\n    /* \"#utility.yul\":389:454   */\n  swap1\n  pop\n    /* \"#utility.yul\":334:460   */\n  swap2\n  swap1\n  pop\n  jump\t// out\n    /* \"#utility.yul\":466:562   */\ntag_21:\n    /* \"#utility.yul\":503:510   */\n  0x00\n    /* \"#utility.yul\":532:556   */\n  tag_35\n    /* \"#utility.yul\":550:555   */\n  dup3\n    /* \"#utility.yul\":532:556   */\n  tag_20\n  jump\t// in\ntag_35:\n    /* \"#utility.yul\":521:556   */\n  swap1\n  pop\n    /* \"#utility.yul\":466:562   */\n  swap2\n  swap1\n  pop\n  jump\t// out\n    /* \"#utility.yul\":568:690   */\ntag_22:\n    /* \"#utility.yul\":641:665   */\n  tag_37\n    /* \"#utility.yul\":659:664   */\n  dup2\n    /* \"#utility.yul\":641:665   */\n  tag_21\n  jump\t// in\ntag_37:\n    /* \"#utility.yul\":634:639   */\n  dup2\n    /* \"#utility.yul\":631:666   */\n  eq\n    /* \"#utility.yul\":621:684   */\n  tag_38\n  jumpi\n    /* \"#utility.yul\":680:681   */\n  0x00\n    /* \"#utility.yul\":677:678   */\n  0x00\n    /* \"#utility.yul\":670:682   */\n  revert\n    /* \"#utility.yul\":621:684   */\ntag_38:\n    /* \"#utility.yul\":568:690   */\n  pop\n  jump\t// out\n    /* \"#utility.yul\":696:839   */\ntag_23:\n    /* \"#utility.yul\":753:758   */\n  0x00\n    /* \"#utility.yul\":784:790   */\n  dup2\n    /* \"#utility.yul\":778:791   */\n  mload\n    /* \"#utility.yul\":769:791   */\n  swap1\n  pop\n    /* \"#utility.yul\":800:833   */\n  tag_40\n    /* \"#utility.yul\":827:832   */\n  dup2\n    /* \"#utility.yul\":800:833   */\n  tag_22\n  jump\t// in\ntag_40:\n    /* \"#utility.yul\":696:839   */\n  swap3\n  swap2\n  pop\n  pop\n  jump\t// out\n    /* \"#utility.yul\":845:1352   */\ntag_3:\n    /* \"#utility.yul\":924:930   */\n  0x00\n    /* \"#utility.yul\":932:938   */\n  0x00\n    /* \"#utility.yul\":981:983   */\n  0x40\n    /* \"#utility.yul\":969:978   */\n  dup4\n    /* \"#utility.yul\":960:967   */\n  dup6\n    /* \"#utility.yul\":956:979   */\n  sub\n    /* \"#utility.yul\":952:984   */\n  slt\n    /* \"#utility.yul\":949:1068   */\n  iszero\n  tag_42\n  jumpi\n    /* \"#utility.yul\":987:1066   */\n  tag_43\n  tag_18\n  jump\t// in\ntag_43:\n    /* \"#utility.yul\":949:1068   */\ntag_42:\n    /* \"#utility.yul\":1107:1108   */\n  0x00\n    /* \"#utility.yul\":1132:1196   */\n  tag_44\n    /* \"#utility.yul\":1188:1195   */\n  dup6\n    /* \"#utility.yul\":1179:1185   */\n  dup3\n    /* \"#utility.yul\":1168:1177   */\n  dup7\n    /* \"#utility.yul\":1164:1186   */\n  add\n    /* \"#utility.yul\":1132:1196   */\n  tag_23\n  jump\t// in\ntag_44:\n    /* \"#utility.yul\":1122:1196   */\n  swap3\n  pop\n    /* \"#utility.yul\":1078:1206   */\n  pop\n    /* \"#utility.yul\":1245:1247   */\n  0x20\n    /* \"#utility.yul\":1271:1335   */\n  tag_45\n    /* \"#utility.yul\":1327:1334   */\n  dup6\n    /* \"#utility.yul\":1318:1324   */\n  dup3\n    /* \"#utility.yul\":1307:1316   */\n  dup7\n    /* \"#utility.yul\":1303:1325   */\n  add\n    /* \"#utility.yul\":1271:1335   */\n  tag_23\n  jump\t// in\ntag_45:\n    /* \"#utility.yul\":1261:1335   */\n  swap2\n  pop\n    /* \"#utility.yul\":1216:1345   */\n  pop\n    /* \"#utility.yul\":845:1352   */\n  swap3\n  pop\n  swap3\n  swap1\n  pop\n  jump\t// out\n    /* \"#utility.yul\":1358:1527   */\ntag_24:\n    /* \"#utility.yul\":1442:1453   */\n  0x00\n    /* \"#utility.yul\":1476:1482   */\n  dup3\n    /* \"#utility.yul\":1471:1474   */\n  dup3\n    /* \"#utility.yul\":1464:1483   */\n  mstore\n    /* \"#utility.yul\":1516:1520   */\n  0x20\n    /* \"#utility.yul\":1511:1514   */\n  dup3\n    /* \"#utility.yul\":1507:1521   */\n  add\n    /* \"#utility.yul\":1492:1521   */\n  swap1\n  pop\n    /* \"#utility.yul\":1358:1527   */\n  swap3\n  swap2\n  pop\n  pop\n  jump\t// out\n    /* \"#utility.yul\":1533:1704   */\ntag_25:\n    /* \"#utility.yul\":1673:1696   */\n  0x496e76616c696420746f6b656e20616464726573730000000000000000000000\n    /* \"#utility.yul\":1669:1670   */\n  0x00\n    /* \"#utility.yul\":1661:1667   */\n  dup3\n    /* \"#utility.yul\":1657:1671   */\n  add\n    /* \"#utility.yul\":1650:1697   */\n  mstore\n    /* \"#utility.yul\":1533:1704   */\n  pop\n  jump\t// out\n    /* \"#utility.yul\":1710:2076   */\ntag_26:\n    /* \"#utility.yul\":1852:1855   */\n  0x00\n    /* \"#utility.yul\":1873:1940   */\n  tag_49\n    /* \"#utility.yul\":1937:1939   */\n  0x15\n    /* \"#utility.yul\":1932:1935   */\n  dup4\n    /* \"#utility.yul\":1873:1940   */\n  tag_24\n  jump\t// in\ntag_49:\n    /* \"#utility.yul\":1866:1940   */\n  swap2\n  pop\n    /* \"#utility.yul\":1949:2042   */\n  tag_50\n    /* \"#utility.yul\":2038:2041   */\n  dup3\n    /* \"#utility.yul\":1949:2042   */\n  tag_25\n  jump\t// in\ntag_50:\n    /* \"#utility.yul\":2067:2069   */\n  0x20\n    /* \"#utility.yul\":2062:2065   */\n  dup3\n    /* \"#utility.yul\":2058:2070   */\n  add\n    /* \"#utility.yul\":2051:2070   */\n  swap1\n  pop\n    /* \"#utility.yul\":1710:2076   */\n  swap2\n  swap1\n  pop\n  jump\t// out\n    /* \"#utility.yul\":2082:2501   */\ntag_9:\n    /* \"#utility.yul\":2248:2252   */\n  0x00\n    /* \"#utility.yul\":2286:2288   */\n  0x20\n    /* \"#utility.yul\":2275:2284   */\n  dup3\n    /* \"#utility.yul\":2271:2289   */\n  add\n    /* \"#utility.yul\":2263:2289   */\n  swap1\n  pop\n    /* \"#utility.yul\":2335:2344   */\n  dup2\n    /* \"#utility.yul\":2329:2333   */\n  dup2\n    /* \"#utility.yul\":2325:2345   */\n  sub\n    /* \"#utility.yul\":2321:2322   */\n  0x00\n    /* \"#utility.yul\":2310:2319   */\n  dup4\n    /* \"#utility.yul\":2306:2323   */\n  add\n    /* \"#utility.yul\":2299:2346   */\n  mstore\n    /* \"#utility.yul\":2363:2494   */\n  tag_52\n    /* \"#utility.yul\":2489:2493   */\n  dup2\n    /* \"#utility.yul\":2363:2494   */\n  tag_26\n  jump\t// in\ntag_52:\n    /* \"#utility.yul\":2355:2494   */\n  swap1\n  pop\n    /* \"#utility.yul\":2082:2501   */\n  swap2\n  swap1\n  pop\n  jump\t// out\n    /* \"#utility.yul\":2507:2681   */\ntag_27:\n    /* \"#utility.yul\":2647:2673   */\n  0x546f6b656e73206d75737420626520646966666572656e740000000000000000\n    /* \"#utility.yul\":2643:2644   */\n  0x00\n    /* \"#utility.yul\":2635:2641   */\n  dup3\n    /* \"#utility.yul\":2631:2645   */\n  add\n    /* \"#utility.yul\":2624:2674   */\n  mstore\n    /* \"#utility.yul\":2507:2681   */\n  pop\n  jump\t// out\n    /* \"#utility.yul\":2687:3053   */\ntag_28:\n    /* \"#utility.yul\":2829:2832   */\n  0x00\n    /* \"#utility.yul\":2850:2917   */\n  tag_55\n    /* \"#utility.yul\":2914:2916   */\n  0x18\n    /* \"#utility.yul\":2909:2912   */\n  dup4\n    /* \"#utility.yul\":2850:2917   */\n  tag_24\n  jump\t// in\ntag_55:\n    /* \"#utility.yul\":2843:2917   */\n  swap2\n  pop\n    /* \"#utility.yul\":2926:3019   */\n  tag_56\n    /* \"#utility.yul\":3015:3018   */\n  dup3\n    /* \"#utility.yul\":2926:3019   */\n  tag_27\n  jump\t// in\ntag_56:\n    /* \"#utility.yul\":3044:3046   */\n  0x20\n    /* \"#utility.yul\":3039:3042   */\n  dup3\n    /* \"#utility.yul\":3035:3047   */\n  add\n    /* \"#utility.yul\":3028:3047   */\n  swap1\n  pop\n    /* \"#utility.yul\":2687:3053   */\n  swap2\n  swap1\n  pop\n  jump\t// out\n    /* \"#utility.yul\":3059:3478   */\ntag_12:\n    /* \"#utility.yul\":3225:3229   */\n  0x00\n    /* \"#utility.yul\":3263:3265   */\n  0x20\n    /* \"#utility.yul\":3252:3261   */\n  dup3\n    /* \"#utility.yul\":3248:3266   */\n  add\n    /* \"#utility.yul\":3240:3266   */\n  swap1\n  pop\n    /* \"#utility.yul\":3312:3321   */\n  dup2\n    /* \"#utility.yul\":3306:3310   */\n  dup2\n    /* \"#utility.yul\":3302:3322   */\n  sub\n    /* \"#utility.yul\":3298:3299   */\n  0x00\n    /* \"#utility.yul\":3287:3296   */\n  dup4\n    /* \"#utility.yul\":3283:3300   */\n  add\n    /* \"#utility.yul\":3276:3323   */\n  mstore\n    /* \"#utility.yul\":3340:3471   */\n  tag_58\n    /* \"#utility.yul\":3466:3470   */\n  dup2\n    /* \"#utility.yul\":3340:3471   */\n  tag_28\n  jump\t// in\ntag_58:\n    /* \"#utility.yul\":3332:3471   */\n  swap1\n  pop\n    /* \"#utility.yul\":3059:3478   */\n  swap2\n  swap1\n  pop\n  jump\t// out\n    /* \"contracts/DEX.sol\":458:12040  contract DEX {... */\ntag_16:\n  dataSize(sub_0)\n  dup1\n  dataOffset(sub_0)\n  0x00\n  codecopy\n  0x00\n  return\nstop\n\nsub_0: assembly {\n        /* \"contracts/DEX.sol\":458:12040  contract DEX {... */\n      mstore(0x40, 0x80)\n      callvalue\n      dup1\n      iszero\n      tag_1\n      jumpi\n      revert(0x00, 0x00)\n    tag_1:\n      pop\n      jumpi(tag_2, lt(calldatasize, 0x04))\n      shr(0xe0, calldataload(0x00))\n      dup1\n      0x5fcbd285\n      gt\n      tag_15\n      jumpi\n      dup1\n      0x5fcbd285\n      eq\n      tag_9\n      jumpi\n      dup1\n      0x9c8f9f23\n      eq\n      tag_10\n      jumpi\n      dup1\n      0x9cd441da\n      eq\n      tag_11\n      jumpi\n      dup1\n      0xd2656ddc\n      eq\n      tag_12\n      jumpi\n      dup1\n      0xdc5fa6c5\n      eq\n      tag_13\n      jumpi\n      dup1\n      0xe619a498\n      eq\n      tag_14\n      jumpi\n      jump(tag_2)\n    tag_15:\n      dup1\n      0x03102091\n      eq\n      tag_3\n      jumpi\n      dup1\n      0x0902f1ac\n      eq\n      tag_4\n      jumpi\n      dup1\n      0x0fc63d10\n      eq\n      tag_5\n      jumpi\n      dup1\n      0x19e36f3b\n      eq\n      tag_6\n      jumpi\n      dup1\n      0x398482d8\n      eq\n      tag_7\n      jumpi\n      dup1\n      0x5f64b55b\n      eq\n      tag_8\n      jumpi\n    tag_2:\n      revert(0x00, 0x00)\n        /* \"contracts/DEX.sol\":7463:9007  function swapAForB(uint256 amountAIn) external {... */\n    tag_3:\n      tag_16\n      0x04\n      dup1\n      calldatasize\n      sub\n      dup2\n      add\n      swap1\n      tag_17\n      swap2\n      swap1\n      tag_18\n      jump\t// in\n    tag_17:\n      tag_19\n      jump\t// in\n    tag_16:\n      stop\n        /* \"contracts/DEX.sol\":11081:11189  function getReserves() external view returns (uint256, uint256) {... */\n    tag_4:\n      tag_20\n      tag_21\n      jump\t// in\n    tag_20:\n      mload(0x40)\n      tag_22\n      swap3\n      swap2\n      swap1\n      tag_23\n      jump\t// in\n    tag_22:\n      mload(0x40)\n      dup1\n      swap2\n      sub\n      swap1\n      return\n        /* \"contracts/DEX.sol\":803:823  IERC20 public tokenA */\n    tag_5:\n      tag_24\n      tag_25\n      jump\t// in\n    tag_24:\n      mload(0x40)\n      tag_26\n      swap2\n      swap1\n      tag_27\n      jump\t// in\n    tag_26:\n      mload(0x40)\n      dup1\n      swap2\n      sub\n      swap1\n      return\n        /* \"contracts/DEX.sol\":1157:1180  uint256 public reserveB */\n    tag_6:\n      tag_28\n      tag_29\n      jump\t// in\n    tag_28:\n      mload(0x40)\n      tag_30\n      swap2\n      swap1\n      tag_31\n      jump\t// in\n    tag_30:\n      mload(0x40)\n      dup1\n      swap2\n      sub\n      swap1\n      return\n        /* \"contracts/DEX.sol\":11642:11798  function spotPrice() external view returns (uint256) {... */\n    tag_7:\n      tag_32\n      tag_33\n      jump\t// in\n    tag_32:\n      mload(0x40)\n      tag_34\n      swap2\n      swap1\n      tag_31\n      jump\t// in\n    tag_34:\n      mload(0x40)\n      dup1\n      swap2\n      sub\n      swap1\n      return\n        /* \"contracts/DEX.sol\":829:849  IERC20 public tokenB */\n    tag_8:\n      tag_35\n      tag_36\n      jump\t// in\n    tag_35:\n      mload(0x40)\n      tag_37\n      swap2\n      swap1\n      tag_27\n      jump\t// in\n    tag_37:\n      mload(0x40)\n      dup1\n      swap2\n      sub\n      swap1\n      return\n        /* \"contracts/DEX.sol\":1037:1059  LPToken public lpToken */\n    tag_9:\n      tag_38\n      tag_39\n      jump\t// in\n    tag_38:\n      mload(0x40)\n      tag_40\n      swap2\n      swap1\n      tag_41\n      jump\t// in\n    tag_40:\n      mload(0x40)\n      dup1\n      swap2\n      sub\n      swap1\n      return\n        /* \"contracts/DEX.sol\":5905:7154  function removeLiquidity(uint256 lpAmount) external {... */\n    tag_10:\n      tag_42\n      0x04\n      dup1\n      calldatasize\n      sub\n      dup2\n      add\n      swap1\n      tag_43\n      swap2\n      swap1\n      tag_18\n      jump\t// in\n    tag_43:\n      tag_44\n      jump\t// in\n    tag_42:\n      stop\n        /* \"contracts/DEX.sol\":3396:5587  function addLiquidity(uint256 amountA, uint256 amountB) external {... */\n    tag_11:\n      tag_45\n      0x04\n      dup1\n      calldatasize\n      sub\n      dup2\n      add\n      swap1\n      tag_46\n      swap2\n      swap1\n      tag_47\n      jump\t// in\n    tag_46:\n      tag_48\n      jump\t// in\n    tag_45:\n      stop\n        /* \"contracts/DEX.sol\":11875:12038  function spotPriceInverse() external view returns (uint256) {... */\n    tag_12:\n      tag_49\n      tag_50\n      jump\t// in\n    tag_49:\n      mload(0x40)\n      tag_51\n      swap2\n      swap1\n      tag_31\n      jump\t// in\n    tag_51:\n      mload(0x40)\n      dup1\n      swap2\n      sub\n      swap1\n      return\n        /* \"contracts/DEX.sol\":1128:1151  uint256 public reserveA */\n    tag_13:\n      tag_52\n      tag_53\n      jump\t// in\n    tag_52:\n      mload(0x40)\n      tag_54\n      swap2\n      swap1\n      tag_31\n      jump\t// in\n    tag_54:\n      mload(0x40)\n      dup1\n      swap2\n      sub\n      swap1\n      return\n        /* \"contracts/DEX.sol\":9333:10401  function swapBForA(uint256 amountBIn) external {... */\n    tag_14:\n      tag_55\n      0x04\n      dup1\n      calldatasize\n      sub\n      dup2\n      add\n      swap1\n      tag_56\n      swap2\n      swap1\n      tag_18\n      jump\t// in\n    tag_56:\n      tag_57\n      jump\t// in\n    tag_55:\n      stop\n        /* \"contracts/DEX.sol\":7463:9007  function swapAForB(uint256 amountAIn) external {... */\n    tag_19:\n        /* \"contracts/DEX.sol\":7597:7598  0 */\n      0x00\n        /* \"contracts/DEX.sol\":7585:7594  amountAIn */\n      dup2\n        /* \"contracts/DEX.sol\":7585:7598  amountAIn > 0 */\n      gt\n        /* \"contracts/DEX.sol\":7577:7632  require(amountAIn > 0, \"Amount must be greater than 0\") */\n      tag_59\n      jumpi\n      mload(0x40)\n      0x08c379a000000000000000000000000000000000000000000000000000000000\n      dup2\n      mstore\n      0x04\n      add\n      tag_60\n      swap1\n      tag_61\n      jump\t// in\n    tag_60:\n      mload(0x40)\n      dup1\n      swap2\n      sub\n      swap1\n      revert\n    tag_59:\n        /* \"contracts/DEX.sol\":7661:7662  0 */\n      0x00\n        /* \"contracts/DEX.sol\":7650:7658  reserveA */\n      sload(0x03)\n        /* \"contracts/DEX.sol\":7650:7662  reserveA > 0 */\n      gt\n        /* \"contracts/DEX.sol\":7650:7678  reserveA > 0 && reserveB > 0 */\n      dup1\n      iszero\n      tag_62\n      jumpi\n      pop\n        /* \"contracts/DEX.sol\":7677:7678  0 */\n      0x00\n        /* \"contracts/DEX.sol\":7666:7674  reserveB */\n      sload(0x04)\n        /* \"contracts/DEX.sol\":7666:7678  reserveB > 0 */\n      gt\n        /* \"contracts/DEX.sol\":7650:7678  reserveA > 0 && reserveB > 0 */\n    tag_62:\n        /* \"contracts/DEX.sol\":7642:7704  require(reserveA > 0 && reserveB > 0, \"Pool has no liquidity\") */\n      tag_63\n      jumpi\n      mload(0x40)\n      0x08c379a000000000000000000000000000000000000000000000000000000000\n      dup2\n      mstore\n      0x04\n      add\n      tag_64\n      swap1\n      tag_65\n      jump\t// in\n    tag_64:\n      mload(0x40)\n      dup1\n      swap2\n      sub\n      swap1\n      revert\n    tag_63:\n        /* \"contracts/DEX.sol\":7760:7784  uint256 amountAInWithFee */\n      0x00\n        /* \"contracts/DEX.sol\":1414:1417  997 */\n      0x03e5\n        /* \"contracts/DEX.sol\":7787:7796  amountAIn */\n      dup3\n        /* \"contracts/DEX.sol\":7787:7812  amountAIn * FEE_NUMERATOR */\n      tag_66\n      swap2\n      swap1\n      tag_67\n      jump\t// in\n    tag_66:\n        /* \"contracts/DEX.sol\":7760:7812  uint256 amountAInWithFee = amountAIn * FEE_NUMERATOR */\n      swap1\n      pop\n        /* \"contracts/DEX.sol\":8246:8264  uint256 amountBOut */\n      0x00\n        /* \"contracts/DEX.sol\":8341:8357  amountAInWithFee */\n      dup2\n        /* \"contracts/DEX.sol\":1458:1462  1000 */\n      0x03e8\n        /* \"contracts/DEX.sol\":8312:8320  reserveA */\n      sload(0x03)\n        /* \"contracts/DEX.sol\":8312:8338  reserveA * FEE_DENOMINATOR */\n      tag_68\n      swap2\n      swap1\n      tag_67\n      jump\t// in\n    tag_68:\n        /* \"contracts/DEX.sol\":8312:8357  reserveA * FEE_DENOMINATOR + amountAInWithFee */\n      tag_69\n      swap2\n      swap1\n      tag_70\n      jump\t// in\n    tag_69:\n        /* \"contracts/DEX.sol\":8279:8295  amountAInWithFee */\n      dup3\n        /* \"contracts/DEX.sol\":8268:8276  reserveB */\n      sload(0x04)\n        /* \"contracts/DEX.sol\":8268:8295  reserveB * amountAInWithFee */\n      tag_71\n      swap2\n      swap1\n      tag_67\n      jump\t// in\n    tag_71:\n        /* \"contracts/DEX.sol\":8267:8358  (reserveB * amountAInWithFee) /... */\n      tag_72\n      swap2\n      swap1\n      tag_73\n      jump\t// in\n    tag_72:\n        /* \"contracts/DEX.sol\":8246:8358  uint256 amountBOut = (reserveB * amountAInWithFee) /... */\n      swap1\n      pop\n        /* \"contracts/DEX.sol\":8447:8448  0 */\n      0x00\n        /* \"contracts/DEX.sol\":8434:8444  amountBOut */\n      dup2\n        /* \"contracts/DEX.sol\":8434:8448  amountBOut > 0 */\n      gt\n        /* \"contracts/DEX.sol\":8426:8479  require(amountBOut > 0, \"Insufficient output amount\") */\n      tag_74\n      jumpi\n      mload(0x40)\n      0x08c379a000000000000000000000000000000000000000000000000000000000\n      dup2\n      mstore\n      0x04\n      add\n      tag_75\n      swap1\n      tag_76\n      jump\t// in\n    tag_75:\n      mload(0x40)\n      dup1\n      swap2\n      sub\n      swap1\n      revert\n    tag_74:\n        /* \"contracts/DEX.sol\":8510:8518  reserveB */\n      sload(0x04)\n        /* \"contracts/DEX.sol\":8497:8507  amountBOut */\n      dup2\n        /* \"contracts/DEX.sol\":8497:8518  amountBOut < reserveB */\n      lt\n        /* \"contracts/DEX.sol\":8489:8550  require(amountBOut < reserveB, \"Insufficient pool liquidity\") */\n      tag_77\n      jumpi\n      mload(0x40)\n      0x08c379a000000000000000000000000000000000000000000000000000000000\n      dup2\n      mstore\n      0x04\n      add\n      tag_78\n      swap1\n      tag_79\n      jump\t// in\n    tag_78:\n      mload(0x40)\n      dup1\n      swap2\n      sub\n      swap1\n      revert\n    tag_77:\n        /* \"contracts/DEX.sol\":8596:8602  tokenA */\n      0x00\n      0x00\n      swap1\n      sload\n      swap1\n      0x0100\n      exp\n      swap1\n      div\n      0xffffffffffffffffffffffffffffffffffffffff\n      and\n        /* \"contracts/DEX.sol\":8596:8615  tokenA.transferFrom */\n      0xffffffffffffffffffffffffffffffffffffffff\n      and\n      0x23b872dd\n        /* \"contracts/DEX.sol\":8616:8626  msg.sender */\n      caller\n        /* \"contracts/DEX.sol\":8636:8640  this */\n      address\n        /* \"contracts/DEX.sol\":8643:8652  amountAIn */\n      dup7\n        /* \"contracts/DEX.sol\":8596:8653  tokenA.transferFrom(msg.sender, address(this), amountAIn) */\n      mload(0x40)\n      dup5\n      0xffffffff\n      and\n      0xe0\n      shl\n      dup2\n      mstore\n      0x04\n      add\n      tag_80\n      swap4\n      swap3\n      swap2\n      swap1\n      tag_81\n      jump\t// in\n    tag_80:\n      0x20\n      mload(0x40)\n      dup1\n      dup4\n      sub\n      dup2\n      0x00\n      dup8\n      gas\n      call\n      iszero\n      dup1\n      iszero\n      tag_83\n      jumpi\n      returndatacopy(0x00, 0x00, returndatasize)\n      revert(0x00, returndatasize)\n    tag_83:\n      pop\n      pop\n      pop\n      pop\n      mload(0x40)\n      returndatasize\n      not(0x1f)\n      0x1f\n      dup3\n      add\n      and\n      dup3\n      add\n      dup1\n      0x40\n      mstore\n      pop\n      dup2\n      add\n      swap1\n      tag_84\n      swap2\n      swap1\n      tag_85\n      jump\t// in\n    tag_84:\n      pop\n        /* \"contracts/DEX.sol\":8804:8813  amountAIn */\n      dup3\n        /* \"contracts/DEX.sol\":8792:8800  reserveA */\n      0x03\n      0x00\n        /* \"contracts/DEX.sol\":8792:8813  reserveA += amountAIn */\n      dup3\n      dup3\n      sload\n      tag_86\n      swap2\n      swap1\n      tag_70\n      jump\t// in\n    tag_86:\n      swap3\n      pop\n      pop\n      dup2\n      swap1\n      sstore\n      pop\n        /* \"contracts/DEX.sol\":8835:8845  amountBOut */\n      dup1\n        /* \"contracts/DEX.sol\":8823:8831  reserveB */\n      0x04\n      0x00\n        /* \"contracts/DEX.sol\":8823:8845  reserveB -= amountBOut */\n      dup3\n      dup3\n      sload\n      tag_87\n      swap2\n      swap1\n      tag_88\n      jump\t// in\n    tag_87:\n      swap3\n      pop\n      pop\n      dup2\n      swap1\n      sstore\n      pop\n        /* \"contracts/DEX.sol\":8889:8895  tokenB */\n      0x01\n      0x00\n      swap1\n      sload\n      swap1\n      0x0100\n      exp\n      swap1\n      div\n      0xffffffffffffffffffffffffffffffffffffffff\n      and\n        /* \"contracts/DEX.sol\":8889:8904  tokenB.transfer */\n      0xffffffffffffffffffffffffffffffffffffffff\n      and\n      0xa9059cbb\n        /* \"contracts/DEX.sol\":8905:8915  msg.sender */\n      caller\n        /* \"contracts/DEX.sol\":8917:8927  amountBOut */\n      dup4\n        /* \"contracts/DEX.sol\":8889:8928  tokenB.transfer(msg.sender, amountBOut) */\n      mload(0x40)\n      dup4\n      0xffffffff\n      and\n      0xe0\n      shl\n      dup2\n      mstore\n      0x04\n      add\n      tag_89\n      swap3\n      swap2\n      swap1\n      tag_90\n      jump\t// in\n    tag_89:\n      0x20\n      mload(0x40)\n      dup1\n      dup4\n      sub\n      dup2\n      0x00\n      dup8\n      gas\n      call\n      iszero\n      dup1\n      iszero\n      tag_92\n      jumpi\n      returndatacopy(0x00, 0x00, returndatasize)\n      revert(0x00, returndatasize)\n    tag_92:\n      pop\n      pop\n      pop\n      pop\n      mload(0x40)\n      returndatasize\n      not(0x1f)\n      0x1f\n      dup3\n      add\n      and\n      dup3\n      add\n      dup1\n      0x40\n      mstore\n      pop\n      dup2\n      add\n      swap1\n      tag_93\n      swap2\n      swap1\n      tag_85\n      jump\t// in\n    tag_93:\n      pop\n        /* \"contracts/DEX.sol\":8949:8959  msg.sender */\n      caller\n        /* \"contracts/DEX.sol\":8944:9000  Swap(msg.sender, address(tokenA), amountAIn, amountBOut) */\n      0xffffffffffffffffffffffffffffffffffffffff\n      and\n      0xfa2dda1cc1b86e41239702756b13effbc1a092b5c57e3ad320fbe4f3b13fe235\n        /* \"contracts/DEX.sol\":8969:8975  tokenA */\n      0x00\n      0x00\n      swap1\n      sload\n      swap1\n      0x0100\n      exp\n      swap1\n      div\n      0xffffffffffffffffffffffffffffffffffffffff\n      and\n        /* \"contracts/DEX.sol\":8978:8987  amountAIn */\n      dup6\n        /* \"contracts/DEX.sol\":8989:8999  amountBOut */\n      dup5\n        /* \"contracts/DEX.sol\":8944:9000  Swap(msg.sender, address(tokenA), amountAIn, amountBOut) */\n      mload(0x40)\n      tag_94\n      swap4\n      swap3\n      swap2\n      swap1\n      tag_95\n      jump\t// in\n    tag_94:\n      mload(0x40)\n      dup1\n      swap2\n      sub\n      swap1\n      log2\n        /* \"contracts/DEX.sol\":7510:9007  {... */\n      pop\n      pop\n        /* \"contracts/DEX.sol\":7463:9007  function swapAForB(uint256 amountAIn) external {... */\n      pop\n      jump\t// out\n        /* \"contracts/DEX.sol\":11081:11189  function getReserves() external view returns (uint256, uint256) {... */\n    tag_21:\n        /* \"contracts/DEX.sol\":11127:11134  uint256 */\n      0x00\n        /* \"contracts/DEX.sol\":11136:11143  uint256 */\n      0x00\n        /* \"contracts/DEX.sol\":11163:11171  reserveA */\n      sload(0x03)\n        /* \"contracts/DEX.sol\":11173:11181  reserveB */\n      sload(0x04)\n        /* \"contracts/DEX.sol\":11155:11182  return (reserveA, reserveB) */\n      swap2\n      pop\n      swap2\n      pop\n        /* \"contracts/DEX.sol\":11081:11189  function getReserves() external view returns (uint256, uint256) {... */\n      swap1\n      swap2\n      jump\t// out\n        /* \"contracts/DEX.sol\":803:823  IERC20 public tokenA */\n    tag_25:\n      0x00\n      0x00\n      swap1\n      sload\n      swap1\n      0x0100\n      exp\n      swap1\n      div\n      0xffffffffffffffffffffffffffffffffffffffff\n      and\n      dup2\n      jump\t// out\n        /* \"contracts/DEX.sol\":1157:1180  uint256 public reserveB */\n    tag_29:\n      sload(0x04)\n      dup2\n      jump\t// out\n        /* \"contracts/DEX.sol\":11642:11798  function spotPrice() external view returns (uint256) {... */\n    tag_33:\n        /* \"contracts/DEX.sol\":11686:11693  uint256 */\n      0x00\n        /* \"contracts/DEX.sol\":11724:11725  0 */\n      0x00\n        /* \"contracts/DEX.sol\":11713:11721  reserveA */\n      sload(0x03)\n        /* \"contracts/DEX.sol\":11713:11725  reserveA > 0 */\n      gt\n        /* \"contracts/DEX.sol\":11705:11742  require(reserveA > 0, \"No liquidity\") */\n      tag_98\n      jumpi\n      mload(0x40)\n      0x08c379a000000000000000000000000000000000000000000000000000000000\n      dup2\n      mstore\n      0x04\n      add\n      tag_99\n      swap1\n      tag_100\n      jump\t// in\n    tag_99:\n      mload(0x40)\n      dup1\n      swap2\n      sub\n      swap1\n      revert\n    tag_98:\n        /* \"contracts/DEX.sol\":11783:11791  reserveA */\n      sload(0x03)\n        /* \"contracts/DEX.sol\":11771:11779  10 ** 18 */\n      0x0de0b6b3a7640000\n        /* \"contracts/DEX.sol\":11760:11768  reserveB */\n      sload(0x04)\n        /* \"contracts/DEX.sol\":11760:11779  reserveB * 10 ** 18 */\n      tag_101\n      swap2\n      swap1\n      tag_67\n      jump\t// in\n    tag_101:\n        /* \"contracts/DEX.sol\":11759:11791  (reserveB * 10 ** 18) / reserveA */\n      tag_102\n      swap2\n      swap1\n      tag_73\n      jump\t// in\n    tag_102:\n        /* \"contracts/DEX.sol\":11752:11791  return (reserveB * 10 ** 18) / reserveA */\n      swap1\n      pop\n        /* \"contracts/DEX.sol\":11642:11798  function spotPrice() external view returns (uint256) {... */\n      swap1\n      jump\t// out\n        /* \"contracts/DEX.sol\":829:849  IERC20 public tokenB */\n    tag_36:\n      0x01\n      0x00\n      swap1\n      sload\n      swap1\n      0x0100\n      exp\n      swap1\n      div\n      0xffffffffffffffffffffffffffffffffffffffff\n      and\n      dup2\n      jump\t// out\n        /* \"contracts/DEX.sol\":1037:1059  LPToken public lpToken */\n    tag_39:\n      0x02\n      0x00\n      swap1\n      sload\n      swap1\n      0x0100\n      exp\n      swap1\n      div\n      0xffffffffffffffffffffffffffffffffffffffff\n      and\n      dup2\n      jump\t// out\n        /* \"contracts/DEX.sol\":5905:7154  function removeLiquidity(uint256 lpAmount) external {... */\n    tag_44:\n        /* \"contracts/DEX.sol\":6043:6044  0 */\n      0x00\n        /* \"contracts/DEX.sol\":6032:6040  lpAmount */\n      dup2\n        /* \"contracts/DEX.sol\":6032:6044  lpAmount > 0 */\n      gt\n        /* \"contracts/DEX.sol\":6024:6081  require(lpAmount > 0, \"LP amount must be greater than 0\") */\n      tag_104\n      jumpi\n      mload(0x40)\n      0x08c379a000000000000000000000000000000000000000000000000000000000\n      dup2\n      mstore\n      0x04\n      add\n      tag_105\n      swap1\n      tag_106\n      jump\t// in\n    tag_105:\n      mload(0x40)\n      dup1\n      swap2\n      sub\n      swap1\n      revert\n    tag_104:\n        /* \"contracts/DEX.sol\":6092:6108  uint256 lpSupply */\n      0x00\n        /* \"contracts/DEX.sol\":6111:6118  lpToken */\n      0x02\n      0x00\n      swap1\n      sload\n      swap1\n      0x0100\n      exp\n      swap1\n      div\n      0xffffffffffffffffffffffffffffffffffffffff\n      and\n        /* \"contracts/DEX.sol\":6111:6130  lpToken.totalSupply */\n      0xffffffffffffffffffffffffffffffffffffffff\n      and\n      0x18160ddd\n        /* \"contracts/DEX.sol\":6111:6132  lpToken.totalSupply() */\n      mload(0x40)\n      dup2\n      0xffffffff\n      and\n      0xe0\n      shl\n      dup2\n      mstore\n      0x04\n      add\n      0x20\n      mload(0x40)\n      dup1\n      dup4\n      sub\n      dup2\n      dup7\n      gas\n      staticcall\n      iszero\n      dup1\n      iszero\n      tag_108\n      jumpi\n      returndatacopy(0x00, 0x00, returndatasize)\n      revert(0x00, returndatasize)\n    tag_108:\n      pop\n      pop\n      pop\n      pop\n      mload(0x40)\n      returndatasize\n      not(0x1f)\n      0x1f\n      dup3\n      add\n      and\n      dup3\n      add\n      dup1\n      0x40\n      mstore\n      pop\n      dup2\n      add\n      swap1\n      tag_109\n      swap2\n      swap1\n      tag_110\n      jump\t// in\n    tag_109:\n        /* \"contracts/DEX.sol\":6092:6132  uint256 lpSupply = lpToken.totalSupply() */\n      swap1\n      pop\n        /* \"contracts/DEX.sol\":6161:6162  0 */\n      0x00\n        /* \"contracts/DEX.sol\":6150:6158  lpSupply */\n      dup2\n        /* \"contracts/DEX.sol\":6150:6162  lpSupply > 0 */\n      gt\n        /* \"contracts/DEX.sol\":6142:6187  require(lpSupply > 0, \"No liquidity in pool\") */\n      tag_111\n      jumpi\n      mload(0x40)\n      0x08c379a000000000000000000000000000000000000000000000000000000000\n      dup2\n      mstore\n      0x04\n      add\n      tag_112\n      swap1\n      tag_113\n      jump\t// in\n    tag_112:\n      mload(0x40)\n      dup1\n      swap2\n      sub\n      swap1\n      revert\n    tag_111:\n        /* \"contracts/DEX.sol\":6303:6318  uint256 amountA */\n      0x00\n        /* \"contracts/DEX.sol\":6345:6353  lpSupply */\n      dup2\n        /* \"contracts/DEX.sol\":6333:6341  reserveA */\n      sload(0x03)\n        /* \"contracts/DEX.sol\":6322:6330  lpAmount */\n      dup5\n        /* \"contracts/DEX.sol\":6322:6341  lpAmount * reserveA */\n      tag_114\n      swap2\n      swap1\n      tag_67\n      jump\t// in\n    tag_114:\n        /* \"contracts/DEX.sol\":6321:6353  (lpAmount * reserveA) / lpSupply */\n      tag_115\n      swap2\n      swap1\n      tag_73\n      jump\t// in\n    tag_115:\n        /* \"contracts/DEX.sol\":6303:6353  uint256 amountA = (lpAmount * reserveA) / lpSupply */\n      swap1\n      pop\n        /* \"contracts/DEX.sol\":6363:6378  uint256 amountB */\n      0x00\n        /* \"contracts/DEX.sol\":6405:6413  lpSupply */\n      dup3\n        /* \"contracts/DEX.sol\":6393:6401  reserveB */\n      sload(0x04)\n        /* \"contracts/DEX.sol\":6382:6390  lpAmount */\n      dup6\n        /* \"contracts/DEX.sol\":6382:6401  lpAmount * reserveB */\n      tag_116\n      swap2\n      swap1\n      tag_67\n      jump\t// in\n    tag_116:\n        /* \"contracts/DEX.sol\":6381:6413  (lpAmount * reserveB) / lpSupply */\n      tag_117\n      swap2\n      swap1\n      tag_73\n      jump\t// in\n    tag_117:\n        /* \"contracts/DEX.sol\":6363:6413  uint256 amountB = (lpAmount * reserveB) / lpSupply */\n      swap1\n      pop\n        /* \"contracts/DEX.sol\":6442:6443  0 */\n      0x00\n        /* \"contracts/DEX.sol\":6432:6439  amountA */\n      dup3\n        /* \"contracts/DEX.sol\":6432:6443  amountA > 0 */\n      gt\n        /* \"contracts/DEX.sol\":6432:6458  amountA > 0 && amountB > 0 */\n      dup1\n      iszero\n      tag_118\n      jumpi\n      pop\n        /* \"contracts/DEX.sol\":6457:6458  0 */\n      0x00\n        /* \"contracts/DEX.sol\":6447:6454  amountB */\n      dup2\n        /* \"contracts/DEX.sol\":6447:6458  amountB > 0 */\n      gt\n        /* \"contracts/DEX.sol\":6432:6458  amountA > 0 && amountB > 0 */\n    tag_118:\n        /* \"contracts/DEX.sol\":6424:6492  require(amountA > 0 && amountB > 0, \"Insufficient liquidity burned\") */\n      tag_119\n      jumpi\n      mload(0x40)\n      0x08c379a000000000000000000000000000000000000000000000000000000000\n      dup2\n      mstore\n      0x04\n      add\n      tag_120\n      swap1\n      tag_121\n      jump\t// in\n    tag_120:\n      mload(0x40)\n      dup1\n      swap2\n      sub\n      swap1\n      revert\n    tag_119:\n        /* \"contracts/DEX.sol\":6806:6813  lpToken */\n      0x02\n      0x00\n      swap1\n      sload\n      swap1\n      0x0100\n      exp\n      swap1\n      div\n      0xffffffffffffffffffffffffffffffffffffffff\n      and\n        /* \"contracts/DEX.sol\":6806:6818  lpToken.burn */\n      0xffffffffffffffffffffffffffffffffffffffff\n      and\n      0x9dc29fac\n        /* \"contracts/DEX.sol\":6819:6829  msg.sender */\n      caller\n        /* \"contracts/DEX.sol\":6831:6839  lpAmount */\n      dup7\n        /* \"contracts/DEX.sol\":6806:6840  lpToken.burn(msg.sender, lpAmount) */\n      mload(0x40)\n      dup4\n      0xffffffff\n      and\n      0xe0\n      shl\n      dup2\n      mstore\n      0x04\n      add\n      tag_122\n      swap3\n      swap2\n      swap1\n      tag_90\n      jump\t// in\n    tag_122:\n      0x00\n      mload(0x40)\n      dup1\n      dup4\n      sub\n      dup2\n      0x00\n      dup8\n      dup1\n      extcodesize\n      iszero\n      dup1\n      iszero\n      tag_123\n      jumpi\n      revert(0x00, 0x00)\n    tag_123:\n      pop\n      gas\n      call\n      iszero\n      dup1\n      iszero\n      tag_125\n      jumpi\n      returndatacopy(0x00, 0x00, returndatasize)\n      revert(0x00, returndatasize)\n    tag_125:\n      pop\n      pop\n      pop\n      pop\n        /* \"contracts/DEX.sol\":6902:6909  amountA */\n      dup2\n        /* \"contracts/DEX.sol\":6890:6898  reserveA */\n      0x03\n      0x00\n        /* \"contracts/DEX.sol\":6890:6909  reserveA -= amountA */\n      dup3\n      dup3\n      sload\n      tag_126\n      swap2\n      swap1\n      tag_88\n      jump\t// in\n    tag_126:\n      swap3\n      pop\n      pop\n      dup2\n      swap1\n      sstore\n      pop\n        /* \"contracts/DEX.sol\":6931:6938  amountB */\n      dup1\n        /* \"contracts/DEX.sol\":6919:6927  reserveB */\n      0x04\n      0x00\n        /* \"contracts/DEX.sol\":6919:6938  reserveB -= amountB */\n      dup3\n      dup3\n      sload\n      tag_127\n      swap2\n      swap1\n      tag_88\n      jump\t// in\n    tag_127:\n      swap3\n      pop\n      pop\n      dup2\n      swap1\n      sstore\n      pop\n        /* \"contracts/DEX.sol\":6993:6999  tokenA */\n      0x00\n      0x00\n      swap1\n      sload\n      swap1\n      0x0100\n      exp\n      swap1\n      div\n      0xffffffffffffffffffffffffffffffffffffffff\n      and\n        /* \"contracts/DEX.sol\":6993:7008  tokenA.transfer */\n      0xffffffffffffffffffffffffffffffffffffffff\n      and\n      0xa9059cbb\n        /* \"contracts/DEX.sol\":7009:7019  msg.sender */\n      caller\n        /* \"contracts/DEX.sol\":7021:7028  amountA */\n      dup5\n        /* \"contracts/DEX.sol\":6993:7029  tokenA.transfer(msg.sender, amountA) */\n      mload(0x40)\n      dup4\n      0xffffffff\n      and\n      0xe0\n      shl\n      dup2\n      mstore\n      0x04\n      add\n      tag_128\n      swap3\n      swap2\n      swap1\n      tag_90\n      jump\t// in\n    tag_128:\n      0x20\n      mload(0x40)\n      dup1\n      dup4\n      sub\n      dup2\n      0x00\n      dup8\n      gas\n      call\n      iszero\n      dup1\n      iszero\n      tag_130\n      jumpi\n      returndatacopy(0x00, 0x00, returndatasize)\n      revert(0x00, returndatasize)\n    tag_130:\n      pop\n      pop\n      pop\n      pop\n      mload(0x40)\n      returndatasize\n      not(0x1f)\n      0x1f\n      dup3\n      add\n      and\n      dup3\n      add\n      dup1\n      0x40\n      mstore\n      pop\n      dup2\n      add\n      swap1\n      tag_131\n      swap2\n      swap1\n      tag_85\n      jump\t// in\n    tag_131:\n      pop\n        /* \"contracts/DEX.sol\":7039:7045  tokenB */\n      0x01\n      0x00\n      swap1\n      sload\n      swap1\n      0x0100\n      exp\n      swap1\n      div\n      0xffffffffffffffffffffffffffffffffffffffff\n      and\n        /* \"contracts/DEX.sol\":7039:7054  tokenB.transfer */\n      0xffffffffffffffffffffffffffffffffffffffff\n      and\n      0xa9059cbb\n        /* \"contracts/DEX.sol\":7055:7065  msg.sender */\n      caller\n        /* \"contracts/DEX.sol\":7067:7074  amountB */\n      dup4\n        /* \"contracts/DEX.sol\":7039:7075  tokenB.transfer(msg.sender, amountB) */\n      mload(0x40)\n      dup4\n      0xffffffff\n      and\n      0xe0\n      shl\n      dup2\n      mstore\n      0x04\n      add\n      tag_132\n      swap3\n      swap2\n      swap1\n      tag_90\n      jump\t// in\n    tag_132:\n      0x20\n      mload(0x40)\n      dup1\n      dup4\n      sub\n      dup2\n      0x00\n      dup8\n      gas\n      call\n      iszero\n      dup1\n      iszero\n      tag_134\n      jumpi\n      returndatacopy(0x00, 0x00, returndatasize)\n      revert(0x00, returndatasize)\n    tag_134:\n      pop\n      pop\n      pop\n      pop\n      mload(0x40)\n      returndatasize\n      not(0x1f)\n      0x1f\n      dup3\n      add\n      and\n      dup3\n      add\n      dup1\n      0x40\n      mstore\n      pop\n      dup2\n      add\n      swap1\n      tag_135\n      swap2\n      swap1\n      tag_85\n      jump\t// in\n    tag_135:\n      pop\n        /* \"contracts/DEX.sol\":7108:7118  msg.sender */\n      caller\n        /* \"contracts/DEX.sol\":7091:7147  LiquidityRemoved(msg.sender, amountA, amountB, lpAmount) */\n      0xffffffffffffffffffffffffffffffffffffffff\n      and\n      0x1dc8bb69df2b8e91fbdcbfcf93d951b3f0000f085a95fe3f7946d6161439245d\n        /* \"contracts/DEX.sol\":7120:7127  amountA */\n      dup4\n        /* \"contracts/DEX.sol\":7129:7136  amountB */\n      dup4\n        /* \"contracts/DEX.sol\":7138:7146  lpAmount */\n      dup8\n        /* \"contracts/DEX.sol\":7091:7147  LiquidityRemoved(msg.sender, amountA, amountB, lpAmount) */\n      mload(0x40)\n      tag_136\n      swap4\n      swap3\n      swap2\n      swap1\n      tag_137\n      jump\t// in\n    tag_136:\n      mload(0x40)\n      dup1\n      swap2\n      sub\n      swap1\n      log2\n        /* \"contracts/DEX.sol\":5957:7154  {... */\n      pop\n      pop\n      pop\n        /* \"contracts/DEX.sol\":5905:7154  function removeLiquidity(uint256 lpAmount) external {... */\n      pop\n      jump\t// out\n        /* \"contracts/DEX.sol\":3396:5587  function addLiquidity(uint256 amountA, uint256 amountB) external {... */\n    tag_48:\n        /* \"contracts/DEX.sol\":3552:3553  0 */\n      0x00\n        /* \"contracts/DEX.sol\":3542:3549  amountA */\n      dup3\n        /* \"contracts/DEX.sol\":3542:3553  amountA > 0 */\n      gt\n        /* \"contracts/DEX.sol\":3542:3568  amountA > 0 && amountB > 0 */\n      dup1\n      iszero\n      tag_139\n      jumpi\n      pop\n        /* \"contracts/DEX.sol\":3567:3568  0 */\n      0x00\n        /* \"contracts/DEX.sol\":3557:3564  amountB */\n      dup2\n        /* \"contracts/DEX.sol\":3557:3568  amountB > 0 */\n      gt\n        /* \"contracts/DEX.sol\":3542:3568  amountA > 0 && amountB > 0 */\n    tag_139:\n        /* \"contracts/DEX.sol\":3534:3603  require(amountA > 0 && amountB > 0, \"Amounts must be greater than 0\") */\n      tag_140\n      jumpi\n      mload(0x40)\n      0x08c379a000000000000000000000000000000000000000000000000000000000\n      dup2\n      mstore\n      0x04\n      add\n      tag_141\n      swap1\n      tag_142\n      jump\t// in\n    tag_141:\n      mload(0x40)\n      dup1\n      swap2\n      sub\n      swap1\n      revert\n    tag_140:\n        /* \"contracts/DEX.sol\":4115:4116  0 */\n      0x00\n        /* \"contracts/DEX.sol\":4104:4112  reserveA */\n      sload(0x03)\n        /* \"contracts/DEX.sol\":4104:4116  reserveA > 0 */\n      gt\n        /* \"contracts/DEX.sol\":4104:4132  reserveA > 0 && reserveB > 0 */\n      dup1\n      iszero\n      tag_143\n      jumpi\n      pop\n        /* \"contracts/DEX.sol\":4131:4132  0 */\n      0x00\n        /* \"contracts/DEX.sol\":4120:4128  reserveB */\n      sload(0x04)\n        /* \"contracts/DEX.sol\":4120:4132  reserveB > 0 */\n      gt\n        /* \"contracts/DEX.sol\":4104:4132  reserveA > 0 && reserveB > 0 */\n    tag_143:\n        /* \"contracts/DEX.sol\":4100:4291  if (reserveA > 0 && reserveB > 0) {... */\n      iszero\n      tag_144\n      jumpi\n        /* \"contracts/DEX.sol\":4205:4213  reserveA */\n      sload(0x03)\n        /* \"contracts/DEX.sol\":4195:4202  amountB */\n      dup2\n        /* \"contracts/DEX.sol\":4195:4213  amountB * reserveA */\n      tag_145\n      swap2\n      swap1\n      tag_67\n      jump\t// in\n    tag_145:\n        /* \"contracts/DEX.sol\":4183:4191  reserveB */\n      sload(0x04)\n        /* \"contracts/DEX.sol\":4173:4180  amountA */\n      dup4\n        /* \"contracts/DEX.sol\":4173:4191  amountA * reserveB */\n      tag_146\n      swap2\n      swap1\n      tag_67\n      jump\t// in\n    tag_146:\n        /* \"contracts/DEX.sol\":4173:4213  amountA * reserveB == amountB * reserveA */\n      eq\n        /* \"contracts/DEX.sol\":4148:4280  require(... */\n      tag_147\n      jumpi\n      mload(0x40)\n      0x08c379a000000000000000000000000000000000000000000000000000000000\n      dup2\n      mstore\n      0x04\n      add\n      tag_148\n      swap1\n      tag_149\n      jump\t// in\n    tag_148:\n      mload(0x40)\n      dup1\n      swap2\n      sub\n      swap1\n      revert\n    tag_147:\n        /* \"contracts/DEX.sol\":4100:4291  if (reserveA > 0 && reserveB > 0) {... */\n    tag_144:\n        /* \"contracts/DEX.sol\":4427:4433  tokenA */\n      0x00\n      0x00\n      swap1\n      sload\n      swap1\n      0x0100\n      exp\n      swap1\n      div\n      0xffffffffffffffffffffffffffffffffffffffff\n      and\n        /* \"contracts/DEX.sol\":4427:4446  tokenA.transferFrom */\n      0xffffffffffffffffffffffffffffffffffffffff\n      and\n      0x23b872dd\n        /* \"contracts/DEX.sol\":4447:4457  msg.sender */\n      caller\n        /* \"contracts/DEX.sol\":4467:4471  this */\n      address\n        /* \"contracts/DEX.sol\":4474:4481  amountA */\n      dup6\n        /* \"contracts/DEX.sol\":4427:4482  tokenA.transferFrom(msg.sender, address(this), amountA) */\n      mload(0x40)\n      dup5\n      0xffffffff\n      and\n      0xe0\n      shl\n      dup2\n      mstore\n      0x04\n      add\n      tag_150\n      swap4\n      swap3\n      swap2\n      swap1\n      tag_81\n      jump\t// in\n    tag_150:\n      0x20\n      mload(0x40)\n      dup1\n      dup4\n      sub\n      dup2\n      0x00\n      dup8\n      gas\n      call\n      iszero\n      dup1\n      iszero\n      tag_152\n      jumpi\n      returndatacopy(0x00, 0x00, returndatasize)\n      revert(0x00, returndatasize)\n    tag_152:\n      pop\n      pop\n      pop\n      pop\n      mload(0x40)\n      returndatasize\n      not(0x1f)\n      0x1f\n      dup3\n      add\n      and\n      dup3\n      add\n      dup1\n      0x40\n      mstore\n      pop\n      dup2\n      add\n      swap1\n      tag_153\n      swap2\n      swap1\n      tag_85\n      jump\t// in\n    tag_153:\n      pop\n        /* \"contracts/DEX.sol\":4492:4498  tokenB */\n      0x01\n      0x00\n      swap1\n      sload\n      swap1\n      0x0100\n      exp\n      swap1\n      div\n      0xffffffffffffffffffffffffffffffffffffffff\n      and\n        /* \"contracts/DEX.sol\":4492:4511  tokenB.transferFrom */\n      0xffffffffffffffffffffffffffffffffffffffff\n      and\n      0x23b872dd\n        /* \"contracts/DEX.sol\":4512:4522  msg.sender */\n      caller\n        /* \"contracts/DEX.sol\":4532:4536  this */\n      address\n        /* \"contracts/DEX.sol\":4539:4546  amountB */\n      dup5\n        /* \"contracts/DEX.sol\":4492:4547  tokenB.transferFrom(msg.sender, address(this), amountB) */\n      mload(0x40)\n      dup5\n      0xffffffff\n      and\n      0xe0\n      shl\n      dup2\n      mstore\n      0x04\n      add\n      tag_154\n      swap4\n      swap3\n      swap2\n      swap1\n      tag_81\n      jump\t// in\n    tag_154:\n      0x20\n      mload(0x40)\n      dup1\n      dup4\n      sub\n      dup2\n      0x00\n      dup8\n      gas\n      call\n      iszero\n      dup1\n      iszero\n      tag_156\n      jumpi\n      returndatacopy(0x00, 0x00, returndatasize)\n      revert(0x00, returndatasize)\n    tag_156:\n      pop\n      pop\n      pop\n      pop\n      mload(0x40)\n      returndatasize\n      not(0x1f)\n      0x1f\n      dup3\n      add\n      and\n      dup3\n      add\n      dup1\n      0x40\n      mstore\n      pop\n      dup2\n      add\n      swap1\n      tag_157\n      swap2\n      swap1\n      tag_85\n      jump\t// in\n    tag_157:\n      pop\n        /* \"contracts/DEX.sol\":4611:4627  uint256 lpSupply */\n      0x00\n        /* \"contracts/DEX.sol\":4630:4637  lpToken */\n      0x02\n      0x00\n      swap1\n      sload\n      swap1\n      0x0100\n      exp\n      swap1\n      div\n      0xffffffffffffffffffffffffffffffffffffffff\n      and\n        /* \"contracts/DEX.sol\":4630:4649  lpToken.totalSupply */\n      0xffffffffffffffffffffffffffffffffffffffff\n      and\n      0x18160ddd\n        /* \"contracts/DEX.sol\":4630:4651  lpToken.totalSupply() */\n      mload(0x40)\n      dup2\n      0xffffffff\n      and\n      0xe0\n      shl\n      dup2\n      mstore\n      0x04\n      add\n      0x20\n      mload(0x40)\n      dup1\n      dup4\n      sub\n      dup2\n      dup7\n      gas\n      staticcall\n      iszero\n      dup1\n      iszero\n      tag_159\n      jumpi\n      returndatacopy(0x00, 0x00, returndatasize)\n      revert(0x00, returndatasize)\n    tag_159:\n      pop\n      pop\n      pop\n      pop\n      mload(0x40)\n      returndatasize\n      not(0x1f)\n      0x1f\n      dup3\n      add\n      and\n      dup3\n      add\n      dup1\n      0x40\n      mstore\n      pop\n      dup2\n      add\n      swap1\n      tag_160\n      swap2\n      swap1\n      tag_110\n      jump\t// in\n    tag_160:\n        /* \"contracts/DEX.sol\":4611:4651  uint256 lpSupply = lpToken.totalSupply() */\n      swap1\n      pop\n        /* \"contracts/DEX.sol\":4661:4677  uint256 lpToMint */\n      0x00\n        /* \"contracts/DEX.sol\":4704:4705  0 */\n      0x00\n        /* \"contracts/DEX.sol\":4692:4700  lpSupply */\n      dup3\n        /* \"contracts/DEX.sol\":4692:4705  lpSupply == 0 */\n      sub\n        /* \"contracts/DEX.sol\":4688:5310  if (lpSupply == 0) {... */\n      tag_161\n      jumpi\n        /* \"contracts/DEX.sol\":4908:4923  1000 * 10 ** 18 */\n      0x3635c9adc5dea00000\n        /* \"contracts/DEX.sol\":4897:4923  lpToMint = 1000 * 10 ** 18 */\n      swap1\n      pop\n        /* \"contracts/DEX.sol\":4688:5310  if (lpSupply == 0) {... */\n      jump(tag_162)\n    tag_161:\n        /* \"contracts/DEX.sol\":5291:5299  reserveA */\n      sload(0x03)\n        /* \"contracts/DEX.sol\":5279:5287  lpSupply */\n      dup3\n        /* \"contracts/DEX.sol\":5269:5276  amountA */\n      dup6\n        /* \"contracts/DEX.sol\":5269:5287  amountA * lpSupply */\n      tag_163\n      swap2\n      swap1\n      tag_67\n      jump\t// in\n    tag_163:\n        /* \"contracts/DEX.sol\":5268:5299  (amountA * lpSupply) / reserveA */\n      tag_164\n      swap2\n      swap1\n      tag_73\n      jump\t// in\n    tag_164:\n        /* \"contracts/DEX.sol\":5257:5299  lpToMint = (amountA * lpSupply) / reserveA */\n      swap1\n      pop\n        /* \"contracts/DEX.sol\":4688:5310  if (lpSupply == 0) {... */\n    tag_162:\n        /* \"contracts/DEX.sol\":5386:5393  amountA */\n      dup4\n        /* \"contracts/DEX.sol\":5374:5382  reserveA */\n      0x03\n      0x00\n        /* \"contracts/DEX.sol\":5374:5393  reserveA += amountA */\n      dup3\n      dup3\n      sload\n      tag_165\n      swap2\n      swap1\n      tag_70\n      jump\t// in\n    tag_165:\n      swap3\n      pop\n      pop\n      dup2\n      swap1\n      sstore\n      pop\n        /* \"contracts/DEX.sol\":5415:5422  amountB */\n      dup3\n        /* \"contracts/DEX.sol\":5403:5411  reserveB */\n      0x04\n      0x00\n        /* \"contracts/DEX.sol\":5403:5422  reserveB += amountB */\n      dup3\n      dup3\n      sload\n      tag_166\n      swap2\n      swap1\n      tag_70\n      jump\t// in\n    tag_166:\n      swap3\n      pop\n      pop\n      dup2\n      swap1\n      sstore\n      pop\n        /* \"contracts/DEX.sol\":5476:5483  lpToken */\n      0x02\n      0x00\n      swap1\n      sload\n      swap1\n      0x0100\n      exp\n      swap1\n      div\n      0xffffffffffffffffffffffffffffffffffffffff\n      and\n        /* \"contracts/DEX.sol\":5476:5488  lpToken.mint */\n      0xffffffffffffffffffffffffffffffffffffffff\n      and\n      0x40c10f19\n        /* \"contracts/DEX.sol\":5489:5499  msg.sender */\n      caller\n        /* \"contracts/DEX.sol\":5501:5509  lpToMint */\n      dup4\n        /* \"contracts/DEX.sol\":5476:5510  lpToken.mint(msg.sender, lpToMint) */\n      mload(0x40)\n      dup4\n      0xffffffff\n      and\n      0xe0\n      shl\n      dup2\n      mstore\n      0x04\n      add\n      tag_167\n      swap3\n      swap2\n      swap1\n      tag_90\n      jump\t// in\n    tag_167:\n      0x00\n      mload(0x40)\n      dup1\n      dup4\n      sub\n      dup2\n      0x00\n      dup8\n      dup1\n      extcodesize\n      iszero\n      dup1\n      iszero\n      tag_168\n      jumpi\n      revert(0x00, 0x00)\n    tag_168:\n      pop\n      gas\n      call\n      iszero\n      dup1\n      iszero\n      tag_170\n      jumpi\n      returndatacopy(0x00, 0x00, returndatasize)\n      revert(0x00, returndatasize)\n    tag_170:\n      pop\n      pop\n      pop\n      pop\n        /* \"contracts/DEX.sol\":5541:5551  msg.sender */\n      caller\n        /* \"contracts/DEX.sol\":5526:5580  LiquidityAdded(msg.sender, amountA, amountB, lpToMint) */\n      0xffffffffffffffffffffffffffffffffffffffff\n      and\n      0x64b83944e79c3ce8d4c297411de637c3e102d064677aac0c163976ebdcd6f50e\n        /* \"contracts/DEX.sol\":5553:5560  amountA */\n      dup6\n        /* \"contracts/DEX.sol\":5562:5569  amountB */\n      dup6\n        /* \"contracts/DEX.sol\":5571:5579  lpToMint */\n      dup5\n        /* \"contracts/DEX.sol\":5526:5580  LiquidityAdded(msg.sender, amountA, amountB, lpToMint) */\n      mload(0x40)\n      tag_171\n      swap4\n      swap3\n      swap2\n      swap1\n      tag_137\n      jump\t// in\n    tag_171:\n      mload(0x40)\n      dup1\n      swap2\n      sub\n      swap1\n      log2\n        /* \"contracts/DEX.sol\":3461:5587  {... */\n      pop\n      pop\n        /* \"contracts/DEX.sol\":3396:5587  function addLiquidity(uint256 amountA, uint256 amountB) external {... */\n      pop\n      pop\n      jump\t// out\n        /* \"contracts/DEX.sol\":11875:12038  function spotPriceInverse() external view returns (uint256) {... */\n    tag_50:\n        /* \"contracts/DEX.sol\":11926:11933  uint256 */\n      0x00\n        /* \"contracts/DEX.sol\":11964:11965  0 */\n      0x00\n        /* \"contracts/DEX.sol\":11953:11961  reserveB */\n      sload(0x04)\n        /* \"contracts/DEX.sol\":11953:11965  reserveB > 0 */\n      gt\n        /* \"contracts/DEX.sol\":11945:11982  require(reserveB > 0, \"No liquidity\") */\n      tag_173\n      jumpi\n      mload(0x40)\n      0x08c379a000000000000000000000000000000000000000000000000000000000\n      dup2\n      mstore\n      0x04\n      add\n      tag_174\n      swap1\n      tag_100\n      jump\t// in\n    tag_174:\n      mload(0x40)\n      dup1\n      swap2\n      sub\n      swap1\n      revert\n    tag_173:\n        /* \"contracts/DEX.sol\":12023:12031  reserveB */\n      sload(0x04)\n        /* \"contracts/DEX.sol\":12011:12019  10 ** 18 */\n      0x0de0b6b3a7640000\n        /* \"contracts/DEX.sol\":12000:12008  reserveA */\n      sload(0x03)\n        /* \"contracts/DEX.sol\":12000:12019  reserveA * 10 ** 18 */\n      tag_175\n      swap2\n      swap1\n      tag_67\n      jump\t// in\n    tag_175:\n        /* \"contracts/DEX.sol\":11999:12031  (reserveA * 10 ** 18) / reserveB */\n      tag_176\n      swap2\n      swap1\n      tag_73\n      jump\t// in\n    tag_176:\n        /* \"contracts/DEX.sol\":11992:12031  return (reserveA * 10 ** 18) / reserveB */\n      swap1\n      pop\n        /* \"contracts/DEX.sol\":11875:12038  function spotPriceInverse() external view returns (uint256) {... */\n      swap1\n      jump\t// out\n        /* \"contracts/DEX.sol\":1128:1151  uint256 public reserveA */\n    tag_53:\n      sload(0x03)\n      dup2\n      jump\t// out\n        /* \"contracts/DEX.sol\":9333:10401  function swapBForA(uint256 amountBIn) external {... */\n    tag_57:\n        /* \"contracts/DEX.sol\":9467:9468  0 */\n      0x00\n        /* \"contracts/DEX.sol\":9455:9464  amountBIn */\n      dup2\n        /* \"contracts/DEX.sol\":9455:9468  amountBIn > 0 */\n      gt\n        /* \"contracts/DEX.sol\":9447:9502  require(amountBIn > 0, \"Amount must be greater than 0\") */\n      tag_178\n      jumpi\n      mload(0x40)\n      0x08c379a000000000000000000000000000000000000000000000000000000000\n      dup2\n      mstore\n      0x04\n      add\n      tag_179\n      swap1\n      tag_61\n      jump\t// in\n    tag_179:\n      mload(0x40)\n      dup1\n      swap2\n      sub\n      swap1\n      revert\n    tag_178:\n        /* \"contracts/DEX.sol\":9531:9532  0 */\n      0x00\n        /* \"contracts/DEX.sol\":9520:9528  reserveA */\n      sload(0x03)\n        /* \"contracts/DEX.sol\":9520:9532  reserveA > 0 */\n      gt\n        /* \"contracts/DEX.sol\":9520:9548  reserveA > 0 && reserveB > 0 */\n      dup1\n      iszero\n      tag_180\n      jumpi\n      pop\n        /* \"contracts/DEX.sol\":9547:9548  0 */\n      0x00\n        /* \"contracts/DEX.sol\":9536:9544  reserveB */\n      sload(0x04)\n        /* \"contracts/DEX.sol\":9536:9548  reserveB > 0 */\n      gt\n        /* \"contracts/DEX.sol\":9520:9548  reserveA > 0 && reserveB > 0 */\n    tag_180:\n        /* \"contracts/DEX.sol\":9512:9574  require(reserveA > 0 && reserveB > 0, \"Pool has no liquidity\") */\n      tag_181\n      jumpi\n      mload(0x40)\n      0x08c379a000000000000000000000000000000000000000000000000000000000\n      dup2\n      mstore\n      0x04\n      add\n      tag_182\n      swap1\n      tag_65\n      jump\t// in\n    tag_182:\n      mload(0x40)\n      dup1\n      swap2\n      sub\n      swap1\n      revert\n    tag_181:\n        /* \"contracts/DEX.sol\":9642:9666  uint256 amountBInWithFee */\n      0x00\n        /* \"contracts/DEX.sol\":1414:1417  997 */\n      0x03e5\n        /* \"contracts/DEX.sol\":9669:9678  amountBIn */\n      dup3\n        /* \"contracts/DEX.sol\":9669:9694  amountBIn * FEE_NUMERATOR */\n      tag_183\n      swap2\n      swap1\n      tag_67\n      jump\t// in\n    tag_183:\n        /* \"contracts/DEX.sol\":9642:9694  uint256 amountBInWithFee = amountBIn * FEE_NUMERATOR */\n      swap1\n      pop\n        /* \"contracts/DEX.sol\":9782:9800  uint256 amountAOut */\n      0x00\n        /* \"contracts/DEX.sol\":9877:9893  amountBInWithFee */\n      dup2\n        /* \"contracts/DEX.sol\":1458:1462  1000 */\n      0x03e8\n        /* \"contracts/DEX.sol\":9848:9856  reserveB */\n      sload(0x04)\n        /* \"contracts/DEX.sol\":9848:9874  reserveB * FEE_DENOMINATOR */\n      tag_184\n      swap2\n      swap1\n      tag_67\n      jump\t// in\n    tag_184:\n        /* \"contracts/DEX.sol\":9848:9893  reserveB * FEE_DENOMINATOR + amountBInWithFee */\n      tag_185\n      swap2\n      swap1\n      tag_70\n      jump\t// in\n    tag_185:\n        /* \"contracts/DEX.sol\":9815:9831  amountBInWithFee */\n      dup3\n        /* \"contracts/DEX.sol\":9804:9812  reserveA */\n      sload(0x03)\n        /* \"contracts/DEX.sol\":9804:9831  reserveA * amountBInWithFee */\n      tag_186\n      swap2\n      swap1\n      tag_67\n      jump\t// in\n    tag_186:\n        /* \"contracts/DEX.sol\":9803:9894  (reserveA * amountBInWithFee) /... */\n      tag_187\n      swap2\n      swap1\n      tag_73\n      jump\t// in\n    tag_187:\n        /* \"contracts/DEX.sol\":9782:9894  uint256 amountAOut = (reserveA * amountBInWithFee) /... */\n      swap1\n      pop\n        /* \"contracts/DEX.sol\":9983:9984  0 */\n      0x00\n        /* \"contracts/DEX.sol\":9970:9980  amountAOut */\n      dup2\n        /* \"contracts/DEX.sol\":9970:9984  amountAOut > 0 */\n      gt\n        /* \"contracts/DEX.sol\":9962:10015  require(amountAOut > 0, \"Insufficient output amount\") */\n      tag_188\n      jumpi\n      mload(0x40)\n      0x08c379a000000000000000000000000000000000000000000000000000000000\n      dup2\n      mstore\n      0x04\n      add\n      tag_189\n      swap1\n      tag_76\n      jump\t// in\n    tag_189:\n      mload(0x40)\n      dup1\n      swap2\n      sub\n      swap1\n      revert\n    tag_188:\n        /* \"contracts/DEX.sol\":10046:10054  reserveA */\n      sload(0x03)\n        /* \"contracts/DEX.sol\":10033:10043  amountAOut */\n      dup2\n        /* \"contracts/DEX.sol\":10033:10054  amountAOut < reserveA */\n      lt\n        /* \"contracts/DEX.sol\":10025:10086  require(amountAOut < reserveA, \"Insufficient pool liquidity\") */\n      tag_190\n      jumpi\n      mload(0x40)\n      0x08c379a000000000000000000000000000000000000000000000000000000000\n      dup2\n      mstore\n      0x04\n      add\n      tag_191\n      swap1\n      tag_79\n      jump\t// in\n    tag_191:\n      mload(0x40)\n      dup1\n      swap2\n      sub\n      swap1\n      revert\n    tag_190:\n        /* \"contracts/DEX.sol\":10097:10103  tokenB */\n      0x01\n      0x00\n      swap1\n      sload\n      swap1\n      0x0100\n      exp\n      swap1\n      div\n      0xffffffffffffffffffffffffffffffffffffffff\n      and\n        /* \"contracts/DEX.sol\":10097:10116  tokenB.transferFrom */\n      0xffffffffffffffffffffffffffffffffffffffff\n      and\n      0x23b872dd\n        /* \"contracts/DEX.sol\":10117:10127  msg.sender */\n      caller\n        /* \"contracts/DEX.sol\":10137:10141  this */\n      address\n        /* \"contracts/DEX.sol\":10144:10153  amountBIn */\n      dup7\n        /* \"contracts/DEX.sol\":10097:10154  tokenB.transferFrom(msg.sender, address(this), amountBIn) */\n      mload(0x40)\n      dup5\n      0xffffffff\n      and\n      0xe0\n      shl\n      dup2\n      mstore\n      0x04\n      add\n      tag_192\n      swap4\n      swap3\n      swap2\n      swap1\n      tag_81\n      jump\t// in\n    tag_192:\n      0x20\n      mload(0x40)\n      dup1\n      dup4\n      sub\n      dup2\n      0x00\n      dup8\n      gas\n      call\n      iszero\n      dup1\n      iszero\n      tag_194\n      jumpi\n      returndatacopy(0x00, 0x00, returndatasize)\n      revert(0x00, returndatasize)\n    tag_194:\n      pop\n      pop\n      pop\n      pop\n      mload(0x40)\n      returndatasize\n      not(0x1f)\n      0x1f\n      dup3\n      add\n      and\n      dup3\n      add\n      dup1\n      0x40\n      mstore\n      pop\n      dup2\n      add\n      swap1\n      tag_195\n      swap2\n      swap1\n      tag_85\n      jump\t// in\n    tag_195:\n      pop\n        /* \"contracts/DEX.sol\":10231:10240  amountBIn */\n      dup3\n        /* \"contracts/DEX.sol\":10219:10227  reserveB */\n      0x04\n      0x00\n        /* \"contracts/DEX.sol\":10219:10240  reserveB += amountBIn */\n      dup3\n      dup3\n      sload\n      tag_196\n      swap2\n      swap1\n      tag_70\n      jump\t// in\n    tag_196:\n      swap3\n      pop\n      pop\n      dup2\n      swap1\n      sstore\n      pop\n        /* \"contracts/DEX.sol\":10262:10272  amountAOut */\n      dup1\n        /* \"contracts/DEX.sol\":10250:10258  reserveA */\n      0x03\n      0x00\n        /* \"contracts/DEX.sol\":10250:10272  reserveA -= amountAOut */\n      dup3\n      dup3\n      sload\n      tag_197\n      swap2\n      swap1\n      tag_88\n      jump\t// in\n    tag_197:\n      swap3\n      pop\n      pop\n      dup2\n      swap1\n      sstore\n      pop\n        /* \"contracts/DEX.sol\":10283:10289  tokenA */\n      0x00\n      0x00\n      swap1\n      sload\n      swap1\n      0x0100\n      exp\n      swap1\n      div\n      0xffffffffffffffffffffffffffffffffffffffff\n      and\n        /* \"contracts/DEX.sol\":10283:10298  tokenA.transfer */\n      0xffffffffffffffffffffffffffffffffffffffff\n      and\n      0xa9059cbb\n        /* \"contracts/DEX.sol\":10299:10309  msg.sender */\n      caller\n        /* \"contracts/DEX.sol\":10311:10321  amountAOut */\n      dup4\n        /* \"contracts/DEX.sol\":10283:10322  tokenA.transfer(msg.sender, amountAOut) */\n      mload(0x40)\n      dup4\n      0xffffffff\n      and\n      0xe0\n      shl\n      dup2\n      mstore\n      0x04\n      add\n      tag_198\n      swap3\n      swap2\n      swap1\n      tag_90\n      jump\t// in\n    tag_198:\n      0x20\n      mload(0x40)\n      dup1\n      dup4\n      sub\n      dup2\n      0x00\n      dup8\n      gas\n      call\n      iszero\n      dup1\n      iszero\n      tag_200\n      jumpi\n      returndatacopy(0x00, 0x00, returndatasize)\n      revert(0x00, returndatasize)\n    tag_200:\n      pop\n      pop\n      pop\n      pop\n      mload(0x40)\n      returndatasize\n      not(0x1f)\n      0x1f\n      dup3\n      add\n      and\n      dup3\n      add\n      dup1\n      0x40\n      mstore\n      pop\n      dup2\n      add\n      swap1\n      tag_201\n      swap2\n      swap1\n      tag_85\n      jump\t// in\n    tag_201:\n      pop\n        /* \"contracts/DEX.sol\":10343:10353  msg.sender */\n      caller\n        /* \"contracts/DEX.sol\":10338:10394  Swap(msg.sender, address(tokenB), amountBIn, amountAOut) */\n      0xffffffffffffffffffffffffffffffffffffffff\n      and\n      0xfa2dda1cc1b86e41239702756b13effbc1a092b5c57e3ad320fbe4f3b13fe235\n        /* \"contracts/DEX.sol\":10363:10369  tokenB */\n      0x01\n      0x00\n      swap1\n      sload\n      swap1\n      0x0100\n      exp\n      swap1\n      div\n      0xffffffffffffffffffffffffffffffffffffffff\n      and\n        /* \"contracts/DEX.sol\":10372:10381  amountBIn */\n      dup6\n        /* \"contracts/DEX.sol\":10383:10393  amountAOut */\n      dup5\n        /* \"contracts/DEX.sol\":10338:10394  Swap(msg.sender, address(tokenB), amountBIn, amountAOut) */\n      mload(0x40)\n      tag_202\n      swap4\n      swap3\n      swap2\n      swap1\n      tag_95\n      jump\t// in\n    tag_202:\n      mload(0x40)\n      dup1\n      swap2\n      sub\n      swap1\n      log2\n        /* \"contracts/DEX.sol\":9380:10401  {... */\n      pop\n      pop\n        /* \"contracts/DEX.sol\":9333:10401  function swapBForA(uint256 amountBIn) external {... */\n      pop\n      jump\t// out\n        /* \"#utility.yul\":88:205   */\n    tag_204:\n        /* \"#utility.yul\":197:198   */\n      0x00\n        /* \"#utility.yul\":194:195   */\n      0x00\n        /* \"#utility.yul\":187:199   */\n      revert\n        /* \"#utility.yul\":334:411   */\n    tag_206:\n        /* \"#utility.yul\":371:378   */\n      0x00\n        /* \"#utility.yul\":400:405   */\n      dup2\n        /* \"#utility.yul\":389:405   */\n      swap1\n      pop\n        /* \"#utility.yul\":334:411   */\n      swap2\n      swap1\n      pop\n      jump\t// out\n        /* \"#utility.yul\":417:539   */\n    tag_207:\n        /* \"#utility.yul\":490:514   */\n      tag_253\n        /* \"#utility.yul\":508:513   */\n      dup2\n        /* \"#utility.yul\":490:514   */\n      tag_206\n      jump\t// in\n    tag_253:\n        /* \"#utility.yul\":483:488   */\n      dup2\n        /* \"#utility.yul\":480:515   */\n      eq\n        /* \"#utility.yul\":470:533   */\n      tag_254\n      jumpi\n        /* \"#utility.yul\":529:530   */\n      0x00\n        /* \"#utility.yul\":526:527   */\n      0x00\n        /* \"#utility.yul\":519:531   */\n      revert\n        /* \"#utility.yul\":470:533   */\n    tag_254:\n        /* \"#utility.yul\":417:539   */\n      pop\n      jump\t// out\n        /* \"#utility.yul\":545:684   */\n    tag_208:\n        /* \"#utility.yul\":591:596   */\n      0x00\n        /* \"#utility.yul\":629:635   */\n      dup2\n        /* \"#utility.yul\":616:636   */\n      calldataload\n        /* \"#utility.yul\":607:636   */\n      swap1\n      pop\n        /* \"#utility.yul\":645:678   */\n      tag_256\n        /* \"#utility.yul\":672:677   */\n      dup2\n        /* \"#utility.yul\":645:678   */\n      tag_207\n      jump\t// in\n    tag_256:\n        /* \"#utility.yul\":545:684   */\n      swap3\n      swap2\n      pop\n      pop\n      jump\t// out\n        /* \"#utility.yul\":690:1019   */\n    tag_18:\n        /* \"#utility.yul\":749:755   */\n      0x00\n        /* \"#utility.yul\":798:800   */\n      0x20\n        /* \"#utility.yul\":786:795   */\n      dup3\n        /* \"#utility.yul\":777:784   */\n      dup5\n        /* \"#utility.yul\":773:796   */\n      sub\n        /* \"#utility.yul\":769:801   */\n      slt\n        /* \"#utility.yul\":766:885   */\n      iszero\n      tag_258\n      jumpi\n        /* \"#utility.yul\":804:883   */\n      tag_259\n      tag_204\n      jump\t// in\n    tag_259:\n        /* \"#utility.yul\":766:885   */\n    tag_258:\n        /* \"#utility.yul\":924:925   */\n      0x00\n        /* \"#utility.yul\":949:1002   */\n      tag_260\n        /* \"#utility.yul\":994:1001   */\n      dup5\n        /* \"#utility.yul\":985:991   */\n      dup3\n        /* \"#utility.yul\":974:983   */\n      dup6\n        /* \"#utility.yul\":970:992   */\n      add\n        /* \"#utility.yul\":949:1002   */\n      tag_208\n      jump\t// in\n    tag_260:\n        /* \"#utility.yul\":939:1002   */\n      swap2\n      pop\n        /* \"#utility.yul\":895:1012   */\n      pop\n        /* \"#utility.yul\":690:1019   */\n      swap3\n      swap2\n      pop\n      pop\n      jump\t// out\n        /* \"#utility.yul\":1025:1143   */\n    tag_209:\n        /* \"#utility.yul\":1112:1136   */\n      tag_262\n        /* \"#utility.yul\":1130:1135   */\n      dup2\n        /* \"#utility.yul\":1112:1136   */\n      tag_206\n      jump\t// in\n    tag_262:\n        /* \"#utility.yul\":1107:1110   */\n      dup3\n        /* \"#utility.yul\":1100:1137   */\n      mstore\n        /* \"#utility.yul\":1025:1143   */\n      pop\n      pop\n      jump\t// out\n        /* \"#utility.yul\":1149:1481   */\n    tag_23:\n        /* \"#utility.yul\":1270:1274   */\n      0x00\n        /* \"#utility.yul\":1308:1310   */\n      0x40\n        /* \"#utility.yul\":1297:1306   */\n      dup3\n        /* \"#utility.yul\":1293:1311   */\n      add\n        /* \"#utility.yul\":1285:1311   */\n      swap1\n      pop\n        /* \"#utility.yul\":1321:1392   */\n      tag_264\n        /* \"#utility.yul\":1389:1390   */\n      0x00\n        /* \"#utility.yul\":1378:1387   */\n      dup4\n        /* \"#utility.yul\":1374:1391   */\n      add\n        /* \"#utility.yul\":1365:1371   */\n      dup6\n        /* \"#utility.yul\":1321:1392   */\n      tag_209\n      jump\t// in\n    tag_264:\n        /* \"#utility.yul\":1402:1474   */\n      tag_265\n        /* \"#utility.yul\":1470:1472   */\n      0x20\n        /* \"#utility.yul\":1459:1468   */\n      dup4\n        /* \"#utility.yul\":1455:1473   */\n      add\n        /* \"#utility.yul\":1446:1452   */\n      dup5\n        /* \"#utility.yul\":1402:1474   */\n      tag_209\n      jump\t// in\n    tag_265:\n        /* \"#utility.yul\":1149:1481   */\n      swap4\n      swap3\n      pop\n      pop\n      pop\n      jump\t// out\n        /* \"#utility.yul\":1487:1613   */\n    tag_210:\n        /* \"#utility.yul\":1524:1531   */\n      0x00\n        /* \"#utility.yul\":1564:1606   */\n      0xffffffffffffffffffffffffffffffffffffffff\n        /* \"#utility.yul\":1557:1562   */\n      dup3\n        /* \"#utility.yul\":1553:1607   */\n      and\n        /* \"#utility.yul\":1542:1607   */\n      swap1\n      pop\n        /* \"#utility.yul\":1487:1613   */\n      swap2\n      swap1\n      pop\n      jump\t// out\n        /* \"#utility.yul\":1619:1679   */\n    tag_211:\n        /* \"#utility.yul\":1647:1650   */\n      0x00\n        /* \"#utility.yul\":1668:1673   */\n      dup2\n        /* \"#utility.yul\":1661:1673   */\n      swap1\n      pop\n        /* \"#utility.yul\":1619:1679   */\n      swap2\n      swap1\n      pop\n      jump\t// out\n        /* \"#utility.yul\":1685:1827   */\n    tag_212:\n        /* \"#utility.yul\":1735:1744   */\n      0x00\n        /* \"#utility.yul\":1768:1821   */\n      tag_269\n        /* \"#utility.yul\":1786:1820   */\n      tag_270\n        /* \"#utility.yul\":1795:1819   */\n      tag_271\n        /* \"#utility.yul\":1813:1818   */\n      dup5\n        /* \"#utility.yul\":1795:1819   */\n      tag_210\n      jump\t// in\n    tag_271:\n        /* \"#utility.yul\":1786:1820   */\n      tag_211\n      jump\t// in\n    tag_270:\n        /* \"#utility.yul\":1768:1821   */\n      tag_210\n      jump\t// in\n    tag_269:\n        /* \"#utility.yul\":1755:1821   */\n      swap1\n      pop\n        /* \"#utility.yul\":1685:1827   */\n      swap2\n      swap1\n      pop\n      jump\t// out\n        /* \"#utility.yul\":1833:1959   */\n    tag_213:\n        /* \"#utility.yul\":1883:1892   */\n      0x00\n        /* \"#utility.yul\":1916:1953   */\n      tag_273\n        /* \"#utility.yul\":1947:1952   */\n      dup3\n        /* \"#utility.yul\":1916:1953   */\n      tag_212\n      jump\t// in\n    tag_273:\n        /* \"#utility.yul\":1903:1953   */\n      swap1\n      pop\n        /* \"#utility.yul\":1833:1959   */\n      swap2\n      swap1\n      pop\n      jump\t// out\n        /* \"#utility.yul\":1965:2105   */\n    tag_214:\n        /* \"#utility.yul\":2029:2038   */\n      0x00\n        /* \"#utility.yul\":2062:2099   */\n      tag_275\n        /* \"#utility.yul\":2093:2098   */\n      dup3\n        /* \"#utility.yul\":2062:2099   */\n      tag_213\n      jump\t// in\n    tag_275:\n        /* \"#utility.yul\":2049:2099   */\n      swap1\n      pop\n        /* \"#utility.yul\":1965:2105   */\n      swap2\n      swap1\n      pop\n      jump\t// out\n        /* \"#utility.yul\":2111:2270   */\n    tag_215:\n        /* \"#utility.yul\":2212:2263   */\n      tag_277\n        /* \"#utility.yul\":2257:2262   */\n      dup2\n        /* \"#utility.yul\":2212:2263   */\n      tag_214\n      jump\t// in\n    tag_277:\n        /* \"#utility.yul\":2207:2210   */\n      dup3\n        /* \"#utility.yul\":2200:2264   */\n      mstore\n        /* \"#utility.yul\":2111:2270   */\n      pop\n      pop\n      jump\t// out\n        /* \"#utility.yul\":2276:2526   */\n    tag_27:\n        /* \"#utility.yul\":2383:2387   */\n      0x00\n        /* \"#utility.yul\":2421:2423   */\n      0x20\n        /* \"#utility.yul\":2410:2419   */\n      dup3\n        /* \"#utility.yul\":2406:2424   */\n      add\n        /* \"#utility.yul\":2398:2424   */\n      swap1\n      pop\n        /* \"#utility.yul\":2434:2519   */\n      tag_279\n        /* \"#utility.yul\":2516:2517   */\n      0x00\n        /* \"#utility.yul\":2505:2514   */\n      dup4\n        /* \"#utility.yul\":2501:2518   */\n      add\n        /* \"#utility.yul\":2492:2498   */\n      dup5\n        /* \"#utility.yul\":2434:2519   */\n      tag_215\n      jump\t// in\n    tag_279:\n        /* \"#utility.yul\":2276:2526   */\n      swap3\n      swap2\n      pop\n      pop\n      jump\t// out\n        /* \"#utility.yul\":2532:2754   */\n    tag_31:\n        /* \"#utility.yul\":2625:2629   */\n      0x00\n        /* \"#utility.yul\":2663:2665   */\n      0x20\n        /* \"#utility.yul\":2652:2661   */\n      dup3\n        /* \"#utility.yul\":2648:2666   */\n      add\n        /* \"#utility.yul\":2640:2666   */\n      swap1\n      pop\n        /* \"#utility.yul\":2676:2747   */\n      tag_281\n        /* \"#utility.yul\":2744:2745   */\n      0x00\n        /* \"#utility.yul\":2733:2742   */\n      dup4\n        /* \"#utility.yul\":2729:2746   */\n      add\n        /* \"#utility.yul\":2720:2726   */\n      dup5\n        /* \"#utility.yul\":2676:2747   */\n      tag_209\n      jump\t// in\n    tag_281:\n        /* \"#utility.yul\":2532:2754   */\n      swap3\n      swap2\n      pop\n      pop\n      jump\t// out\n        /* \"#utility.yul\":2760:2902   */\n    tag_216:\n        /* \"#utility.yul\":2826:2835   */\n      0x00\n        /* \"#utility.yul\":2859:2896   */\n      tag_283\n        /* \"#utility.yul\":2890:2895   */\n      dup3\n        /* \"#utility.yul\":2859:2896   */\n      tag_213\n      jump\t// in\n    tag_283:\n        /* \"#utility.yul\":2846:2896   */\n      swap1\n      pop\n        /* \"#utility.yul\":2760:2902   */\n      swap2\n      swap1\n      pop\n      jump\t// out\n        /* \"#utility.yul\":2908:3071   */\n    tag_217:\n        /* \"#utility.yul\":3011:3064   */\n      tag_285\n        /* \"#utility.yul\":3058:3063   */\n      dup2\n        /* \"#utility.yul\":3011:3064   */\n      tag_216\n      jump\t// in\n    tag_285:\n        /* \"#utility.yul\":3006:3009   */\n      dup3\n        /* \"#utility.yul\":2999:3065   */\n      mstore\n        /* \"#utility.yul\":2908:3071   */\n      pop\n      pop\n      jump\t// out\n        /* \"#utility.yul\":3077:3331   */\n    tag_41:\n        /* \"#utility.yul\":3186:3190   */\n      0x00\n        /* \"#utility.yul\":3224:3226   */\n      0x20\n        /* \"#utility.yul\":3213:3222   */\n      dup3\n        /* \"#utility.yul\":3209:3227   */\n      add\n        /* \"#utility.yul\":3201:3227   */\n      swap1\n      pop\n        /* \"#utility.yul\":3237:3324   */\n      tag_287\n        /* \"#utility.yul\":3321:3322   */\n      0x00\n        /* \"#utility.yul\":3310:3319   */\n      dup4\n        /* \"#utility.yul\":3306:3323   */\n      add\n        /* \"#utility.yul\":3297:3303   */\n      dup5\n        /* \"#utility.yul\":3237:3324   */\n      tag_217\n      jump\t// in\n    tag_287:\n        /* \"#utility.yul\":3077:3331   */\n      swap3\n      swap2\n      pop\n      pop\n      jump\t// out\n        /* \"#utility.yul\":3337:3811   */\n    tag_47:\n        /* \"#utility.yul\":3405:3411   */\n      0x00\n        /* \"#utility.yul\":3413:3419   */\n      0x00\n        /* \"#utility.yul\":3462:3464   */\n      0x40\n        /* \"#utility.yul\":3450:3459   */\n      dup4\n        /* \"#utility.yul\":3441:3448   */\n      dup6\n        /* \"#utility.yul\":3437:3460   */\n      sub\n        /* \"#utility.yul\":3433:3465   */\n      slt\n        /* \"#utility.yul\":3430:3549   */\n      iszero\n      tag_289\n      jumpi\n        /* \"#utility.yul\":3468:3547   */\n      tag_290\n      tag_204\n      jump\t// in\n    tag_290:\n        /* \"#utility.yul\":3430:3549   */\n    tag_289:\n        /* \"#utility.yul\":3588:3589   */\n      0x00\n        /* \"#utility.yul\":3613:3666   */\n      tag_291\n        /* \"#utility.yul\":3658:3665   */\n      dup6\n        /* \"#utility.yul\":3649:3655   */\n      dup3\n        /* \"#utility.yul\":3638:3647   */\n      dup7\n        /* \"#utility.yul\":3634:3656   */\n      add\n        /* \"#utility.yul\":3613:3666   */\n      tag_208\n      jump\t// in\n    tag_291:\n        /* \"#utility.yul\":3603:3666   */\n      swap3\n      pop\n        /* \"#utility.yul\":3559:3676   */\n      pop\n        /* \"#utility.yul\":3715:3717   */\n      0x20\n        /* \"#utility.yul\":3741:3794   */\n      tag_292\n        /* \"#utility.yul\":3786:3793   */\n      dup6\n        /* \"#utility.yul\":3777:3783   */\n      dup3\n        /* \"#utility.yul\":3766:3775   */\n      dup7\n        /* \"#utility.yul\":3762:3784   */\n      add\n        /* \"#utility.yul\":3741:3794   */\n      tag_208\n      jump\t// in\n    tag_292:\n        /* \"#utility.yul\":3731:3794   */\n      swap2\n      pop\n        /* \"#utility.yul\":3686:3804   */\n      pop\n        /* \"#utility.yul\":3337:3811   */\n      swap3\n      pop\n      swap3\n      swap1\n      pop\n      jump\t// out\n        /* \"#utility.yul\":3817:3986   */\n    tag_218:\n        /* \"#utility.yul\":3901:3912   */\n      0x00\n        /* \"#utility.yul\":3935:3941   */\n      dup3\n        /* \"#utility.yul\":3930:3933   */\n      dup3\n        /* \"#utility.yul\":3923:3942   */\n      mstore\n        /* \"#utility.yul\":3975:3979   */\n      0x20\n        /* \"#utility.yul\":3970:3973   */\n      dup3\n        /* \"#utility.yul\":3966:3980   */\n      add\n        /* \"#utility.yul\":3951:3980   */\n      swap1\n      pop\n        /* \"#utility.yul\":3817:3986   */\n      swap3\n      swap2\n      pop\n      pop\n      jump\t// out\n        /* \"#utility.yul\":3992:4171   */\n    tag_219:\n        /* \"#utility.yul\":4132:4163   */\n      0x416d6f756e74206d7573742062652067726561746572207468616e2030000000\n        /* \"#utility.yul\":4128:4129   */\n      0x00\n        /* \"#utility.yul\":4120:4126   */\n      dup3\n        /* \"#utility.yul\":4116:4130   */\n      add\n        /* \"#utility.yul\":4109:4164   */\n      mstore\n        /* \"#utility.yul\":3992:4171   */\n      pop\n      jump\t// out\n        /* \"#utility.yul\":4177:4543   */\n    tag_220:\n        /* \"#utility.yul\":4319:4322   */\n      0x00\n        /* \"#utility.yul\":4340:4407   */\n      tag_296\n        /* \"#utility.yul\":4404:4406   */\n      0x1d\n        /* \"#utility.yul\":4399:4402   */\n      dup4\n        /* \"#utility.yul\":4340:4407   */\n      tag_218\n      jump\t// in\n    tag_296:\n        /* \"#utility.yul\":4333:4407   */\n      swap2\n      pop\n        /* \"#utility.yul\":4416:4509   */\n      tag_297\n        /* \"#utility.yul\":4505:4508   */\n      dup3\n        /* \"#utility.yul\":4416:4509   */\n      tag_219\n      jump\t// in\n    tag_297:\n        /* \"#utility.yul\":4534:4536   */\n      0x20\n        /* \"#utility.yul\":4529:4532   */\n      dup3\n        /* \"#utility.yul\":4525:4537   */\n      add\n        /* \"#utility.yul\":4518:4537   */\n      swap1\n      pop\n        /* \"#utility.yul\":4177:4543   */\n      swap2\n      swap1\n      pop\n      jump\t// out\n        /* \"#utility.yul\":4549:4968   */\n    tag_61:\n        /* \"#utility.yul\":4715:4719   */\n      0x00\n        /* \"#utility.yul\":4753:4755   */\n      0x20\n        /* \"#utility.yul\":4742:4751   */\n      dup3\n        /* \"#utility.yul\":4738:4756   */\n      add\n        /* \"#utility.yul\":4730:4756   */\n      swap1\n      pop\n        /* \"#utility.yul\":4802:4811   */\n      dup2\n        /* \"#utility.yul\":4796:4800   */\n      dup2\n        /* \"#utility.yul\":4792:4812   */\n      sub\n        /* \"#utility.yul\":4788:4789   */\n      0x00\n        /* \"#utility.yul\":4777:4786   */\n      dup4\n        /* \"#utility.yul\":4773:4790   */\n      add\n        /* \"#utility.yul\":4766:4813   */\n      mstore\n        /* \"#utility.yul\":4830:4961   */\n      tag_299\n        /* \"#utility.yul\":4956:4960   */\n      dup2\n        /* \"#utility.yul\":4830:4961   */\n      tag_220\n      jump\t// in\n    tag_299:\n        /* \"#utility.yul\":4822:4961   */\n      swap1\n      pop\n        /* \"#utility.yul\":4549:4968   */\n      swap2\n      swap1\n      pop\n      jump\t// out\n        /* \"#utility.yul\":4974:5145   */\n    tag_221:\n        /* \"#utility.yul\":5114:5137   */\n      0x506f6f6c20686173206e6f206c69717569646974790000000000000000000000\n        /* \"#utility.yul\":5110:5111   */\n      0x00\n        /* \"#utility.yul\":5102:5108   */\n      dup3\n        /* \"#utility.yul\":5098:5112   */\n      add\n        /* \"#utility.yul\":5091:5138   */\n      mstore\n        /* \"#utility.yul\":4974:5145   */\n      pop\n      jump\t// out\n        /* \"#utility.yul\":5151:5517   */\n    tag_222:\n        /* \"#utility.yul\":5293:5296   */\n      0x00\n        /* \"#utility.yul\":5314:5381   */\n      tag_302\n        /* \"#utility.yul\":5378:5380   */\n      0x15\n        /* \"#utility.yul\":5373:5376   */\n      dup4\n        /* \"#utility.yul\":5314:5381   */\n      tag_218\n      jump\t// in\n    tag_302:\n        /* \"#utility.yul\":5307:5381   */\n      swap2\n      pop\n        /* \"#utility.yul\":5390:5483   */\n      tag_303\n        /* \"#utility.yul\":5479:5482   */\n      dup3\n        /* \"#utility.yul\":5390:5483   */\n      tag_221\n      jump\t// in\n    tag_303:\n        /* \"#utility.yul\":5508:5510   */\n      0x20\n        /* \"#utility.yul\":5503:5506   */\n      dup3\n        /* \"#utility.yul\":5499:5511   */\n      add\n        /* \"#utility.yul\":5492:5511   */\n      swap1\n      pop\n        /* \"#utility.yul\":5151:5517   */\n      swap2\n      swap1\n      pop\n      jump\t// out\n        /* \"#utility.yul\":5523:5942   */\n    tag_65:\n        /* \"#utility.yul\":5689:5693   */\n      0x00\n        /* \"#utility.yul\":5727:5729   */\n      0x20\n        /* \"#utility.yul\":5716:5725   */\n      dup3\n        /* \"#utility.yul\":5712:5730   */\n      add\n        /* \"#utility.yul\":5704:5730   */\n      swap1\n      pop\n        /* \"#utility.yul\":5776:5785   */\n      dup2\n        /* \"#utility.yul\":5770:5774   */\n      dup2\n        /* \"#utility.yul\":5766:5786   */\n      sub\n        /* \"#utility.yul\":5762:5763   */\n      0x00\n        /* \"#utility.yul\":5751:5760   */\n      dup4\n        /* \"#utility.yul\":5747:5764   */\n      add\n        /* \"#utility.yul\":5740:5787   */\n      mstore\n        /* \"#utility.yul\":5804:5935   */\n      tag_305\n        /* \"#utility.yul\":5930:5934   */\n      dup2\n        /* \"#utility.yul\":5804:5935   */\n      tag_222\n      jump\t// in\n    tag_305:\n        /* \"#utility.yul\":5796:5935   */\n      swap1\n      pop\n        /* \"#utility.yul\":5523:5942   */\n      swap2\n      swap1\n      pop\n      jump\t// out\n        /* \"#utility.yul\":5948:6128   */\n    tag_223:\n        /* \"#utility.yul\":5996:6073   */\n      0x4e487b7100000000000000000000000000000000000000000000000000000000\n        /* \"#utility.yul\":5993:5994   */\n      0x00\n        /* \"#utility.yul\":5986:6074   */\n      mstore\n        /* \"#utility.yul\":6093:6097   */\n      0x11\n        /* \"#utility.yul\":6090:6091   */\n      0x04\n        /* \"#utility.yul\":6083:6098   */\n      mstore\n        /* \"#utility.yul\":6117:6121   */\n      0x24\n        /* \"#utility.yul\":6114:6115   */\n      0x00\n        /* \"#utility.yul\":6107:6122   */\n      revert\n        /* \"#utility.yul\":6134:6544   */\n    tag_67:\n        /* \"#utility.yul\":6174:6181   */\n      0x00\n        /* \"#utility.yul\":6197:6217   */\n      tag_308\n        /* \"#utility.yul\":6215:6216   */\n      dup3\n        /* \"#utility.yul\":6197:6217   */\n      tag_206\n      jump\t// in\n    tag_308:\n        /* \"#utility.yul\":6192:6217   */\n      swap2\n      pop\n        /* \"#utility.yul\":6231:6251   */\n      tag_309\n        /* \"#utility.yul\":6249:6250   */\n      dup4\n        /* \"#utility.yul\":6231:6251   */\n      tag_206\n      jump\t// in\n    tag_309:\n        /* \"#utility.yul\":6226:6251   */\n      swap3\n      pop\n        /* \"#utility.yul\":6286:6287   */\n      dup3\n        /* \"#utility.yul\":6283:6284   */\n      dup3\n        /* \"#utility.yul\":6279:6288   */\n      mul\n        /* \"#utility.yul\":6308:6338   */\n      tag_310\n        /* \"#utility.yul\":6326:6337   */\n      dup2\n        /* \"#utility.yul\":6308:6338   */\n      tag_206\n      jump\t// in\n    tag_310:\n        /* \"#utility.yul\":6297:6338   */\n      swap2\n      pop\n        /* \"#utility.yul\":6487:6488   */\n      dup3\n        /* \"#utility.yul\":6478:6485   */\n      dup3\n        /* \"#utility.yul\":6474:6489   */\n      div\n        /* \"#utility.yul\":6471:6472   */\n      dup5\n        /* \"#utility.yul\":6468:6490   */\n      eq\n        /* \"#utility.yul\":6448:6449   */\n      dup4\n        /* \"#utility.yul\":6441:6450   */\n      iszero\n        /* \"#utility.yul\":6421:6504   */\n      or\n        /* \"#utility.yul\":6398:6537   */\n      tag_311\n      jumpi\n        /* \"#utility.yul\":6517:6535   */\n      tag_312\n      tag_223\n      jump\t// in\n    tag_312:\n        /* \"#utility.yul\":6398:6537   */\n    tag_311:\n        /* \"#utility.yul\":6182:6544   */\n      pop\n        /* \"#utility.yul\":6134:6544   */\n      swap3\n      swap2\n      pop\n      pop\n      jump\t// out\n        /* \"#utility.yul\":6550:6741   */\n    tag_70:\n        /* \"#utility.yul\":6590:6593   */\n      0x00\n        /* \"#utility.yul\":6609:6629   */\n      tag_314\n        /* \"#utility.yul\":6627:6628   */\n      dup3\n        /* \"#utility.yul\":6609:6629   */\n      tag_206\n      jump\t// in\n    tag_314:\n        /* \"#utility.yul\":6604:6629   */\n      swap2\n      pop\n        /* \"#utility.yul\":6643:6663   */\n      tag_315\n        /* \"#utility.yul\":6661:6662   */\n      dup4\n        /* \"#utility.yul\":6643:6663   */\n      tag_206\n      jump\t// in\n    tag_315:\n        /* \"#utility.yul\":6638:6663   */\n      swap3\n      pop\n        /* \"#utility.yul\":6686:6687   */\n      dup3\n        /* \"#utility.yul\":6683:6684   */\n      dup3\n        /* \"#utility.yul\":6679:6688   */\n      add\n        /* \"#utility.yul\":6672:6688   */\n      swap1\n      pop\n        /* \"#utility.yul\":6707:6710   */\n      dup1\n        /* \"#utility.yul\":6704:6705   */\n      dup3\n        /* \"#utility.yul\":6701:6711   */\n      gt\n        /* \"#utility.yul\":6698:6734   */\n      iszero\n      tag_316\n      jumpi\n        /* \"#utility.yul\":6714:6732   */\n      tag_317\n      tag_223\n      jump\t// in\n    tag_317:\n        /* \"#utility.yul\":6698:6734   */\n    tag_316:\n        /* \"#utility.yul\":6550:6741   */\n      swap3\n      swap2\n      pop\n      pop\n      jump\t// out\n        /* \"#utility.yul\":6747:6927   */\n    tag_224:\n        /* \"#utility.yul\":6795:6872   */\n      0x4e487b7100000000000000000000000000000000000000000000000000000000\n        /* \"#utility.yul\":6792:6793   */\n      0x00\n        /* \"#utility.yul\":6785:6873   */\n      mstore\n        /* \"#utility.yul\":6892:6896   */\n      0x12\n        /* \"#utility.yul\":6889:6890   */\n      0x04\n        /* \"#utility.yul\":6882:6897   */\n      mstore\n        /* \"#utility.yul\":6916:6920   */\n      0x24\n        /* \"#utility.yul\":6913:6914   */\n      0x00\n        /* \"#utility.yul\":6906:6921   */\n      revert\n        /* \"#utility.yul\":6933:7118   */\n    tag_73:\n        /* \"#utility.yul\":6973:6974   */\n      0x00\n        /* \"#utility.yul\":6990:7010   */\n      tag_320\n        /* \"#utility.yul\":7008:7009   */\n      dup3\n        /* \"#utility.yul\":6990:7010   */\n      tag_206\n      jump\t// in\n    tag_320:\n        /* \"#utility.yul\":6985:7010   */\n      swap2\n      pop\n        /* \"#utility.yul\":7024:7044   */\n      tag_321\n        /* \"#utility.yul\":7042:7043   */\n      dup4\n        /* \"#utility.yul\":7024:7044   */\n      tag_206\n      jump\t// in\n    tag_321:\n        /* \"#utility.yul\":7019:7044   */\n      swap3\n      pop\n        /* \"#utility.yul\":7063:7064   */\n      dup3\n        /* \"#utility.yul\":7053:7088   */\n      tag_322\n      jumpi\n        /* \"#utility.yul\":7068:7086   */\n      tag_323\n      tag_224\n      jump\t// in\n    tag_323:\n        /* \"#utility.yul\":7053:7088   */\n    tag_322:\n        /* \"#utility.yul\":7110:7111   */\n      dup3\n        /* \"#utility.yul\":7107:7108   */\n      dup3\n        /* \"#utility.yul\":7103:7112   */\n      div\n        /* \"#utility.yul\":7098:7112   */\n      swap1\n      pop\n        /* \"#utility.yul\":6933:7118   */\n      swap3\n      swap2\n      pop\n      pop\n      jump\t// out\n        /* \"#utility.yul\":7124:7300   */\n    tag_225:\n        /* \"#utility.yul\":7264:7292   */\n      0x496e73756666696369656e74206f757470757420616d6f756e74000000000000\n        /* \"#utility.yul\":7260:7261   */\n      0x00\n        /* \"#utility.yul\":7252:7258   */\n      dup3\n        /* \"#utility.yul\":7248:7262   */\n      add\n        /* \"#utility.yul\":7241:7293   */\n      mstore\n        /* \"#utility.yul\":7124:7300   */\n      pop\n      jump\t// out\n        /* \"#utility.yul\":7306:7672   */\n    tag_226:\n        /* \"#utility.yul\":7448:7451   */\n      0x00\n        /* \"#utility.yul\":7469:7536   */\n      tag_326\n        /* \"#utility.yul\":7533:7535   */\n      0x1a\n        /* \"#utility.yul\":7528:7531   */\n      dup4\n        /* \"#utility.yul\":7469:7536   */\n      tag_218\n      jump\t// in\n    tag_326:\n        /* \"#utility.yul\":7462:7536   */\n      swap2\n      pop\n        /* \"#utility.yul\":7545:7638   */\n      tag_327\n        /* \"#utility.yul\":7634:7637   */\n      dup3\n        /* \"#utility.yul\":7545:7638   */\n      tag_225\n      jump\t// in\n    tag_327:\n        /* \"#utility.yul\":7663:7665   */\n      0x20\n        /* \"#utility.yul\":7658:7661   */\n      dup3\n        /* \"#utility.yul\":7654:7666   */\n      add\n        /* \"#utility.yul\":7647:7666   */\n      swap1\n      pop\n        /* \"#utility.yul\":7306:7672   */\n      swap2\n      swap1\n      pop\n      jump\t// out\n        /* \"#utility.yul\":7678:8097   */\n    tag_76:\n        /* \"#utility.yul\":7844:7848   */\n      0x00\n        /* \"#utility.yul\":7882:7884   */\n      0x20\n        /* \"#utility.yul\":7871:7880   */\n      dup3\n        /* \"#utility.yul\":7867:7885   */\n      add\n        /* \"#utility.yul\":7859:7885   */\n      swap1\n      pop\n        /* \"#utility.yul\":7931:7940   */\n      dup2\n        /* \"#utility.yul\":7925:7929   */\n      dup2\n        /* \"#utility.yul\":7921:7941   */\n      sub\n        /* \"#utility.yul\":7917:7918   */\n      0x00\n        /* \"#utility.yul\":7906:7915   */\n      dup4\n        /* \"#utility.yul\":7902:7919   */\n      add\n        /* \"#utility.yul\":7895:7942   */\n      mstore\n        /* \"#utility.yul\":7959:8090   */\n      tag_329\n        /* \"#utility.yul\":8085:8089   */\n      dup2\n        /* \"#utility.yul\":7959:8090   */\n      tag_226\n      jump\t// in\n    tag_329:\n        /* \"#utility.yul\":7951:8090   */\n      swap1\n      pop\n        /* \"#utility.yul\":7678:8097   */\n      swap2\n      swap1\n      pop\n      jump\t// out\n        /* \"#utility.yul\":8103:8280   */\n    tag_227:\n        /* \"#utility.yul\":8243:8272   */\n      0x496e73756666696369656e7420706f6f6c206c69717569646974790000000000\n        /* \"#utility.yul\":8239:8240   */\n      0x00\n        /* \"#utility.yul\":8231:8237   */\n      dup3\n        /* \"#utility.yul\":8227:8241   */\n      add\n        /* \"#utility.yul\":8220:8273   */\n      mstore\n        /* \"#utility.yul\":8103:8280   */\n      pop\n      jump\t// out\n        /* \"#utility.yul\":8286:8652   */\n    tag_228:\n        /* \"#utility.yul\":8428:8431   */\n      0x00\n        /* \"#utility.yul\":8449:8516   */\n      tag_332\n        /* \"#utility.yul\":8513:8515   */\n      0x1b\n        /* \"#utility.yul\":8508:8511   */\n      dup4\n        /* \"#utility.yul\":8449:8516   */\n      tag_218\n      jump\t// in\n    tag_332:\n        /* \"#utility.yul\":8442:8516   */\n      swap2\n      pop\n        /* \"#utility.yul\":8525:8618   */\n      tag_333\n        /* \"#utility.yul\":8614:8617   */\n      dup3\n        /* \"#utility.yul\":8525:8618   */\n      tag_227\n      jump\t// in\n    tag_333:\n        /* \"#utility.yul\":8643:8645   */\n      0x20\n        /* \"#utility.yul\":8638:8641   */\n      dup3\n        /* \"#utility.yul\":8634:8646   */\n      add\n        /* \"#utility.yul\":8627:8646   */\n      swap1\n      pop\n        /* \"#utility.yul\":8286:8652   */\n      swap2\n      swap1\n      pop\n      jump\t// out\n        /* \"#utility.yul\":8658:9077   */\n    tag_79:\n        /* \"#utility.yul\":8824:8828   */\n      0x00\n        /* \"#utility.yul\":8862:8864   */\n      0x20\n        /* \"#utility.yul\":8851:8860   */\n      dup3\n        /* \"#utility.yul\":8847:8865   */\n      add\n        /* \"#utility.yul\":8839:8865   */\n      swap1\n      pop\n        /* \"#utility.yul\":8911:8920   */\n      dup2\n        /* \"#utility.yul\":8905:8909   */\n      dup2\n        /* \"#utility.yul\":8901:8921   */\n      sub\n        /* \"#utility.yul\":8897:8898   */\n      0x00\n        /* \"#utility.yul\":8886:8895   */\n      dup4\n        /* \"#utility.yul\":8882:8899   */\n      add\n        /* \"#utility.yul\":8875:8922   */\n      mstore\n        /* \"#utility.yul\":8939:9070   */\n      tag_335\n        /* \"#utility.yul\":9065:9069   */\n      dup2\n        /* \"#utility.yul\":8939:9070   */\n      tag_228\n      jump\t// in\n    tag_335:\n        /* \"#utility.yul\":8931:9070   */\n      swap1\n      pop\n        /* \"#utility.yul\":8658:9077   */\n      swap2\n      swap1\n      pop\n      jump\t// out\n        /* \"#utility.yul\":9083:9179   */\n    tag_229:\n        /* \"#utility.yul\":9120:9127   */\n      0x00\n        /* \"#utility.yul\":9149:9173   */\n      tag_337\n        /* \"#utility.yul\":9167:9172   */\n      dup3\n        /* \"#utility.yul\":9149:9173   */\n      tag_210\n      jump\t// in\n    tag_337:\n        /* \"#utility.yul\":9138:9173   */\n      swap1\n      pop\n        /* \"#utility.yul\":9083:9179   */\n      swap2\n      swap1\n      pop\n      jump\t// out\n        /* \"#utility.yul\":9185:9303   */\n    tag_230:\n        /* \"#utility.yul\":9272:9296   */\n      tag_339\n        /* \"#utility.yul\":9290:9295   */\n      dup2\n        /* \"#utility.yul\":9272:9296   */\n      tag_229\n      jump\t// in\n    tag_339:\n        /* \"#utility.yul\":9267:9270   */\n      dup3\n        /* \"#utility.yul\":9260:9297   */\n      mstore\n        /* \"#utility.yul\":9185:9303   */\n      pop\n      pop\n      jump\t// out\n        /* \"#utility.yul\":9309:9751   */\n    tag_81:\n        /* \"#utility.yul\":9458:9462   */\n      0x00\n        /* \"#utility.yul\":9496:9498   */\n      0x60\n        /* \"#utility.yul\":9485:9494   */\n      dup3\n        /* \"#utility.yul\":9481:9499   */\n      add\n        /* \"#utility.yul\":9473:9499   */\n      swap1\n      pop\n        /* \"#utility.yul\":9509:9580   */\n      tag_341\n        /* \"#utility.yul\":9577:9578   */\n      0x00\n        /* \"#utility.yul\":9566:9575   */\n      dup4\n        /* \"#utility.yul\":9562:9579   */\n      add\n        /* \"#utility.yul\":9553:9559   */\n      dup7\n        /* \"#utility.yul\":9509:9580   */\n      tag_230\n      jump\t// in\n    tag_341:\n        /* \"#utility.yul\":9590:9662   */\n      tag_342\n        /* \"#utility.yul\":9658:9660   */\n      0x20\n        /* \"#utility.yul\":9647:9656   */\n      dup4\n        /* \"#utility.yul\":9643:9661   */\n      add\n        /* \"#utility.yul\":9634:9640   */\n      dup6\n        /* \"#utility.yul\":9590:9662   */\n      tag_230\n      jump\t// in\n    tag_342:\n        /* \"#utility.yul\":9672:9744   */\n      tag_343\n        /* \"#utility.yul\":9740:9742   */\n      0x40\n        /* \"#utility.yul\":9729:9738   */\n      dup4\n        /* \"#utility.yul\":9725:9743   */\n      add\n        /* \"#utility.yul\":9716:9722   */\n      dup5\n        /* \"#utility.yul\":9672:9744   */\n      tag_209\n      jump\t// in\n    tag_343:\n        /* \"#utility.yul\":9309:9751   */\n      swap5\n      swap4\n      pop\n      pop\n      pop\n      pop\n      jump\t// out\n        /* \"#utility.yul\":9757:9847   */\n    tag_231:\n        /* \"#utility.yul\":9791:9798   */\n      0x00\n        /* \"#utility.yul\":9834:9839   */\n      dup2\n        /* \"#utility.yul\":9827:9840   */\n      iszero\n        /* \"#utility.yul\":9820:9841   */\n      iszero\n        /* \"#utility.yul\":9809:9841   */\n      swap1\n      pop\n        /* \"#utility.yul\":9757:9847   */\n      swap2\n      swap1\n      pop\n      jump\t// out\n        /* \"#utility.yul\":9853:9969   */\n    tag_232:\n        /* \"#utility.yul\":9923:9944   */\n      tag_346\n        /* \"#utility.yul\":9938:9943   */\n      dup2\n        /* \"#utility.yul\":9923:9944   */\n      tag_231\n      jump\t// in\n    tag_346:\n        /* \"#utility.yul\":9916:9921   */\n      dup2\n        /* \"#utility.yul\":9913:9945   */\n      eq\n        /* \"#utility.yul\":9903:9963   */\n      tag_347\n      jumpi\n        /* \"#utility.yul\":9959:9960   */\n      0x00\n        /* \"#utility.yul\":9956:9957   */\n      0x00\n        /* \"#utility.yul\":9949:9961   */\n      revert\n        /* \"#utility.yul\":9903:9963   */\n    tag_347:\n        /* \"#utility.yul\":9853:9969   */\n      pop\n      jump\t// out\n        /* \"#utility.yul\":9975:10112   */\n    tag_233:\n        /* \"#utility.yul\":10029:10034   */\n      0x00\n        /* \"#utility.yul\":10060:10066   */\n      dup2\n        /* \"#utility.yul\":10054:10067   */\n      mload\n        /* \"#utility.yul\":10045:10067   */\n      swap1\n      pop\n        /* \"#utility.yul\":10076:10106   */\n      tag_349\n        /* \"#utility.yul\":10100:10105   */\n      dup2\n        /* \"#utility.yul\":10076:10106   */\n      tag_232\n      jump\t// in\n    tag_349:\n        /* \"#utility.yul\":9975:10112   */\n      swap3\n      swap2\n      pop\n      pop\n      jump\t// out\n        /* \"#utility.yul\":10118:10463   */\n    tag_85:\n        /* \"#utility.yul\":10185:10191   */\n      0x00\n        /* \"#utility.yul\":10234:10236   */\n      0x20\n        /* \"#utility.yul\":10222:10231   */\n      dup3\n        /* \"#utility.yul\":10213:10220   */\n      dup5\n        /* \"#utility.yul\":10209:10232   */\n      sub\n        /* \"#utility.yul\":10205:10237   */\n      slt\n        /* \"#utility.yul\":10202:10321   */\n      iszero\n      tag_351\n      jumpi\n        /* \"#utility.yul\":10240:10319   */\n      tag_352\n      tag_204\n      jump\t// in\n    tag_352:\n        /* \"#utility.yul\":10202:10321   */\n    tag_351:\n        /* \"#utility.yul\":10360:10361   */\n      0x00\n        /* \"#utility.yul\":10385:10446   */\n      tag_353\n        /* \"#utility.yul\":10438:10445   */\n      dup5\n        /* \"#utility.yul\":10429:10435   */\n      dup3\n        /* \"#utility.yul\":10418:10427   */\n      dup6\n        /* \"#utility.yul\":10414:10436   */\n      add\n        /* \"#utility.yul\":10385:10446   */\n      tag_233\n      jump\t// in\n    tag_353:\n        /* \"#utility.yul\":10375:10446   */\n      swap2\n      pop\n        /* \"#utility.yul\":10331:10456   */\n      pop\n        /* \"#utility.yul\":10118:10463   */\n      swap3\n      swap2\n      pop\n      pop\n      jump\t// out\n        /* \"#utility.yul\":10469:10663   */\n    tag_88:\n        /* \"#utility.yul\":10509:10513   */\n      0x00\n        /* \"#utility.yul\":10529:10549   */\n      tag_355\n        /* \"#utility.yul\":10547:10548   */\n      dup3\n        /* \"#utility.yul\":10529:10549   */\n      tag_206\n      jump\t// in\n    tag_355:\n        /* \"#utility.yul\":10524:10549   */\n      swap2\n      pop\n        /* \"#utility.yul\":10563:10583   */\n      tag_356\n        /* \"#utility.yul\":10581:10582   */\n      dup4\n        /* \"#utility.yul\":10563:10583   */\n      tag_206\n      jump\t// in\n    tag_356:\n        /* \"#utility.yul\":10558:10583   */\n      swap3\n      pop\n        /* \"#utility.yul\":10607:10608   */\n      dup3\n        /* \"#utility.yul\":10604:10605   */\n      dup3\n        /* \"#utility.yul\":10600:10609   */\n      sub\n        /* \"#utility.yul\":10592:10609   */\n      swap1\n      pop\n        /* \"#utility.yul\":10631:10632   */\n      dup2\n        /* \"#utility.yul\":10625:10629   */\n      dup2\n        /* \"#utility.yul\":10622:10633   */\n      gt\n        /* \"#utility.yul\":10619:10656   */\n      iszero\n      tag_357\n      jumpi\n        /* \"#utility.yul\":10636:10654   */\n      tag_358\n      tag_223\n      jump\t// in\n    tag_358:\n        /* \"#utility.yul\":10619:10656   */\n    tag_357:\n        /* \"#utility.yul\":10469:10663   */\n      swap3\n      swap2\n      pop\n      pop\n      jump\t// out\n        /* \"#utility.yul\":10669:11001   */\n    tag_90:\n        /* \"#utility.yul\":10790:10794   */\n      0x00\n        /* \"#utility.yul\":10828:10830   */\n      0x40\n        /* \"#utility.yul\":10817:10826   */\n      dup3\n        /* \"#utility.yul\":10813:10831   */\n      add\n        /* \"#utility.yul\":10805:10831   */\n      swap1\n      pop\n        /* \"#utility.yul\":10841:10912   */\n      tag_360\n        /* \"#utility.yul\":10909:10910   */\n      0x00\n        /* \"#utility.yul\":10898:10907   */\n      dup4\n        /* \"#utility.yul\":10894:10911   */\n      add\n        /* \"#utility.yul\":10885:10891   */\n      dup6\n        /* \"#utility.yul\":10841:10912   */\n      tag_230\n      jump\t// in\n    tag_360:\n        /* \"#utility.yul\":10922:10994   */\n      tag_361\n        /* \"#utility.yul\":10990:10992   */\n      0x20\n        /* \"#utility.yul\":10979:10988   */\n      dup4\n        /* \"#utility.yul\":10975:10993   */\n      add\n        /* \"#utility.yul\":10966:10972   */\n      dup5\n        /* \"#utility.yul\":10922:10994   */\n      tag_209\n      jump\t// in\n    tag_361:\n        /* \"#utility.yul\":10669:11001   */\n      swap4\n      swap3\n      pop\n      pop\n      pop\n      jump\t// out\n        /* \"#utility.yul\":11007:11449   */\n    tag_95:\n        /* \"#utility.yul\":11156:11160   */\n      0x00\n        /* \"#utility.yul\":11194:11196   */\n      0x60\n        /* \"#utility.yul\":11183:11192   */\n      dup3\n        /* \"#utility.yul\":11179:11197   */\n      add\n        /* \"#utility.yul\":11171:11197   */\n      swap1\n      pop\n        /* \"#utility.yul\":11207:11278   */\n      tag_363\n        /* \"#utility.yul\":11275:11276   */\n      0x00\n        /* \"#utility.yul\":11264:11273   */\n      dup4\n        /* \"#utility.yul\":11260:11277   */\n      add\n        /* \"#utility.yul\":11251:11257   */\n      dup7\n        /* \"#utility.yul\":11207:11278   */\n      tag_230\n      jump\t// in\n    tag_363:\n        /* \"#utility.yul\":11288:11360   */\n      tag_364\n        /* \"#utility.yul\":11356:11358   */\n      0x20\n        /* \"#utility.yul\":11345:11354   */\n      dup4\n        /* \"#utility.yul\":11341:11359   */\n      add\n        /* \"#utility.yul\":11332:11338   */\n      dup6\n        /* \"#utility.yul\":11288:11360   */\n      tag_209\n      jump\t// in\n    tag_364:\n        /* \"#utility.yul\":11370:11442   */\n      tag_365\n        /* \"#utility.yul\":11438:11440   */\n      0x40\n        /* \"#utility.yul\":11427:11436   */\n      dup4\n        /* \"#utility.yul\":11423:11441   */\n      add\n        /* \"#utility.yul\":11414:11420   */\n      dup5\n        /* \"#utility.yul\":11370:11442   */\n      tag_209\n      jump\t// in\n    tag_365:\n        /* \"#utility.yul\":11007:11449   */\n      swap5\n      swap4\n      pop\n      pop\n      pop\n      pop\n      jump\t// out\n        /* \"#utility.yul\":11455:11617   */\n    tag_234:\n        /* \"#utility.yul\":11595:11609   */\n      0x4e6f206c69717569646974790000000000000000000000000000000000000000\n        /* \"#utility.yul\":11591:11592   */\n      0x00\n        /* \"#utility.yul\":11583:11589   */\n      dup3\n        /* \"#utility.yul\":11579:11593   */\n      add\n        /* \"#utility.yul\":11572:11610   */\n      mstore\n        /* \"#utility.yul\":11455:11617   */\n      pop\n      jump\t// out\n        /* \"#utility.yul\":11623:11989   */\n    tag_235:\n        /* \"#utility.yul\":11765:11768   */\n      0x00\n        /* \"#utility.yul\":11786:11853   */\n      tag_368\n        /* \"#utility.yul\":11850:11852   */\n      0x0c\n        /* \"#utility.yul\":11845:11848   */\n      dup4\n        /* \"#utility.yul\":11786:11853   */\n      tag_218\n      jump\t// in\n    tag_368:\n        /* \"#utility.yul\":11779:11853   */\n      swap2\n      pop\n        /* \"#utility.yul\":11862:11955   */\n      tag_369\n        /* \"#utility.yul\":11951:11954   */\n      dup3\n        /* \"#utility.yul\":11862:11955   */\n      tag_234\n      jump\t// in\n    tag_369:\n        /* \"#utility.yul\":11980:11982   */\n      0x20\n        /* \"#utility.yul\":11975:11978   */\n      dup3\n        /* \"#utility.yul\":11971:11983   */\n      add\n        /* \"#utility.yul\":11964:11983   */\n      swap1\n      pop\n        /* \"#utility.yul\":11623:11989   */\n      swap2\n      swap1\n      pop\n      jump\t// out\n        /* \"#utility.yul\":11995:12414   */\n    tag_100:\n        /* \"#utility.yul\":12161:12165   */\n      0x00\n        /* \"#utility.yul\":12199:12201   */\n      0x20\n        /* \"#utility.yul\":12188:12197   */\n      dup3\n        /* \"#utility.yul\":12184:12202   */\n      add\n        /* \"#utility.yul\":12176:12202   */\n      swap1\n      pop\n        /* \"#utility.yul\":12248:12257   */\n      dup2\n        /* \"#utility.yul\":12242:12246   */\n      dup2\n        /* \"#utility.yul\":12238:12258   */\n      sub\n        /* \"#utility.yul\":12234:12235   */\n      0x00\n        /* \"#utility.yul\":12223:12232   */\n      dup4\n        /* \"#utility.yul\":12219:12236   */\n      add\n        /* \"#utility.yul\":12212:12259   */\n      mstore\n        /* \"#utility.yul\":12276:12407   */\n      tag_371\n        /* \"#utility.yul\":12402:12406   */\n      dup2\n        /* \"#utility.yul\":12276:12407   */\n      tag_235\n      jump\t// in\n    tag_371:\n        /* \"#utility.yul\":12268:12407   */\n      swap1\n      pop\n        /* \"#utility.yul\":11995:12414   */\n      swap2\n      swap1\n      pop\n      jump\t// out\n        /* \"#utility.yul\":12420:12602   */\n    tag_236:\n        /* \"#utility.yul\":12560:12594   */\n      0x4c5020616d6f756e74206d7573742062652067726561746572207468616e2030\n        /* \"#utility.yul\":12556:12557   */\n      0x00\n        /* \"#utility.yul\":12548:12554   */\n      dup3\n        /* \"#utility.yul\":12544:12558   */\n      add\n        /* \"#utility.yul\":12537:12595   */\n      mstore\n        /* \"#utility.yul\":12420:12602   */\n      pop\n      jump\t// out\n        /* \"#utility.yul\":12608:12974   */\n    tag_237:\n        /* \"#utility.yul\":12750:12753   */\n      0x00\n        /* \"#utility.yul\":12771:12838   */\n      tag_374\n        /* \"#utility.yul\":12835:12837   */\n      0x20\n        /* \"#utility.yul\":12830:12833   */\n      dup4\n        /* \"#utility.yul\":12771:12838   */\n      tag_218\n      jump\t// in\n    tag_374:\n        /* \"#utility.yul\":12764:12838   */\n      swap2\n      pop\n        /* \"#utility.yul\":12847:12940   */\n      tag_375\n        /* \"#utility.yul\":12936:12939   */\n      dup3\n        /* \"#utility.yul\":12847:12940   */\n      tag_236\n      jump\t// in\n    tag_375:\n        /* \"#utility.yul\":12965:12967   */\n      0x20\n        /* \"#utility.yul\":12960:12963   */\n      dup3\n        /* \"#utility.yul\":12956:12968   */\n      add\n        /* \"#utility.yul\":12949:12968   */\n      swap1\n      pop\n        /* \"#utility.yul\":12608:12974   */\n      swap2\n      swap1\n      pop\n      jump\t// out\n        /* \"#utility.yul\":12980:13399   */\n    tag_106:\n        /* \"#utility.yul\":13146:13150   */\n      0x00\n        /* \"#utility.yul\":13184:13186   */\n      0x20\n        /* \"#utility.yul\":13173:13182   */\n      dup3\n        /* \"#utility.yul\":13169:13187   */\n      add\n        /* \"#utility.yul\":13161:13187   */\n      swap1\n      pop\n        /* \"#utility.yul\":13233:13242   */\n      dup2\n        /* \"#utility.yul\":13227:13231   */\n      dup2\n        /* \"#utility.yul\":13223:13243   */\n      sub\n        /* \"#utility.yul\":13219:13220   */\n      0x00\n        /* \"#utility.yul\":13208:13217   */\n      dup4\n        /* \"#utility.yul\":13204:13221   */\n      add\n        /* \"#utility.yul\":13197:13244   */\n      mstore\n        /* \"#utility.yul\":13261:13392   */\n      tag_377\n        /* \"#utility.yul\":13387:13391   */\n      dup2\n        /* \"#utility.yul\":13261:13392   */\n      tag_237\n      jump\t// in\n    tag_377:\n        /* \"#utility.yul\":13253:13392   */\n      swap1\n      pop\n        /* \"#utility.yul\":12980:13399   */\n      swap2\n      swap1\n      pop\n      jump\t// out\n        /* \"#utility.yul\":13405:13548   */\n    tag_238:\n        /* \"#utility.yul\":13462:13467   */\n      0x00\n        /* \"#utility.yul\":13493:13499   */\n      dup2\n        /* \"#utility.yul\":13487:13500   */\n      mload\n        /* \"#utility.yul\":13478:13500   */\n      swap1\n      pop\n        /* \"#utility.yul\":13509:13542   */\n      tag_379\n        /* \"#utility.yul\":13536:13541   */\n      dup2\n        /* \"#utility.yul\":13509:13542   */\n      tag_207\n      jump\t// in\n    tag_379:\n        /* \"#utility.yul\":13405:13548   */\n      swap3\n      swap2\n      pop\n      pop\n      jump\t// out\n        /* \"#utility.yul\":13554:13905   */\n    tag_110:\n        /* \"#utility.yul\":13624:13630   */\n      0x00\n        /* \"#utility.yul\":13673:13675   */\n      0x20\n        /* \"#utility.yul\":13661:13670   */\n      dup3\n        /* \"#utility.yul\":13652:13659   */\n      dup5\n        /* \"#utility.yul\":13648:13671   */\n      sub\n        /* \"#utility.yul\":13644:13676   */\n      slt\n        /* \"#utility.yul\":13641:13760   */\n      iszero\n      tag_381\n      jumpi\n        /* \"#utility.yul\":13679:13758   */\n      tag_382\n      tag_204\n      jump\t// in\n    tag_382:\n        /* \"#utility.yul\":13641:13760   */\n    tag_381:\n        /* \"#utility.yul\":13799:13800   */\n      0x00\n        /* \"#utility.yul\":13824:13888   */\n      tag_383\n        /* \"#utility.yul\":13880:13887   */\n      dup5\n        /* \"#utility.yul\":13871:13877   */\n      dup3\n        /* \"#utility.yul\":13860:13869   */\n      dup6\n        /* \"#utility.yul\":13856:13878   */\n      add\n        /* \"#utility.yul\":13824:13888   */\n      tag_238\n      jump\t// in\n    tag_383:\n        /* \"#utility.yul\":13814:13888   */\n      swap2\n      pop\n        /* \"#utility.yul\":13770:13898   */\n      pop\n        /* \"#utility.yul\":13554:13905   */\n      swap3\n      swap2\n      pop\n      pop\n      jump\t// out\n        /* \"#utility.yul\":13911:14081   */\n    tag_239:\n        /* \"#utility.yul\":14051:14073   */\n      0x4e6f206c697175696469747920696e20706f6f6c000000000000000000000000\n        /* \"#utility.yul\":14047:14048   */\n      0x00\n        /* \"#utility.yul\":14039:14045   */\n      dup3\n        /* \"#utility.yul\":14035:14049   */\n      add\n        /* \"#utility.yul\":14028:14074   */\n      mstore\n        /* \"#utility.yul\":13911:14081   */\n      pop\n      jump\t// out\n        /* \"#utility.yul\":14087:14453   */\n    tag_240:\n        /* \"#utility.yul\":14229:14232   */\n      0x00\n        /* \"#utility.yul\":14250:14317   */\n      tag_386\n        /* \"#utility.yul\":14314:14316   */\n      0x14\n        /* \"#utility.yul\":14309:14312   */\n      dup4\n        /* \"#utility.yul\":14250:14317   */\n      tag_218\n      jump\t// in\n    tag_386:\n        /* \"#utility.yul\":14243:14317   */\n      swap2\n      pop\n        /* \"#utility.yul\":14326:14419   */\n      tag_387\n        /* \"#utility.yul\":14415:14418   */\n      dup3\n        /* \"#utility.yul\":14326:14419   */\n      tag_239\n      jump\t// in\n    tag_387:\n        /* \"#utility.yul\":14444:14446   */\n      0x20\n        /* \"#utility.yul\":14439:14442   */\n      dup3\n        /* \"#utility.yul\":14435:14447   */\n      add\n        /* \"#utility.yul\":14428:14447   */\n      swap1\n      pop\n        /* \"#utility.yul\":14087:14453   */\n      swap2\n      swap1\n      pop\n      jump\t// out\n        /* \"#utility.yul\":14459:14878   */\n    tag_113:\n        /* \"#utility.yul\":14625:14629   */\n      0x00\n        /* \"#utility.yul\":14663:14665   */\n      0x20\n        /* \"#utility.yul\":14652:14661   */\n      dup3\n        /* \"#utility.yul\":14648:14666   */\n      add\n        /* \"#utility.yul\":14640:14666   */\n      swap1\n      pop\n        /* \"#utility.yul\":14712:14721   */\n      dup2\n        /* \"#utility.yul\":14706:14710   */\n      dup2\n        /* \"#utility.yul\":14702:14722   */\n      sub\n        /* \"#utility.yul\":14698:14699   */\n      0x00\n        /* \"#utility.yul\":14687:14696   */\n      dup4\n        /* \"#utility.yul\":14683:14700   */\n      add\n        /* \"#utility.yul\":14676:14723   */\n      mstore\n        /* \"#utility.yul\":14740:14871   */\n      tag_389\n        /* \"#utility.yul\":14866:14870   */\n      dup2\n        /* \"#utility.yul\":14740:14871   */\n      tag_240\n      jump\t// in\n    tag_389:\n        /* \"#utility.yul\":14732:14871   */\n      swap1\n      pop\n        /* \"#utility.yul\":14459:14878   */\n      swap2\n      swap1\n      pop\n      jump\t// out\n        /* \"#utility.yul\":14884:15063   */\n    tag_241:\n        /* \"#utility.yul\":15024:15055   */\n      0x496e73756666696369656e74206c6971756964697479206275726e6564000000\n        /* \"#utility.yul\":15020:15021   */\n      0x00\n        /* \"#utility.yul\":15012:15018   */\n      dup3\n        /* \"#utility.yul\":15008:15022   */\n      add\n        /* \"#utility.yul\":15001:15056   */\n      mstore\n        /* \"#utility.yul\":14884:15063   */\n      pop\n      jump\t// out\n        /* \"#utility.yul\":15069:15435   */\n    tag_242:\n        /* \"#utility.yul\":15211:15214   */\n      0x00\n        /* \"#utility.yul\":15232:15299   */\n      tag_392\n        /* \"#utility.yul\":15296:15298   */\n      0x1d\n        /* \"#utility.yul\":15291:15294   */\n      dup4\n        /* \"#utility.yul\":15232:15299   */\n      tag_218\n      jump\t// in\n    tag_392:\n        /* \"#utility.yul\":15225:15299   */\n      swap2\n      pop\n        /* \"#utility.yul\":15308:15401   */\n      tag_393\n        /* \"#utility.yul\":15397:15400   */\n      dup3\n        /* \"#utility.yul\":15308:15401   */\n      tag_241\n      jump\t// in\n    tag_393:\n        /* \"#utility.yul\":15426:15428   */\n      0x20\n        /* \"#utility.yul\":15421:15424   */\n      dup3\n        /* \"#utility.yul\":15417:15429   */\n      add\n        /* \"#utility.yul\":15410:15429   */\n      swap1\n      pop\n        /* \"#utility.yul\":15069:15435   */\n      swap2\n      swap1\n      pop\n      jump\t// out\n        /* \"#utility.yul\":15441:15860   */\n    tag_121:\n        /* \"#utility.yul\":15607:15611   */\n      0x00\n        /* \"#utility.yul\":15645:15647   */\n      0x20\n        /* \"#utility.yul\":15634:15643   */\n      dup3\n        /* \"#utility.yul\":15630:15648   */\n      add\n        /* \"#utility.yul\":15622:15648   */\n      swap1\n      pop\n        /* \"#utility.yul\":15694:15703   */\n      dup2\n        /* \"#utility.yul\":15688:15692   */\n      dup2\n        /* \"#utility.yul\":15684:15704   */\n      sub\n        /* \"#utility.yul\":15680:15681   */\n      0x00\n        /* \"#utility.yul\":15669:15678   */\n      dup4\n        /* \"#utility.yul\":15665:15682   */\n      add\n        /* \"#utility.yul\":15658:15705   */\n      mstore\n        /* \"#utility.yul\":15722:15853   */\n      tag_395\n        /* \"#utility.yul\":15848:15852   */\n      dup2\n        /* \"#utility.yul\":15722:15853   */\n      tag_242\n      jump\t// in\n    tag_395:\n        /* \"#utility.yul\":15714:15853   */\n      swap1\n      pop\n        /* \"#utility.yul\":15441:15860   */\n      swap2\n      swap1\n      pop\n      jump\t// out\n        /* \"#utility.yul\":15866:16308   */\n    tag_137:\n        /* \"#utility.yul\":16015:16019   */\n      0x00\n        /* \"#utility.yul\":16053:16055   */\n      0x60\n        /* \"#utility.yul\":16042:16051   */\n      dup3\n        /* \"#utility.yul\":16038:16056   */\n      add\n        /* \"#utility.yul\":16030:16056   */\n      swap1\n      pop\n        /* \"#utility.yul\":16066:16137   */\n      tag_397\n        /* \"#utility.yul\":16134:16135   */\n      0x00\n        /* \"#utility.yul\":16123:16132   */\n      dup4\n        /* \"#utility.yul\":16119:16136   */\n      add\n        /* \"#utility.yul\":16110:16116   */\n      dup7\n        /* \"#utility.yul\":16066:16137   */\n      tag_209\n      jump\t// in\n    tag_397:\n        /* \"#utility.yul\":16147:16219   */\n      tag_398\n        /* \"#utility.yul\":16215:16217   */\n      0x20\n        /* \"#utility.yul\":16204:16213   */\n      dup4\n        /* \"#utility.yul\":16200:16218   */\n      add\n        /* \"#utility.yul\":16191:16197   */\n      dup6\n        /* \"#utility.yul\":16147:16219   */\n      tag_209\n      jump\t// in\n    tag_398:\n        /* \"#utility.yul\":16229:16301   */\n      tag_399\n        /* \"#utility.yul\":16297:16299   */\n      0x40\n        /* \"#utility.yul\":16286:16295   */\n      dup4\n        /* \"#utility.yul\":16282:16300   */\n      add\n        /* \"#utility.yul\":16273:16279   */\n      dup5\n        /* \"#utility.yul\":16229:16301   */\n      tag_209\n      jump\t// in\n    tag_399:\n        /* \"#utility.yul\":15866:16308   */\n      swap5\n      swap4\n      pop\n      pop\n      pop\n      pop\n      jump\t// out\n        /* \"#utility.yul\":16314:16494   */\n    tag_243:\n        /* \"#utility.yul\":16454:16486   */\n      0x416d6f756e7473206d7573742062652067726561746572207468616e20300000\n        /* \"#utility.yul\":16450:16451   */\n      0x00\n        /* \"#utility.yul\":16442:16448   */\n      dup3\n        /* \"#utility.yul\":16438:16452   */\n      add\n        /* \"#utility.yul\":16431:16487   */\n      mstore\n        /* \"#utility.yul\":16314:16494   */\n      pop\n      jump\t// out\n        /* \"#utility.yul\":16500:16866   */\n    tag_244:\n        /* \"#utility.yul\":16642:16645   */\n      0x00\n        /* \"#utility.yul\":16663:16730   */\n      tag_402\n        /* \"#utility.yul\":16727:16729   */\n      0x1e\n        /* \"#utility.yul\":16722:16725   */\n      dup4\n        /* \"#utility.yul\":16663:16730   */\n      tag_218\n      jump\t// in\n    tag_402:\n        /* \"#utility.yul\":16656:16730   */\n      swap2\n      pop\n        /* \"#utility.yul\":16739:16832   */\n      tag_403\n        /* \"#utility.yul\":16828:16831   */\n      dup3\n        /* \"#utility.yul\":16739:16832   */\n      tag_243\n      jump\t// in\n    tag_403:\n        /* \"#utility.yul\":16857:16859   */\n      0x20\n        /* \"#utility.yul\":16852:16855   */\n      dup3\n        /* \"#utility.yul\":16848:16860   */\n      add\n        /* \"#utility.yul\":16841:16860   */\n      swap1\n      pop\n        /* \"#utility.yul\":16500:16866   */\n      swap2\n      swap1\n      pop\n      jump\t// out\n        /* \"#utility.yul\":16872:17291   */\n    tag_142:\n        /* \"#utility.yul\":17038:17042   */\n      0x00\n        /* \"#utility.yul\":17076:17078   */\n      0x20\n        /* \"#utility.yul\":17065:17074   */\n      dup3\n        /* \"#utility.yul\":17061:17079   */\n      add\n        /* \"#utility.yul\":17053:17079   */\n      swap1\n      pop\n        /* \"#utility.yul\":17125:17134   */\n      dup2\n        /* \"#utility.yul\":17119:17123   */\n      dup2\n        /* \"#utility.yul\":17115:17135   */\n      sub\n        /* \"#utility.yul\":17111:17112   */\n      0x00\n        /* \"#utility.yul\":17100:17109   */\n      dup4\n        /* \"#utility.yul\":17096:17113   */\n      add\n        /* \"#utility.yul\":17089:17136   */\n      mstore\n        /* \"#utility.yul\":17153:17284   */\n      tag_405\n        /* \"#utility.yul\":17279:17283   */\n      dup2\n        /* \"#utility.yul\":17153:17284   */\n      tag_244\n      jump\t// in\n    tag_405:\n        /* \"#utility.yul\":17145:17284   */\n      swap1\n      pop\n        /* \"#utility.yul\":16872:17291   */\n      swap2\n      swap1\n      pop\n      jump\t// out\n        /* \"#utility.yul\":17297:17517   */\n    tag_245:\n        /* \"#utility.yul\":17437:17471   */\n      0x546f6b656e20726174696f206d757374206d6174636820706f6f6c2072617469\n        /* \"#utility.yul\":17433:17434   */\n      0x00\n        /* \"#utility.yul\":17425:17431   */\n      dup3\n        /* \"#utility.yul\":17421:17435   */\n      add\n        /* \"#utility.yul\":17414:17472   */\n      mstore\n        /* \"#utility.yul\":17506:17509   */\n      0x6f00000000000000000000000000000000000000000000000000000000000000\n        /* \"#utility.yul\":17501:17503   */\n      0x20\n        /* \"#utility.yul\":17493:17499   */\n      dup3\n        /* \"#utility.yul\":17489:17504   */\n      add\n        /* \"#utility.yul\":17482:17510   */\n      mstore\n        /* \"#utility.yul\":17297:17517   */\n      pop\n      jump\t// out\n        /* \"#utility.yul\":17523:17889   */\n    tag_246:\n        /* \"#utility.yul\":17665:17668   */\n      0x00\n        /* \"#utility.yul\":17686:17753   */\n      tag_408\n        /* \"#utility.yul\":17750:17752   */\n      0x21\n        /* \"#utility.yul\":17745:17748   */\n      dup4\n        /* \"#utility.yul\":17686:17753   */\n      tag_218\n      jump\t// in\n    tag_408:\n        /* \"#utility.yul\":17679:17753   */\n      swap2\n      pop\n        /* \"#utility.yul\":17762:17855   */\n      tag_409\n        /* \"#utility.yul\":17851:17854   */\n      dup3\n        /* \"#utility.yul\":17762:17855   */\n      tag_245\n      jump\t// in\n    tag_409:\n        /* \"#utility.yul\":17880:17882   */\n      0x40\n        /* \"#utility.yul\":17875:17878   */\n      dup3\n        /* \"#utility.yul\":17871:17883   */\n      add\n        /* \"#utility.yul\":17864:17883   */\n      swap1\n      pop\n        /* \"#utility.yul\":17523:17889   */\n      swap2\n      swap1\n      pop\n      jump\t// out\n        /* \"#utility.yul\":17895:18314   */\n    tag_149:\n        /* \"#utility.yul\":18061:18065   */\n      0x00\n        /* \"#utility.yul\":18099:18101   */\n      0x20\n        /* \"#utility.yul\":18088:18097   */\n      dup3\n        /* \"#utility.yul\":18084:18102   */\n      add\n        /* \"#utility.yul\":18076:18102   */\n      swap1\n      pop\n        /* \"#utility.yul\":18148:18157   */\n      dup2\n        /* \"#utility.yul\":18142:18146   */\n      dup2\n        /* \"#utility.yul\":18138:18158   */\n      sub\n        /* \"#utility.yul\":18134:18135   */\n      0x00\n        /* \"#utility.yul\":18123:18132   */\n      dup4\n        /* \"#utility.yul\":18119:18136   */\n      add\n        /* \"#utility.yul\":18112:18159   */\n      mstore\n        /* \"#utility.yul\":18176:18307   */\n      tag_411\n        /* \"#utility.yul\":18302:18306   */\n      dup2\n        /* \"#utility.yul\":18176:18307   */\n      tag_246\n      jump\t// in\n    tag_411:\n        /* \"#utility.yul\":18168:18307   */\n      swap1\n      pop\n        /* \"#utility.yul\":17895:18314   */\n      swap2\n      swap1\n      pop\n      jump\t// out\n\n    auxdata: 0xa264697066735822122041cb2ae6b0e8240a4ac8acf9e3ce0eb5c9841b6d1a92b4794f8884af3bc3f3cb64736f6c634300081f0033\n}\n\nsub_1: assembly {\n        /* \"contracts/LPToken.sol\":168:467  contract LPToken is ERC20, Ownable {... */\n      mstore(0x40, 0x80)\n        /* \"contracts/LPToken.sol\":210:271  constructor() ERC20(\"LP Token\", \"LPT\") Ownable(msg.sender) {} */\n      callvalue\n      dup1\n      iszero\n      tag_1\n      jumpi\n      revert(0x00, 0x00)\n    tag_1:\n      pop\n        /* \"contracts/LPToken.sol\":257:267  msg.sender */\n      caller\n        /* \"@openzeppelin/contracts/token/ERC20/ERC20.sol\":1582:1695  constructor(string memory name_, string memory symbol_) {... */\n      mload(0x40)\n      dup1\n      0x40\n      add\n      0x40\n      mstore\n      dup1\n      0x08\n      dup2\n      mstore\n      0x20\n      add\n      0x4c5020546f6b656e000000000000000000000000000000000000000000000000\n      dup2\n      mstore\n      pop\n      mload(0x40)\n      dup1\n      0x40\n      add\n      0x40\n      mstore\n      dup1\n      0x03\n      dup2\n      mstore\n      0x20\n      add\n      0x4c50540000000000000000000000000000000000000000000000000000000000\n      dup2\n      mstore\n      pop\n        /* \"@openzeppelin/contracts/token/ERC20/ERC20.sol\":1656:1661  name_ */\n      dup2\n        /* \"@openzeppelin/contracts/token/ERC20/ERC20.sol\":1648:1653  _name */\n      0x03\n        /* \"@openzeppelin/contracts/token/ERC20/ERC20.sol\":1648:1661  _name = name_ */\n      swap1\n      dup2\n      tag_6\n      swap2\n      swap1\n      tag_7\n      jump\t// in\n    tag_6:\n      pop\n        /* \"@openzeppelin/contracts/token/ERC20/ERC20.sol\":1681:1688  symbol_ */\n      dup1\n        /* \"@openzeppelin/contracts/token/ERC20/ERC20.sol\":1671:1678  _symbol */\n      0x04\n        /* \"@openzeppelin/contracts/token/ERC20/ERC20.sol\":1671:1688  _symbol = symbol_ */\n      swap1\n      dup2\n      tag_8\n      swap2\n      swap1\n      tag_7\n      jump\t// in\n    tag_8:\n      pop\n        /* \"@openzeppelin/contracts/token/ERC20/ERC20.sol\":1582:1695  constructor(string memory name_, string memory symbol_) {... */\n      pop\n      pop\n        /* \"@openzeppelin/contracts/access/Ownable.sol\":1297:1298  0 */\n      0x00\n        /* \"@openzeppelin/contracts/access/Ownable.sol\":1273:1299  initialOwner == address(0) */\n      0xffffffffffffffffffffffffffffffffffffffff\n      and\n        /* \"@openzeppelin/contracts/access/Ownable.sol\":1273:1285  initialOwner */\n      dup2\n        /* \"@openzeppelin/contracts/access/Ownable.sol\":1273:1299  initialOwner == address(0) */\n      0xffffffffffffffffffffffffffffffffffffffff\n      and\n      sub\n        /* \"@openzeppelin/contracts/access/Ownable.sol\":1269:1364  if (initialOwner == address(0)) {... */\n      tag_10\n      jumpi\n        /* \"@openzeppelin/contracts/access/Ownable.sol\":1350:1351  0 */\n      0x00\n        /* \"@openzeppelin/contracts/access/Ownable.sol\":1322:1353  OwnableInvalidOwner(address(0)) */\n      mload(0x40)\n      0x1e4fbdf700000000000000000000000000000000000000000000000000000000\n      dup2\n      mstore\n      0x04\n      add\n      tag_11\n      swap2\n      swap1\n      tag_12\n      jump\t// in\n    tag_11:\n      mload(0x40)\n      dup1\n      swap2\n      sub\n      swap1\n      revert\n        /* \"@openzeppelin/contracts/access/Ownable.sol\":1269:1364  if (initialOwner == address(0)) {... */\n    tag_10:\n        /* \"@openzeppelin/contracts/access/Ownable.sol\":1373:1405  _transferOwnership(initialOwner) */\n      tag_13\n        /* \"@openzeppelin/contracts/access/Ownable.sol\":1392:1404  initialOwner */\n      dup2\n        /* \"@openzeppelin/contracts/access/Ownable.sol\":1373:1391  _transferOwnership */\n      shl(0x20, tag_14)\n        /* \"@openzeppelin/contracts/access/Ownable.sol\":1373:1405  _transferOwnership(initialOwner) */\n      0x20\n      shr\n      jump\t// in\n    tag_13:\n        /* \"@openzeppelin/contracts/access/Ownable.sol\":1225:1412  constructor(address initialOwner) {... */\n      pop\n        /* \"contracts/LPToken.sol\":168:467  contract LPToken is ERC20, Ownable {... */\n      jump(tag_16)\n        /* \"@openzeppelin/contracts/access/Ownable.sol\":2912:3099  function _transferOwnership(address newOwner) internal virtual {... */\n    tag_14:\n        /* \"@openzeppelin/contracts/access/Ownable.sol\":2985:3001  address oldOwner */\n      0x00\n        /* \"@openzeppelin/contracts/access/Ownable.sol\":3004:3010  _owner */\n      0x05\n      0x00\n      swap1\n      sload\n      swap1\n      0x0100\n      exp\n      swap1\n      div\n      0xffffffffffffffffffffffffffffffffffffffff\n      and\n        /* \"@openzeppelin/contracts/access/Ownable.sol\":2985:3010  address oldOwner = _owner */\n      swap1\n      pop\n        /* \"@openzeppelin/contracts/access/Ownable.sol\":3029:3037  newOwner */\n      dup2\n        /* \"@openzeppelin/contracts/access/Ownable.sol\":3020:3026  _owner */\n      0x05\n      0x00\n        /* \"@openzeppelin/contracts/access/Ownable.sol\":3020:3037  _owner = newOwner */\n      0x0100\n      exp\n      dup2\n      sload\n      dup2\n      0xffffffffffffffffffffffffffffffffffffffff\n      mul\n      not\n      and\n      swap1\n      dup4\n      0xffffffffffffffffffffffffffffffffffffffff\n      and\n      mul\n      or\n      swap1\n      sstore\n      pop\n        /* \"@openzeppelin/contracts/access/Ownable.sol\":3083:3091  newOwner */\n      dup2\n        /* \"@openzeppelin/contracts/access/Ownable.sol\":3052:3092  OwnershipTransferred(oldOwner, newOwner) */\n      0xffffffffffffffffffffffffffffffffffffffff\n      and\n        /* \"@openzeppelin/contracts/access/Ownable.sol\":3073:3081  oldOwner */\n      dup2\n        /* \"@openzeppelin/contracts/access/Ownable.sol\":3052:3092  OwnershipTransferred(oldOwner, newOwner) */\n      0xffffffffffffffffffffffffffffffffffffffff\n      and\n      0x8be0079c531659141344cd1fd0a4f28419497f9722a3daafe3b4186f6b6457e0\n      mload(0x40)\n      mload(0x40)\n      dup1\n      swap2\n      sub\n      swap1\n      log3\n        /* \"@openzeppelin/contracts/access/Ownable.sol\":2975:3099  {... */\n      pop\n        /* \"@openzeppelin/contracts/access/Ownable.sol\":2912:3099  function _transferOwnership(address newOwner) internal virtual {... */\n      pop\n      jump\t// out\n        /* \"#utility.yul\":7:106   */\n    tag_18:\n        /* \"#utility.yul\":59:65   */\n      0x00\n        /* \"#utility.yul\":93:98   */\n      dup2\n        /* \"#utility.yul\":87:99   */\n      mload\n        /* \"#utility.yul\":77:99   */\n      swap1\n      pop\n        /* \"#utility.yul\":7:106   */\n      swap2\n      swap1\n      pop\n      jump\t// out\n        /* \"#utility.yul\":112:292   */\n    tag_19:\n        /* \"#utility.yul\":160:237   */\n      0x4e487b7100000000000000000000000000000000000000000000000000000000\n        /* \"#utility.yul\":157:158   */\n      0x00\n        /* \"#utility.yul\":150:238   */\n      mstore\n        /* \"#utility.yul\":257:261   */\n      0x41\n        /* \"#utility.yul\":254:255   */\n      0x04\n        /* \"#utility.yul\":247:262   */\n      mstore\n        /* \"#utility.yul\":281:285   */\n      0x24\n        /* \"#utility.yul\":278:279   */\n      0x00\n        /* \"#utility.yul\":271:286   */\n      revert\n        /* \"#utility.yul\":298:478   */\n    tag_20:\n        /* \"#utility.yul\":346:423   */\n      0x4e487b7100000000000000000000000000000000000000000000000000000000\n        /* \"#utility.yul\":343:344   */\n      0x00\n        /* \"#utility.yul\":336:424   */\n      mstore\n        /* \"#utility.yul\":443:447   */\n      0x22\n        /* \"#utility.yul\":440:441   */\n      0x04\n        /* \"#utility.yul\":433:448   */\n      mstore\n        /* \"#utility.yul\":467:471   */\n      0x24\n        /* \"#utility.yul\":464:465   */\n      0x00\n        /* \"#utility.yul\":457:472   */\n      revert\n        /* \"#utility.yul\":484:804   */\n    tag_21:\n        /* \"#utility.yul\":528:534   */\n      0x00\n        /* \"#utility.yul\":565:566   */\n      0x02\n        /* \"#utility.yul\":559:563   */\n      dup3\n        /* \"#utility.yul\":555:567   */\n      div\n        /* \"#utility.yul\":545:567   */\n      swap1\n      pop\n        /* \"#utility.yul\":612:613   */\n      0x01\n        /* \"#utility.yul\":606:610   */\n      dup3\n        /* \"#utility.yul\":602:614   */\n      and\n        /* \"#utility.yul\":633:651   */\n      dup1\n        /* \"#utility.yul\":623:704   */\n      tag_46\n      jumpi\n        /* \"#utility.yul\":689:693   */\n      0x7f\n        /* \"#utility.yul\":681:687   */\n      dup3\n        /* \"#utility.yul\":677:694   */\n      and\n        /* \"#utility.yul\":667:694   */\n      swap2\n      pop\n        /* \"#utility.yul\":623:704   */\n    tag_46:\n        /* \"#utility.yul\":751:753   */\n      0x20\n        /* \"#utility.yul\":743:749   */\n      dup3\n        /* \"#utility.yul\":740:754   */\n      lt\n        /* \"#utility.yul\":720:738   */\n      dup2\n        /* \"#utility.yul\":717:755   */\n      sub\n        /* \"#utility.yul\":714:798   */\n      tag_47\n      jumpi\n        /* \"#utility.yul\":770:788   */\n      tag_48\n      tag_20\n      jump\t// in\n    tag_48:\n        /* \"#utility.yul\":714:798   */\n    tag_47:\n        /* \"#utility.yul\":535:804   */\n      pop\n        /* \"#utility.yul\":484:804   */\n      swap2\n      swap1\n      pop\n      jump\t// out\n        /* \"#utility.yul\":810:951   */\n    tag_22:\n        /* \"#utility.yul\":859:863   */\n      0x00\n        /* \"#utility.yul\":882:885   */\n      dup2\n        /* \"#utility.yul\":874:885   */\n      swap1\n      pop\n        /* \"#utility.yul\":905:908   */\n      dup2\n        /* \"#utility.yul\":902:903   */\n      0x00\n        /* \"#utility.yul\":895:909   */\n      mstore\n        /* \"#utility.yul\":939:943   */\n      0x20\n        /* \"#utility.yul\":936:937   */\n      0x00\n        /* \"#utility.yul\":926:944   */\n      keccak256\n        /* \"#utility.yul\":918:944   */\n      swap1\n      pop\n        /* \"#utility.yul\":810:951   */\n      swap2\n      swap1\n      pop\n      jump\t// out\n        /* \"#utility.yul\":957:1050   */\n    tag_23:\n        /* \"#utility.yul\":994:1000   */\n      0x00\n        /* \"#utility.yul\":1041:1043   */\n      0x20\n        /* \"#utility.yul\":1036:1038   */\n      0x1f\n        /* \"#utility.yul\":1029:1034   */\n      dup4\n        /* \"#utility.yul\":1025:1039   */\n      add\n        /* \"#utility.yul\":1021:1044   */\n      div\n        /* \"#utility.yul\":1011:1044   */\n      swap1\n      pop\n        /* \"#utility.yul\":957:1050   */\n      swap2\n      swap1\n      pop\n      jump\t// out\n        /* \"#utility.yul\":1056:1163   */\n    tag_24:\n        /* \"#utility.yul\":1100:1108   */\n      0x00\n        /* \"#utility.yul\":1150:1155   */\n      dup3\n        /* \"#utility.yul\":1144:1148   */\n      dup3\n        /* \"#utility.yul\":1140:1156   */\n      shl\n        /* \"#utility.yul\":1119:1156   */\n      swap1\n      pop\n        /* \"#utility.yul\":1056:1163   */\n      swap3\n      swap2\n      pop\n      pop\n      jump\t// out\n        /* \"#utility.yul\":1169:1562   */\n    tag_25:\n        /* \"#utility.yul\":1238:1244   */\n      0x00\n        /* \"#utility.yul\":1288:1289   */\n      0x08\n        /* \"#utility.yul\":1276:1286   */\n      dup4\n        /* \"#utility.yul\":1272:1290   */\n      mul\n        /* \"#utility.yul\":1311:1408   */\n      tag_53\n        /* \"#utility.yul\":1341:1407   */\n      0xffffffffffffffffffffffffffffffffffffffffffffffffffffffffffffffff\n        /* \"#utility.yul\":1330:1339   */\n      dup3\n        /* \"#utility.yul\":1311:1408   */\n      tag_24\n      jump\t// in\n    tag_53:\n        /* \"#utility.yul\":1429:1468   */\n      tag_54\n        /* \"#utility.yul\":1459:1467   */\n      dup7\n        /* \"#utility.yul\":1448:1457   */\n      dup4\n        /* \"#utility.yul\":1429:1468   */\n      tag_24\n      jump\t// in\n    tag_54:\n        /* \"#utility.yul\":1417:1468   */\n      swap6\n      pop\n        /* \"#utility.yul\":1501:1505   */\n      dup1\n        /* \"#utility.yul\":1497:1506   */\n      not\n        /* \"#utility.yul\":1490:1495   */\n      dup5\n        /* \"#utility.yul\":1486:1507   */\n      and\n        /* \"#utility.yul\":1477:1507   */\n      swap4\n      pop\n        /* \"#utility.yul\":1550:1554   */\n      dup1\n        /* \"#utility.yul\":1540:1548   */\n      dup7\n        /* \"#utility.yul\":1536:1555   */\n      and\n        /* \"#utility.yul\":1529:1534   */\n      dup5\n        /* \"#utility.yul\":1526:1556   */\n      or\n        /* \"#utility.yul\":1516:1556   */\n      swap3\n      pop\n        /* \"#utility.yul\":1245:1562   */\n      pop\n      pop\n        /* \"#utility.yul\":1169:1562   */\n      swap4\n      swap3\n      pop\n      pop\n      pop\n      jump\t// out\n        /* \"#utility.yul\":1568:1645   */\n    tag_26:\n        /* \"#utility.yul\":1605:1612   */\n      0x00\n        /* \"#utility.yul\":1634:1639   */\n      dup2\n        /* \"#utility.yul\":1623:1639   */\n      swap1\n      pop\n        /* \"#utility.yul\":1568:1645   */\n      swap2\n      swap1\n      pop\n      jump\t// out\n        /* \"#utility.yul\":1651:1711   */\n    tag_27:\n        /* \"#utility.yul\":1679:1682   */\n      0x00\n        /* \"#utility.yul\":1700:1705   */\n      dup2\n        /* \"#utility.yul\":1693:1705   */\n      swap1\n      pop\n        /* \"#utility.yul\":1651:1711   */\n      swap2\n      swap1\n      pop\n      jump\t// out\n        /* \"#utility.yul\":1717:1859   */\n    tag_28:\n        /* \"#utility.yul\":1767:1776   */\n      0x00\n        /* \"#utility.yul\":1800:1853   */\n      tag_58\n        /* \"#utility.yul\":1818:1852   */\n      tag_59\n        /* \"#utility.yul\":1827:1851   */\n      tag_60\n        /* \"#utility.yul\":1845:1850   */\n      dup5\n        /* \"#utility.yul\":1827:1851   */\n      tag_26\n      jump\t// in\n    tag_60:\n        /* \"#utility.yul\":1818:1852   */\n      tag_27\n      jump\t// in\n    tag_59:\n        /* \"#utility.yul\":1800:1853   */\n      tag_26\n      jump\t// in\n    tag_58:\n        /* \"#utility.yul\":1787:1853   */\n      swap1\n      pop\n        /* \"#utility.yul\":1717:1859   */\n      swap2\n      swap1\n      pop\n      jump\t// out\n        /* \"#utility.yul\":1865:1940   */\n    tag_29:\n        /* \"#utility.yul\":1908:1911   */\n      0x00\n        /* \"#utility.yul\":1929:1934   */\n      dup2\n        /* \"#utility.yul\":1922:1934   */\n      swap1\n      pop\n        /* \"#utility.yul\":1865:1940   */\n      swap2\n      swap1\n      pop\n      jump\t// out\n        /* \"#utility.yul\":1946:2215   */\n    tag_30:\n        /* \"#utility.yul\":2056:2095   */\n      tag_63\n        /* \"#utility.yul\":2087:2094   */\n      dup4\n        /* \"#utility.yul\":2056:2095   */\n      tag_28\n      jump\t// in\n    tag_63:\n        /* \"#utility.yul\":2117:2208   */\n      tag_64\n        /* \"#utility.yul\":2166:2207   */\n      tag_65\n        /* \"#utility.yul\":2190:2206   */\n      dup3\n        /* \"#utility.yul\":2166:2207   */\n      tag_29\n      jump\t// in\n    tag_65:\n        /* \"#utility.yul\":2158:2164   */\n      dup5\n        /* \"#utility.yul\":2151:2155   */\n      dup5\n        /* \"#utility.yul\":2145:2156   */\n      sload\n        /* \"#utility.yul\":2117:2208   */\n      tag_25\n      jump\t// in\n    tag_64:\n        /* \"#utility.yul\":2111:2115   */\n      dup3\n        /* \"#utility.yul\":2104:2209   */\n      sstore\n        /* \"#utility.yul\":2022:2215   */\n      pop\n        /* \"#utility.yul\":1946:2215   */\n      pop\n      pop\n      pop\n      jump\t// out\n        /* \"#utility.yul\":2221:2294   */\n    tag_31:\n        /* \"#utility.yul\":2266:2269   */\n      0x00\n        /* \"#utility.yul\":2287:2288   */\n      0x00\n        /* \"#utility.yul\":2280:2288   */\n      swap1\n      pop\n        /* \"#utility.yul\":2221:2294   */\n      swap1\n      jump\t// out\n        /* \"#utility.yul\":2300:2489   */\n    tag_32:\n        /* \"#utility.yul\":2377:2409   */\n      tag_68\n      tag_31\n      jump\t// in\n    tag_68:\n        /* \"#utility.yul\":2418:2483   */\n      tag_69\n        /* \"#utility.yul\":2476:2482   */\n      dup2\n        /* \"#utility.yul\":2468:2474   */\n      dup5\n        /* \"#utility.yul\":2462:2466   */\n      dup5\n        /* \"#utility.yul\":2418:2483   */\n      tag_30\n      jump\t// in\n    tag_69:\n        /* \"#utility.yul\":2353:2489   */\n      pop\n        /* \"#utility.yul\":2300:2489   */\n      pop\n      pop\n      jump\t// out\n        /* \"#utility.yul\":2495:2681   */\n    tag_33:\n        /* \"#utility.yul\":2555:2675   */\n    tag_71:\n        /* \"#utility.yul\":2572:2575   */\n      dup2\n        /* \"#utility.yul\":2565:2570   */\n      dup2\n        /* \"#utility.yul\":2562:2576   */\n      lt\n        /* \"#utility.yul\":2555:2675   */\n      iszero\n      tag_73\n      jumpi\n        /* \"#utility.yul\":2626:2665   */\n      tag_74\n        /* \"#utility.yul\":2663:2664   */\n      0x00\n        /* \"#utility.yul\":2656:2661   */\n      dup3\n        /* \"#utility.yul\":2626:2665   */\n      tag_32\n      jump\t// in\n    tag_74:\n        /* \"#utility.yul\":2599:2600   */\n      0x01\n        /* \"#utility.yul\":2592:2597   */\n      dup2\n        /* \"#utility.yul\":2588:2601   */\n      add\n        /* \"#utility.yul\":2579:2601   */\n      swap1\n      pop\n        /* \"#utility.yul\":2555:2675   */\n      jump(tag_71)\n    tag_73:\n        /* \"#utility.yul\":2495:2681   */\n      pop\n      pop\n      jump\t// out\n        /* \"#utility.yul\":2687:3230   */\n    tag_34:\n        /* \"#utility.yul\":2788:2790   */\n      0x1f\n        /* \"#utility.yul\":2783:2786   */\n      dup3\n        /* \"#utility.yul\":2780:2791   */\n      gt\n        /* \"#utility.yul\":2777:3223   */\n      iszero\n      tag_76\n      jumpi\n        /* \"#utility.yul\":2822:2860   */\n      tag_77\n        /* \"#utility.yul\":2854:2859   */\n      dup2\n        /* \"#utility.yul\":2822:2860   */\n      tag_22\n      jump\t// in\n    tag_77:\n        /* \"#utility.yul\":2906:2935   */\n      tag_78\n        /* \"#utility.yul\":2924:2934   */\n      dup5\n        /* \"#utility.yul\":2906:2935   */\n      tag_23\n      jump\t// in\n    tag_78:\n        /* \"#utility.yul\":2896:2904   */\n      dup2\n        /* \"#utility.yul\":2892:2936   */\n      add\n        /* \"#utility.yul\":3089:3091   */\n      0x20\n        /* \"#utility.yul\":3077:3087   */\n      dup6\n        /* \"#utility.yul\":3074:3092   */\n      lt\n        /* \"#utility.yul\":3071:3120   */\n      iszero\n      tag_79\n      jumpi\n        /* \"#utility.yul\":3110:3118   */\n      dup2\n        /* \"#utility.yul\":3095:3118   */\n      swap1\n      pop\n        /* \"#utility.yul\":3071:3120   */\n    tag_79:\n        /* \"#utility.yul\":3133:3213   */\n      tag_80\n        /* \"#utility.yul\":3189:3211   */\n      tag_81\n        /* \"#utility.yul\":3207:3210   */\n      dup6\n        /* \"#utility.yul\":3189:3211   */\n      tag_23\n      jump\t// in\n    tag_81:\n        /* \"#utility.yul\":3179:3187   */\n      dup4\n        /* \"#utility.yul\":3175:3212   */\n      add\n        /* \"#utility.yul\":3162:3173   */\n      dup3\n        /* \"#utility.yul\":3133:3213   */\n      tag_33\n      jump\t// in\n    tag_80:\n        /* \"#utility.yul\":2792:3223   */\n      pop\n      pop\n        /* \"#utility.yul\":2777:3223   */\n    tag_76:\n        /* \"#utility.yul\":2687:3230   */\n      pop\n      pop\n      pop\n      jump\t// out\n        /* \"#utility.yul\":3236:3353   */\n    tag_35:\n        /* \"#utility.yul\":3290:3298   */\n      0x00\n        /* \"#utility.yul\":3340:3345   */\n      dup3\n        /* \"#utility.yul\":3334:3338   */\n      dup3\n        /* \"#utility.yul\":3330:3346   */\n      shr\n        /* \"#utility.yul\":3309:3346   */\n      swap1\n      pop\n        /* \"#utility.yul\":3236:3353   */\n      swap3\n      swap2\n      pop\n      pop\n      jump\t// out\n        /* \"#utility.yul\":3359:3528   */\n    tag_36:\n        /* \"#utility.yul\":3403:3409   */\n      0x00\n        /* \"#utility.yul\":3436:3487   */\n      tag_84\n        /* \"#utility.yul\":3484:3485   */\n      0x00\n        /* \"#utility.yul\":3480:3486   */\n      not\n        /* \"#utility.yul\":3472:3477   */\n      dup5\n        /* \"#utility.yul\":3469:3470   */\n      0x08\n        /* \"#utility.yul\":3465:3478   */\n      mul\n        /* \"#utility.yul\":3436:3487   */\n      tag_35\n      jump\t// in\n    tag_84:\n        /* \"#utility.yul\":3432:3488   */\n      not\n        /* \"#utility.yul\":3517:3521   */\n      dup1\n        /* \"#utility.yul\":3511:3515   */\n      dup4\n        /* \"#utility.yul\":3507:3522   */\n      and\n        /* \"#utility.yul\":3497:3522   */\n      swap2\n      pop\n        /* \"#utility.yul\":3410:3528   */\n      pop\n        /* \"#utility.yul\":3359:3528   */\n      swap3\n      swap2\n      pop\n      pop\n      jump\t// out\n        /* \"#utility.yul\":3533:3828   */\n    tag_37:\n        /* \"#utility.yul\":3609:3613   */\n      0x00\n        /* \"#utility.yul\":3755:3784   */\n      tag_86\n        /* \"#utility.yul\":3780:3783   */\n      dup4\n        /* \"#utility.yul\":3774:3778   */\n      dup4\n        /* \"#utility.yul\":3755:3784   */\n      tag_36\n      jump\t// in\n    tag_86:\n        /* \"#utility.yul\":3747:3784   */\n      swap2\n      pop\n        /* \"#utility.yul\":3817:3820   */\n      dup3\n        /* \"#utility.yul\":3814:3815   */\n      0x02\n        /* \"#utility.yul\":3810:3821   */\n      mul\n        /* \"#utility.yul\":3804:3808   */\n      dup3\n        /* \"#utility.yul\":3801:3822   */\n      or\n        /* \"#utility.yul\":3793:3822   */\n      swap1\n      pop\n        /* \"#utility.yul\":3533:3828   */\n      swap3\n      swap2\n      pop\n      pop\n      jump\t// out\n        /* \"#utility.yul\":3833:5228   */\n    tag_7:\n        /* \"#utility.yul\":3950:3987   */\n      tag_88\n        /* \"#utility.yul\":3983:3986   */\n      dup3\n        /* \"#utility.yul\":3950:3987   */\n      tag_18\n      jump\t// in\n    tag_88:\n        /* \"#utility.yul\":4052:4070   */\n      0xffffffffffffffff\n        /* \"#utility.yul\":4044:4050   */\n      dup2\n        /* \"#utility.yul\":4041:4071   */\n      gt\n        /* \"#utility.yul\":4038:4094   */\n      iszero\n      tag_89\n      jumpi\n        /* \"#utility.yul\":4074:4092   */\n      tag_90\n      tag_19\n      jump\t// in\n    tag_90:\n        /* \"#utility.yul\":4038:4094   */\n    tag_89:\n        /* \"#utility.yul\":4118:4156   */\n      tag_91\n        /* \"#utility.yul\":4150:4154   */\n      dup3\n        /* \"#utility.yul\":4144:4155   */\n      sload\n        /* \"#utility.yul\":4118:4156   */\n      tag_21\n      jump\t// in\n    tag_91:\n        /* \"#utility.yul\":4203:4270   */\n      tag_92\n        /* \"#utility.yul\":4263:4269   */\n      dup3\n        /* \"#utility.yul\":4255:4261   */\n      dup3\n        /* \"#utility.yul\":4249:4253   */\n      dup6\n        /* \"#utility.yul\":4203:4270   */\n      tag_34\n      jump\t// in\n    tag_92:\n        /* \"#utility.yul\":4297:4298   */\n      0x00\n        /* \"#utility.yul\":4321:4325   */\n      0x20\n        /* \"#utility.yul\":4308:4325   */\n      swap1\n      pop\n        /* \"#utility.yul\":4353:4355   */\n      0x1f\n        /* \"#utility.yul\":4345:4351   */\n      dup4\n        /* \"#utility.yul\":4342:4356   */\n      gt\n        /* \"#utility.yul\":4370:4371   */\n      0x01\n        /* \"#utility.yul\":4365:4983   */\n      dup2\n      eq\n      tag_94\n      jumpi\n        /* \"#utility.yul\":5027:5028   */\n      0x00\n        /* \"#utility.yul\":5044:5050   */\n      dup5\n        /* \"#utility.yul\":5041:5118   */\n      iszero\n      tag_95\n      jumpi\n        /* \"#utility.yul\":5093:5102   */\n      dup3\n        /* \"#utility.yul\":5088:5091   */\n      dup8\n        /* \"#utility.yul\":5084:5103   */\n      add\n        /* \"#utility.yul\":5078:5104   */\n      mload\n        /* \"#utility.yul\":5069:5104   */\n      swap1\n      pop\n        /* \"#utility.yul\":5041:5118   */\n    tag_95:\n        /* \"#utility.yul\":5144:5211   */\n      tag_96\n        /* \"#utility.yul\":5204:5210   */\n      dup6\n        /* \"#utility.yul\":5197:5202   */\n      dup3\n        /* \"#utility.yul\":5144:5211   */\n      tag_37\n      jump\t// in\n    tag_96:\n        /* \"#utility.yul\":5138:5142   */\n      dup7\n        /* \"#utility.yul\":5131:5212   */\n      sstore\n        /* \"#utility.yul\":5000:5222   */\n      pop\n        /* \"#utility.yul\":4335:5222   */\n      jump(tag_93)\n        /* \"#utility.yul\":4365:4983   */\n    tag_94:\n        /* \"#utility.yul\":4417:4421   */\n      0x1f\n        /* \"#utility.yul\":4413:4422   */\n      not\n        /* \"#utility.yul\":4405:4411   */\n      dup5\n        /* \"#utility.yul\":4401:4423   */\n      and\n        /* \"#utility.yul\":4451:4488   */\n      tag_97\n        /* \"#utility.yul\":4483:4487   */\n      dup7\n        /* \"#utility.yul\":4451:4488   */\n      tag_22\n      jump\t// in\n    tag_97:\n        /* \"#utility.yul\":4510:4511   */\n      0x00\n        /* \"#utility.yul\":4524:4732   */\n    tag_98:\n        /* \"#utility.yul\":4538:4545   */\n      dup3\n        /* \"#utility.yul\":4535:4536   */\n      dup2\n        /* \"#utility.yul\":4532:4546   */\n      lt\n        /* \"#utility.yul\":4524:4732   */\n      iszero\n      tag_100\n      jumpi\n        /* \"#utility.yul\":4617:4626   */\n      dup5\n        /* \"#utility.yul\":4612:4615   */\n      dup10\n        /* \"#utility.yul\":4608:4627   */\n      add\n        /* \"#utility.yul\":4602:4628   */\n      mload\n        /* \"#utility.yul\":4594:4600   */\n      dup3\n        /* \"#utility.yul\":4587:4629   */\n      sstore\n        /* \"#utility.yul\":4668:4669   */\n      0x01\n        /* \"#utility.yul\":4660:4666   */\n      dup3\n        /* \"#utility.yul\":4656:4670   */\n      add\n        /* \"#utility.yul\":4646:4670   */\n      swap2\n      pop\n        /* \"#utility.yul\":4715:4717   */\n      0x20\n        /* \"#utility.yul\":4704:4713   */\n      dup6\n        /* \"#utility.yul\":4700:4718   */\n      add\n        /* \"#utility.yul\":4687:4718   */\n      swap5\n      pop\n        /* \"#utility.yul\":4561:4565   */\n      0x20\n        /* \"#utility.yul\":4558:4559   */\n      dup2\n        /* \"#utility.yul\":4554:4566   */\n      add\n        /* \"#utility.yul\":4549:4566   */\n      swap1\n      pop\n        /* \"#utility.yul\":4524:4732   */\n      jump(tag_98)\n    tag_100:\n        /* \"#utility.yul\":4760:4766   */\n      dup7\n        /* \"#utility.yul\":4751:4758   */\n      dup4\n        /* \"#utility.yul\":4748:4767   */\n      lt\n        /* \"#utility.yul\":4745:4924   */\n      iszero\n      tag_101\n      jumpi\n        /* \"#utility.yul\":4818:4827   */\n      dup5\n        /* \"#utility.yul\":4813:4816   */\n      dup10\n        /* \"#utility.yul\":4809:4828   */\n      add\n        /* \"#utility.yul\":4803:4829   */\n      mload\n        /* \"#utility.yul\":4861:4909   */\n      tag_102\n        /* \"#utility.yul\":4903:4907   */\n      0x1f\n        /* \"#utility.yul\":4895:4901   */\n      dup10\n        /* \"#utility.yul\":4891:4908   */\n      and\n        /* \"#utility.yul\":4880:4889   */\n      dup3\n        /* \"#utility.yul\":4861:4909   */\n      tag_36\n      jump\t// in\n    tag_102:\n        /* \"#utility.yul\":4853:4859   */\n      dup4\n        /* \"#utility.yul\":4846:4910   */\n      sstore\n        /* \"#utility.yul\":4768:4924   */\n      pop\n        /* \"#utility.yul\":4745:4924   */\n    tag_101:\n        /* \"#utility.yul\":4970:4971   */\n      0x01\n        /* \"#utility.yul\":4966:4967   */\n      0x02\n        /* \"#utility.yul\":4958:4964   */\n      dup9\n        /* \"#utility.yul\":4954:4968   */\n      mul\n        /* \"#utility.yul\":4950:4972   */\n      add\n        /* \"#utility.yul\":4944:4948   */\n      dup9\n        /* \"#utility.yul\":4937:4973   */\n      sstore\n        /* \"#utility.yul\":4372:4983   */\n      pop\n      pop\n      pop\n        /* \"#utility.yul\":4335:5222   */\n    tag_93:\n      pop\n        /* \"#utility.yul\":3925:5228   */\n      pop\n      pop\n      pop\n        /* \"#utility.yul\":3833:5228   */\n      pop\n      pop\n      jump\t// out\n        /* \"#utility.yul\":5234:5360   */\n    tag_38:\n        /* \"#utility.yul\":5271:5278   */\n      0x00\n        /* \"#utility.yul\":5311:5353   */\n      0xffffffffffffffffffffffffffffffffffffffff\n        /* \"#utility.yul\":5304:5309   */\n      dup3\n        /* \"#utility.yul\":5300:5354   */\n      and\n        /* \"#utility.yul\":5289:5354   */\n      swap1\n      pop\n        /* \"#utility.yul\":5234:5360   */\n      swap2\n      swap1\n      pop\n      jump\t// out\n        /* \"#utility.yul\":5366:5462   */\n    tag_39:\n        /* \"#utility.yul\":5403:5410   */\n      0x00\n        /* \"#utility.yul\":5432:5456   */\n      tag_105\n        /* \"#utility.yul\":5450:5455   */\n      dup3\n        /* \"#utility.yul\":5432:5456   */\n      tag_38\n      jump\t// in\n    tag_105:\n        /* \"#utility.yul\":5421:5456   */\n      swap1\n      pop\n        /* \"#utility.yul\":5366:5462   */\n      swap2\n      swap1\n      pop\n      jump\t// out\n        /* \"#utility.yul\":5468:5586   */\n    tag_40:\n        /* \"#utility.yul\":5555:5579   */\n      tag_107\n        /* \"#utility.yul\":5573:5578   */\n      dup2\n        /* \"#utility.yul\":5555:5579   */\n      tag_39\n      jump\t// in\n    tag_107:\n        /* \"#utility.yul\":5550:5553   */\n      dup3\n        /* \"#utility.yul\":5543:5580   */\n      mstore\n        /* \"#utility.yul\":5468:5586   */\n      pop\n      pop\n      jump\t// out\n        /* \"#utility.yul\":5592:5814   */\n    tag_12:\n        /* \"#utility.yul\":5685:5689   */\n      0x00\n        /* \"#utility.yul\":5723:5725   */\n      0x20\n        /* \"#utility.yul\":5712:5721   */\n      dup3\n        /* \"#utility.yul\":5708:5726   */\n      add\n        /* \"#utility.yul\":5700:5726   */\n      swap1\n      pop\n        /* \"#utility.yul\":5736:5807   */\n      tag_109\n        /* \"#utility.yul\":5804:5805   */\n      0x00\n        /* \"#utility.yul\":5793:5802   */\n      dup4\n        /* \"#utility.yul\":5789:5806   */\n      add\n        /* \"#utility.yul\":5780:5786   */\n      dup5\n        /* \"#utility.yul\":5736:5807   */\n      tag_40\n      jump\t// in\n    tag_109:\n        /* \"#utility.yul\":5592:5814   */\n      swap3\n      swap2\n      pop\n      pop\n      jump\t// out\n        /* \"contracts/LPToken.sol\":168:467  contract LPToken is ERC20, Ownable {... */\n    tag_16:\n      dataSize(sub_0)\n      dup1\n      dataOffset(sub_0)\n      0x00\n      codecopy\n      0x00\n      return\n    stop\n\n    sub_0: assembly {\n            /* \"contracts/LPToken.sol\":168:467  contract LPToken is ERC20, Ownable {... */\n          mstore(0x40, 0x80)\n          callvalue\n          dup1\n          iszero\n          tag_1\n          jumpi\n          revert(0x00, 0x00)\n        tag_1:\n          pop\n          jumpi(tag_2, lt(calldatasize, 0x04))\n          shr(0xe0, calldataload(0x00))\n          dup1\n          0x715018a6\n          gt\n          tag_17\n          jumpi\n          dup1\n          0x9dc29fac\n          gt\n          tag_18\n          jumpi\n          dup1\n          0x9dc29fac\n          eq\n          tag_13\n          jumpi\n          dup1\n          0xa9059cbb\n          eq\n          tag_14\n          jumpi\n          dup1\n          0xdd62ed3e\n          eq\n          tag_15\n          jumpi\n          dup1\n          0xf2fde38b\n          eq\n          tag_16\n          jumpi\n          jump(tag_2)\n        tag_18:\n          dup1\n          0x715018a6\n          eq\n          tag_10\n          jumpi\n          dup1\n          0x8da5cb5b\n          eq\n          tag_11\n          jumpi\n          dup1\n          0x95d89b41\n          eq\n          tag_12\n          jumpi\n          jump(tag_2)\n        tag_17:\n          dup1\n          0x23b872dd\n          gt\n          tag_19\n          jumpi\n          dup1\n          0x23b872dd\n          eq\n          tag_6\n          jumpi\n          dup1\n          0x313ce567\n          eq\n          tag_7\n          jumpi\n          dup1\n          0x40c10f19\n          eq\n          tag_8\n          jumpi\n          dup1\n          0x70a08231\n          eq\n          tag_9\n          jumpi\n          jump(tag_2)\n        tag_19:\n          dup1\n          0x06fdde03\n          eq\n          tag_3\n          jumpi\n          dup1\n          0x095ea7b3\n          eq\n          tag_4\n          jumpi\n          dup1\n          0x18160ddd\n          eq\n          tag_5\n          jumpi\n        tag_2:\n          revert(0x00, 0x00)\n            /* \"@openzeppelin/contracts/token/ERC20/ERC20.sol\":1760:1849  function name() public view virtual returns (string memory) {... */\n        tag_3:\n          tag_20\n          tag_21\n          jump\t// in\n        tag_20:\n          mload(0x40)\n          tag_22\n          swap2\n          swap1\n          tag_23\n          jump\t// in\n        tag_22:\n          mload(0x40)\n          dup1\n          swap2\n          sub\n          swap1\n          return\n            /* \"@openzeppelin/contracts/token/ERC20/ERC20.sol\":3902:4088  function approve(address spender, uint256 value) public virtual returns (bool) {... */\n        tag_4:\n          tag_24\n          0x04\n          dup1\n          calldatasize\n          sub\n          dup2\n          add\n          swap1\n          tag_25\n          swap2\n          swap1\n          tag_26\n          jump\t// in\n        tag_25:\n          tag_27\n          jump\t// in\n        tag_24:\n          mload(0x40)\n          tag_28\n          swap2\n          swap1\n          tag_29\n          jump\t// in\n        tag_28:\n          mload(0x40)\n          dup1\n          swap2\n          sub\n          swap1\n          return\n            /* \"@openzeppelin/contracts/token/ERC20/ERC20.sol\":2803:2900  function totalSupply() public view virtual returns (uint256) {... */\n        tag_5:\n          tag_30\n          tag_31\n          jump\t// in\n        tag_30:\n          mload(0x40)\n          tag_32\n          swap2\n          swap1\n          tag_33\n          jump\t// in\n        tag_32:\n          mload(0x40)\n          dup1\n          swap2\n          sub\n          swap1\n          return\n            /* \"@openzeppelin/contracts/token/ERC20/ERC20.sol\":4680:4924  function transferFrom(address from, address to, uint256 value) public virtual returns (bool) {... */\n        tag_6:\n          tag_34\n          0x04\n          dup1\n          calldatasize\n          sub\n          dup2\n          add\n          swap1\n          tag_35\n          swap2\n          swap1\n          tag_36\n          jump\t// in\n        tag_35:\n          tag_37\n          jump\t// in\n        tag_34:\n          mload(0x40)\n          tag_38\n          swap2\n          swap1\n          tag_29\n          jump\t// in\n        tag_38:\n          mload(0x40)\n          dup1\n          swap2\n          sub\n          swap1\n          return\n            /* \"@openzeppelin/contracts/token/ERC20/ERC20.sol\":2688:2770  function decimals() public view virtual returns (uint8) {... */\n        tag_7:\n          tag_39\n          tag_40\n          jump\t// in\n        tag_39:\n          mload(0x40)\n          tag_41\n          swap2\n          swap1\n          tag_42\n          jump\t// in\n        tag_41:\n          mload(0x40)\n          dup1\n          swap2\n          sub\n          swap1\n          return\n            /* \"contracts/LPToken.sol\":277:366  function mint(address to, uint256 amt) external onlyOwner {... */\n        tag_8:\n          tag_43\n          0x04\n          dup1\n          calldatasize\n          sub\n          dup2\n          add\n          swap1\n          tag_44\n          swap2\n          swap1\n          tag_26\n          jump\t// in\n        tag_44:\n          tag_45\n          jump\t// in\n        tag_43:\n          stop\n            /* \"@openzeppelin/contracts/token/ERC20/ERC20.sol\":2933:3049  function balanceOf(address account) public view virtual returns (uint256) {... */\n        tag_9:\n          tag_46\n          0x04\n          dup1\n          calldatasize\n          sub\n          dup2\n          add\n          swap1\n          tag_47\n          swap2\n          swap1\n          tag_48\n          jump\t// in\n        tag_47:\n          tag_49\n          jump\t// in\n        tag_46:\n          mload(0x40)\n          tag_50\n          swap2\n          swap1\n          tag_33\n          jump\t// in\n        tag_50:\n          mload(0x40)\n          dup1\n          swap2\n          sub\n          swap1\n          return\n            /* \"@openzeppelin/contracts/access/Ownable.sol\":2293:2394  function renounceOwnership() public virtual onlyOwner {... */\n        tag_10:\n          tag_51\n          tag_52\n          jump\t// in\n        tag_51:\n          stop\n            /* \"@openzeppelin/contracts/access/Ownable.sol\":1638:1723  function owner() public view virtual returns (address) {... */\n        tag_11:\n          tag_53\n          tag_54\n          jump\t// in\n        tag_53:\n          mload(0x40)\n          tag_55\n          swap2\n          swap1\n          tag_56\n          jump\t// in\n        tag_55:\n          mload(0x40)\n          dup1\n          swap2\n          sub\n          swap1\n          return\n            /* \"@openzeppelin/contracts/token/ERC20/ERC20.sol\":1962:2055  function symbol() public view virtual returns (string memory) {... */\n        tag_12:\n          tag_57\n          tag_58\n          jump\t// in\n        tag_57:\n          mload(0x40)\n          tag_59\n          swap2\n          swap1\n          tag_23\n          jump\t// in\n        tag_59:\n          mload(0x40)\n          dup1\n          swap2\n          sub\n          swap1\n          return\n            /* \"contracts/LPToken.sol\":372:465  function burn(address from, uint256 amt) external onlyOwner {... */\n        tag_13:\n          tag_60\n          0x04\n          dup1\n          calldatasize\n          sub\n          dup2\n          add\n          swap1\n          tag_61\n          swap2\n          swap1\n          tag_26\n          jump\t// in\n        tag_61:\n          tag_62\n          jump\t// in\n        tag_60:\n          stop\n            /* \"@openzeppelin/contracts/token/ERC20/ERC20.sol\":3244:3422  function transfer(address to, uint256 value) public virtual returns (bool) {... */\n        tag_14:\n          tag_63\n          0x04\n          dup1\n          calldatasize\n          sub\n          dup2\n          add\n          swap1\n          tag_64\n          swap2\n          swap1\n          tag_26\n          jump\t// in\n        tag_64:\n          tag_65\n          jump\t// in\n        tag_63:\n          mload(0x40)\n          tag_66\n          swap2\n          swap1\n          tag_29\n          jump\t// in\n        tag_66:\n          mload(0x40)\n          dup1\n          swap2\n          sub\n          swap1\n          return\n            /* \"@openzeppelin/contracts/token/ERC20/ERC20.sol\":3455:3595  function allowance(address owner, address spender) public view virtual returns (uint256) {... */\n        tag_15:\n          tag_67\n          0x04\n          dup1\n          calldatasize\n          sub\n          dup2\n          add\n          swap1\n          tag_68\n          swap2\n          swap1\n          tag_69\n          jump\t// in\n        tag_68:\n          tag_70\n          jump\t// in\n        tag_67:\n          mload(0x40)\n          tag_71\n          swap2\n          swap1\n          tag_33\n          jump\t// in\n        tag_71:\n          mload(0x40)\n          dup1\n          swap2\n          sub\n          swap1\n          return\n            /* \"@openzeppelin/contracts/access/Ownable.sol\":2543:2758  function transferOwnership(address newOwner) public virtual onlyOwner {... */\n        tag_16:\n          tag_72\n          0x04\n          dup1\n          calldatasize\n          sub\n          dup2\n          add\n          swap1\n          tag_73\n          swap2\n          swap1\n          tag_48\n          jump\t// in\n        tag_73:\n          tag_74\n          jump\t// in\n        tag_72:\n          stop\n            /* \"@openzeppelin/contracts/token/ERC20/ERC20.sol\":1760:1849  function name() public view virtual returns (string memory) {... */\n        tag_21:\n            /* \"@openzeppelin/contracts/token/ERC20/ERC20.sol\":1805:1818  string memory */\n          0x60\n            /* \"@openzeppelin/contracts/token/ERC20/ERC20.sol\":1837:1842  _name */\n          0x03\n            /* \"@openzeppelin/contracts/token/ERC20/ERC20.sol\":1830:1842  return _name */\n          dup1\n          sload\n          tag_76\n          swap1\n          tag_77\n          jump\t// in\n        tag_76:\n          dup1\n          0x1f\n          add\n          0x20\n          dup1\n          swap2\n          div\n          mul\n          0x20\n          add\n          mload(0x40)\n          swap1\n          dup2\n          add\n          0x40\n          mstore\n          dup1\n          swap3\n          swap2\n          swap1\n          dup2\n          dup2\n          mstore\n          0x20\n          add\n          dup3\n          dup1\n          sload\n          tag_78\n          swap1\n          tag_77\n          jump\t// in\n        tag_78:\n          dup1\n          iszero\n          tag_79\n          jumpi\n          dup1\n          0x1f\n          lt\n          tag_80\n          jumpi\n          0x0100\n          dup1\n          dup4\n          sload\n          div\n          mul\n          dup4\n          mstore\n          swap2\n          0x20\n          add\n          swap2\n          jump(tag_79)\n        tag_80:\n          dup3\n          add\n          swap2\n          swap1\n          0x00\n          mstore\n          keccak256(0x00, 0x20)\n          swap1\n        tag_81:\n          dup2\n          sload\n          dup2\n          mstore\n          swap1\n          0x01\n          add\n          swap1\n          0x20\n          add\n          dup1\n          dup4\n          gt\n          tag_81\n          jumpi\n          dup3\n          swap1\n          sub\n          0x1f\n          and\n          dup3\n          add\n          swap2\n        tag_79:\n          pop\n          pop\n          pop\n          pop\n          pop\n          swap1\n          pop\n            /* \"@openzeppelin/contracts/token/ERC20/ERC20.sol\":1760:1849  function name() public view virtual returns (string memory) {... */\n          swap1\n          jump\t// out\n            /* \"@openzeppelin/contracts/token/ERC20/ERC20.sol\":3902:4088  function approve(address spender, uint256 value) public virtual returns (bool) {... */\n        tag_27:\n            /* \"@openzeppelin/contracts/token/ERC20/ERC20.sol\":3975:3979  bool */\n          0x00\n            /* \"@openzeppelin/contracts/token/ERC20/ERC20.sol\":3991:4004  address owner */\n          0x00\n            /* \"@openzeppelin/contracts/token/ERC20/ERC20.sol\":4007:4019  _msgSender() */\n          tag_83\n            /* \"@openzeppelin/contracts/token/ERC20/ERC20.sol\":4007:4017  _msgSender */\n          tag_84\n            /* \"@openzeppelin/contracts/token/ERC20/ERC20.sol\":4007:4019  _msgSender() */\n          jump\t// in\n        tag_83:\n            /* \"@openzeppelin/contracts/token/ERC20/ERC20.sol\":3991:4019  address owner = _msgSender() */\n          swap1\n          pop\n            /* \"@openzeppelin/contracts/token/ERC20/ERC20.sol\":4029:4060  _approve(owner, spender, value) */\n          tag_85\n            /* \"@openzeppelin/contracts/token/ERC20/ERC20.sol\":4038:4043  owner */\n          dup2\n            /* \"@openzeppelin/contracts/token/ERC20/ERC20.sol\":4045:4052  spender */\n          dup6\n            /* \"@openzeppelin/contracts/token/ERC20/ERC20.sol\":4054:4059  value */\n          dup6\n            /* \"@openzeppelin/contracts/token/ERC20/ERC20.sol\":4029:4037  _approve */\n          tag_86\n            /* \"@openzeppelin/contracts/token/ERC20/ERC20.sol\":4029:4060  _approve(owner, spender, value) */\n          jump\t// in\n        tag_85:\n            /* \"@openzeppelin/contracts/token/ERC20/ERC20.sol\":4077:4081  true */\n          0x01\n            /* \"@openzeppelin/contracts/token/ERC20/ERC20.sol\":4070:4081  return true */\n          swap2\n          pop\n          pop\n            /* \"@openzeppelin/contracts/token/ERC20/ERC20.sol\":3902:4088  function approve(address spender, uint256 value) public virtual returns (bool) {... */\n          swap3\n          swap2\n          pop\n          pop\n          jump\t// out\n            /* \"@openzeppelin/contracts/token/ERC20/ERC20.sol\":2803:2900  function totalSupply() public view virtual returns (uint256) {... */\n        tag_31:\n            /* \"@openzeppelin/contracts/token/ERC20/ERC20.sol\":2855:2862  uint256 */\n          0x00\n            /* \"@openzeppelin/contracts/token/ERC20/ERC20.sol\":2881:2893  _totalSupply */\n          sload(0x02)\n            /* \"@openzeppelin/contracts/token/ERC20/ERC20.sol\":2874:2893  return _totalSupply */\n          swap1\n          pop\n            /* \"@openzeppelin/contracts/token/ERC20/ERC20.sol\":2803:2900  function totalSupply() public view virtual returns (uint256) {... */\n          swap1\n          jump\t// out\n            /* \"@openzeppelin/contracts/token/ERC20/ERC20.sol\":4680:4924  function transferFrom(address from, address to, uint256 value) public virtual returns (bool) {... */\n        tag_37:\n            /* \"@openzeppelin/contracts/token/ERC20/ERC20.sol\":4767:4771  bool */\n          0x00\n            /* \"@openzeppelin/contracts/token/ERC20/ERC20.sol\":4783:4798  address spender */\n          0x00\n            /* \"@openzeppelin/contracts/token/ERC20/ERC20.sol\":4801:4813  _msgSender() */\n          tag_89\n            /* \"@openzeppelin/contracts/token/ERC20/ERC20.sol\":4801:4811  _msgSender */\n          tag_84\n            /* \"@openzeppelin/contracts/token/ERC20/ERC20.sol\":4801:4813  _msgSender() */\n          jump\t// in\n        tag_89:\n            /* \"@openzeppelin/contracts/token/ERC20/ERC20.sol\":4783:4813  address spender = _msgSender() */\n          swap1\n          pop\n            /* \"@openzeppelin/contracts/token/ERC20/ERC20.sol\":4823:4860  _spendAllowance(from, spender, value) */\n          tag_90\n            /* \"@openzeppelin/contracts/token/ERC20/ERC20.sol\":4839:4843  from */\n          dup6\n            /* \"@openzeppelin/contracts/token/ERC20/ERC20.sol\":4845:4852  spender */\n          dup3\n            /* \"@openzeppelin/contracts/token/ERC20/ERC20.sol\":4854:4859  value */\n          dup6\n            /* \"@openzeppelin/contracts/token/ERC20/ERC20.sol\":4823:4838  _spendAllowance */\n          tag_91\n            /* \"@openzeppelin/contracts/token/ERC20/ERC20.sol\":4823:4860  _spendAllowance(from, spender, value) */\n          jump\t// in\n        tag_90:\n            /* \"@openzeppelin/contracts/token/ERC20/ERC20.sol\":4870:4896  _transfer(from, to, value) */\n          tag_92\n            /* \"@openzeppelin/contracts/token/ERC20/ERC20.sol\":4880:4884  from */\n          dup6\n            /* \"@openzeppelin/contracts/token/ERC20/ERC20.sol\":4886:4888  to */\n          dup6\n            /* \"@openzeppelin/contracts/token/ERC20/ERC20.sol\":4890:4895  value */\n          dup6\n            /* \"@openzeppelin/contracts/token/ERC20/ERC20.sol\":4870:4879  _transfer */\n          tag_93\n            /* \"@openzeppelin/contracts/token/ERC20/ERC20.sol\":4870:4896  _transfer(from, to, value) */\n          jump\t// in\n        tag_92:\n            /* \"@openzeppelin/contracts/token/ERC20/ERC20.sol\":4913:4917  true */\n          0x01\n            /* \"@openzeppelin/contracts/token/ERC20/ERC20.sol\":4906:4917  return true */\n          swap2\n          pop\n          pop\n            /* \"@openzeppelin/contracts/token/ERC20/ERC20.sol\":4680:4924  function transferFrom(address from, address to, uint256 value) public virtual returns (bool) {... */\n          swap4\n          swap3\n          pop\n          pop\n          pop\n          jump\t// out\n            /* \"@openzeppelin/contracts/token/ERC20/ERC20.sol\":2688:2770  function decimals() public view virtual returns (uint8) {... */\n        tag_40:\n            /* \"@openzeppelin/contracts/token/ERC20/ERC20.sol\":2737:2742  uint8 */\n          0x00\n            /* \"@openzeppelin/contracts/token/ERC20/ERC20.sol\":2761:2763  18 */\n          0x12\n            /* \"@openzeppelin/contracts/token/ERC20/ERC20.sol\":2754:2763  return 18 */\n          swap1\n          pop\n            /* \"@openzeppelin/contracts/token/ERC20/ERC20.sol\":2688:2770  function decimals() public view virtual returns (uint8) {... */\n          swap1\n          jump\t// out\n            /* \"contracts/LPToken.sol\":277:366  function mint(address to, uint256 amt) external onlyOwner {... */\n        tag_45:\n            /* \"@openzeppelin/contracts/access/Ownable.sol\":1531:1544  _checkOwner() */\n          tag_96\n            /* \"@openzeppelin/contracts/access/Ownable.sol\":1531:1542  _checkOwner */\n          tag_97\n            /* \"@openzeppelin/contracts/access/Ownable.sol\":1531:1544  _checkOwner() */\n          jump\t// in\n        tag_96:\n            /* \"contracts/LPToken.sol\":345:359  _mint(to, amt) */\n          tag_99\n            /* \"contracts/LPToken.sol\":351:353  to */\n          dup3\n            /* \"contracts/LPToken.sol\":355:358  amt */\n          dup3\n            /* \"contracts/LPToken.sol\":345:350  _mint */\n          tag_100\n            /* \"contracts/LPToken.sol\":345:359  _mint(to, amt) */\n          jump\t// in\n        tag_99:\n            /* \"contracts/LPToken.sol\":277:366  function mint(address to, uint256 amt) external onlyOwner {... */\n          pop\n          pop\n          jump\t// out\n            /* \"@openzeppelin/contracts/token/ERC20/ERC20.sol\":2933:3049  function balanceOf(address account) public view virtual returns (uint256) {... */\n        tag_49:\n            /* \"@openzeppelin/contracts/token/ERC20/ERC20.sol\":2998:3005  uint256 */\n          0x00\n            /* \"@openzeppelin/contracts/token/ERC20/ERC20.sol\":3024:3033  _balances */\n          0x00\n            /* \"@openzeppelin/contracts/token/ERC20/ERC20.sol\":3024:3042  _balances[account] */\n          0x00\n            /* \"@openzeppelin/contracts/token/ERC20/ERC20.sol\":3034:3041  account */\n          dup4\n            /* \"@openzeppelin/contracts/token/ERC20/ERC20.sol\":3024:3042  _balances[account] */\n          0xffffffffffffffffffffffffffffffffffffffff\n          and\n          0xffffffffffffffffffffffffffffffffffffffff\n          and\n          dup2\n          mstore\n          0x20\n          add\n          swap1\n          dup2\n          mstore\n          0x20\n          add\n          0x00\n          keccak256\n          sload\n            /* \"@openzeppelin/contracts/token/ERC20/ERC20.sol\":3017:3042  return _balances[account] */\n          swap1\n          pop\n            /* \"@openzeppelin/contracts/token/ERC20/ERC20.sol\":2933:3049  function balanceOf(address account) public view virtual returns (uint256) {... */\n          swap2\n          swap1\n          pop\n          jump\t// out\n            /* \"@openzeppelin/contracts/access/Ownable.sol\":2293:2394  function renounceOwnership() public virtual onlyOwner {... */\n        tag_52:\n            /* \"@openzeppelin/contracts/access/Ownable.sol\":1531:1544  _checkOwner() */\n          tag_103\n            /* \"@openzeppelin/contracts/access/Ownable.sol\":1531:1542  _checkOwner */\n          tag_97\n            /* \"@openzeppelin/contracts/access/Ownable.sol\":1531:1544  _checkOwner() */\n          jump\t// in\n        tag_103:\n            /* \"@openzeppelin/contracts/access/Ownable.sol\":2357:2387  _transferOwnership(address(0)) */\n          tag_105\n            /* \"@openzeppelin/contracts/access/Ownable.sol\":2384:2385  0 */\n          0x00\n            /* \"@openzeppelin/contracts/access/Ownable.sol\":2357:2375  _transferOwnership */\n          tag_106\n            /* \"@openzeppelin/contracts/access/Ownable.sol\":2357:2387  _transferOwnership(address(0)) */\n          jump\t// in\n        tag_105:\n            /* \"@openzeppelin/contracts/access/Ownable.sol\":2293:2394  function renounceOwnership() public virtual onlyOwner {... */\n          jump\t// out\n            /* \"@openzeppelin/contracts/access/Ownable.sol\":1638:1723  function owner() public view virtual returns (address) {... */\n        tag_54:\n            /* \"@openzeppelin/contracts/access/Ownable.sol\":1684:1691  address */\n          0x00\n            /* \"@openzeppelin/contracts/access/Ownable.sol\":1710:1716  _owner */\n          0x05\n          0x00\n          swap1\n          sload\n          swap1\n          0x0100\n          exp\n          swap1\n          div\n          0xffffffffffffffffffffffffffffffffffffffff\n          and\n            /* \"@openzeppelin/contracts/access/Ownable.sol\":1703:1716  return _owner */\n          swap1\n          pop\n            /* \"@openzeppelin/contracts/access/Ownable.sol\":1638:1723  function owner() public view virtual returns (address) {... */\n          swap1\n          jump\t// out\n            /* \"@openzeppelin/contracts/token/ERC20/ERC20.sol\":1962:2055  function symbol() public view virtual returns (string memory) {... */\n        tag_58:\n            /* \"@openzeppelin/contracts/token/ERC20/ERC20.sol\":2009:2022  string memory */\n          0x60\n            /* \"@openzeppelin/contracts/token/ERC20/ERC20.sol\":2041:2048  _symbol */\n          0x04\n            /* \"@openzeppelin/contracts/token/ERC20/ERC20.sol\":2034:2048  return _symbol */\n          dup1\n          sload\n          tag_109\n          swap1\n          tag_77\n          jump\t// in\n        tag_109:\n          dup1\n          0x1f\n          add\n          0x20\n          dup1\n          swap2\n          div\n          mul\n          0x20\n          add\n          mload(0x40)\n          swap1\n          dup2\n          add\n          0x40\n          mstore\n          dup1\n          swap3\n          swap2\n          swap1\n          dup2\n          dup2\n          mstore\n          0x20\n          add\n          dup3\n          dup1\n          sload\n          tag_110\n          swap1\n          tag_77\n          jump\t// in\n        tag_110:\n          dup1\n          iszero\n          tag_111\n          jumpi\n          dup1\n          0x1f\n          lt\n          tag_112\n          jumpi\n          0x0100\n          dup1\n          dup4\n          sload\n          div\n          mul\n          dup4\n          mstore\n          swap2\n          0x20\n          add\n          swap2\n          jump(tag_111)\n        tag_112:\n          dup3\n          add\n          swap2\n          swap1\n          0x00\n          mstore\n          keccak256(0x00, 0x20)\n          swap1\n        tag_113:\n          dup2\n          sload\n          dup2\n          mstore\n          swap1\n          0x01\n          add\n          swap1\n          0x20\n          add\n          dup1\n          dup4\n          gt\n          tag_113\n          jumpi\n          dup3\n          swap1\n          sub\n          0x1f\n          and\n          dup3\n          add\n          swap2\n        tag_111:\n          pop\n          pop\n          pop\n          pop\n          pop\n          swap1\n          pop\n            /* \"@openzeppelin/contracts/token/ERC20/ERC20.sol\":1962:2055  function symbol() public view virtual returns (string memory) {... */\n          swap1\n          jump\t// out\n            /* \"contracts/LPToken.sol\":372:465  function burn(address from, uint256 amt) external onlyOwner {... */\n        tag_62:\n            /* \"@openzeppelin/contracts/access/Ownable.sol\":1531:1544  _checkOwner() */\n          tag_115\n            /* \"@openzeppelin/contracts/access/Ownable.sol\":1531:1542  _checkOwner */\n          tag_97\n            /* \"@openzeppelin/contracts/access/Ownable.sol\":1531:1544  _checkOwner() */\n          jump\t// in\n        tag_115:\n            /* \"contracts/LPToken.sol\":442:458  _burn(from, amt) */\n          tag_117\n            /* \"contracts/LPToken.sol\":448:452  from */\n          dup3\n            /* \"contracts/LPToken.sol\":454:457  amt */\n          dup3\n            /* \"contracts/LPToken.sol\":442:447  _burn */\n          tag_118\n            /* \"contracts/LPToken.sol\":442:458  _burn(from, amt) */\n          jump\t// in\n        tag_117:\n            /* \"contracts/LPToken.sol\":372:465  function burn(address from, uint256 amt) external onlyOwner {... */\n          pop\n          pop\n          jump\t// out\n            /* \"@openzeppelin/contracts/token/ERC20/ERC20.sol\":3244:3422  function transfer(address to, uint256 value) public virtual returns (bool) {... */\n        tag_65:\n            /* \"@openzeppelin/contracts/token/ERC20/ERC20.sol\":3313:3317  bool */\n          0x00\n            /* \"@openzeppelin/contracts/token/ERC20/ERC20.sol\":3329:3342  address owner */\n          0x00\n            /* \"@openzeppelin/contracts/token/ERC20/ERC20.sol\":3345:3357  _msgSender() */\n          tag_120\n            /* \"@openzeppelin/contracts/token/ERC20/ERC20.sol\":3345:3355  _msgSender */\n          tag_84\n            /* \"@openzeppelin/contracts/token/ERC20/ERC20.sol\":3345:3357  _msgSender() */\n          jump\t// in\n        tag_120:\n            /* \"@openzeppelin/contracts/token/ERC20/ERC20.sol\":3329:3357  address owner = _msgSender() */\n          swap1\n          pop\n            /* \"@openzeppelin/contracts/token/ERC20/ERC20.sol\":3367:3394  _transfer(owner, to, value) */\n          tag_121\n            /* \"@openzeppelin/contracts/token/ERC20/ERC20.sol\":3377:3382  owner */\n          dup2\n            /* \"@openzeppelin/contracts/token/ERC20/ERC20.sol\":3384:3386  to */\n          dup6\n            /* \"@openzeppelin/contracts/token/ERC20/ERC20.sol\":3388:3393  value */\n          dup6\n            /* \"@openzeppelin/contracts/token/ERC20/ERC20.sol\":3367:3376  _transfer */\n          tag_93\n            /* \"@openzeppelin/contracts/token/ERC20/ERC20.sol\":3367:3394  _transfer(owner, to, value) */\n          jump\t// in\n        tag_121:\n            /* \"@openzeppelin/contracts/token/ERC20/ERC20.sol\":3411:3415  true */\n          0x01\n            /* \"@openzeppelin/contracts/token/ERC20/ERC20.sol\":3404:3415  return true */\n          swap2\n          pop\n          pop\n            /* \"@openzeppelin/contracts/token/ERC20/ERC20.sol\":3244:3422  function transfer(address to, uint256 value) public virtual returns (bool) {... */\n          swap3\n          swap2\n          pop\n          pop\n          jump\t// out\n            /* \"@openzeppelin/contracts/token/ERC20/ERC20.sol\":3455:3595  function allowance(address owner, address spender) public view virtual returns (uint256) {... */\n        tag_70:\n            /* \"@openzeppelin/contracts/token/ERC20/ERC20.sol\":3535:3542  uint256 */\n          0x00\n            /* \"@openzeppelin/contracts/token/ERC20/ERC20.sol\":3561:3572  _allowances */\n          0x01\n            /* \"@openzeppelin/contracts/token/ERC20/ERC20.sol\":3561:3579  _allowances[owner] */\n          0x00\n            /* \"@openzeppelin/contracts/token/ERC20/ERC20.sol\":3573:3578  owner */\n          dup5\n            /* \"@openzeppelin/contracts/token/ERC20/ERC20.sol\":3561:3579  _allowances[owner] */\n          0xffffffffffffffffffffffffffffffffffffffff\n          and\n          0xffffffffffffffffffffffffffffffffffffffff\n          and\n          dup2\n          mstore\n          0x20\n          add\n          swap1\n          dup2\n          mstore\n          0x20\n          add\n          0x00\n          keccak256\n            /* \"@openzeppelin/contracts/token/ERC20/ERC20.sol\":3561:3588  _allowances[owner][spender] */\n          0x00\n            /* \"@openzeppelin/contracts/token/ERC20/ERC20.sol\":3580:3587  spender */\n          dup4\n            /* \"@openzeppelin/contracts/token/ERC20/ERC20.sol\":3561:3588  _allowances[owner][spender] */\n          0xffffffffffffffffffffffffffffffffffffffff\n          and\n          0xffffffffffffffffffffffffffffffffffffffff\n          and\n          dup2\n          mstore\n          0x20\n          add\n          swap1\n          dup2\n          mstore\n          0x20\n          add\n          0x00\n          keccak256\n          sload\n            /* \"@openzeppelin/contracts/token/ERC20/ERC20.sol\":3554:3588  return _allowances[owner][spender] */\n          swap1\n          pop\n            /* \"@openzeppelin/contracts/token/ERC20/ERC20.sol\":3455:3595  function allowance(address owner, address spender) public view virtual returns (uint256) {... */\n          swap3\n          swap2\n          pop\n          pop\n          jump\t// out\n            /* \"@openzeppelin/contracts/access/Ownable.sol\":2543:2758  function transferOwnership(address newOwner) public virtual onlyOwner {... */\n        tag_74:\n            /* \"@openzeppelin/contracts/access/Ownable.sol\":1531:1544  _checkOwner() */\n          tag_124\n            /* \"@openzeppelin/contracts/access/Ownable.sol\":1531:1542  _checkOwner */\n          tag_97\n            /* \"@openzeppelin/contracts/access/Ownable.sol\":1531:1544  _checkOwner() */\n          jump\t// in\n        tag_124:\n            /* \"@openzeppelin/contracts/access/Ownable.sol\":2647:2648  0 */\n          0x00\n            /* \"@openzeppelin/contracts/access/Ownable.sol\":2627:2649  newOwner == address(0) */\n          0xffffffffffffffffffffffffffffffffffffffff\n          and\n            /* \"@openzeppelin/contracts/access/Ownable.sol\":2627:2635  newOwner */\n          dup2\n            /* \"@openzeppelin/contracts/access/Ownable.sol\":2627:2649  newOwner == address(0) */\n          0xffffffffffffffffffffffffffffffffffffffff\n          and\n          sub\n            /* \"@openzeppelin/contracts/access/Ownable.sol\":2623:2714  if (newOwner == address(0)) {... */\n          tag_126\n          jumpi\n            /* \"@openzeppelin/contracts/access/Ownable.sol\":2700:2701  0 */\n          0x00\n            /* \"@openzeppelin/contracts/access/Ownable.sol\":2672:2703  OwnableInvalidOwner(address(0)) */\n          mload(0x40)\n          0x1e4fbdf700000000000000000000000000000000000000000000000000000000\n          dup2\n          mstore\n          0x04\n          add\n          tag_127\n          swap2\n          swap1\n          tag_56\n          jump\t// in\n        tag_127:\n          mload(0x40)\n          dup1\n          swap2\n          sub\n          swap1\n          revert\n            /* \"@openzeppelin/contracts/access/Ownable.sol\":2623:2714  if (newOwner == address(0)) {... */\n        tag_126:\n            /* \"@openzeppelin/contracts/access/Ownable.sol\":2723:2751  _transferOwnership(newOwner) */\n          tag_128\n            /* \"@openzeppelin/contracts/access/Ownable.sol\":2742:2750  newOwner */\n          dup2\n            /* \"@openzeppelin/contracts/access/Ownable.sol\":2723:2741  _transferOwnership */\n          tag_106\n            /* \"@openzeppelin/contracts/access/Ownable.sol\":2723:2751  _transferOwnership(newOwner) */\n          jump\t// in\n        tag_128:\n            /* \"@openzeppelin/contracts/access/Ownable.sol\":2543:2758  function transferOwnership(address newOwner) public virtual onlyOwner {... */\n          pop\n          jump\t// out\n            /* \"@openzeppelin/contracts/utils/Context.sol\":656:752  function _msgSender() internal view virtual returns (address) {... */\n        tag_84:\n            /* \"@openzeppelin/contracts/utils/Context.sol\":709:716  address */\n          0x00\n            /* \"@openzeppelin/contracts/utils/Context.sol\":735:745  msg.sender */\n          caller\n            /* \"@openzeppelin/contracts/utils/Context.sol\":728:745  return msg.sender */\n          swap1\n          pop\n            /* \"@openzeppelin/contracts/utils/Context.sol\":656:752  function _msgSender() internal view virtual returns (address) {... */\n          swap1\n          jump\t// out\n            /* \"@openzeppelin/contracts/token/ERC20/ERC20.sol\":8630:8758  function _approve(address owner, address spender, uint256 value) internal {... */\n        tag_86:\n            /* \"@openzeppelin/contracts/token/ERC20/ERC20.sol\":8714:8751  _approve(owner, spender, value, true) */\n          tag_131\n            /* \"@openzeppelin/contracts/token/ERC20/ERC20.sol\":8723:8728  owner */\n          dup4\n            /* \"@openzeppelin/contracts/token/ERC20/ERC20.sol\":8730:8737  spender */\n          dup4\n            /* \"@openzeppelin/contracts/token/ERC20/ERC20.sol\":8739:8744  value */\n          dup4\n            /* \"@openzeppelin/contracts/token/ERC20/ERC20.sol\":8746:8750  true */\n          0x01\n            /* \"@openzeppelin/contracts/token/ERC20/ERC20.sol\":8714:8722  _approve */\n          tag_132\n            /* \"@openzeppelin/contracts/token/ERC20/ERC20.sol\":8714:8751  _approve(owner, spender, value, true) */\n          jump\t// in\n        tag_131:\n            /* \"@openzeppelin/contracts/token/ERC20/ERC20.sol\":8630:8758  function _approve(address owner, address spender, uint256 value) internal {... */\n          pop\n          pop\n          pop\n          jump\t// out\n            /* \"@openzeppelin/contracts/token/ERC20/ERC20.sol\":10321:10797  function _spendAllowance(address owner, address spender, uint256 value) internal virtual {... */\n        tag_91:\n            /* \"@openzeppelin/contracts/token/ERC20/ERC20.sol\":10420:10444  uint256 currentAllowance */\n          0x00\n            /* \"@openzeppelin/contracts/token/ERC20/ERC20.sol\":10447:10472  allowance(owner, spender) */\n          tag_134\n            /* \"@openzeppelin/contracts/token/ERC20/ERC20.sol\":10457:10462  owner */\n          dup5\n            /* \"@openzeppelin/contracts/token/ERC20/ERC20.sol\":10464:10471  spender */\n          dup5\n            /* \"@openzeppelin/contracts/token/ERC20/ERC20.sol\":10447:10456  allowance */\n          tag_70\n            /* \"@openzeppelin/contracts/token/ERC20/ERC20.sol\":10447:10472  allowance(owner, spender) */\n          jump\t// in\n        tag_134:\n            /* \"@openzeppelin/contracts/token/ERC20/ERC20.sol\":10420:10472  uint256 currentAllowance = allowance(owner, spender) */\n          swap1\n          pop\n            /* \"@openzeppelin/contracts/token/ERC20/ERC20.sol\":10505:10522  type(uint256).max */\n          0xffffffffffffffffffffffffffffffffffffffffffffffffffffffffffffffff\n            /* \"@openzeppelin/contracts/token/ERC20/ERC20.sol\":10486:10502  currentAllowance */\n          dup2\n            /* \"@openzeppelin/contracts/token/ERC20/ERC20.sol\":10486:10522  currentAllowance < type(uint256).max */\n          lt\n            /* \"@openzeppelin/contracts/token/ERC20/ERC20.sol\":10482:10791  if (currentAllowance < type(uint256).max) {... */\n          iszero\n          tag_135\n          jumpi\n            /* \"@openzeppelin/contracts/token/ERC20/ERC20.sol\":10561:10566  value */\n          dup2\n            /* \"@openzeppelin/contracts/token/ERC20/ERC20.sol\":10542:10558  currentAllowance */\n          dup2\n            /* \"@openzeppelin/contracts/token/ERC20/ERC20.sol\":10542:10566  currentAllowance < value */\n          lt\n            /* \"@openzeppelin/contracts/token/ERC20/ERC20.sol\":10538:10668  if (currentAllowance < value) {... */\n          iszero\n          tag_136\n          jumpi\n            /* \"@openzeppelin/contracts/token/ERC20/ERC20.sol\":10620:10627  spender */\n          dup3\n            /* \"@openzeppelin/contracts/token/ERC20/ERC20.sol\":10629:10645  currentAllowance */\n          dup2\n            /* \"@openzeppelin/contracts/token/ERC20/ERC20.sol\":10647:10652  value */\n          dup4\n            /* \"@openzeppelin/contracts/token/ERC20/ERC20.sol\":10593:10653  ERC20InsufficientAllowance(spender, currentAllowance, value) */\n          mload(0x40)\n          0xfb8f41b200000000000000000000000000000000000000000000000000000000\n          dup2\n          mstore\n          0x04\n          add\n          tag_137\n          swap4\n          swap3\n          swap2\n          swap1\n          tag_138\n          jump\t// in\n        tag_137:\n          mload(0x40)\n          dup1\n          swap2\n          sub\n          swap1\n          revert\n            /* \"@openzeppelin/contracts/token/ERC20/ERC20.sol\":10538:10668  if (currentAllowance < value) {... */\n        tag_136:\n            /* \"@openzeppelin/contracts/token/ERC20/ERC20.sol\":10709:10766  _approve(owner, spender, currentAllowance - value, false) */\n          tag_139\n            /* \"@openzeppelin/contracts/token/ERC20/ERC20.sol\":10718:10723  owner */\n          dup5\n            /* \"@openzeppelin/contracts/token/ERC20/ERC20.sol\":10725:10732  spender */\n          dup5\n            /* \"@openzeppelin/contracts/token/ERC20/ERC20.sol\":10753:10758  value */\n          dup5\n            /* \"@openzeppelin/contracts/token/ERC20/ERC20.sol\":10734:10750  currentAllowance */\n          dup5\n            /* \"@openzeppelin/contracts/token/ERC20/ERC20.sol\":10734:10758  currentAllowance - value */\n          sub\n            /* \"@openzeppelin/contracts/token/ERC20/ERC20.sol\":10760:10765  false */\n          0x00\n            /* \"@openzeppelin/contracts/token/ERC20/ERC20.sol\":10709:10717  _approve */\n          tag_132\n            /* \"@openzeppelin/contracts/token/ERC20/ERC20.sol\":10709:10766  _approve(owner, spender, currentAllowance - value, false) */\n          jump\t// in\n        tag_139:\n            /* \"@openzeppelin/contracts/token/ERC20/ERC20.sol\":10482:10791  if (currentAllowance < type(uint256).max) {... */\n        tag_135:\n            /* \"@openzeppelin/contracts/token/ERC20/ERC20.sol\":10410:10797  {... */\n          pop\n            /* \"@openzeppelin/contracts/token/ERC20/ERC20.sol\":10321:10797  function _spendAllowance(address owner, address spender, uint256 value) internal virtual {... */\n          pop\n          pop\n          pop\n          jump\t// out\n            /* \"@openzeppelin/contracts/token/ERC20/ERC20.sol\":5297:5597  function _transfer(address from, address to, uint256 value) internal {... */\n        tag_93:\n            /* \"@openzeppelin/contracts/token/ERC20/ERC20.sol\":5396:5397  0 */\n          0x00\n            /* \"@openzeppelin/contracts/token/ERC20/ERC20.sol\":5380:5398  from == address(0) */\n          0xffffffffffffffffffffffffffffffffffffffff\n          and\n            /* \"@openzeppelin/contracts/token/ERC20/ERC20.sol\":5380:5384  from */\n          dup4\n            /* \"@openzeppelin/contracts/token/ERC20/ERC20.sol\":5380:5398  from == address(0) */\n          0xffffffffffffffffffffffffffffffffffffffff\n          and\n          sub\n            /* \"@openzeppelin/contracts/token/ERC20/ERC20.sol\":5376:5462  if (from == address(0)) {... */\n          tag_141\n          jumpi\n            /* \"@openzeppelin/contracts/token/ERC20/ERC20.sol\":5448:5449  0 */\n          0x00\n            /* \"@openzeppelin/contracts/token/ERC20/ERC20.sol\":5421:5451  ERC20InvalidSender(address(0)) */\n          mload(0x40)\n          0x96c6fd1e00000000000000000000000000000000000000000000000000000000\n          dup2\n          mstore\n          0x04\n          add\n          tag_142\n          swap2\n          swap1\n          tag_56\n          jump\t// in\n        tag_142:\n          mload(0x40)\n          dup1\n          swap2\n          sub\n          swap1\n          revert\n            /* \"@openzeppelin/contracts/token/ERC20/ERC20.sol\":5376:5462  if (from == address(0)) {... */\n        tag_141:\n            /* \"@openzeppelin/contracts/token/ERC20/ERC20.sol\":5489:5490  0 */\n          0x00\n            /* \"@openzeppelin/contracts/token/ERC20/ERC20.sol\":5475:5491  to == address(0) */\n          0xffffffffffffffffffffffffffffffffffffffff\n          and\n            /* \"@openzeppelin/contracts/token/ERC20/ERC20.sol\":5475:5477  to */\n          dup3\n            /* \"@openzeppelin/contracts/token/ERC20/ERC20.sol\":5475:5491  to == address(0) */\n          0xffffffffffffffffffffffffffffffffffffffff\n          and\n          sub\n            /* \"@openzeppelin/contracts/token/ERC20/ERC20.sol\":5471:5557  if (to == address(0)) {... */\n          tag_143\n          jumpi\n            /* \"@openzeppelin/contracts/token/ERC20/ERC20.sol\":5543:5544  0 */\n          0x00\n            /* \"@openzeppelin/contracts/token/ERC20/ERC20.sol\":5514:5546  ERC20InvalidReceiver(address(0)) */\n          mload(0x40)\n          0xec442f0500000000000000000000000000000000000000000000000000000000\n          dup2\n          mstore\n          0x04\n          add\n          tag_144\n          swap2\n          swap1\n          tag_56\n          jump\t// in\n        tag_144:\n          mload(0x40)\n          dup1\n          swap2\n          sub\n          swap1\n          revert\n            /* \"@openzeppelin/contracts/token/ERC20/ERC20.sol\":5471:5557  if (to == address(0)) {... */\n        tag_143:\n            /* \"@openzeppelin/contracts/token/ERC20/ERC20.sol\":5566:5590  _update(from, to, value) */\n          tag_145\n            /* \"@openzeppelin/contracts/token/ERC20/ERC20.sol\":5574:5578  from */\n          dup4\n            /* \"@openzeppelin/contracts/token/ERC20/ERC20.sol\":5580:5582  to */\n          dup4\n            /* \"@openzeppelin/contracts/token/ERC20/ERC20.sol\":5584:5589  value */\n          dup4\n            /* \"@openzeppelin/contracts/token/ERC20/ERC20.sol\":5566:5573  _update */\n          tag_146\n            /* \"@openzeppelin/contracts/token/ERC20/ERC20.sol\":5566:5590  _update(from, to, value) */\n          jump\t// in\n        tag_145:\n            /* \"@openzeppelin/contracts/token/ERC20/ERC20.sol\":5297:5597  function _transfer(address from, address to, uint256 value) internal {... */\n          pop\n          pop\n          pop\n          jump\t// out\n            /* \"@openzeppelin/contracts/access/Ownable.sol\":1796:1958  function _checkOwner() internal view virtual {... */\n        tag_97:\n            /* \"@openzeppelin/contracts/access/Ownable.sol\":1866:1878  _msgSender() */\n          tag_148\n            /* \"@openzeppelin/contracts/access/Ownable.sol\":1866:1876  _msgSender */\n          tag_84\n            /* \"@openzeppelin/contracts/access/Ownable.sol\":1866:1878  _msgSender() */\n          jump\t// in\n        tag_148:\n            /* \"@openzeppelin/contracts/access/Ownable.sol\":1855:1878  owner() != _msgSender() */\n          0xffffffffffffffffffffffffffffffffffffffff\n          and\n            /* \"@openzeppelin/contracts/access/Ownable.sol\":1855:1862  owner() */\n          tag_149\n            /* \"@openzeppelin/contracts/access/Ownable.sol\":1855:1860  owner */\n          tag_54\n            /* \"@openzeppelin/contracts/access/Ownable.sol\":1855:1862  owner() */\n          jump\t// in\n        tag_149:\n            /* \"@openzeppelin/contracts/access/Ownable.sol\":1855:1878  owner() != _msgSender() */\n          0xffffffffffffffffffffffffffffffffffffffff\n          and\n          eq\n            /* \"@openzeppelin/contracts/access/Ownable.sol\":1851:1952  if (owner() != _msgSender()) {... */\n          tag_150\n          jumpi\n            /* \"@openzeppelin/contracts/access/Ownable.sol\":1928:1940  _msgSender() */\n          tag_151\n            /* \"@openzeppelin/contracts/access/Ownable.sol\":1928:1938  _msgSender */\n          tag_84\n            /* \"@openzeppelin/contracts/access/Ownable.sol\":1928:1940  _msgSender() */\n          jump\t// in\n        tag_151:\n            /* \"@openzeppelin/contracts/access/Ownable.sol\":1901:1941  OwnableUnauthorizedAccount(_msgSender()) */\n          mload(0x40)\n          0x118cdaa700000000000000000000000000000000000000000000000000000000\n          dup2\n          mstore\n          0x04\n          add\n          tag_152\n          swap2\n          swap1\n          tag_56\n          jump\t// in\n        tag_152:\n          mload(0x40)\n          dup1\n          swap2\n          sub\n          swap1\n          revert\n            /* \"@openzeppelin/contracts/access/Ownable.sol\":1851:1952  if (owner() != _msgSender()) {... */\n        tag_150:\n            /* \"@openzeppelin/contracts/access/Ownable.sol\":1796:1958  function _checkOwner() internal view virtual {... */\n          jump\t// out\n            /* \"@openzeppelin/contracts/token/ERC20/ERC20.sol\":7362:7570  function _mint(address account, uint256 value) internal {... */\n        tag_100:\n            /* \"@openzeppelin/contracts/token/ERC20/ERC20.sol\":7451:7452  0 */\n          0x00\n            /* \"@openzeppelin/contracts/token/ERC20/ERC20.sol\":7432:7453  account == address(0) */\n          0xffffffffffffffffffffffffffffffffffffffff\n          and\n            /* \"@openzeppelin/contracts/token/ERC20/ERC20.sol\":7432:7439  account */\n          dup3\n            /* \"@openzeppelin/contracts/token/ERC20/ERC20.sol\":7432:7453  account == address(0) */\n          0xffffffffffffffffffffffffffffffffffffffff\n          and\n          sub\n            /* \"@openzeppelin/contracts/token/ERC20/ERC20.sol\":7428:7519  if (account == address(0)) {... */\n          tag_154\n          jumpi\n            /* \"@openzeppelin/contracts/token/ERC20/ERC20.sol\":7505:7506  0 */\n          0x00\n            /* \"@openzeppelin/contracts/token/ERC20/ERC20.sol\":7476:7508  ERC20InvalidReceiver(address(0)) */\n          mload(0x40)\n          0xec442f0500000000000000000000000000000000000000000000000000000000\n          dup2\n          mstore\n          0x04\n          add\n          tag_155\n          swap2\n          swap1\n          tag_56\n          jump\t// in\n        tag_155:\n          mload(0x40)\n          dup1\n          swap2\n          sub\n          swap1\n          revert\n            /* \"@openzeppelin/contracts/token/ERC20/ERC20.sol\":7428:7519  if (account == address(0)) {... */\n        tag_154:\n            /* \"@openzeppelin/contracts/token/ERC20/ERC20.sol\":7528:7563  _update(address(0), account, value) */\n          tag_156\n            /* \"@openzeppelin/contracts/token/ERC20/ERC20.sol\":7544:7545  0 */\n          0x00\n            /* \"@openzeppelin/contracts/token/ERC20/ERC20.sol\":7548:7555  account */\n          dup4\n            /* \"@openzeppelin/contracts/token/ERC20/ERC20.sol\":7557:7562  value */\n          dup4\n            /* \"@openzeppelin/contracts/token/ERC20/ERC20.sol\":7528:7535  _update */\n          tag_146\n            /* \"@openzeppelin/contracts/token/ERC20/ERC20.sol\":7528:7563  _update(address(0), account, value) */\n          jump\t// in\n        tag_156:\n            /* \"@openzeppelin/contracts/token/ERC20/ERC20.sol\":7362:7570  function _mint(address account, uint256 value) internal {... */\n          pop\n          pop\n          jump\t// out\n            /* \"@openzeppelin/contracts/access/Ownable.sol\":2912:3099  function _transferOwnership(address newOwner) internal virtual {... */\n        tag_106:\n            /* \"@openzeppelin/contracts/access/Ownable.sol\":2985:3001  address oldOwner */\n          0x00\n            /* \"@openzeppelin/contracts/access/Ownable.sol\":3004:3010  _owner */\n          0x05\n          0x00\n          swap1\n          sload\n          swap1\n          0x0100\n          exp\n          swap1\n          div\n          0xffffffffffffffffffffffffffffffffffffffff\n          and\n            /* \"@openzeppelin/contracts/access/Ownable.sol\":2985:3010  address oldOwner = _owner */\n          swap1\n          pop\n            /* \"@openzeppelin/contracts/access/Ownable.sol\":3029:3037  newOwner */\n          dup2\n            /* \"@openzeppelin/contracts/access/Ownable.sol\":3020:3026  _owner */\n          0x05\n          0x00\n            /* \"@openzeppelin/contracts/access/Ownable.sol\":3020:3037  _owner = newOwner */\n          0x0100\n          exp\n          dup2\n          sload\n          dup2\n          0xffffffffffffffffffffffffffffffffffffffff\n          mul\n          not\n          and\n          swap1\n          dup4\n          0xffffffffffffffffffffffffffffffffffffffff\n          and\n          mul\n          or\n          swap1\n          sstore\n          pop\n            /* \"@openzeppelin/contracts/access/Ownable.sol\":3083:3091  newOwner */\n          dup2\n            /* \"@openzeppelin/contracts/access/Ownable.sol\":3052:3092  OwnershipTransferred(oldOwner, newOwner) */\n          0xffffffffffffffffffffffffffffffffffffffff\n          and\n            /* \"@openzeppelin/contracts/access/Ownable.sol\":3073:3081  oldOwner */\n          dup2\n            /* \"@openzeppelin/contracts/access/Ownable.sol\":3052:3092  OwnershipTransferred(oldOwner, newOwner) */\n          0xffffffffffffffffffffffffffffffffffffffff\n          and\n          0x8be0079c531659141344cd1fd0a4f28419497f9722a3daafe3b4186f6b6457e0\n          mload(0x40)\n          mload(0x40)\n          dup1\n          swap2\n          sub\n          swap1\n          log3\n            /* \"@openzeppelin/contracts/access/Ownable.sol\":2975:3099  {... */\n          pop\n            /* \"@openzeppelin/contracts/access/Ownable.sol\":2912:3099  function _transferOwnership(address newOwner) internal virtual {... */\n          pop\n          jump\t// out\n            /* \"@openzeppelin/contracts/token/ERC20/ERC20.sol\":7888:8094  function _burn(address account, uint256 value) internal {... */\n        tag_118:\n            /* \"@openzeppelin/contracts/token/ERC20/ERC20.sol\":7977:7978  0 */\n          0x00\n            /* \"@openzeppelin/contracts/token/ERC20/ERC20.sol\":7958:7979  account == address(0) */\n          0xffffffffffffffffffffffffffffffffffffffff\n          and\n            /* \"@openzeppelin/contracts/token/ERC20/ERC20.sol\":7958:7965  account */\n          dup3\n            /* \"@openzeppelin/contracts/token/ERC20/ERC20.sol\":7958:7979  account == address(0) */\n          0xffffffffffffffffffffffffffffffffffffffff\n          and\n          sub\n            /* \"@openzeppelin/contracts/token/ERC20/ERC20.sol\":7954:8043  if (account == address(0)) {... */\n          tag_159\n          jumpi\n            /* \"@openzeppelin/contracts/token/ERC20/ERC20.sol\":8029:8030  0 */\n          0x00\n            /* \"@openzeppelin/contracts/token/ERC20/ERC20.sol\":8002:8032  ERC20InvalidSender(address(0)) */\n          mload(0x40)\n          0x96c6fd1e00000000000000000000000000000000000000000000000000000000\n          dup2\n          mstore\n          0x04\n          add\n          tag_160\n          swap2\n          swap1\n          tag_56\n          jump\t// in\n        tag_160:\n          mload(0x40)\n          dup1\n          swap2\n          sub\n          swap1\n          revert\n            /* \"@openzeppelin/contracts/token/ERC20/ERC20.sol\":7954:8043  if (account == address(0)) {... */\n        tag_159:\n            /* \"@openzeppelin/contracts/token/ERC20/ERC20.sol\":8052:8087  _update(account, address(0), value) */\n          tag_161\n            /* \"@openzeppelin/contracts/token/ERC20/ERC20.sol\":8060:8067  account */\n          dup3\n            /* \"@openzeppelin/contracts/token/ERC20/ERC20.sol\":8077:8078  0 */\n          0x00\n            /* \"@openzeppelin/contracts/token/ERC20/ERC20.sol\":8081:8086  value */\n          dup4\n            /* \"@openzeppelin/contracts/token/ERC20/ERC20.sol\":8052:8059  _update */\n          tag_146\n            /* \"@openzeppelin/contracts/token/ERC20/ERC20.sol\":8052:8087  _update(account, address(0), value) */\n          jump\t// in\n        tag_161:\n            /* \"@openzeppelin/contracts/token/ERC20/ERC20.sol\":7888:8094  function _burn(address account, uint256 value) internal {... */\n          pop\n          pop\n          jump\t// out\n            /* \"@openzeppelin/contracts/token/ERC20/ERC20.sol\":9607:10039  function _approve(address owner, address spender, uint256 value, bool emitEvent) internal virtual {... */\n        tag_132:\n            /* \"@openzeppelin/contracts/token/ERC20/ERC20.sol\":9736:9737  0 */\n          0x00\n            /* \"@openzeppelin/contracts/token/ERC20/ERC20.sol\":9719:9738  owner == address(0) */\n          0xffffffffffffffffffffffffffffffffffffffff\n          and\n            /* \"@openzeppelin/contracts/token/ERC20/ERC20.sol\":9719:9724  owner */\n          dup5\n            /* \"@openzeppelin/contracts/token/ERC20/ERC20.sol\":9719:9738  owner == address(0) */\n          0xffffffffffffffffffffffffffffffffffffffff\n          and\n          sub\n            /* \"@openzeppelin/contracts/token/ERC20/ERC20.sol\":9715:9804  if (owner == address(0)) {... */\n          tag_163\n          jumpi\n            /* \"@openzeppelin/contracts/token/ERC20/ERC20.sol\":9790:9791  0 */\n          0x00\n            /* \"@openzeppelin/contracts/token/ERC20/ERC20.sol\":9761:9793  ERC20InvalidApprover(address(0)) */\n          mload(0x40)\n          0xe602df0500000000000000000000000000000000000000000000000000000000\n          dup2\n          mstore\n          0x04\n          add\n          tag_164\n          swap2\n          swap1\n          tag_56\n          jump\t// in\n        tag_164:\n          mload(0x40)\n          dup1\n          swap2\n          sub\n          swap1\n          revert\n            /* \"@openzeppelin/contracts/token/ERC20/ERC20.sol\":9715:9804  if (owner == address(0)) {... */\n        tag_163:\n            /* \"@openzeppelin/contracts/token/ERC20/ERC20.sol\":9836:9837  0 */\n          0x00\n            /* \"@openzeppelin/contracts/token/ERC20/ERC20.sol\":9817:9838  spender == address(0) */\n          0xffffffffffffffffffffffffffffffffffffffff\n          and\n            /* \"@openzeppelin/contracts/token/ERC20/ERC20.sol\":9817:9824  spender */\n          dup4\n            /* \"@openzeppelin/contracts/token/ERC20/ERC20.sol\":9817:9838  spender == address(0) */\n          0xffffffffffffffffffffffffffffffffffffffff\n          and\n          sub\n            /* \"@openzeppelin/contracts/token/ERC20/ERC20.sol\":9813:9903  if (spender == address(0)) {... */\n          tag_165\n          jumpi\n            /* \"@openzeppelin/contracts/token/ERC20/ERC20.sol\":9889:9890  0 */\n          0x00\n            /* \"@openzeppelin/contracts/token/ERC20/ERC20.sol\":9861:9892  ERC20InvalidSpender(address(0)) */\n          mload(0x40)\n          0x94280d6200000000000000000000000000000000000000000000000000000000\n          dup2\n          mstore\n          0x04\n          add\n          tag_166\n          swap2\n          swap1\n          tag_56\n          jump\t// in\n        tag_166:\n          mload(0x40)\n          dup1\n          swap2\n          sub\n          swap1\n          revert\n            /* \"@openzeppelin/contracts/token/ERC20/ERC20.sol\":9813:9903  if (spender == address(0)) {... */\n        tag_165:\n            /* \"@openzeppelin/contracts/token/ERC20/ERC20.sol\":9942:9947  value */\n          dup2\n            /* \"@openzeppelin/contracts/token/ERC20/ERC20.sol\":9912:9923  _allowances */\n          0x01\n            /* \"@openzeppelin/contracts/token/ERC20/ERC20.sol\":9912:9930  _allowances[owner] */\n          0x00\n            /* \"@openzeppelin/contracts/token/ERC20/ERC20.sol\":9924:9929  owner */\n          dup7\n            /* \"@openzeppelin/contracts/token/ERC20/ERC20.sol\":9912:9930  _allowances[owner] */\n          0xffffffffffffffffffffffffffffffffffffffff\n          and\n          0xffffffffffffffffffffffffffffffffffffffff\n          and\n          dup2\n          mstore\n          0x20\n          add\n          swap1\n          dup2\n          mstore\n          0x20\n          add\n          0x00\n          keccak256\n            /* \"@openzeppelin/contracts/token/ERC20/ERC20.sol\":9912:9939  _allowances[owner][spender] */\n          0x00\n            /* \"@openzeppelin/contracts/token/ERC20/ERC20.sol\":9931:9938  spender */\n          dup6\n            /* \"@openzeppelin/contracts/token/ERC20/ERC20.sol\":9912:9939  _allowances[owner][spender] */\n          0xffffffffffffffffffffffffffffffffffffffff\n          and\n          0xffffffffffffffffffffffffffffffffffffffff\n          and\n          dup2\n          mstore\n          0x20\n          add\n          swap1\n          dup2\n          mstore\n          0x20\n          add\n          0x00\n          keccak256\n            /* \"@openzeppelin/contracts/token/ERC20/ERC20.sol\":9912:9947  _allowances[owner][spender] = value */\n          dup2\n          swap1\n          sstore\n          pop\n            /* \"@openzeppelin/contracts/token/ERC20/ERC20.sol\":9961:9970  emitEvent */\n          dup1\n            /* \"@openzeppelin/contracts/token/ERC20/ERC20.sol\":9957:10033  if (emitEvent) {... */\n          iszero\n          tag_167\n          jumpi\n            /* \"@openzeppelin/contracts/token/ERC20/ERC20.sol\":10007:10014  spender */\n          dup3\n            /* \"@openzeppelin/contracts/token/ERC20/ERC20.sol\":9991:10022  Approval(owner, spender, value) */\n          0xffffffffffffffffffffffffffffffffffffffff\n          and\n            /* \"@openzeppelin/contracts/token/ERC20/ERC20.sol\":10000:10005  owner */\n          dup5\n            /* \"@openzeppelin/contracts/token/ERC20/ERC20.sol\":9991:10022  Approval(owner, spender, value) */\n          0xffffffffffffffffffffffffffffffffffffffff\n          and\n          0x8c5be1e5ebec7d5bd14f71427d1e84f3dd0314c0f7b2291e5b200ac8c7c3b925\n            /* \"@openzeppelin/contracts/token/ERC20/ERC20.sol\":10016:10021  value */\n          dup5\n            /* \"@openzeppelin/contracts/token/ERC20/ERC20.sol\":9991:10022  Approval(owner, spender, value) */\n          mload(0x40)\n          tag_168\n          swap2\n          swap1\n          tag_33\n          jump\t// in\n        tag_168:\n          mload(0x40)\n          dup1\n          swap2\n          sub\n          swap1\n          log3\n            /* \"@openzeppelin/contracts/token/ERC20/ERC20.sol\":9957:10033  if (emitEvent) {... */\n        tag_167:\n            /* \"@openzeppelin/contracts/token/ERC20/ERC20.sol\":9607:10039  function _approve(address owner, address spender, uint256 value, bool emitEvent) internal virtual {... */\n          pop\n          pop\n          pop\n          pop\n          jump\t// out\n            /* \"@openzeppelin/contracts/token/ERC20/ERC20.sol\":5912:7019  function _update(address from, address to, uint256 value) internal virtual {... */\n        tag_146:\n            /* \"@openzeppelin/contracts/token/ERC20/ERC20.sol\":6017:6018  0 */\n          0x00\n            /* \"@openzeppelin/contracts/token/ERC20/ERC20.sol\":6001:6019  from == address(0) */\n          0xffffffffffffffffffffffffffffffffffffffff\n          and\n            /* \"@openzeppelin/contracts/token/ERC20/ERC20.sol\":6001:6005  from */\n          dup4\n            /* \"@openzeppelin/contracts/token/ERC20/ERC20.sol\":6001:6019  from == address(0) */\n          0xffffffffffffffffffffffffffffffffffffffff\n          and\n          sub\n            /* \"@openzeppelin/contracts/token/ERC20/ERC20.sol\":5997:6537  if (from == address(0)) {... */\n          tag_170\n          jumpi\n            /* \"@openzeppelin/contracts/token/ERC20/ERC20.sol\":6153:6158  value */\n          dup1\n            /* \"@openzeppelin/contracts/token/ERC20/ERC20.sol\":6137:6149  _totalSupply */\n          0x02\n          0x00\n            /* \"@openzeppelin/contracts/token/ERC20/ERC20.sol\":6137:6158  _totalSupply += value */\n          dup3\n          dup3\n          sload\n          tag_171\n          swap2\n          swap1\n          tag_172\n          jump\t// in\n        tag_171:\n          swap3\n          pop\n          pop\n          dup2\n          swap1\n          sstore\n          pop\n            /* \"@openzeppelin/contracts/token/ERC20/ERC20.sol\":5997:6537  if (from == address(0)) {... */\n          jump(tag_173)\n        tag_170:\n            /* \"@openzeppelin/contracts/token/ERC20/ERC20.sol\":6189:6208  uint256 fromBalance */\n          0x00\n            /* \"@openzeppelin/contracts/token/ERC20/ERC20.sol\":6211:6220  _balances */\n          0x00\n            /* \"@openzeppelin/contracts/token/ERC20/ERC20.sol\":6211:6226  _balances[from] */\n          0x00\n            /* \"@openzeppelin/contracts/token/ERC20/ERC20.sol\":6221:6225  from */\n          dup6\n            /* \"@openzeppelin/contracts/token/ERC20/ERC20.sol\":6211:6226  _balances[from] */\n          0xffffffffffffffffffffffffffffffffffffffff\n          and\n          0xffffffffffffffffffffffffffffffffffffffff\n          and\n          dup2\n          mstore\n          0x20\n          add\n          swap1\n          dup2\n          mstore\n          0x20\n          add\n          0x00\n          keccak256\n          sload\n            /* \"@openzeppelin/contracts/token/ERC20/ERC20.sol\":6189:6226  uint256 fromBalance = _balances[from] */\n          swap1\n          pop\n            /* \"@openzeppelin/contracts/token/ERC20/ERC20.sol\":6258:6263  value */\n          dup2\n            /* \"@openzeppelin/contracts/token/ERC20/ERC20.sol\":6244:6255  fromBalance */\n          dup2\n            /* \"@openzeppelin/contracts/token/ERC20/ERC20.sol\":6244:6263  fromBalance < value */\n          lt\n            /* \"@openzeppelin/contracts/token/ERC20/ERC20.sol\":6240:6355  if (fromBalance < value) {... */\n          iszero\n          tag_174\n          jumpi\n            /* \"@openzeppelin/contracts/token/ERC20/ERC20.sol\":6315:6319  from */\n          dup4\n            /* \"@openzeppelin/contracts/token/ERC20/ERC20.sol\":6321:6332  fromBalance */\n          dup2\n            /* \"@openzeppelin/contracts/token/ERC20/ERC20.sol\":6334:6339  value */\n          dup4\n            /* \"@openzeppelin/contracts/token/ERC20/ERC20.sol\":6290:6340  ERC20InsufficientBalance(from, fromBalance, value) */\n          mload(0x40)\n          0xe450d38c00000000000000000000000000000000000000000000000000000000\n          dup2\n          mstore\n          0x04\n          add\n          tag_175\n          swap4\n          swap3\n          swap2\n          swap1\n          tag_138\n          jump\t// in\n        tag_175:\n          mload(0x40)\n          dup1\n          swap2\n          sub\n          swap1\n          revert\n            /* \"@openzeppelin/contracts/token/ERC20/ERC20.sol\":6240:6355  if (fromBalance < value) {... */\n        tag_174:\n            /* \"@openzeppelin/contracts/token/ERC20/ERC20.sol\":6507:6512  value */\n          dup2\n            /* \"@openzeppelin/contracts/token/ERC20/ERC20.sol\":6493:6504  fromBalance */\n          dup2\n            /* \"@openzeppelin/contracts/token/ERC20/ERC20.sol\":6493:6512  fromBalance - value */\n          sub\n            /* \"@openzeppelin/contracts/token/ERC20/ERC20.sol\":6475:6484  _balances */\n          0x00\n            /* \"@openzeppelin/contracts/token/ERC20/ERC20.sol\":6475:6490  _balances[from] */\n          0x00\n            /* \"@openzeppelin/contracts/token/ERC20/ERC20.sol\":6485:6489  from */\n          dup7\n            /* \"@openzeppelin/contracts/token/ERC20/ERC20.sol\":6475:6490  _balances[from] */\n          0xffffffffffffffffffffffffffffffffffffffff\n          and\n          0xffffffffffffffffffffffffffffffffffffffff\n          and\n          dup2\n          mstore\n          0x20\n          add\n          swap1\n          dup2\n          mstore\n          0x20\n          add\n          0x00\n          keccak256\n            /* \"@openzeppelin/contracts/token/ERC20/ERC20.sol\":6475:6512  _balances[from] = fromBalance - value */\n          dup2\n          swap1\n          sstore\n          pop\n            /* \"@openzeppelin/contracts/token/ERC20/ERC20.sol\":6175:6537  {... */\n          pop\n            /* \"@openzeppelin/contracts/token/ERC20/ERC20.sol\":5997:6537  if (from == address(0)) {... */\n        tag_173:\n            /* \"@openzeppelin/contracts/token/ERC20/ERC20.sol\":6565:6566  0 */\n          0x00\n            /* \"@openzeppelin/contracts/token/ERC20/ERC20.sol\":6551:6567  to == address(0) */\n          0xffffffffffffffffffffffffffffffffffffffff\n          and\n            /* \"@openzeppelin/contracts/token/ERC20/ERC20.sol\":6551:6553  to */\n          dup3\n            /* \"@openzeppelin/contracts/token/ERC20/ERC20.sol\":6551:6567  to == address(0) */\n          0xffffffffffffffffffffffffffffffffffffffff\n          and\n          sub\n            /* \"@openzeppelin/contracts/token/ERC20/ERC20.sol\":6547:6972  if (to == address(0)) {... */\n          tag_176\n          jumpi\n            /* \"@openzeppelin/contracts/token/ERC20/ERC20.sol\":6730:6735  value */\n          dup1\n            /* \"@openzeppelin/contracts/token/ERC20/ERC20.sol\":6714:6726  _totalSupply */\n          0x02\n          0x00\n            /* \"@openzeppelin/contracts/token/ERC20/ERC20.sol\":6714:6735  _totalSupply -= value */\n          dup3\n          dup3\n          sload\n          sub\n          swap3\n          pop\n          pop\n          dup2\n          swap1\n          sstore\n          pop\n            /* \"@openzeppelin/contracts/token/ERC20/ERC20.sol\":6547:6972  if (to == address(0)) {... */\n          jump(tag_177)\n        tag_176:\n            /* \"@openzeppelin/contracts/token/ERC20/ERC20.sol\":6942:6947  value */\n          dup1\n            /* \"@openzeppelin/contracts/token/ERC20/ERC20.sol\":6925:6934  _balances */\n          0x00\n            /* \"@openzeppelin/contracts/token/ERC20/ERC20.sol\":6925:6938  _balances[to] */\n          0x00\n            /* \"@openzeppelin/contracts/token/ERC20/ERC20.sol\":6935:6937  to */\n          dup5\n            /* \"@openzeppelin/contracts/token/ERC20/ERC20.sol\":6925:6938  _balances[to] */\n          0xffffffffffffffffffffffffffffffffffffffff\n          and\n          0xffffffffffffffffffffffffffffffffffffffff\n          and\n          dup2\n          mstore\n          0x20\n          add\n          swap1\n          dup2\n          mstore\n          0x20\n          add\n          0x00\n          keccak256\n          0x00\n            /* \"@openzeppelin/contracts/token/ERC20/ERC20.sol\":6925:6947  _balances[to] += value */\n          dup3\n          dup3\n          sload\n          add\n          swap3\n          pop\n          pop\n          dup2\n          swap1\n          sstore\n          pop\n            /* \"@openzeppelin/contracts/token/ERC20/ERC20.sol\":6547:6972  if (to == address(0)) {... */\n        tag_177:\n            /* \"@openzeppelin/contracts/token/ERC20/ERC20.sol\":7002:7004  to */\n          dup2\n            /* \"@openzeppelin/contracts/token/ERC20/ERC20.sol\":6987:7012  Transfer(from, to, value) */\n          0xffffffffffffffffffffffffffffffffffffffff\n          and\n            /* \"@openzeppelin/contracts/token/ERC20/ERC20.sol\":6996:7000  from */\n          dup4\n            /* \"@openzeppelin/contracts/token/ERC20/ERC20.sol\":6987:7012  Transfer(from, to, value) */\n          0xffffffffffffffffffffffffffffffffffffffff\n          and\n          0xddf252ad1be2c89b69c2b068fc378daa952ba7f163c4a11628f55a4df523b3ef\n            /* \"@openzeppelin/contracts/token/ERC20/ERC20.sol\":7006:7011  value */\n          dup4\n            /* \"@openzeppelin/contracts/token/ERC20/ERC20.sol\":6987:7012  Transfer(from, to, value) */\n          mload(0x40)\n          tag_178\n          swap2\n          swap1\n          tag_33\n          jump\t// in\n        tag_178:\n          mload(0x40)\n          dup1\n          swap2\n          sub\n          swap1\n          log3\n            /* \"@openzeppelin/contracts/token/ERC20/ERC20.sol\":5912:7019  function _update(address from, address to, uint256 value) internal virtual {... */\n          pop\n          pop\n          pop\n          jump\t// out\n            /* \"#utility.yul\":7:106   */\n        tag_179:\n            /* \"#utility.yul\":59:65   */\n          0x00\n            /* \"#utility.yul\":93:98   */\n          dup2\n            /* \"#utility.yul\":87:99   */\n          mload\n            /* \"#utility.yul\":77:99   */\n          swap1\n          pop\n            /* \"#utility.yul\":7:106   */\n          swap2\n          swap1\n          pop\n          jump\t// out\n            /* \"#utility.yul\":112:281   */\n        tag_180:\n            /* \"#utility.yul\":196:207   */\n          0x00\n            /* \"#utility.yul\":230:236   */\n          dup3\n            /* \"#utility.yul\":225:228   */\n          dup3\n            /* \"#utility.yul\":218:237   */\n          mstore\n            /* \"#utility.yul\":270:274   */\n          0x20\n            /* \"#utility.yul\":265:268   */\n          dup3\n            /* \"#utility.yul\":261:275   */\n          add\n            /* \"#utility.yul\":246:275   */\n          swap1\n          pop\n            /* \"#utility.yul\":112:281   */\n          swap3\n          swap2\n          pop\n          pop\n          jump\t// out\n            /* \"#utility.yul\":287:426   */\n        tag_181:\n            /* \"#utility.yul\":376:382   */\n          dup3\n            /* \"#utility.yul\":371:374   */\n          dup2\n            /* \"#utility.yul\":366:369   */\n          dup4\n            /* \"#utility.yul\":360:383   */\n          mcopy\n            /* \"#utility.yul\":417:418   */\n          0x00\n            /* \"#utility.yul\":408:414   */\n          dup4\n            /* \"#utility.yul\":403:406   */\n          dup4\n            /* \"#utility.yul\":399:415   */\n          add\n            /* \"#utility.yul\":392:419   */\n          mstore\n            /* \"#utility.yul\":287:426   */\n          pop\n          pop\n          pop\n          jump\t// out\n            /* \"#utility.yul\":432:534   */\n        tag_182:\n            /* \"#utility.yul\":473:479   */\n          0x00\n            /* \"#utility.yul\":524:526   */\n          0x1f\n            /* \"#utility.yul\":520:527   */\n          not\n            /* \"#utility.yul\":515:517   */\n          0x1f\n            /* \"#utility.yul\":508:513   */\n          dup4\n            /* \"#utility.yul\":504:518   */\n          add\n            /* \"#utility.yul\":500:528   */\n          and\n            /* \"#utility.yul\":490:528   */\n          swap1\n          pop\n            /* \"#utility.yul\":432:534   */\n          swap2\n          swap1\n          pop\n          jump\t// out\n            /* \"#utility.yul\":540:917   */\n        tag_183:\n            /* \"#utility.yul\":628:631   */\n          0x00\n            /* \"#utility.yul\":656:695   */\n          tag_208\n            /* \"#utility.yul\":689:694   */\n          dup3\n            /* \"#utility.yul\":656:695   */\n          tag_179\n          jump\t// in\n        tag_208:\n            /* \"#utility.yul\":711:782   */\n          tag_209\n            /* \"#utility.yul\":775:781   */\n          dup2\n            /* \"#utility.yul\":770:773   */\n          dup6\n            /* \"#utility.yul\":711:782   */\n          tag_180\n          jump\t// in\n        tag_209:\n            /* \"#utility.yul\":704:782   */\n          swap4\n          pop\n            /* \"#utility.yul\":791:856   */\n          tag_210\n            /* \"#utility.yul\":849:855   */\n          dup2\n            /* \"#utility.yul\":844:847   */\n          dup6\n            /* \"#utility.yul\":837:841   */\n          0x20\n            /* \"#utility.yul\":830:835   */\n          dup7\n            /* \"#utility.yul\":826:842   */\n          add\n            /* \"#utility.yul\":791:856   */\n          tag_181\n          jump\t// in\n        tag_210:\n            /* \"#utility.yul\":881:910   */\n          tag_211\n            /* \"#utility.yul\":903:909   */\n          dup2\n            /* \"#utility.yul\":881:910   */\n          tag_182\n          jump\t// in\n        tag_211:\n            /* \"#utility.yul\":876:879   */\n          dup5\n            /* \"#utility.yul\":872:911   */\n          add\n            /* \"#utility.yul\":865:911   */\n          swap2\n          pop\n            /* \"#utility.yul\":632:917   */\n          pop\n            /* \"#utility.yul\":540:917   */\n          swap3\n          swap2\n          pop\n          pop\n          jump\t// out\n            /* \"#utility.yul\":923:1236   */\n        tag_23:\n            /* \"#utility.yul\":1036:1040   */\n          0x00\n            /* \"#utility.yul\":1074:1076   */\n          0x20\n            /* \"#utility.yul\":1063:1072   */\n          dup3\n            /* \"#utility.yul\":1059:1077   */\n          add\n            /* \"#utility.yul\":1051:1077   */\n          swap1\n          pop\n            /* \"#utility.yul\":1123:1132   */\n          dup2\n            /* \"#utility.yul\":1117:1121   */\n          dup2\n            /* \"#utility.yul\":1113:1133   */\n          sub\n            /* \"#utility.yul\":1109:1110   */\n          0x00\n            /* \"#utility.yul\":1098:1107   */\n          dup4\n            /* \"#utility.yul\":1094:1111   */\n          add\n            /* \"#utility.yul\":1087:1134   */\n          mstore\n            /* \"#utility.yul\":1151:1229   */\n          tag_213\n            /* \"#utility.yul\":1224:1228   */\n          dup2\n            /* \"#utility.yul\":1215:1221   */\n          dup5\n            /* \"#utility.yul\":1151:1229   */\n          tag_183\n          jump\t// in\n        tag_213:\n            /* \"#utility.yul\":1143:1229   */\n          swap1\n          pop\n            /* \"#utility.yul\":923:1236   */\n          swap3\n          swap2\n          pop\n          pop\n          jump\t// out\n            /* \"#utility.yul\":1323:1440   */\n        tag_185:\n            /* \"#utility.yul\":1432:1433   */\n          0x00\n            /* \"#utility.yul\":1429:1430   */\n          0x00\n            /* \"#utility.yul\":1422:1434   */\n          revert\n            /* \"#utility.yul\":1569:1695   */\n        tag_187:\n            /* \"#utility.yul\":1606:1613   */\n          0x00\n            /* \"#utility.yul\":1646:1688   */\n          0xffffffffffffffffffffffffffffffffffffffff\n            /* \"#utility.yul\":1639:1644   */\n          dup3\n            /* \"#utility.yul\":1635:1689   */\n          and\n            /* \"#utility.yul\":1624:1689   */\n          swap1\n          pop\n            /* \"#utility.yul\":1569:1695   */\n          swap2\n          swap1\n          pop\n          jump\t// out\n            /* \"#utility.yul\":1701:1797   */\n        tag_188:\n            /* \"#utility.yul\":1738:1745   */\n          0x00\n            /* \"#utility.yul\":1767:1791   */\n          tag_219\n            /* \"#utility.yul\":1785:1790   */\n          dup3\n            /* \"#utility.yul\":1767:1791   */\n          tag_187\n          jump\t// in\n        tag_219:\n            /* \"#utility.yul\":1756:1791   */\n          swap1\n          pop\n            /* \"#utility.yul\":1701:1797   */\n          swap2\n          swap1\n          pop\n          jump\t// out\n            /* \"#utility.yul\":1803:1925   */\n        tag_189:\n            /* \"#utility.yul\":1876:1900   */\n          tag_221\n            /* \"#utility.yul\":1894:1899   */\n          dup2\n            /* \"#utility.yul\":1876:1900   */\n          tag_188\n          jump\t// in\n        tag_221:\n            /* \"#utility.yul\":1869:1874   */\n          dup2\n            /* \"#utility.yul\":1866:1901   */\n          eq\n            /* \"#utility.yul\":1856:1919   */\n          tag_222\n          jumpi\n            /* \"#utility.yul\":1915:1916   */\n          0x00\n            /* \"#utility.yul\":1912:1913   */\n          0x00\n            /* \"#utility.yul\":1905:1917   */\n          revert\n            /* \"#utility.yul\":1856:1919   */\n        tag_222:\n            /* \"#utility.yul\":1803:1925   */\n          pop\n          jump\t// out\n            /* \"#utility.yul\":1931:2070   */\n        tag_190:\n            /* \"#utility.yul\":1977:1982   */\n          0x00\n            /* \"#utility.yul\":2015:2021   */\n          dup2\n            /* \"#utility.yul\":2002:2022   */\n          calldataload\n            /* \"#utility.yul\":1993:2022   */\n          swap1\n          pop\n            /* \"#utility.yul\":2031:2064   */\n          tag_224\n            /* \"#utility.yul\":2058:2063   */\n          dup2\n            /* \"#utility.yul\":2031:2064   */\n          tag_189\n          jump\t// in\n        tag_224:\n            /* \"#utility.yul\":1931:2070   */\n          swap3\n          swap2\n          pop\n          pop\n          jump\t// out\n            /* \"#utility.yul\":2076:2153   */\n        tag_191:\n            /* \"#utility.yul\":2113:2120   */\n          0x00\n            /* \"#utility.yul\":2142:2147   */\n          dup2\n            /* \"#utility.yul\":2131:2147   */\n          swap1\n          pop\n            /* \"#utility.yul\":2076:2153   */\n          swap2\n          swap1\n          pop\n          jump\t// out\n            /* \"#utility.yul\":2159:2281   */\n        tag_192:\n            /* \"#utility.yul\":2232:2256   */\n          tag_227\n            /* \"#utility.yul\":2250:2255   */\n          dup2\n            /* \"#utility.yul\":2232:2256   */\n          tag_191\n          jump\t// in\n        tag_227:\n            /* \"#utility.yul\":2225:2230   */\n          dup2\n            /* \"#utility.yul\":2222:2257   */\n          eq\n            /* \"#utility.yul\":2212:2275   */\n          tag_228\n          jumpi\n            /* \"#utility.yul\":2271:2272   */\n          0x00\n            /* \"#utility.yul\":2268:2269   */\n          0x00\n            /* \"#utility.yul\":2261:2273   */\n          revert\n            /* \"#utility.yul\":2212:2275   */\n        tag_228:\n            /* \"#utility.yul\":2159:2281   */\n          pop\n          jump\t// out\n            /* \"#utility.yul\":2287:2426   */\n        tag_193:\n            /* \"#utility.yul\":2333:2338   */\n          0x00\n            /* \"#utility.yul\":2371:2377   */\n          dup2\n            /* \"#utility.yul\":2358:2378   */\n          calldataload\n            /* \"#utility.yul\":2349:2378   */\n          swap1\n          pop\n            /* \"#utility.yul\":2387:2420   */\n          tag_230\n            /* \"#utility.yul\":2414:2419   */\n          dup2\n            /* \"#utility.yul\":2387:2420   */\n          tag_192\n          jump\t// in\n        tag_230:\n            /* \"#utility.yul\":2287:2426   */\n          swap3\n          swap2\n          pop\n          pop\n          jump\t// out\n            /* \"#utility.yul\":2432:2906   */\n        tag_26:\n            /* \"#utility.yul\":2500:2506   */\n          0x00\n            /* \"#utility.yul\":2508:2514   */\n          0x00\n            /* \"#utility.yul\":2557:2559   */\n          0x40\n            /* \"#utility.yul\":2545:2554   */\n          dup4\n            /* \"#utility.yul\":2536:2543   */\n          dup6\n            /* \"#utility.yul\":2532:2555   */\n          sub\n            /* \"#utility.yul\":2528:2560   */\n          slt\n            /* \"#utility.yul\":2525:2644   */\n          iszero\n          tag_232\n          jumpi\n            /* \"#utility.yul\":2563:2642   */\n          tag_233\n          tag_185\n          jump\t// in\n        tag_233:\n            /* \"#utility.yul\":2525:2644   */\n        tag_232:\n            /* \"#utility.yul\":2683:2684   */\n          0x00\n            /* \"#utility.yul\":2708:2761   */\n          tag_234\n            /* \"#utility.yul\":2753:2760   */\n          dup6\n            /* \"#utility.yul\":2744:2750   */\n          dup3\n            /* \"#utility.yul\":2733:2742   */\n          dup7\n            /* \"#utility.yul\":2729:2751   */\n          add\n            /* \"#utility.yul\":2708:2761   */\n          tag_190\n          jump\t// in\n        tag_234:\n            /* \"#utility.yul\":2698:2761   */\n          swap3\n          pop\n            /* \"#utility.yul\":2654:2771   */\n          pop\n            /* \"#utility.yul\":2810:2812   */\n          0x20\n            /* \"#utility.yul\":2836:2889   */\n          tag_235\n            /* \"#utility.yul\":2881:2888   */\n          dup6\n            /* \"#utility.yul\":2872:2878   */\n          dup3\n            /* \"#utility.yul\":2861:2870   */\n          dup7\n            /* \"#utility.yul\":2857:2879   */\n          add\n            /* \"#utility.yul\":2836:2889   */\n          tag_193\n          jump\t// in\n        tag_235:\n            /* \"#utility.yul\":2826:2889   */\n          swap2\n          pop\n            /* \"#utility.yul\":2781:2899   */\n          pop\n            /* \"#utility.yul\":2432:2906   */\n          swap3\n          pop\n          swap3\n          swap1\n          pop\n          jump\t// out\n            /* \"#utility.yul\":2912:3002   */\n        tag_194:\n            /* \"#utility.yul\":2946:2953   */\n          0x00\n            /* \"#utility.yul\":2989:2994   */\n          dup2\n            /* \"#utility.yul\":2982:2995   */\n          iszero\n            /* \"#utility.yul\":2975:2996   */\n          iszero\n            /* \"#utility.yul\":2964:2996   */\n          swap1\n          pop\n            /* \"#utility.yul\":2912:3002   */\n          swap2\n          swap1\n          pop\n          jump\t// out\n            /* \"#utility.yul\":3008:3117   */\n        tag_195:\n            /* \"#utility.yul\":3089:3110   */\n          tag_238\n            /* \"#utility.yul\":3104:3109   */\n          dup2\n            /* \"#utility.yul\":3089:3110   */\n          tag_194\n          jump\t// in\n        tag_238:\n            /* \"#utility.yul\":3084:3087   */\n          dup3\n            /* \"#utility.yul\":3077:3111   */\n          mstore\n            /* \"#utility.yul\":3008:3117   */\n          pop\n          pop\n          jump\t// out\n            /* \"#utility.yul\":3123:3333   */\n        tag_29:\n            /* \"#utility.yul\":3210:3214   */\n          0x00\n            /* \"#utility.yul\":3248:3250   */\n          0x20\n            /* \"#utility.yul\":3237:3246   */\n          dup3\n            /* \"#utility.yul\":3233:3251   */\n          add\n            /* \"#utility.yul\":3225:3251   */\n          swap1\n          pop\n            /* \"#utility.yul\":3261:3326   */\n          tag_240\n            /* \"#utility.yul\":3323:3324   */\n          0x00\n            /* \"#utility.yul\":3312:3321   */\n          dup4\n            /* \"#utility.yul\":3308:3325   */\n          add\n            /* \"#utility.yul\":3299:3305   */\n          dup5\n            /* \"#utility.yul\":3261:3326   */\n          tag_195\n          jump\t// in\n        tag_240:\n            /* \"#utility.yul\":3123:3333   */\n          swap3\n          swap2\n          pop\n          pop\n          jump\t// out\n            /* \"#utility.yul\":3339:3457   */\n        tag_196:\n            /* \"#utility.yul\":3426:3450   */\n          tag_242\n            /* \"#utility.yul\":3444:3449   */\n          dup2\n            /* \"#utility.yul\":3426:3450   */\n          tag_191\n          jump\t// in\n        tag_242:\n            /* \"#utility.yul\":3421:3424   */\n          dup3\n            /* \"#utility.yul\":3414:3451   */\n          mstore\n            /* \"#utility.yul\":3339:3457   */\n          pop\n          pop\n          jump\t// out\n            /* \"#utility.yul\":3463:3685   */\n        tag_33:\n            /* \"#utility.yul\":3556:3560   */\n          0x00\n            /* \"#utility.yul\":3594:3596   */\n          0x20\n            /* \"#utility.yul\":3583:3592   */\n          dup3\n            /* \"#utility.yul\":3579:3597   */\n          add\n            /* \"#utility.yul\":3571:3597   */\n          swap1\n          pop\n            /* \"#utility.yul\":3607:3678   */\n          tag_244\n            /* \"#utility.yul\":3675:3676   */\n          0x00\n            /* \"#utility.yul\":3664:3673   */\n          dup4\n            /* \"#utility.yul\":3660:3677   */\n          add\n            /* \"#utility.yul\":3651:3657   */\n          dup5\n            /* \"#utility.yul\":3607:3678   */\n          tag_196\n          jump\t// in\n        tag_244:\n            /* \"#utility.yul\":3463:3685   */\n          swap3\n          swap2\n          pop\n          pop\n          jump\t// out\n            /* \"#utility.yul\":3691:4310   */\n        tag_36:\n            /* \"#utility.yul\":3768:3774   */\n          0x00\n            /* \"#utility.yul\":3776:3782   */\n          0x00\n            /* \"#utility.yul\":3784:3790   */\n          0x00\n            /* \"#utility.yul\":3833:3835   */\n          0x60\n            /* \"#utility.yul\":3821:3830   */\n          dup5\n            /* \"#utility.yul\":3812:3819   */\n          dup7\n            /* \"#utility.yul\":3808:3831   */\n          sub\n            /* \"#utility.yul\":3804:3836   */\n          slt\n            /* \"#utility.yul\":3801:3920   */\n          iszero\n          tag_246\n          jumpi\n            /* \"#utility.yul\":3839:3918   */\n          tag_247\n          tag_185\n          jump\t// in\n        tag_247:\n            /* \"#utility.yul\":3801:3920   */\n        tag_246:\n            /* \"#utility.yul\":3959:3960   */\n          0x00\n            /* \"#utility.yul\":3984:4037   */\n          tag_248\n            /* \"#utility.yul\":4029:4036   */\n          dup7\n            /* \"#utility.yul\":4020:4026   */\n          dup3\n            /* \"#utility.yul\":4009:4018   */\n          dup8\n            /* \"#utility.yul\":4005:4027   */\n          add\n            /* \"#utility.yul\":3984:4037   */\n          tag_190\n          jump\t// in\n        tag_248:\n            /* \"#utility.yul\":3974:4037   */\n          swap4\n          pop\n            /* \"#utility.yul\":3930:4047   */\n          pop\n            /* \"#utility.yul\":4086:4088   */\n          0x20\n            /* \"#utility.yul\":4112:4165   */\n          tag_249\n            /* \"#utility.yul\":4157:4164   */\n          dup7\n            /* \"#utility.yul\":4148:4154   */\n          dup3\n            /* \"#utility.yul\":4137:4146   */\n          dup8\n            /* \"#utility.yul\":4133:4155   */\n          add\n            /* \"#utility.yul\":4112:4165   */\n          tag_190\n          jump\t// in\n        tag_249:\n            /* \"#utility.yul\":4102:4165   */\n          swap3\n          pop\n            /* \"#utility.yul\":4057:4175   */\n          pop\n            /* \"#utility.yul\":4214:4216   */\n          0x40\n            /* \"#utility.yul\":4240:4293   */\n          tag_250\n            /* \"#utility.yul\":4285:4292   */\n          dup7\n            /* \"#utility.yul\":4276:4282   */\n          dup3\n            /* \"#utility.yul\":4265:4274   */\n          dup8\n            /* \"#utility.yul\":4261:4283   */\n          add\n            /* \"#utility.yul\":4240:4293   */\n          tag_193\n          jump\t// in\n        tag_250:\n            /* \"#utility.yul\":4230:4293   */\n          swap2\n          pop\n            /* \"#utility.yul\":4185:4303   */\n          pop\n            /* \"#utility.yul\":3691:4310   */\n          swap3\n          pop\n          swap3\n          pop\n          swap3\n          jump\t// out\n            /* \"#utility.yul\":4316:4402   */\n        tag_197:\n            /* \"#utility.yul\":4351:4358   */\n          0x00\n            /* \"#utility.yul\":4391:4395   */\n          0xff\n            /* \"#utility.yul\":4384:4389   */\n          dup3\n            /* \"#utility.yul\":4380:4396   */\n          and\n            /* \"#utility.yul\":4369:4396   */\n          swap1\n          pop\n            /* \"#utility.yul\":4316:4402   */\n          swap2\n          swap1\n          pop\n          jump\t// out\n            /* \"#utility.yul\":4408:4520   */\n        tag_198:\n            /* \"#utility.yul\":4491:4513   */\n          tag_253\n            /* \"#utility.yul\":4507:4512   */\n          dup2\n            /* \"#utility.yul\":4491:4513   */\n          tag_197\n          jump\t// in\n        tag_253:\n            /* \"#utility.yul\":4486:4489   */\n          dup3\n            /* \"#utility.yul\":4479:4514   */\n          mstore\n            /* \"#utility.yul\":4408:4520   */\n          pop\n          pop\n          jump\t// out\n            /* \"#utility.yul\":4526:4740   */\n        tag_42:\n            /* \"#utility.yul\":4615:4619   */\n          0x00\n            /* \"#utility.yul\":4653:4655   */\n          0x20\n            /* \"#utility.yul\":4642:4651   */\n          dup3\n            /* \"#utility.yul\":4638:4656   */\n          add\n            /* \"#utility.yul\":4630:4656   */\n          swap1\n          pop\n            /* \"#utility.yul\":4666:4733   */\n          tag_255\n            /* \"#utility.yul\":4730:4731   */\n          0x00\n            /* \"#utility.yul\":4719:4728   */\n          dup4\n            /* \"#utility.yul\":4715:4732   */\n          add\n            /* \"#utility.yul\":4706:4712   */\n          dup5\n            /* \"#utility.yul\":4666:4733   */\n          tag_198\n          jump\t// in\n        tag_255:\n            /* \"#utility.yul\":4526:4740   */\n          swap3\n          swap2\n          pop\n          pop\n          jump\t// out\n            /* \"#utility.yul\":4746:5075   */\n        tag_48:\n            /* \"#utility.yul\":4805:4811   */\n          0x00\n            /* \"#utility.yul\":4854:4856   */\n          0x20\n            /* \"#utility.yul\":4842:4851   */\n          dup3\n            /* \"#utility.yul\":4833:4840   */\n          dup5\n            /* \"#utility.yul\":4829:4852   */\n          sub\n            /* \"#utility.yul\":4825:4857   */\n          slt\n            /* \"#utility.yul\":4822:4941   */\n          iszero\n          tag_257\n          jumpi\n            /* \"#utility.yul\":4860:4939   */\n          tag_258\n          tag_185\n          jump\t// in\n        tag_258:\n            /* \"#utility.yul\":4822:4941   */\n        tag_257:\n            /* \"#utility.yul\":4980:4981   */\n          0x00\n            /* \"#utility.yul\":5005:5058   */\n          tag_259\n            /* \"#utility.yul\":5050:5057   */\n          dup5\n            /* \"#utility.yul\":5041:5047   */\n          dup3\n            /* \"#utility.yul\":5030:5039   */\n          dup6\n            /* \"#utility.yul\":5026:5048   */\n          add\n            /* \"#utility.yul\":5005:5058   */\n          tag_190\n          jump\t// in\n        tag_259:\n            /* \"#utility.yul\":4995:5058   */\n          swap2\n          pop\n            /* \"#utility.yul\":4951:5068   */\n          pop\n            /* \"#utility.yul\":4746:5075   */\n          swap3\n          swap2\n          pop\n          pop\n          jump\t// out\n            /* \"#utility.yul\":5081:5199   */\n        tag_199:\n            /* \"#utility.yul\":5168:5192   */\n          tag_261\n            /* \"#utility.yul\":5186:5191   */\n          dup2\n            /* \"#utility.yul\":5168:5192   */\n          tag_188\n          jump\t// in\n        tag_261:\n            /* \"#utility.yul\":5163:5166   */\n          dup3\n            /* \"#utility.yul\":5156:5193   */\n          mstore\n            /* \"#utility.yul\":5081:5199   */\n          pop\n          pop\n          jump\t// out\n            /* \"#utility.yul\":5205:5427   */\n        tag_56:\n            /* \"#utility.yul\":5298:5302   */\n          0x00\n            /* \"#utility.yul\":5336:5338   */\n          0x20\n            /* \"#utility.yul\":5325:5334   */\n          dup3\n            /* \"#utility.yul\":5321:5339   */\n          add\n            /* \"#utility.yul\":5313:5339   */\n          swap1\n          pop\n            /* \"#utility.yul\":5349:5420   */\n          tag_263\n            /* \"#utility.yul\":5417:5418   */\n          0x00\n            /* \"#utility.yul\":5406:5415   */\n          dup4\n            /* \"#utility.yul\":5402:5419   */\n          add\n            /* \"#utility.yul\":5393:5399   */\n          dup5\n            /* \"#utility.yul\":5349:5420   */\n          tag_199\n          jump\t// in\n        tag_263:\n            /* \"#utility.yul\":5205:5427   */\n          swap3\n          swap2\n          pop\n          pop\n          jump\t// out\n            /* \"#utility.yul\":5433:5907   */\n        tag_69:\n            /* \"#utility.yul\":5501:5507   */\n          0x00\n            /* \"#utility.yul\":5509:5515   */\n          0x00\n            /* \"#utility.yul\":5558:5560   */\n          0x40\n            /* \"#utility.yul\":5546:5555   */\n          dup4\n            /* \"#utility.yul\":5537:5544   */\n          dup6\n            /* \"#utility.yul\":5533:5556   */\n          sub\n            /* \"#utility.yul\":5529:5561   */\n          slt\n            /* \"#utility.yul\":5526:5645   */\n          iszero\n          tag_265\n          jumpi\n            /* \"#utility.yul\":5564:5643   */\n          tag_266\n          tag_185\n          jump\t// in\n        tag_266:\n            /* \"#utility.yul\":5526:5645   */\n        tag_265:\n            /* \"#utility.yul\":5684:5685   */\n          0x00\n            /* \"#utility.yul\":5709:5762   */\n          tag_267\n            /* \"#utility.yul\":5754:5761   */\n          dup6\n            /* \"#utility.yul\":5745:5751   */\n          dup3\n            /* \"#utility.yul\":5734:5743   */\n          dup7\n            /* \"#utility.yul\":5730:5752   */\n          add\n            /* \"#utility.yul\":5709:5762   */\n          tag_190\n          jump\t// in\n        tag_267:\n            /* \"#utility.yul\":5699:5762   */\n          swap3\n          pop\n            /* \"#utility.yul\":5655:5772   */\n          pop\n            /* \"#utility.yul\":5811:5813   */\n          0x20\n            /* \"#utility.yul\":5837:5890   */\n          tag_268\n            /* \"#utility.yul\":5882:5889   */\n          dup6\n            /* \"#utility.yul\":5873:5879   */\n          dup3\n            /* \"#utility.yul\":5862:5871   */\n          dup7\n            /* \"#utility.yul\":5858:5880   */\n          add\n            /* \"#utility.yul\":5837:5890   */\n          tag_190\n          jump\t// in\n        tag_268:\n            /* \"#utility.yul\":5827:5890   */\n          swap2\n          pop\n            /* \"#utility.yul\":5782:5900   */\n          pop\n            /* \"#utility.yul\":5433:5907   */\n          swap3\n          pop\n          swap3\n          swap1\n          pop\n          jump\t// out\n            /* \"#utility.yul\":5913:6093   */\n        tag_200:\n            /* \"#utility.yul\":5961:6038   */\n          0x4e487b7100000000000000000000000000000000000000000000000000000000\n            /* \"#utility.yul\":5958:5959   */\n          0x00\n            /* \"#utility.yul\":5951:6039   */\n          mstore\n            /* \"#utility.yul\":6058:6062   */\n          0x22\n            /* \"#utility.yul\":6055:6056   */\n          0x04\n            /* \"#utility.yul\":6048:6063   */\n          mstore\n            /* \"#utility.yul\":6082:6086   */\n          0x24\n            /* \"#utility.yul\":6079:6080   */\n          0x00\n            /* \"#utility.yul\":6072:6087   */\n          revert\n            /* \"#utility.yul\":6099:6419   */\n        tag_77:\n            /* \"#utility.yul\":6143:6149   */\n          0x00\n            /* \"#utility.yul\":6180:6181   */\n          0x02\n            /* \"#utility.yul\":6174:6178   */\n          dup3\n            /* \"#utility.yul\":6170:6182   */\n          div\n            /* \"#utility.yul\":6160:6182   */\n          swap1\n          pop\n            /* \"#utility.yul\":6227:6228   */\n          0x01\n            /* \"#utility.yul\":6221:6225   */\n          dup3\n            /* \"#utility.yul\":6217:6229   */\n          and\n            /* \"#utility.yul\":6248:6266   */\n          dup1\n            /* \"#utility.yul\":6238:6319   */\n          tag_271\n          jumpi\n            /* \"#utility.yul\":6304:6308   */\n          0x7f\n            /* \"#utility.yul\":6296:6302   */\n          dup3\n            /* \"#utility.yul\":6292:6309   */\n          and\n            /* \"#utility.yul\":6282:6309   */\n          swap2\n          pop\n            /* \"#utility.yul\":6238:6319   */\n        tag_271:\n            /* \"#utility.yul\":6366:6368   */\n          0x20\n            /* \"#utility.yul\":6358:6364   */\n          dup3\n            /* \"#utility.yul\":6355:6369   */\n          lt\n            /* \"#utility.yul\":6335:6353   */\n          dup2\n            /* \"#utility.yul\":6332:6370   */\n          sub\n            /* \"#utility.yul\":6329:6413   */\n          tag_272\n          jumpi\n            /* \"#utility.yul\":6385:6403   */\n          tag_273\n          tag_200\n          jump\t// in\n        tag_273:\n            /* \"#utility.yul\":6329:6413   */\n        tag_272:\n            /* \"#utility.yul\":6150:6419   */\n          pop\n            /* \"#utility.yul\":6099:6419   */\n          swap2\n          swap1\n          pop\n          jump\t// out\n            /* \"#utility.yul\":6425:6867   */\n        tag_138:\n            /* \"#utility.yul\":6574:6578   */\n          0x00\n            /* \"#utility.yul\":6612:6614   */\n          0x60\n            /* \"#utility.yul\":6601:6610   */\n          dup3\n            /* \"#utility.yul\":6597:6615   */\n          add\n            /* \"#utility.yul\":6589:6615   */\n          swap1\n          pop\n            /* \"#utility.yul\":6625:6696   */\n          tag_275\n            /* \"#utility.yul\":6693:6694   */\n          0x00\n            /* \"#utility.yul\":6682:6691   */\n          dup4\n            /* \"#utility.yul\":6678:6695   */\n          add\n            /* \"#utility.yul\":6669:6675   */\n          dup7\n            /* \"#utility.yul\":6625:6696   */\n          tag_199\n          jump\t// in\n        tag_275:\n            /* \"#utility.yul\":6706:6778   */\n          tag_276\n            /* \"#utility.yul\":6774:6776   */\n          0x20\n            /* \"#utility.yul\":6763:6772   */\n          dup4\n            /* \"#utility.yul\":6759:6777   */\n          add\n            /* \"#utility.yul\":6750:6756   */\n          dup6\n            /* \"#utility.yul\":6706:6778   */\n          tag_196\n          jump\t// in\n        tag_276:\n            /* \"#utility.yul\":6788:6860   */\n          tag_277\n            /* \"#utility.yul\":6856:6858   */\n          0x40\n            /* \"#utility.yul\":6845:6854   */\n          dup4\n            /* \"#utility.yul\":6841:6859   */\n          add\n            /* \"#utility.yul\":6832:6838   */\n          dup5\n            /* \"#utility.yul\":6788:6860   */\n          tag_196\n          jump\t// in\n        tag_277:\n            /* \"#utility.yul\":6425:6867   */\n          swap5\n          swap4\n          pop\n          pop\n          pop\n          pop\n          jump\t// out\n            /* \"#utility.yul\":6873:7053   */\n        tag_201:\n            /* \"#utility.yul\":6921:6998   */\n          0x4e487b7100000000000000000000000000000000000000000000000000000000\n            /* \"#utility.yul\":6918:6919   */\n          0x00\n            /* \"#utility.yul\":6911:6999   */\n          mstore\n            /* \"#utility.yul\":7018:7022   */\n          0x11\n            /* \"#utility.yul\":7015:7016   */\n          0x04\n            /* \"#utility.yul\":7008:7023   */\n          mstore\n            /* \"#utility.yul\":7042:7046   */\n          0x24\n            /* \"#utility.yul\":7039:7040   */\n          0x00\n            /* \"#utility.yul\":7032:7047   */\n          revert\n            /* \"#utility.yul\":7059:7250   */\n        tag_172:\n            /* \"#utility.yul\":7099:7102   */\n          0x00\n            /* \"#utility.yul\":7118:7138   */\n          tag_280\n            /* \"#utility.yul\":7136:7137   */\n          dup3\n            /* \"#utility.yul\":7118:7138   */\n          tag_191\n          jump\t// in\n        tag_280:\n            /* \"#utility.yul\":7113:7138   */\n          swap2\n          pop\n            /* \"#utility.yul\":7152:7172   */\n          tag_281\n            /* \"#utility.yul\":7170:7171   */\n          dup4\n            /* \"#utility.yul\":7152:7172   */\n          tag_191\n          jump\t// in\n        tag_281:\n            /* \"#utility.yul\":7147:7172   */\n          swap3\n          pop\n            /* \"#utility.yul\":7195:7196   */\n          dup3\n            /* \"#utility.yul\":7192:7193   */\n          dup3\n            /* \"#utility.yul\":7188:7197   */\n          add\n            /* \"#utility.yul\":7181:7197   */\n          swap1\n          pop\n            /* \"#utility.yul\":7216:7219   */\n          dup1\n            /* \"#utility.yul\":7213:7214   */\n          dup3\n            /* \"#utility.yul\":7210:7220   */\n          gt\n            /* \"#utility.yul\":7207:7243   */\n          iszero\n          tag_282\n          jumpi\n            /* \"#utility.yul\":7223:7241   */\n          tag_283\n          tag_201\n          jump\t// in\n        tag_283:\n            /* \"#utility.yul\":7207:7243   */\n        tag_282:\n            /* \"#utility.yul\":7059:7250   */\n          swap3\n          swap2\n          pop\n          pop\n          jump\t// out\n\n        auxdata: 0xa2646970667358221220158ba6f7733ba4e6abf42f71a3345c6244e0416d90c693d78ef1cf0dbb72b89164736f6c634300081f0033\n    }\n}\n",
				"bytecode": {
					"linkReferences": {},
					"object": "608060405234801561000f575f5ffd5b506040516135ad3803806135ad8339818101604052810190610031919061029c565b5f73ffffffffffffffffffffffffffffffffffffffff168273ffffffffffffffffffffffffffffffffffffffff161415801561009957505f73ffffffffffffffffffffffffffffffffffffffff168173ffffffffffffffffffffffffffffffffffffffff1614155b6100d8576040517f08c379a00000000000000000000000000000000000000000000000000000000081526004016100cf90610334565b60405180910390fd5b8073ffffffffffffffffffffffffffffffffffffffff168273ffffffffffffffffffffffffffffffffffffffff1603610146576040517f08c379a000000000000000000000000000000000000000000000000000000000815260040161013d9061039c565b60405180910390fd5b815f5f6101000a81548173ffffffffffffffffffffffffffffffffffffffff021916908373ffffffffffffffffffffffffffffffffffffffff1602179055508060015f6101000a81548173ffffffffffffffffffffffffffffffffffffffff021916908373ffffffffffffffffffffffffffffffffffffffff1602179055506040516101d190610231565b604051809103905ff0801580156101ea573d5f5f3e3d5ffd5b5060025f6101000a81548173ffffffffffffffffffffffffffffffffffffffff021916908373ffffffffffffffffffffffffffffffffffffffff16021790555050506103ba565b61174080611e6d83390190565b5f5ffd5b5f73ffffffffffffffffffffffffffffffffffffffff82169050919050565b5f61026b82610242565b9050919050565b61027b81610261565b8114610285575f5ffd5b50565b5f8151905061029681610272565b92915050565b5f5f604083850312156102b2576102b161023e565b5b5f6102bf85828601610288565b92505060206102d085828601610288565b9150509250929050565b5f82825260208201905092915050565b7f496e76616c696420746f6b656e206164647265737300000000000000000000005f82015250565b5f61031e6015836102da565b9150610329826102ea565b602082019050919050565b5f6020820190508181035f83015261034b81610312565b9050919050565b7f546f6b656e73206d75737420626520646966666572656e7400000000000000005f82015250565b5f6103866018836102da565b915061039182610352565b602082019050919050565b5f6020820190508181035f8301526103b38161037a565b9050919050565b611aa6806103c75f395ff3fe608060405234801561000f575f5ffd5b50600436106100b2575f3560e01c80635fcbd2851161006f5780635fcbd285146101695780639c8f9f23146101875780639cd441da146101a3578063d2656ddc146101bf578063dc5fa6c5146101dd578063e619a498146101fb576100b2565b806303102091146100b65780630902f1ac146100d25780630fc63d10146100f157806319e36f3b1461010f578063398482d81461012d5780635f64b55b1461014b575b5f5ffd5b6100d060048036038101906100cb91906111f0565b610217565b005b6100da610559565b6040516100e892919061122a565b60405180910390f35b6100f9610569565b60405161010691906112cb565b60405180910390f35b61011761058d565b60405161012491906112e4565b60405180910390f35b610135610593565b60405161014291906112e4565b60405180910390f35b610153610600565b60405161016091906112cb565b60405180910390f35b610171610625565b60405161017e919061131d565b60405180910390f35b6101a1600480360381019061019c91906111f0565b61064a565b005b6101bd60048036038101906101b89190611336565b610a2e565b005b6101c7610e03565b6040516101d491906112e4565b60405180910390f35b6101e5610e70565b6040516101f291906112e4565b60405180910390f35b610215600480360381019061021091906111f0565b610e76565b005b5f8111610259576040517f08c379a0000000000000000000000000000000000000000000000000000000008152600401610250906113ce565b60405180910390fd5b5f60035411801561026b57505f600454115b6102aa576040517f08c379a00000000000000000000000000000000000000000000000000000000081526004016102a190611436565b60405180910390fd5b5f6103e5826102b99190611481565b90505f816103e86003546102cd9190611481565b6102d791906114c2565b826004546102e59190611481565b6102ef9190611522565b90505f8111610333576040517f08c379a000000000000000000000000000000000000000000000000000000000815260040161032a9061159c565b60405180910390fd5b6004548110610377576040517f08c379a000000000000000000000000000000000000000000000000000000000815260040161036e90611604565b60405180910390fd5b5f5f9054906101000a900473ffffffffffffffffffffffffffffffffffffffff1673ffffffffffffffffffffffffffffffffffffffff166323b872dd3330866040518463ffffffff1660e01b81526004016103d493929190611642565b6020604051808303815f875af11580156103f0573d5f5f3e3d5ffd5b505050506040513d601f19601f8201168201806040525081019061041491906116ac565b508260035f82825461042691906114c2565b925050819055508060045f82825461043e91906116d7565b9250508190555060015f9054906101000a900473ffffffffffffffffffffffffffffffffffffffff1673ffffffffffffffffffffffffffffffffffffffff1663a9059cbb33836040518363ffffffff1660e01b81526004016104a192919061170a565b6020604051808303815f875af11580156104bd573d5f5f3e3d5ffd5b505050506040513d601f19601f820116820180604052508101906104e191906116ac565b503373ffffffffffffffffffffffffffffffffffffffff167ffa2dda1cc1b86e41239702756b13effbc1a092b5c57e3ad320fbe4f3b13fe2355f5f9054906101000a900473ffffffffffffffffffffffffffffffffffffffff16858460405161054c93929190611731565b60405180910390a2505050565b5f5f600354600454915091509091565b5f5f9054906101000a900473ffffffffffffffffffffffffffffffffffffffff1681565b60045481565b5f5f600354116105d8576040517f08c379a00000000000000000000000000000000000000000000000000000000081526004016105cf906117b0565b60405180910390fd5b600354670de0b6b3a76400006004546105f19190611481565b6105fb9190611522565b905090565b60015f9054906101000a900473ffffffffffffffffffffffffffffffffffffffff1681565b60025f9054906101000a900473ffffffffffffffffffffffffffffffffffffffff1681565b5f811161068c576040517f08c379a000000000000000000000000000000000000000000000000000000000815260040161068390611818565b60405180910390fd5b5f60025f9054906101000a900473ffffffffffffffffffffffffffffffffffffffff1673ffffffffffffffffffffffffffffffffffffffff166318160ddd6040518163ffffffff1660e01b8152600401602060405180830381865afa1580156106f7573d5f5f3e3d5ffd5b505050506040513d601f19601f8201168201806040525081019061071b919061184a565b90505f811161075f576040517f08c379a0000000000000000000000000000000000000000000000000000000008152600401610756906118bf565b60405180910390fd5b5f816003548461076f9190611481565b6107799190611522565b90505f826004548561078b9190611481565b6107959190611522565b90505f821180156107a557505f81115b6107e4576040517f08c379a00000000000000000000000000000000000000000000000000000000081526004016107db90611927565b60405180910390fd5b60025f9054906101000a900473ffffffffffffffffffffffffffffffffffffffff1673ffffffffffffffffffffffffffffffffffffffff16639dc29fac33866040518363ffffffff1660e01b815260040161084092919061170a565b5f604051808303815f87803b158015610857575f5ffd5b505af1158015610869573d5f5f3e3d5ffd5b505050508160035f82825461087e91906116d7565b925050819055508060045f82825461089691906116d7565b925050819055505f5f9054906101000a900473ffffffffffffffffffffffffffffffffffffffff1673ffffffffffffffffffffffffffffffffffffffff1663a9059cbb33846040518363ffffffff1660e01b81526004016108f892919061170a565b6020604051808303815f875af1158015610914573d5f5f3e3d5ffd5b505050506040513d601f19601f8201168201806040525081019061093891906116ac565b5060015f9054906101000a900473ffffffffffffffffffffffffffffffffffffffff1673ffffffffffffffffffffffffffffffffffffffff1663a9059cbb33836040518363ffffffff1660e01b815260040161099592919061170a565b6020604051808303815f875af11580156109b1573d5f5f3e3d5ffd5b505050506040513d601f19601f820116820180604052508101906109d591906116ac565b503373ffffffffffffffffffffffffffffffffffffffff167f1dc8bb69df2b8e91fbdcbfcf93d951b3f0000f085a95fe3f7946d6161439245d838387604051610a2093929190611945565b60405180910390a250505050565b5f82118015610a3c57505f81115b610a7b576040517f08c379a0000000000000000000000000000000000000000000000000000000008152600401610a72906119c4565b60405180910390fd5b5f600354118015610a8d57505f600454115b15610aef5760035481610aa09190611481565b60045483610aae9190611481565b14610aee576040517f08c379a0000000000000000000000000000000000000000000000000000000008152600401610ae590611a52565b60405180910390fd5b5b5f5f9054906101000a900473ffffffffffffffffffffffffffffffffffffffff1673ffffffffffffffffffffffffffffffffffffffff166323b872dd3330856040518463ffffffff1660e01b8152600401610b4c93929190611642565b6020604051808303815f875af1158015610b68573d5f5f3e3d5ffd5b505050506040513d601f19601f82011682018060405250810190610b8c91906116ac565b5060015f9054906101000a900473ffffffffffffffffffffffffffffffffffffffff1673ffffffffffffffffffffffffffffffffffffffff166323b872dd3330846040518463ffffffff1660e01b8152600401610beb93929190611642565b6020604051808303815f875af1158015610c07573d5f5f3e3d5ffd5b505050506040513d601f19601f82011682018060405250810190610c2b91906116ac565b505f60025f9054906101000a900473ffffffffffffffffffffffffffffffffffffffff1673ffffffffffffffffffffffffffffffffffffffff166318160ddd6040518163ffffffff1660e01b8152600401602060405180830381865afa158015610c97573d5f5f3e3d5ffd5b505050506040513d601f19601f82011682018060405250810190610cbb919061184a565b90505f5f8203610cd657683635c9adc5dea000009050610cf2565b6003548285610ce59190611481565b610cef9190611522565b90505b8360035f828254610d0391906114c2565b925050819055508260045f828254610d1b91906114c2565b9250508190555060025f9054906101000a900473ffffffffffffffffffffffffffffffffffffffff1673ffffffffffffffffffffffffffffffffffffffff166340c10f1933836040518363ffffffff1660e01b8152600401610d7e92919061170a565b5f604051808303815f87803b158015610d95575f5ffd5b505af1158015610da7573d5f5f3e3d5ffd5b505050503373ffffffffffffffffffffffffffffffffffffffff167f64b83944e79c3ce8d4c297411de637c3e102d064677aac0c163976ebdcd6f50e858584604051610df593929190611945565b60405180910390a250505050565b5f5f60045411610e48576040517f08c379a0000000000000000000000000000000000000000000000000000000008152600401610e3f906117b0565b60405180910390fd5b600454670de0b6b3a7640000600354610e619190611481565b610e6b9190611522565b905090565b60035481565b5f8111610eb8576040517f08c379a0000000000000000000000000000000000000000000000000000000008152600401610eaf906113ce565b60405180910390fd5b5f600354118015610eca57505f600454115b610f09576040517f08c379a0000000000000000000000000000000000000000000000000000000008152600401610f0090611436565b60405180910390fd5b5f6103e582610f189190611481565b90505f816103e8600454610f2c9190611481565b610f3691906114c2565b82600354610f449190611481565b610f4e9190611522565b90505f8111610f92576040517f08c379a0000000000000000000000000000000000000000000000000000000008152600401610f899061159c565b60405180910390fd5b6003548110610fd6576040517f08c379a0000000000000000000000000000000000000000000000000000000008152600401610fcd90611604565b60405180910390fd5b60015f9054906101000a900473ffffffffffffffffffffffffffffffffffffffff1673ffffffffffffffffffffffffffffffffffffffff166323b872dd3330866040518463ffffffff1660e01b815260040161103493929190611642565b6020604051808303815f875af1158015611050573d5f5f3e3d5ffd5b505050506040513d601f19601f8201168201806040525081019061107491906116ac565b508260045f82825461108691906114c2565b925050819055508060035f82825461109e91906116d7565b925050819055505f5f9054906101000a900473ffffffffffffffffffffffffffffffffffffffff1673ffffffffffffffffffffffffffffffffffffffff1663a9059cbb33836040518363ffffffff1660e01b815260040161110092919061170a565b6020604051808303815f875af115801561111c573d5f5f3e3d5ffd5b505050506040513d601f19601f8201168201806040525081019061114091906116ac565b503373ffffffffffffffffffffffffffffffffffffffff167ffa2dda1cc1b86e41239702756b13effbc1a092b5c57e3ad320fbe4f3b13fe23560015f9054906101000a900473ffffffffffffffffffffffffffffffffffffffff1685846040516111ac93929190611731565b60405180910390a2505050565b5f5ffd5b5f819050919050565b6111cf816111bd565b81146111d9575f5ffd5b50565b5f813590506111ea816111c6565b92915050565b5f60208284031215611205576112046111b9565b5b5f611212848285016111dc565b91505092915050565b611224816111bd565b82525050565b5f60408201905061123d5f83018561121b565b61124a602083018461121b565b9392505050565b5f73ffffffffffffffffffffffffffffffffffffffff82169050919050565b5f819050919050565b5f61129361128e61128984611251565b611270565b611251565b9050919050565b5f6112a482611279565b9050919050565b5f6112b58261129a565b9050919050565b6112c5816112ab565b82525050565b5f6020820190506112de5f8301846112bc565b92915050565b5f6020820190506112f75f83018461121b565b92915050565b5f6113078261129a565b9050919050565b611317816112fd565b82525050565b5f6020820190506113305f83018461130e565b92915050565b5f5f6040838503121561134c5761134b6111b9565b5b5f611359858286016111dc565b925050602061136a858286016111dc565b9150509250929050565b5f82825260208201905092915050565b7f416d6f756e74206d7573742062652067726561746572207468616e20300000005f82015250565b5f6113b8601d83611374565b91506113c382611384565b602082019050919050565b5f6020820190508181035f8301526113e5816113ac565b9050919050565b7f506f6f6c20686173206e6f206c697175696469747900000000000000000000005f82015250565b5f611420601583611374565b915061142b826113ec565b602082019050919050565b5f6020820190508181035f83015261144d81611414565b9050919050565b7f4e487b71000000000000000000000000000000000000000000000000000000005f52601160045260245ffd5b5f61148b826111bd565b9150611496836111bd565b92508282026114a4816111bd565b915082820484148315176114bb576114ba611454565b5b5092915050565b5f6114cc826111bd565b91506114d7836111bd565b92508282019050808211156114ef576114ee611454565b5b92915050565b7f4e487b71000000000000000000000000000000000000000000000000000000005f52601260045260245ffd5b5f61152c826111bd565b9150611537836111bd565b925082611547576115466114f5565b5b828204905092915050565b7f496e73756666696369656e74206f757470757420616d6f756e740000000000005f82015250565b5f611586601a83611374565b915061159182611552565b602082019050919050565b5f6020820190508181035f8301526115b38161157a565b9050919050565b7f496e73756666696369656e7420706f6f6c206c697175696469747900000000005f82015250565b5f6115ee601b83611374565b91506115f9826115ba565b602082019050919050565b5f6020820190508181035f83015261161b816115e2565b9050919050565b5f61162c82611251565b9050919050565b61163c81611622565b82525050565b5f6060820190506116555f830186611633565b6116626020830185611633565b61166f604083018461121b565b949350505050565b5f8115159050919050565b61168b81611677565b8114611695575f5ffd5b50565b5f815190506116a681611682565b92915050565b5f602082840312156116c1576116c06111b9565b5b5f6116ce84828501611698565b91505092915050565b5f6116e1826111bd565b91506116ec836111bd565b925082820390508181111561170457611703611454565b5b92915050565b5f60408201905061171d5f830185611633565b61172a602083018461121b565b9392505050565b5f6060820190506117445f830186611633565b611751602083018561121b565b61175e604083018461121b565b949350505050565b7f4e6f206c697175696469747900000000000000000000000000000000000000005f82015250565b5f61179a600c83611374565b91506117a582611766565b602082019050919050565b5f6020820190508181035f8301526117c78161178e565b9050919050565b7f4c5020616d6f756e74206d7573742062652067726561746572207468616e20305f82015250565b5f611802602083611374565b915061180d826117ce565b602082019050919050565b5f6020820190508181035f83015261182f816117f6565b9050919050565b5f81519050611844816111c6565b92915050565b5f6020828403121561185f5761185e6111b9565b5b5f61186c84828501611836565b91505092915050565b7f4e6f206c697175696469747920696e20706f6f6c0000000000000000000000005f82015250565b5f6118a9601483611374565b91506118b482611875565b602082019050919050565b5f6020820190508181035f8301526118d68161189d565b9050919050565b7f496e73756666696369656e74206c6971756964697479206275726e65640000005f82015250565b5f611911601d83611374565b915061191c826118dd565b602082019050919050565b5f6020820190508181035f83015261193e81611905565b9050919050565b5f6060820190506119585f83018661121b565b611965602083018561121b565b611972604083018461121b565b949350505050565b7f416d6f756e7473206d7573742062652067726561746572207468616e203000005f82015250565b5f6119ae601e83611374565b91506119b98261197a565b602082019050919050565b5f6020820190508181035f8301526119db816119a2565b9050919050565b7f546f6b656e20726174696f206d757374206d6174636820706f6f6c20726174695f8201527f6f00000000000000000000000000000000000000000000000000000000000000602082015250565b5f611a3c602183611374565b9150611a47826119e2565b604082019050919050565b5f6020820190508181035f830152611a6981611a30565b905091905056fea264697066735822122041cb2ae6b0e8240a4ac8acf9e3ce0eb5c9841b6d1a92b4794f8884af3bc3f3cb64736f6c634300081f0033608060405234801561000f575f5ffd5b50336040518060400160405280600881526020017f4c5020546f6b656e0000000000000000000000000000000000000000000000008152506040518060400160405280600381526020017f4c50540000000000000000000000000000000000000000000000000000000000815250816003908161008c9190610424565b50806004908161009c9190610424565b5050505f73ffffffffffffffffffffffffffffffffffffffff168173ffffffffffffffffffffffffffffffffffffffff160361010f575f6040517f1e4fbdf70000000000000000000000000000000000000000000000000000000081526004016101069190610532565b60405180910390fd5b61011e8161012460201b60201c565b5061054b565b5f60055f9054906101000a900473ffffffffffffffffffffffffffffffffffffffff1690508160055f6101000a81548173ffffffffffffffffffffffffffffffffffffffff021916908373ffffffffffffffffffffffffffffffffffffffff1602179055508173ffffffffffffffffffffffffffffffffffffffff168173ffffffffffffffffffffffffffffffffffffffff167f8be0079c531659141344cd1fd0a4f28419497f9722a3daafe3b4186f6b6457e060405160405180910390a35050565b5f81519050919050565b7f4e487b71000000000000000000000000000000000000000000000000000000005f52604160045260245ffd5b7f4e487b71000000000000000000000000000000000000000000000000000000005f52602260045260245ffd5b5f600282049050600182168061026257607f821691505b6020821081036102755761027461021e565b5b50919050565b5f819050815f5260205f209050919050565b5f6020601f8301049050919050565b5f82821b905092915050565b5f600883026102d77fffffffffffffffffffffffffffffffffffffffffffffffffffffffffffffffff8261029c565b6102e1868361029c565b95508019841693508086168417925050509392505050565b5f819050919050565b5f819050919050565b5f61032561032061031b846102f9565b610302565b6102f9565b9050919050565b5f819050919050565b61033e8361030b565b61035261034a8261032c565b8484546102a8565b825550505050565b5f5f905090565b61036961035a565b610374818484610335565b505050565b5b818110156103975761038c5f82610361565b60018101905061037a565b5050565b601f8211156103dc576103ad8161027b565b6103b68461028d565b810160208510156103c5578190505b6103d96103d18561028d565b830182610379565b50505b505050565b5f82821c905092915050565b5f6103fc5f19846008026103e1565b1980831691505092915050565b5f61041483836103ed565b9150826002028217905092915050565b61042d826101e7565b67ffffffffffffffff811115610446576104456101f1565b5b610450825461024b565b61045b82828561039b565b5f60209050601f83116001811461048c575f841561047a578287015190505b6104848582610409565b8655506104eb565b601f19841661049a8661027b565b5f5b828110156104c15784890151825560018201915060208501945060208101905061049c565b868310156104de57848901516104da601f8916826103ed565b8355505b6001600288020188555050505b505050505050565b5f73ffffffffffffffffffffffffffffffffffffffff82169050919050565b5f61051c826104f3565b9050919050565b61052c81610512565b82525050565b5f6020820190506105455f830184610523565b92915050565b6111e8806105585f395ff3fe608060405234801561000f575f5ffd5b50600436106100e8575f3560e01c8063715018a61161008a5780639dc29fac116100645780639dc29fac14610238578063a9059cbb14610254578063dd62ed3e14610284578063f2fde38b146102b4576100e8565b8063715018a6146101f25780638da5cb5b146101fc57806395d89b411461021a576100e8565b806323b872dd116100c657806323b872dd14610158578063313ce5671461018857806340c10f19146101a657806370a08231146101c2576100e8565b806306fdde03146100ec578063095ea7b31461010a57806318160ddd1461013a575b5f5ffd5b6100f46102d0565b6040516101019190610e61565b60405180910390f35b610124600480360381019061011f9190610f12565b610360565b6040516101319190610f6a565b60405180910390f35b610142610382565b60405161014f9190610f92565b60405180910390f35b610172600480360381019061016d9190610fab565b61038b565b60405161017f9190610f6a565b60405180910390f35b6101906103b9565b60405161019d9190611016565b60405180910390f35b6101c060048036038101906101bb9190610f12565b6103c1565b005b6101dc60048036038101906101d7919061102f565b6103d7565b6040516101e99190610f92565b60405180910390f35b6101fa61041c565b005b61020461042f565b6040516102119190611069565b60405180910390f35b610222610457565b60405161022f9190610e61565b60405180910390f35b610252600480360381019061024d9190610f12565b6104e7565b005b61026e60048036038101906102699190610f12565b6104fd565b60405161027b9190610f6a565b60405180910390f35b61029e60048036038101906102999190611082565b61051f565b6040516102ab9190610f92565b60405180910390f35b6102ce60048036038101906102c9919061102f565b6105a1565b005b6060600380546102df906110ed565b80601f016020809104026020016040519081016040528092919081815260200182805461030b906110ed565b80156103565780601f1061032d57610100808354040283529160200191610356565b820191905f5260205f20905b81548152906001019060200180831161033957829003601f168201915b5050505050905090565b5f5f61036a610625565b905061037781858561062c565b600191505092915050565b5f600254905090565b5f5f610395610625565b90506103a285828561063e565b6103ad8585856106d1565b60019150509392505050565b5f6012905090565b6103c96107c1565b6103d38282610848565b5050565b5f5f5f8373ffffffffffffffffffffffffffffffffffffffff1673ffffffffffffffffffffffffffffffffffffffff1681526020019081526020015f20549050919050565b6104246107c1565b61042d5f6108c7565b565b5f60055f9054906101000a900473ffffffffffffffffffffffffffffffffffffffff16905090565b606060048054610466906110ed565b80601f0160208091040260200160405190810160405280929190818152602001828054610492906110ed565b80156104dd5780601f106104b4576101008083540402835291602001916104dd565b820191905f5260205f20905b8154815290600101906020018083116104c057829003601f168201915b5050505050905090565b6104ef6107c1565b6104f9828261098a565b5050565b5f5f610507610625565b90506105148185856106d1565b600191505092915050565b5f60015f8473ffffffffffffffffffffffffffffffffffffffff1673ffffffffffffffffffffffffffffffffffffffff1681526020019081526020015f205f8373ffffffffffffffffffffffffffffffffffffffff1673ffffffffffffffffffffffffffffffffffffffff1681526020019081526020015f2054905092915050565b6105a96107c1565b5f73ffffffffffffffffffffffffffffffffffffffff168173ffffffffffffffffffffffffffffffffffffffff1603610619575f6040517f1e4fbdf70000000000000000000000000000000000000000000000000000000081526004016106109190611069565b60405180910390fd5b610622816108c7565b50565b5f33905090565b6106398383836001610a09565b505050565b5f610649848461051f565b90507fffffffffffffffffffffffffffffffffffffffffffffffffffffffffffffffff8110156106cb57818110156106bc578281836040517ffb8f41b20000000000000000000000000000000000000000000000000000000081526004016106b39392919061111d565b60405180910390fd5b6106ca84848484035f610a09565b5b50505050565b5f73ffffffffffffffffffffffffffffffffffffffff168373ffffffffffffffffffffffffffffffffffffffff1603610741575f6040517f96c6fd1e0000000000000000000000000000000000000000000000000000000081526004016107389190611069565b60405180910390fd5b5f73ffffffffffffffffffffffffffffffffffffffff168273ffffffffffffffffffffffffffffffffffffffff16036107b1575f6040517fec442f050000000000000000000000000000000000000000000000000000000081526004016107a89190611069565b60405180910390fd5b6107bc838383610bd8565b505050565b6107c9610625565b73ffffffffffffffffffffffffffffffffffffffff166107e761042f565b73ffffffffffffffffffffffffffffffffffffffff16146108465761080a610625565b6040517f118cdaa700000000000000000000000000000000000000000000000000000000815260040161083d9190611069565b60405180910390fd5b565b5f73ffffffffffffffffffffffffffffffffffffffff168273ffffffffffffffffffffffffffffffffffffffff16036108b8575f6040517fec442f050000000000000000000000000000000000000000000000000000000081526004016108af9190611069565b60405180910390fd5b6108c35f8383610bd8565b5050565b5f60055f9054906101000a900473ffffffffffffffffffffffffffffffffffffffff1690508160055f6101000a81548173ffffffffffffffffffffffffffffffffffffffff021916908373ffffffffffffffffffffffffffffffffffffffff1602179055508173ffffffffffffffffffffffffffffffffffffffff168173ffffffffffffffffffffffffffffffffffffffff167f8be0079c531659141344cd1fd0a4f28419497f9722a3daafe3b4186f6b6457e060405160405180910390a35050565b5f73ffffffffffffffffffffffffffffffffffffffff168273ffffffffffffffffffffffffffffffffffffffff16036109fa575f6040517f96c6fd1e0000000000000000000000000000000000000000000000000000000081526004016109f19190611069565b60405180910390fd5b610a05825f83610bd8565b5050565b5f73ffffffffffffffffffffffffffffffffffffffff168473ffffffffffffffffffffffffffffffffffffffff1603610a79575f6040517fe602df05000000000000000000000000000000000000000000000000000000008152600401610a709190611069565b60405180910390fd5b5f73ffffffffffffffffffffffffffffffffffffffff168373ffffffffffffffffffffffffffffffffffffffff1603610ae9575f6040517f94280d62000000000000000000000000000000000000000000000000000000008152600401610ae09190611069565b60405180910390fd5b8160015f8673ffffffffffffffffffffffffffffffffffffffff1673ffffffffffffffffffffffffffffffffffffffff1681526020019081526020015f205f8573ffffffffffffffffffffffffffffffffffffffff1673ffffffffffffffffffffffffffffffffffffffff1681526020019081526020015f20819055508015610bd2578273ffffffffffffffffffffffffffffffffffffffff168473ffffffffffffffffffffffffffffffffffffffff167f8c5be1e5ebec7d5bd14f71427d1e84f3dd0314c0f7b2291e5b200ac8c7c3b92584604051610bc99190610f92565b60405180910390a35b50505050565b5f73ffffffffffffffffffffffffffffffffffffffff168373ffffffffffffffffffffffffffffffffffffffff1603610c28578060025f828254610c1c919061117f565b92505081905550610cf6565b5f5f5f8573ffffffffffffffffffffffffffffffffffffffff1673ffffffffffffffffffffffffffffffffffffffff1681526020019081526020015f2054905081811015610cb1578381836040517fe450d38c000000000000000000000000000000000000000000000000000000008152600401610ca89392919061111d565b60405180910390fd5b8181035f5f8673ffffffffffffffffffffffffffffffffffffffff1673ffffffffffffffffffffffffffffffffffffffff1681526020019081526020015f2081905550505b5f73ffffffffffffffffffffffffffffffffffffffff168273ffffffffffffffffffffffffffffffffffffffff1603610d3d578060025f8282540392505081905550610d87565b805f5f8473ffffffffffffffffffffffffffffffffffffffff1673ffffffffffffffffffffffffffffffffffffffff1681526020019081526020015f205f82825401925050819055505b8173ffffffffffffffffffffffffffffffffffffffff168373ffffffffffffffffffffffffffffffffffffffff167fddf252ad1be2c89b69c2b068fc378daa952ba7f163c4a11628f55a4df523b3ef83604051610de49190610f92565b60405180910390a3505050565b5f81519050919050565b5f82825260208201905092915050565b8281835e5f83830152505050565b5f601f19601f8301169050919050565b5f610e3382610df1565b610e3d8185610dfb565b9350610e4d818560208601610e0b565b610e5681610e19565b840191505092915050565b5f6020820190508181035f830152610e798184610e29565b905092915050565b5f5ffd5b5f73ffffffffffffffffffffffffffffffffffffffff82169050919050565b5f610eae82610e85565b9050919050565b610ebe81610ea4565b8114610ec8575f5ffd5b50565b5f81359050610ed981610eb5565b92915050565b5f819050919050565b610ef181610edf565b8114610efb575f5ffd5b50565b5f81359050610f0c81610ee8565b92915050565b5f5f60408385031215610f2857610f27610e81565b5b5f610f3585828601610ecb565b9250506020610f4685828601610efe565b9150509250929050565b5f8115159050919050565b610f6481610f50565b82525050565b5f602082019050610f7d5f830184610f5b565b92915050565b610f8c81610edf565b82525050565b5f602082019050610fa55f830184610f83565b92915050565b5f5f5f60608486031215610fc257610fc1610e81565b5b5f610fcf86828701610ecb565b9350506020610fe086828701610ecb565b9250506040610ff186828701610efe565b9150509250925092565b5f60ff82169050919050565b61101081610ffb565b82525050565b5f6020820190506110295f830184611007565b92915050565b5f6020828403121561104457611043610e81565b5b5f61105184828501610ecb565b91505092915050565b61106381610ea4565b82525050565b5f60208201905061107c5f83018461105a565b92915050565b5f5f6040838503121561109857611097610e81565b5b5f6110a585828601610ecb565b92505060206110b685828601610ecb565b9150509250929050565b7f4e487b71000000000000000000000000000000000000000000000000000000005f52602260045260245ffd5b5f600282049050600182168061110457607f821691505b602082108103611117576111166110c0565b5b50919050565b5f6060820190506111305f83018661105a565b61113d6020830185610f83565b61114a6040830184610f83565b949350505050565b7f4e487b71000000000000000000000000000000000000000000000000000000005f52601160045260245ffd5b5f61118982610edf565b915061119483610edf565b92508282019050808211156111ac576111ab611152565b5b9291505056fea2646970667358221220158ba6f7733ba4e6abf42f71a3345c6244e0416d90c693d78ef1cf0dbb72b89164736f6c634300081f0033",
					"opcodes": "PUSH1 0x80 PUSH1 0x40 MSTORE CALLVALUE DUP1 ISZERO PUSH2 0xF JUMPI PUSH0 PUSH0 REVERT JUMPDEST POP PUSH1 0x40 MLOAD PUSH2 0x35AD CODESIZE SUB DUP1 PUSH2 0x35AD DUP4 CODECOPY DUP2 DUP2 ADD PUSH1 0x40 MSTORE DUP2 ADD SWAP1 PUSH2 0x31 SWAP2 SWAP1 PUSH2 0x29C JUMP JUMPDEST PUSH0 PUSH20 0xFFFFFFFFFFFFFFFFFFFFFFFFFFFFFFFFFFFFFFFF AND DUP3 PUSH20 0xFFFFFFFFFFFFFFFFFFFFFFFFFFFFFFFFFFFFFFFF AND EQ ISZERO DUP1 ISZERO PUSH2 0x99 JUMPI POP PUSH0 PUSH20 0xFFFFFFFFFFFFFFFFFFFFFFFFFFFFFFFFFFFFFFFF AND DUP2 PUSH20 0xFFFFFFFFFFFFFFFFFFFFFFFFFFFFFFFFFFFFFFFF AND EQ ISZERO JUMPDEST PUSH2 0xD8 JUMPI PUSH1 0x40 MLOAD PUSH32 0x8C379A000000000000000000000000000000000000000000000000000000000 DUP2 MSTORE PUSH1 0x4 ADD PUSH2 0xCF SWAP1 PUSH2 0x334 JUMP JUMPDEST PUSH1 0x40 MLOAD DUP1 SWAP2 SUB SWAP1 REVERT JUMPDEST DUP1 PUSH20 0xFFFFFFFFFFFFFFFFFFFFFFFFFFFFFFFFFFFFFFFF AND DUP3 PUSH20 0xFFFFFFFFFFFFFFFFFFFFFFFFFFFFFFFFFFFFFFFF AND SUB PUSH2 0x146 JUMPI PUSH1 0x40 MLOAD PUSH32 0x8C379A000000000000000000000000000000000000000000000000000000000 DUP2 MSTORE PUSH1 0x4 ADD PUSH2 0x13D SWAP1 PUSH2 0x39C JUMP JUMPDEST PUSH1 0x40 MLOAD DUP1 SWAP2 SUB SWAP1 REVERT JUMPDEST DUP2 PUSH0 PUSH0 PUSH2 0x100 EXP DUP2 SLOAD DUP2 PUSH20 0xFFFFFFFFFFFFFFFFFFFFFFFFFFFFFFFFFFFFFFFF MUL NOT AND SWAP1 DUP4 PUSH20 0xFFFFFFFFFFFFFFFFFFFFFFFFFFFFFFFFFFFFFFFF AND MUL OR SWAP1 SSTORE POP DUP1 PUSH1 0x1 PUSH0 PUSH2 0x100 EXP DUP2 SLOAD DUP2 PUSH20 0xFFFFFFFFFFFFFFFFFFFFFFFFFFFFFFFFFFFFFFFF MUL NOT AND SWAP1 DUP4 PUSH20 0xFFFFFFFFFFFFFFFFFFFFFFFFFFFFFFFFFFFFFFFF AND MUL OR SWAP1 SSTORE POP PUSH1 0x40 MLOAD PUSH2 0x1D1 SWAP1 PUSH2 0x231 JUMP JUMPDEST PUSH1 0x40 MLOAD DUP1 SWAP2 SUB SWAP1 PUSH0 CREATE DUP1 ISZERO DUP1 ISZERO PUSH2 0x1EA JUMPI RETURNDATASIZE PUSH0 PUSH0 RETURNDATACOPY RETURNDATASIZE PUSH0 REVERT JUMPDEST POP PUSH1 0x2 PUSH0 PUSH2 0x100 EXP DUP2 SLOAD DUP2 PUSH20 0xFFFFFFFFFFFFFFFFFFFFFFFFFFFFFFFFFFFFFFFF MUL NOT AND SWAP1 DUP4 PUSH20 0xFFFFFFFFFFFFFFFFFFFFFFFFFFFFFFFFFFFFFFFF AND MUL OR SWAP1 SSTORE POP POP POP PUSH2 0x3BA JUMP JUMPDEST PUSH2 0x1740 DUP1 PUSH2 0x1E6D DUP4 CODECOPY ADD SWAP1 JUMP JUMPDEST PUSH0 PUSH0 REVERT JUMPDEST PUSH0 PUSH20 0xFFFFFFFFFFFFFFFFFFFFFFFFFFFFFFFFFFFFFFFF DUP3 AND SWAP1 POP SWAP2 SWAP1 POP JUMP JUMPDEST PUSH0 PUSH2 0x26B DUP3 PUSH2 0x242 JUMP JUMPDEST SWAP1 POP SWAP2 SWAP1 POP JUMP JUMPDEST PUSH2 0x27B DUP2 PUSH2 0x261 JUMP JUMPDEST DUP2 EQ PUSH2 0x285 JUMPI PUSH0 PUSH0 REVERT JUMPDEST POP JUMP JUMPDEST PUSH0 DUP2 MLOAD SWAP1 POP PUSH2 0x296 DUP2 PUSH2 0x272 JUMP JUMPDEST SWAP3 SWAP2 POP POP JUMP JUMPDEST PUSH0 PUSH0 PUSH1 0x40 DUP4 DUP6 SUB SLT ISZERO PUSH2 0x2B2 JUMPI PUSH2 0x2B1 PUSH2 0x23E JUMP JUMPDEST JUMPDEST PUSH0 PUSH2 0x2BF DUP6 DUP3 DUP7 ADD PUSH2 0x288 JUMP JUMPDEST SWAP3 POP POP PUSH1 0x20 PUSH2 0x2D0 DUP6 DUP3 DUP7 ADD PUSH2 0x288 JUMP JUMPDEST SWAP2 POP POP SWAP3 POP SWAP3 SWAP1 POP JUMP JUMPDEST PUSH0 DUP3 DUP3 MSTORE PUSH1 0x20 DUP3 ADD SWAP1 POP SWAP3 SWAP2 POP POP JUMP JUMPDEST PUSH32 0x496E76616C696420746F6B656E20616464726573730000000000000000000000 PUSH0 DUP3 ADD MSTORE POP JUMP JUMPDEST PUSH0 PUSH2 0x31E PUSH1 0x15 DUP4 PUSH2 0x2DA JUMP JUMPDEST SWAP2 POP PUSH2 0x329 DUP3 PUSH2 0x2EA JUMP JUMPDEST PUSH1 0x20 DUP3 ADD SWAP1 POP SWAP2 SWAP1 POP JUMP JUMPDEST PUSH0 PUSH1 0x20 DUP3 ADD SWAP1 POP DUP2 DUP2 SUB PUSH0 DUP4 ADD MSTORE PUSH2 0x34B DUP2 PUSH2 0x312 JUMP JUMPDEST SWAP1 POP SWAP2 SWAP1 POP JUMP JUMPDEST PUSH32 0x546F6B656E73206D75737420626520646966666572656E740000000000000000 PUSH0 DUP3 ADD MSTORE POP JUMP JUMPDEST PUSH0 PUSH2 0x386 PUSH1 0x18 DUP4 PUSH2 0x2DA JUMP JUMPDEST SWAP2 POP PUSH2 0x391 DUP3 PUSH2 0x352 JUMP JUMPDEST PUSH1 0x20 DUP3 ADD SWAP1 POP SWAP2 SWAP1 POP JUMP JUMPDEST PUSH0 PUSH1 0x20 DUP3 ADD SWAP1 POP DUP2 DUP2 SUB PUSH0 DUP4 ADD MSTORE PUSH2 0x3B3 DUP2 PUSH2 0x37A JUMP JUMPDEST SWAP1 POP SWAP2 SWAP1 POP JUMP JUMPDEST PUSH2 0x1AA6 DUP1 PUSH2 0x3C7 PUSH0 CODECOPY PUSH0 RETURN INVALID PUSH1 0x80 PUSH1 0x40 MSTORE CALLVALUE DUP1 ISZERO PUSH2 0xF JUMPI PUSH0 PUSH0 REVERT JUMPDEST POP PUSH1 0x4 CALLDATASIZE LT PUSH2 0xB2 JUMPI PUSH0 CALLDATALOAD PUSH1 0xE0 SHR DUP1 PUSH4 0x5FCBD285 GT PUSH2 0x6F JUMPI DUP1 PUSH4 0x5FCBD285 EQ PUSH2 0x169 JUMPI DUP1 PUSH4 0x9C8F9F23 EQ PUSH2 0x187 JUMPI DUP1 PUSH4 0x9CD441DA EQ PUSH2 0x1A3 JUMPI DUP1 PUSH4 0xD2656DDC EQ PUSH2 0x1BF JUMPI DUP1 PUSH4 0xDC5FA6C5 EQ PUSH2 0x1DD JUMPI DUP1 PUSH4 0xE619A498 EQ PUSH2 0x1FB JUMPI PUSH2 0xB2 JUMP JUMPDEST DUP1 PUSH4 0x3102091 EQ PUSH2 0xB6 JUMPI DUP1 PUSH4 0x902F1AC EQ PUSH2 0xD2 JUMPI DUP1 PUSH4 0xFC63D10 EQ PUSH2 0xF1 JUMPI DUP1 PUSH4 0x19E36F3B EQ PUSH2 0x10F JUMPI DUP1 PUSH4 0x398482D8 EQ PUSH2 0x12D JUMPI DUP1 PUSH4 0x5F64B55B EQ PUSH2 0x14B JUMPI JUMPDEST PUSH0 PUSH0 REVERT JUMPDEST PUSH2 0xD0 PUSH1 0x4 DUP1 CALLDATASIZE SUB DUP2 ADD SWAP1 PUSH2 0xCB SWAP2 SWAP1 PUSH2 0x11F0 JUMP JUMPDEST PUSH2 0x217 JUMP JUMPDEST STOP JUMPDEST PUSH2 0xDA PUSH2 0x559 JUMP JUMPDEST PUSH1 0x40 MLOAD PUSH2 0xE8 SWAP3 SWAP2 SWAP1 PUSH2 0x122A JUMP JUMPDEST PUSH1 0x40 MLOAD DUP1 SWAP2 SUB SWAP1 RETURN JUMPDEST PUSH2 0xF9 PUSH2 0x569 JUMP JUMPDEST PUSH1 0x40 MLOAD PUSH2 0x106 SWAP2 SWAP1 PUSH2 0x12CB JUMP JUMPDEST PUSH1 0x40 MLOAD DUP1 SWAP2 SUB SWAP1 RETURN JUMPDEST PUSH2 0x117 PUSH2 0x58D JUMP JUMPDEST PUSH1 0x40 MLOAD PUSH2 0x124 SWAP2 SWAP1 PUSH2 0x12E4 JUMP JUMPDEST PUSH1 0x40 MLOAD DUP1 SWAP2 SUB SWAP1 RETURN JUMPDEST PUSH2 0x135 PUSH2 0x593 JUMP JUMPDEST PUSH1 0x40 MLOAD PUSH2 0x142 SWAP2 SWAP1 PUSH2 0x12E4 JUMP JUMPDEST PUSH1 0x40 MLOAD DUP1 SWAP2 SUB SWAP1 RETURN JUMPDEST PUSH2 0x153 PUSH2 0x600 JUMP JUMPDEST PUSH1 0x40 MLOAD PUSH2 0x160 SWAP2 SWAP1 PUSH2 0x12CB JUMP JUMPDEST PUSH1 0x40 MLOAD DUP1 SWAP2 SUB SWAP1 RETURN JUMPDEST PUSH2 0x171 PUSH2 0x625 JUMP JUMPDEST PUSH1 0x40 MLOAD PUSH2 0x17E SWAP2 SWAP1 PUSH2 0x131D JUMP JUMPDEST PUSH1 0x40 MLOAD DUP1 SWAP2 SUB SWAP1 RETURN JUMPDEST PUSH2 0x1A1 PUSH1 0x4 DUP1 CALLDATASIZE SUB DUP2 ADD SWAP1 PUSH2 0x19C SWAP2 SWAP1 PUSH2 0x11F0 JUMP JUMPDEST PUSH2 0x64A JUMP JUMPDEST STOP JUMPDEST PUSH2 0x1BD PUSH1 0x4 DUP1 CALLDATASIZE SUB DUP2 ADD SWAP1 PUSH2 0x1B8 SWAP2 SWAP1 PUSH2 0x1336 JUMP JUMPDEST PUSH2 0xA2E JUMP JUMPDEST STOP JUMPDEST PUSH2 0x1C7 PUSH2 0xE03 JUMP JUMPDEST PUSH1 0x40 MLOAD PUSH2 0x1D4 SWAP2 SWAP1 PUSH2 0x12E4 JUMP JUMPDEST PUSH1 0x40 MLOAD DUP1 SWAP2 SUB SWAP1 RETURN JUMPDEST PUSH2 0x1E5 PUSH2 0xE70 JUMP JUMPDEST PUSH1 0x40 MLOAD PUSH2 0x1F2 SWAP2 SWAP1 PUSH2 0x12E4 JUMP JUMPDEST PUSH1 0x40 MLOAD DUP1 SWAP2 SUB SWAP1 RETURN JUMPDEST PUSH2 0x215 PUSH1 0x4 DUP1 CALLDATASIZE SUB DUP2 ADD SWAP1 PUSH2 0x210 SWAP2 SWAP1 PUSH2 0x11F0 JUMP JUMPDEST PUSH2 0xE76 JUMP JUMPDEST STOP JUMPDEST PUSH0 DUP2 GT PUSH2 0x259 JUMPI PUSH1 0x40 MLOAD PUSH32 0x8C379A000000000000000000000000000000000000000000000000000000000 DUP2 MSTORE PUSH1 0x4 ADD PUSH2 0x250 SWAP1 PUSH2 0x13CE JUMP JUMPDEST PUSH1 0x40 MLOAD DUP1 SWAP2 SUB SWAP1 REVERT JUMPDEST PUSH0 PUSH1 0x3 SLOAD GT DUP1 ISZERO PUSH2 0x26B JUMPI POP PUSH0 PUSH1 0x4 SLOAD GT JUMPDEST PUSH2 0x2AA JUMPI PUSH1 0x40 MLOAD PUSH32 0x8C379A000000000000000000000000000000000000000000000000000000000 DUP2 MSTORE PUSH1 0x4 ADD PUSH2 0x2A1 SWAP1 PUSH2 0x1436 JUMP JUMPDEST PUSH1 0x40 MLOAD DUP1 SWAP2 SUB SWAP1 REVERT JUMPDEST PUSH0 PUSH2 0x3E5 DUP3 PUSH2 0x2B9 SWAP2 SWAP1 PUSH2 0x1481 JUMP JUMPDEST SWAP1 POP PUSH0 DUP2 PUSH2 0x3E8 PUSH1 0x3 SLOAD PUSH2 0x2CD SWAP2 SWAP1 PUSH2 0x1481 JUMP JUMPDEST PUSH2 0x2D7 SWAP2 SWAP1 PUSH2 0x14C2 JUMP JUMPDEST DUP3 PUSH1 0x4 SLOAD PUSH2 0x2E5 SWAP2 SWAP1 PUSH2 0x1481 JUMP JUMPDEST PUSH2 0x2EF SWAP2 SWAP1 PUSH2 0x1522 JUMP JUMPDEST SWAP1 POP PUSH0 DUP2 GT PUSH2 0x333 JUMPI PUSH1 0x40 MLOAD PUSH32 0x8C379A000000000000000000000000000000000000000000000000000000000 DUP2 MSTORE PUSH1 0x4 ADD PUSH2 0x32A SWAP1 PUSH2 0x159C JUMP JUMPDEST PUSH1 0x40 MLOAD DUP1 SWAP2 SUB SWAP1 REVERT JUMPDEST PUSH1 0x4 SLOAD DUP2 LT PUSH2 0x377 JUMPI PUSH1 0x40 MLOAD PUSH32 0x8C379A000000000000000000000000000000000000000000000000000000000 DUP2 MSTORE PUSH1 0x4 ADD PUSH2 0x36E SWAP1 PUSH2 0x1604 JUMP JUMPDEST PUSH1 0x40 MLOAD DUP1 SWAP2 SUB SWAP1 REVERT JUMPDEST PUSH0 PUSH0 SWAP1 SLOAD SWAP1 PUSH2 0x100 EXP SWAP1 DIV PUSH20 0xFFFFFFFFFFFFFFFFFFFFFFFFFFFFFFFFFFFFFFFF AND PUSH20 0xFFFFFFFFFFFFFFFFFFFFFFFFFFFFFFFFFFFFFFFF AND PUSH4 0x23B872DD CALLER ADDRESS DUP7 PUSH1 0x40 MLOAD DUP5 PUSH4 0xFFFFFFFF AND PUSH1 0xE0 SHL DUP2 MSTORE PUSH1 0x4 ADD PUSH2 0x3D4 SWAP4 SWAP3 SWAP2 SWAP1 PUSH2 0x1642 JUMP JUMPDEST PUSH1 0x20 PUSH1 0x40 MLOAD DUP1 DUP4 SUB DUP2 PUSH0 DUP8 GAS CALL ISZERO DUP1 ISZERO PUSH2 0x3F0 JUMPI RETURNDATASIZE PUSH0 PUSH0 RETURNDATACOPY RETURNDATASIZE PUSH0 REVERT JUMPDEST POP POP POP POP PUSH1 0x40 MLOAD RETURNDATASIZE PUSH1 0x1F NOT PUSH1 0x1F DUP3 ADD AND DUP3 ADD DUP1 PUSH1 0x40 MSTORE POP DUP2 ADD SWAP1 PUSH2 0x414 SWAP2 SWAP1 PUSH2 0x16AC JUMP JUMPDEST POP DUP3 PUSH1 0x3 PUSH0 DUP3 DUP3 SLOAD PUSH2 0x426 SWAP2 SWAP1 PUSH2 0x14C2 JUMP JUMPDEST SWAP3 POP POP DUP2 SWAP1 SSTORE POP DUP1 PUSH1 0x4 PUSH0 DUP3 DUP3 SLOAD PUSH2 0x43E SWAP2 SWAP1 PUSH2 0x16D7 JUMP JUMPDEST SWAP3 POP POP DUP2 SWAP1 SSTORE POP PUSH1 0x1 PUSH0 SWAP1 SLOAD SWAP1 PUSH2 0x100 EXP SWAP1 DIV PUSH20 0xFFFFFFFFFFFFFFFFFFFFFFFFFFFFFFFFFFFFFFFF AND PUSH20 0xFFFFFFFFFFFFFFFFFFFFFFFFFFFFFFFFFFFFFFFF AND PUSH4 0xA9059CBB CALLER DUP4 PUSH1 0x40 MLOAD DUP4 PUSH4 0xFFFFFFFF AND PUSH1 0xE0 SHL DUP2 MSTORE PUSH1 0x4 ADD PUSH2 0x4A1 SWAP3 SWAP2 SWAP1 PUSH2 0x170A JUMP JUMPDEST PUSH1 0x20 PUSH1 0x40 MLOAD DUP1 DUP4 SUB DUP2 PUSH0 DUP8 GAS CALL ISZERO DUP1 ISZERO PUSH2 0x4BD JUMPI RETURNDATASIZE PUSH0 PUSH0 RETURNDATACOPY RETURNDATASIZE PUSH0 REVERT JUMPDEST POP POP POP POP PUSH1 0x40 MLOAD RETURNDATASIZE PUSH1 0x1F NOT PUSH1 0x1F DUP3 ADD AND DUP3 ADD DUP1 PUSH1 0x40 MSTORE POP DUP2 ADD SWAP1 PUSH2 0x4E1 SWAP2 SWAP1 PUSH2 0x16AC JUMP JUMPDEST POP CALLER PUSH20 0xFFFFFFFFFFFFFFFFFFFFFFFFFFFFFFFFFFFFFFFF AND PUSH32 0xFA2DDA1CC1B86E41239702756B13EFFBC1A092B5C57E3AD320FBE4F3B13FE235 PUSH0 PUSH0 SWAP1 SLOAD SWAP1 PUSH2 0x100 EXP SWAP1 DIV PUSH20 0xFFFFFFFFFFFFFFFFFFFFFFFFFFFFFFFFFFFFFFFF AND DUP6 DUP5 PUSH1 0x40 MLOAD PUSH2 0x54C SWAP4 SWAP3 SWAP2 SWAP1 PUSH2 0x1731 JUMP JUMPDEST PUSH1 0x40 MLOAD DUP1 SWAP2 SUB SWAP1 LOG2 POP POP POP JUMP JUMPDEST PUSH0 PUSH0 PUSH1 0x3 SLOAD PUSH1 0x4 SLOAD SWAP2 POP SWAP2 POP SWAP1 SWAP2 JUMP JUMPDEST PUSH0 PUSH0 SWAP1 SLOAD SWAP1 PUSH2 0x100 EXP SWAP1 DIV PUSH20 0xFFFFFFFFFFFFFFFFFFFFFFFFFFFFFFFFFFFFFFFF AND DUP2 JUMP JUMPDEST PUSH1 0x4 SLOAD DUP2 JUMP JUMPDEST PUSH0 PUSH0 PUSH1 0x3 SLOAD GT PUSH2 0x5D8 JUMPI PUSH1 0x40 MLOAD PUSH32 0x8C379A000000000000000000000000000000000000000000000000000000000 DUP2 MSTORE PUSH1 0x4 ADD PUSH2 0x5CF SWAP1 PUSH2 0x17B0 JUMP JUMPDEST PUSH1 0x40 MLOAD DUP1 SWAP2 SUB SWAP1 REVERT JUMPDEST PUSH1 0x3 SLOAD PUSH8 0xDE0B6B3A7640000 PUSH1 0x4 SLOAD PUSH2 0x5F1 SWAP2 SWAP1 PUSH2 0x1481 JUMP JUMPDEST PUSH2 0x5FB SWAP2 SWAP1 PUSH2 0x1522 JUMP JUMPDEST SWAP1 POP SWAP1 JUMP JUMPDEST PUSH1 0x1 PUSH0 SWAP1 SLOAD SWAP1 PUSH2 0x100 EXP SWAP1 DIV PUSH20 0xFFFFFFFFFFFFFFFFFFFFFFFFFFFFFFFFFFFFFFFF AND DUP2 JUMP JUMPDEST PUSH1 0x2 PUSH0 SWAP1 SLOAD SWAP1 PUSH2 0x100 EXP SWAP1 DIV PUSH20 0xFFFFFFFFFFFFFFFFFFFFFFFFFFFFFFFFFFFFFFFF AND DUP2 JUMP JUMPDEST PUSH0 DUP2 GT PUSH2 0x68C JUMPI PUSH1 0x40 MLOAD PUSH32 0x8C379A000000000000000000000000000000000000000000000000000000000 DUP2 MSTORE PUSH1 0x4 ADD PUSH2 0x683 SWAP1 PUSH2 0x1818 JUMP JUMPDEST PUSH1 0x40 MLOAD DUP1 SWAP2 SUB SWAP1 REVERT JUMPDEST PUSH0 PUSH1 0x2 PUSH0 SWAP1 SLOAD SWAP1 PUSH2 0x100 EXP SWAP1 DIV PUSH20 0xFFFFFFFFFFFFFFFFFFFFFFFFFFFFFFFFFFFFFFFF AND PUSH20 0xFFFFFFFFFFFFFFFFFFFFFFFFFFFFFFFFFFFFFFFF AND PUSH4 0x18160DDD PUSH1 0x40 MLOAD DUP2 PUSH4 0xFFFFFFFF AND PUSH1 0xE0 SHL DUP2 MSTORE PUSH1 0x4 ADD PUSH1 0x20 PUSH1 0x40 MLOAD DUP1 DUP4 SUB DUP2 DUP7 GAS STATICCALL ISZERO DUP1 ISZERO PUSH2 0x6F7 JUMPI RETURNDATASIZE PUSH0 PUSH0 RETURNDATACOPY RETURNDATASIZE PUSH0 REVERT JUMPDEST POP POP POP POP PUSH1 0x40 MLOAD RETURNDATASIZE PUSH1 0x1F NOT PUSH1 0x1F DUP3 ADD AND DUP3 ADD DUP1 PUSH1 0x40 MSTORE POP DUP2 ADD SWAP1 PUSH2 0x71B SWAP2 SWAP1 PUSH2 0x184A JUMP JUMPDEST SWAP1 POP PUSH0 DUP2 GT PUSH2 0x75F JUMPI PUSH1 0x40 MLOAD PUSH32 0x8C379A000000000000000000000000000000000000000000000000000000000 DUP2 MSTORE PUSH1 0x4 ADD PUSH2 0x756 SWAP1 PUSH2 0x18BF JUMP JUMPDEST PUSH1 0x40 MLOAD DUP1 SWAP2 SUB SWAP1 REVERT JUMPDEST PUSH0 DUP2 PUSH1 0x3 SLOAD DUP5 PUSH2 0x76F SWAP2 SWAP1 PUSH2 0x1481 JUMP JUMPDEST PUSH2 0x779 SWAP2 SWAP1 PUSH2 0x1522 JUMP JUMPDEST SWAP1 POP PUSH0 DUP3 PUSH1 0x4 SLOAD DUP6 PUSH2 0x78B SWAP2 SWAP1 PUSH2 0x1481 JUMP JUMPDEST PUSH2 0x795 SWAP2 SWAP1 PUSH2 0x1522 JUMP JUMPDEST SWAP1 POP PUSH0 DUP3 GT DUP1 ISZERO PUSH2 0x7A5 JUMPI POP PUSH0 DUP2 GT JUMPDEST PUSH2 0x7E4 JUMPI PUSH1 0x40 MLOAD PUSH32 0x8C379A000000000000000000000000000000000000000000000000000000000 DUP2 MSTORE PUSH1 0x4 ADD PUSH2 0x7DB SWAP1 PUSH2 0x1927 JUMP JUMPDEST PUSH1 0x40 MLOAD DUP1 SWAP2 SUB SWAP1 REVERT JUMPDEST PUSH1 0x2 PUSH0 SWAP1 SLOAD SWAP1 PUSH2 0x100 EXP SWAP1 DIV PUSH20 0xFFFFFFFFFFFFFFFFFFFFFFFFFFFFFFFFFFFFFFFF AND PUSH20 0xFFFFFFFFFFFFFFFFFFFFFFFFFFFFFFFFFFFFFFFF AND PUSH4 0x9DC29FAC CALLER DUP7 PUSH1 0x40 MLOAD DUP4 PUSH4 0xFFFFFFFF AND PUSH1 0xE0 SHL DUP2 MSTORE PUSH1 0x4 ADD PUSH2 0x840 SWAP3 SWAP2 SWAP1 PUSH2 0x170A JUMP JUMPDEST PUSH0 PUSH1 0x40 MLOAD DUP1 DUP4 SUB DUP2 PUSH0 DUP8 DUP1 EXTCODESIZE ISZERO DUP1 ISZERO PUSH2 0x857 JUMPI PUSH0 PUSH0 REVERT JUMPDEST POP GAS CALL ISZERO DUP1 ISZERO PUSH2 0x869 JUMPI RETURNDATASIZE PUSH0 PUSH0 RETURNDATACOPY RETURNDATASIZE PUSH0 REVERT JUMPDEST POP POP POP POP DUP2 PUSH1 0x3 PUSH0 DUP3 DUP3 SLOAD PUSH2 0x87E SWAP2 SWAP1 PUSH2 0x16D7 JUMP JUMPDEST SWAP3 POP POP DUP2 SWAP1 SSTORE POP DUP1 PUSH1 0x4 PUSH0 DUP3 DUP3 SLOAD PUSH2 0x896 SWAP2 SWAP1 PUSH2 0x16D7 JUMP JUMPDEST SWAP3 POP POP DUP2 SWAP1 SSTORE POP PUSH0 PUSH0 SWAP1 SLOAD SWAP1 PUSH2 0x100 EXP SWAP1 DIV PUSH20 0xFFFFFFFFFFFFFFFFFFFFFFFFFFFFFFFFFFFFFFFF AND PUSH20 0xFFFFFFFFFFFFFFFFFFFFFFFFFFFFFFFFFFFFFFFF AND PUSH4 0xA9059CBB CALLER DUP5 PUSH1 0x40 MLOAD DUP4 PUSH4 0xFFFFFFFF AND PUSH1 0xE0 SHL DUP2 MSTORE PUSH1 0x4 ADD PUSH2 0x8F8 SWAP3 SWAP2 SWAP1 PUSH2 0x170A JUMP JUMPDEST PUSH1 0x20 PUSH1 0x40 MLOAD DUP1 DUP4 SUB DUP2 PUSH0 DUP8 GAS CALL ISZERO DUP1 ISZERO PUSH2 0x914 JUMPI RETURNDATASIZE PUSH0 PUSH0 RETURNDATACOPY RETURNDATASIZE PUSH0 REVERT JUMPDEST POP POP POP POP PUSH1 0x40 MLOAD RETURNDATASIZE PUSH1 0x1F NOT PUSH1 0x1F DUP3 ADD AND DUP3 ADD DUP1 PUSH1 0x40 MSTORE POP DUP2 ADD SWAP1 PUSH2 0x938 SWAP2 SWAP1 PUSH2 0x16AC JUMP JUMPDEST POP PUSH1 0x1 PUSH0 SWAP1 SLOAD SWAP1 PUSH2 0x100 EXP SWAP1 DIV PUSH20 0xFFFFFFFFFFFFFFFFFFFFFFFFFFFFFFFFFFFFFFFF AND PUSH20 0xFFFFFFFFFFFFFFFFFFFFFFFFFFFFFFFFFFFFFFFF AND PUSH4 0xA9059CBB CALLER DUP4 PUSH1 0x40 MLOAD DUP4 PUSH4 0xFFFFFFFF AND PUSH1 0xE0 SHL DUP2 MSTORE PUSH1 0x4 ADD PUSH2 0x995 SWAP3 SWAP2 SWAP1 PUSH2 0x170A JUMP JUMPDEST PUSH1 0x20 PUSH1 0x40 MLOAD DUP1 DUP4 SUB DUP2 PUSH0 DUP8 GAS CALL ISZERO DUP1 ISZERO PUSH2 0x9B1 JUMPI RETURNDATASIZE PUSH0 PUSH0 RETURNDATACOPY RETURNDATASIZE PUSH0 REVERT JUMPDEST POP POP POP POP PUSH1 0x40 MLOAD RETURNDATASIZE PUSH1 0x1F NOT PUSH1 0x1F DUP3 ADD AND DUP3 ADD DUP1 PUSH1 0x40 MSTORE POP DUP2 ADD SWAP1 PUSH2 0x9D5 SWAP2 SWAP1 PUSH2 0x16AC JUMP JUMPDEST POP CALLER PUSH20 0xFFFFFFFFFFFFFFFFFFFFFFFFFFFFFFFFFFFFFFFF AND PUSH32 0x1DC8BB69DF2B8E91FBDCBFCF93D951B3F0000F085A95FE3F7946D6161439245D DUP4 DUP4 DUP8 PUSH1 0x40 MLOAD PUSH2 0xA20 SWAP4 SWAP3 SWAP2 SWAP1 PUSH2 0x1945 JUMP JUMPDEST PUSH1 0x40 MLOAD DUP1 SWAP2 SUB SWAP1 LOG2 POP POP POP POP JUMP JUMPDEST PUSH0 DUP3 GT DUP1 ISZERO PUSH2 0xA3C JUMPI POP PUSH0 DUP2 GT JUMPDEST PUSH2 0xA7B JUMPI PUSH1 0x40 MLOAD PUSH32 0x8C379A000000000000000000000000000000000000000000000000000000000 DUP2 MSTORE PUSH1 0x4 ADD PUSH2 0xA72 SWAP1 PUSH2 0x19C4 JUMP JUMPDEST PUSH1 0x40 MLOAD DUP1 SWAP2 SUB SWAP1 REVERT JUMPDEST PUSH0 PUSH1 0x3 SLOAD GT DUP1 ISZERO PUSH2 0xA8D JUMPI POP PUSH0 PUSH1 0x4 SLOAD GT JUMPDEST ISZERO PUSH2 0xAEF JUMPI PUSH1 0x3 SLOAD DUP2 PUSH2 0xAA0 SWAP2 SWAP1 PUSH2 0x1481 JUMP JUMPDEST PUSH1 0x4 SLOAD DUP4 PUSH2 0xAAE SWAP2 SWAP1 PUSH2 0x1481 JUMP JUMPDEST EQ PUSH2 0xAEE JUMPI PUSH1 0x40 MLOAD PUSH32 0x8C379A000000000000000000000000000000000000000000000000000000000 DUP2 MSTORE PUSH1 0x4 ADD PUSH2 0xAE5 SWAP1 PUSH2 0x1A52 JUMP JUMPDEST PUSH1 0x40 MLOAD DUP1 SWAP2 SUB SWAP1 REVERT JUMPDEST JUMPDEST PUSH0 PUSH0 SWAP1 SLOAD SWAP1 PUSH2 0x100 EXP SWAP1 DIV PUSH20 0xFFFFFFFFFFFFFFFFFFFFFFFFFFFFFFFFFFFFFFFF AND PUSH20 0xFFFFFFFFFFFFFFFFFFFFFFFFFFFFFFFFFFFFFFFF AND PUSH4 0x23B872DD CALLER ADDRESS DUP6 PUSH1 0x40 MLOAD DUP5 PUSH4 0xFFFFFFFF AND PUSH1 0xE0 SHL DUP2 MSTORE PUSH1 0x4 ADD PUSH2 0xB4C SWAP4 SWAP3 SWAP2 SWAP1 PUSH2 0x1642 JUMP JUMPDEST PUSH1 0x20 PUSH1 0x40 MLOAD DUP1 DUP4 SUB DUP2 PUSH0 DUP8 GAS CALL ISZERO DUP1 ISZERO PUSH2 0xB68 JUMPI RETURNDATASIZE PUSH0 PUSH0 RETURNDATACOPY RETURNDATASIZE PUSH0 REVERT JUMPDEST POP POP POP POP PUSH1 0x40 MLOAD RETURNDATASIZE PUSH1 0x1F NOT PUSH1 0x1F DUP3 ADD AND DUP3 ADD DUP1 PUSH1 0x40 MSTORE POP DUP2 ADD SWAP1 PUSH2 0xB8C SWAP2 SWAP1 PUSH2 0x16AC JUMP JUMPDEST POP PUSH1 0x1 PUSH0 SWAP1 SLOAD SWAP1 PUSH2 0x100 EXP SWAP1 DIV PUSH20 0xFFFFFFFFFFFFFFFFFFFFFFFFFFFFFFFFFFFFFFFF AND PUSH20 0xFFFFFFFFFFFFFFFFFFFFFFFFFFFFFFFFFFFFFFFF AND PUSH4 0x23B872DD CALLER ADDRESS DUP5 PUSH1 0x40 MLOAD DUP5 PUSH4 0xFFFFFFFF AND PUSH1 0xE0 SHL DUP2 MSTORE PUSH1 0x4 ADD PUSH2 0xBEB SWAP4 SWAP3 SWAP2 SWAP1 PUSH2 0x1642 JUMP JUMPDEST PUSH1 0x20 PUSH1 0x40 MLOAD DUP1 DUP4 SUB DUP2 PUSH0 DUP8 GAS CALL ISZERO DUP1 ISZERO PUSH2 0xC07 JUMPI RETURNDATASIZE PUSH0 PUSH0 RETURNDATACOPY RETURNDATASIZE PUSH0 REVERT JUMPDEST POP POP POP POP PUSH1 0x40 MLOAD RETURNDATASIZE PUSH1 0x1F NOT PUSH1 0x1F DUP3 ADD AND DUP3 ADD DUP1 PUSH1 0x40 MSTORE POP DUP2 ADD SWAP1 PUSH2 0xC2B SWAP2 SWAP1 PUSH2 0x16AC JUMP JUMPDEST POP PUSH0 PUSH1 0x2 PUSH0 SWAP1 SLOAD SWAP1 PUSH2 0x100 EXP SWAP1 DIV PUSH20 0xFFFFFFFFFFFFFFFFFFFFFFFFFFFFFFFFFFFFFFFF AND PUSH20 0xFFFFFFFFFFFFFFFFFFFFFFFFFFFFFFFFFFFFFFFF AND PUSH4 0x18160DDD PUSH1 0x40 MLOAD DUP2 PUSH4 0xFFFFFFFF AND PUSH1 0xE0 SHL DUP2 MSTORE PUSH1 0x4 ADD PUSH1 0x20 PUSH1 0x40 MLOAD DUP1 DUP4 SUB DUP2 DUP7 GAS STATICCALL ISZERO DUP1 ISZERO PUSH2 0xC97 JUMPI RETURNDATASIZE PUSH0 PUSH0 RETURNDATACOPY RETURNDATASIZE PUSH0 REVERT JUMPDEST POP POP POP POP PUSH1 0x40 MLOAD RETURNDATASIZE PUSH1 0x1F NOT PUSH1 0x1F DUP3 ADD AND DUP3 ADD DUP1 PUSH1 0x40 MSTORE POP DUP2 ADD SWAP1 PUSH2 0xCBB SWAP2 SWAP1 PUSH2 0x184A JUMP JUMPDEST SWAP1 POP PUSH0 PUSH0 DUP3 SUB PUSH2 0xCD6 JUMPI PUSH9 0x3635C9ADC5DEA00000 SWAP1 POP PUSH2 0xCF2 JUMP JUMPDEST PUSH1 0x3 SLOAD DUP3 DUP6 PUSH2 0xCE5 SWAP2 SWAP1 PUSH2 0x1481 JUMP JUMPDEST PUSH2 0xCEF SWAP2 SWAP1 PUSH2 0x1522 JUMP JUMPDEST SWAP1 POP JUMPDEST DUP4 PUSH1 0x3 PUSH0 DUP3 DUP3 SLOAD PUSH2 0xD03 SWAP2 SWAP1 PUSH2 0x14C2 JUMP JUMPDEST SWAP3 POP POP DUP2 SWAP1 SSTORE POP DUP3 PUSH1 0x4 PUSH0 DUP3 DUP3 SLOAD PUSH2 0xD1B SWAP2 SWAP1 PUSH2 0x14C2 JUMP JUMPDEST SWAP3 POP POP DUP2 SWAP1 SSTORE POP PUSH1 0x2 PUSH0 SWAP1 SLOAD SWAP1 PUSH2 0x100 EXP SWAP1 DIV PUSH20 0xFFFFFFFFFFFFFFFFFFFFFFFFFFFFFFFFFFFFFFFF AND PUSH20 0xFFFFFFFFFFFFFFFFFFFFFFFFFFFFFFFFFFFFFFFF AND PUSH4 0x40C10F19 CALLER DUP4 PUSH1 0x40 MLOAD DUP4 PUSH4 0xFFFFFFFF AND PUSH1 0xE0 SHL DUP2 MSTORE PUSH1 0x4 ADD PUSH2 0xD7E SWAP3 SWAP2 SWAP1 PUSH2 0x170A JUMP JUMPDEST PUSH0 PUSH1 0x40 MLOAD DUP1 DUP4 SUB DUP2 PUSH0 DUP8 DUP1 EXTCODESIZE ISZERO DUP1 ISZERO PUSH2 0xD95 JUMPI PUSH0 PUSH0 REVERT JUMPDEST POP GAS CALL ISZERO DUP1 ISZERO PUSH2 0xDA7 JUMPI RETURNDATASIZE PUSH0 PUSH0 RETURNDATACOPY RETURNDATASIZE PUSH0 REVERT JUMPDEST POP POP POP POP CALLER PUSH20 0xFFFFFFFFFFFFFFFFFFFFFFFFFFFFFFFFFFFFFFFF AND PUSH32 0x64B83944E79C3CE8D4C297411DE637C3E102D064677AAC0C163976EBDCD6F50E DUP6 DUP6 DUP5 PUSH1 0x40 MLOAD PUSH2 0xDF5 SWAP4 SWAP3 SWAP2 SWAP1 PUSH2 0x1945 JUMP JUMPDEST PUSH1 0x40 MLOAD DUP1 SWAP2 SUB SWAP1 LOG2 POP POP POP POP JUMP JUMPDEST PUSH0 PUSH0 PUSH1 0x4 SLOAD GT PUSH2 0xE48 JUMPI PUSH1 0x40 MLOAD PUSH32 0x8C379A000000000000000000000000000000000000000000000000000000000 DUP2 MSTORE PUSH1 0x4 ADD PUSH2 0xE3F SWAP1 PUSH2 0x17B0 JUMP JUMPDEST PUSH1 0x40 MLOAD DUP1 SWAP2 SUB SWAP1 REVERT JUMPDEST PUSH1 0x4 SLOAD PUSH8 0xDE0B6B3A7640000 PUSH1 0x3 SLOAD PUSH2 0xE61 SWAP2 SWAP1 PUSH2 0x1481 JUMP JUMPDEST PUSH2 0xE6B SWAP2 SWAP1 PUSH2 0x1522 JUMP JUMPDEST SWAP1 POP SWAP1 JUMP JUMPDEST PUSH1 0x3 SLOAD DUP2 JUMP JUMPDEST PUSH0 DUP2 GT PUSH2 0xEB8 JUMPI PUSH1 0x40 MLOAD PUSH32 0x8C379A000000000000000000000000000000000000000000000000000000000 DUP2 MSTORE PUSH1 0x4 ADD PUSH2 0xEAF SWAP1 PUSH2 0x13CE JUMP JUMPDEST PUSH1 0x40 MLOAD DUP1 SWAP2 SUB SWAP1 REVERT JUMPDEST PUSH0 PUSH1 0x3 SLOAD GT DUP1 ISZERO PUSH2 0xECA JUMPI POP PUSH0 PUSH1 0x4 SLOAD GT JUMPDEST PUSH2 0xF09 JUMPI PUSH1 0x40 MLOAD PUSH32 0x8C379A000000000000000000000000000000000000000000000000000000000 DUP2 MSTORE PUSH1 0x4 ADD PUSH2 0xF00 SWAP1 PUSH2 0x1436 JUMP JUMPDEST PUSH1 0x40 MLOAD DUP1 SWAP2 SUB SWAP1 REVERT JUMPDEST PUSH0 PUSH2 0x3E5 DUP3 PUSH2 0xF18 SWAP2 SWAP1 PUSH2 0x1481 JUMP JUMPDEST SWAP1 POP PUSH0 DUP2 PUSH2 0x3E8 PUSH1 0x4 SLOAD PUSH2 0xF2C SWAP2 SWAP1 PUSH2 0x1481 JUMP JUMPDEST PUSH2 0xF36 SWAP2 SWAP1 PUSH2 0x14C2 JUMP JUMPDEST DUP3 PUSH1 0x3 SLOAD PUSH2 0xF44 SWAP2 SWAP1 PUSH2 0x1481 JUMP JUMPDEST PUSH2 0xF4E SWAP2 SWAP1 PUSH2 0x1522 JUMP JUMPDEST SWAP1 POP PUSH0 DUP2 GT PUSH2 0xF92 JUMPI PUSH1 0x40 MLOAD PUSH32 0x8C379A000000000000000000000000000000000000000000000000000000000 DUP2 MSTORE PUSH1 0x4 ADD PUSH2 0xF89 SWAP1 PUSH2 0x159C JUMP JUMPDEST PUSH1 0x40 MLOAD DUP1 SWAP2 SUB SWAP1 REVERT JUMPDEST PUSH1 0x3 SLOAD DUP2 LT PUSH2 0xFD6 JUMPI PUSH1 0x40 MLOAD PUSH32 0x8C379A000000000000000000000000000000000000000000000000000000000 DUP2 MSTORE PUSH1 0x4 ADD PUSH2 0xFCD SWAP1 PUSH2 0x1604 JUMP JUMPDEST PUSH1 0x40 MLOAD DUP1 SWAP2 SUB SWAP1 REVERT JUMPDEST PUSH1 0x1 PUSH0 SWAP1 SLOAD SWAP1 PUSH2 0x100 EXP SWAP1 DIV PUSH20 0xFFFFFFFFFFFFFFFFFFFFFFFFFFFFFFFFFFFFFFFF AND PUSH20 0xFFFFFFFFFFFFFFFFFFFFFFFFFFFFFFFFFFFFFFFF AND PUSH4 0x23B872DD CALLER ADDRESS DUP7 PUSH1 0x40 MLOAD DUP5 PUSH4 0xFFFFFFFF AND PUSH1 0xE0 SHL DUP2 MSTORE PUSH1 0x4 ADD PUSH2 0x1034 SWAP4 SWAP3 SWAP2 SWAP1 PUSH2 0x1642 JUMP JUMPDEST PUSH1 0x20 PUSH1 0x40 MLOAD DUP1 DUP4 SUB DUP2 PUSH0 DUP8 GAS CALL ISZERO DUP1 ISZERO PUSH2 0x1050 JUMPI RETURNDATASIZE PUSH0 PUSH0 RETURNDATACOPY RETURNDATASIZE PUSH0 REVERT JUMPDEST POP POP POP POP PUSH1 0x40 MLOAD RETURNDATASIZE PUSH1 0x1F NOT PUSH1 0x1F DUP3 ADD AND DUP3 ADD DUP1 PUSH1 0x40 MSTORE POP DUP2 ADD SWAP1 PUSH2 0x1074 SWAP2 SWAP1 PUSH2 0x16AC JUMP JUMPDEST POP DUP3 PUSH1 0x4 PUSH0 DUP3 DUP3 SLOAD PUSH2 0x1086 SWAP2 SWAP1 PUSH2 0x14C2 JUMP JUMPDEST SWAP3 POP POP DUP2 SWAP1 SSTORE POP DUP1 PUSH1 0x3 PUSH0 DUP3 DUP3 SLOAD PUSH2 0x109E SWAP2 SWAP1 PUSH2 0x16D7 JUMP JUMPDEST SWAP3 POP POP DUP2 SWAP1 SSTORE POP PUSH0 PUSH0 SWAP1 SLOAD SWAP1 PUSH2 0x100 EXP SWAP1 DIV PUSH20 0xFFFFFFFFFFFFFFFFFFFFFFFFFFFFFFFFFFFFFFFF AND PUSH20 0xFFFFFFFFFFFFFFFFFFFFFFFFFFFFFFFFFFFFFFFF AND PUSH4 0xA9059CBB CALLER DUP4 PUSH1 0x40 MLOAD DUP4 PUSH4 0xFFFFFFFF AND PUSH1 0xE0 SHL DUP2 MSTORE PUSH1 0x4 ADD PUSH2 0x1100 SWAP3 SWAP2 SWAP1 PUSH2 0x170A JUMP JUMPDEST PUSH1 0x20 PUSH1 0x40 MLOAD DUP1 DUP4 SUB DUP2 PUSH0 DUP8 GAS CALL ISZERO DUP1 ISZERO PUSH2 0x111C JUMPI RETURNDATASIZE PUSH0 PUSH0 RETURNDATACOPY RETURNDATASIZE PUSH0 REVERT JUMPDEST POP POP POP POP PUSH1 0x40 MLOAD RETURNDATASIZE PUSH1 0x1F NOT PUSH1 0x1F DUP3 ADD AND DUP3 ADD DUP1 PUSH1 0x40 MSTORE POP DUP2 ADD SWAP1 PUSH2 0x1140 SWAP2 SWAP1 PUSH2 0x16AC JUMP JUMPDEST POP CALLER PUSH20 0xFFFFFFFFFFFFFFFFFFFFFFFFFFFFFFFFFFFFFFFF AND PUSH32 0xFA2DDA1CC1B86E41239702756B13EFFBC1A092B5C57E3AD320FBE4F3B13FE235 PUSH1 0x1 PUSH0 SWAP1 SLOAD SWAP1 PUSH2 0x100 EXP SWAP1 DIV PUSH20 0xFFFFFFFFFFFFFFFFFFFFFFFFFFFFFFFFFFFFFFFF AND DUP6 DUP5 PUSH1 0x40 MLOAD PUSH2 0x11AC SWAP4 SWAP3 SWAP2 SWAP1 PUSH2 0x1731 JUMP JUMPDEST PUSH1 0x40 MLOAD DUP1 SWAP2 SUB SWAP1 LOG2 POP POP POP JUMP JUMPDEST PUSH0 PUSH0 REVERT JUMPDEST PUSH0 DUP2 SWAP1 POP SWAP2 SWAP1 POP JUMP JUMPDEST PUSH2 0x11CF DUP2 PUSH2 0x11BD JUMP JUMPDEST DUP2 EQ PUSH2 0x11D9 JUMPI PUSH0 PUSH0 REVERT JUMPDEST POP JUMP JUMPDEST PUSH0 DUP2 CALLDATALOAD SWAP1 POP PUSH2 0x11EA DUP2 PUSH2 0x11C6 JUMP JUMPDEST SWAP3 SWAP2 POP POP JUMP JUMPDEST PUSH0 PUSH1 0x20 DUP3 DUP5 SUB SLT ISZERO PUSH2 0x1205 JUMPI PUSH2 0x1204 PUSH2 0x11B9 JUMP JUMPDEST JUMPDEST PUSH0 PUSH2 0x1212 DUP5 DUP3 DUP6 ADD PUSH2 0x11DC JUMP JUMPDEST SWAP2 POP POP SWAP3 SWAP2 POP POP JUMP JUMPDEST PUSH2 0x1224 DUP2 PUSH2 0x11BD JUMP JUMPDEST DUP3 MSTORE POP POP JUMP JUMPDEST PUSH0 PUSH1 0x40 DUP3 ADD SWAP1 POP PUSH2 0x123D PUSH0 DUP4 ADD DUP6 PUSH2 0x121B JUMP JUMPDEST PUSH2 0x124A PUSH1 0x20 DUP4 ADD DUP5 PUSH2 0x121B JUMP JUMPDEST SWAP4 SWAP3 POP POP POP JUMP JUMPDEST PUSH0 PUSH20 0xFFFFFFFFFFFFFFFFFFFFFFFFFFFFFFFFFFFFFFFF DUP3 AND SWAP1 POP SWAP2 SWAP1 POP JUMP JUMPDEST PUSH0 DUP2 SWAP1 POP SWAP2 SWAP1 POP JUMP JUMPDEST PUSH0 PUSH2 0x1293 PUSH2 0x128E PUSH2 0x1289 DUP5 PUSH2 0x1251 JUMP JUMPDEST PUSH2 0x1270 JUMP JUMPDEST PUSH2 0x1251 JUMP JUMPDEST SWAP1 POP SWAP2 SWAP1 POP JUMP JUMPDEST PUSH0 PUSH2 0x12A4 DUP3 PUSH2 0x1279 JUMP JUMPDEST SWAP1 POP SWAP2 SWAP1 POP JUMP JUMPDEST PUSH0 PUSH2 0x12B5 DUP3 PUSH2 0x129A JUMP JUMPDEST SWAP1 POP SWAP2 SWAP1 POP JUMP JUMPDEST PUSH2 0x12C5 DUP2 PUSH2 0x12AB JUMP JUMPDEST DUP3 MSTORE POP POP JUMP JUMPDEST PUSH0 PUSH1 0x20 DUP3 ADD SWAP1 POP PUSH2 0x12DE PUSH0 DUP4 ADD DUP5 PUSH2 0x12BC JUMP JUMPDEST SWAP3 SWAP2 POP POP JUMP JUMPDEST PUSH0 PUSH1 0x20 DUP3 ADD SWAP1 POP PUSH2 0x12F7 PUSH0 DUP4 ADD DUP5 PUSH2 0x121B JUMP JUMPDEST SWAP3 SWAP2 POP POP JUMP JUMPDEST PUSH0 PUSH2 0x1307 DUP3 PUSH2 0x129A JUMP JUMPDEST SWAP1 POP SWAP2 SWAP1 POP JUMP JUMPDEST PUSH2 0x1317 DUP2 PUSH2 0x12FD JUMP JUMPDEST DUP3 MSTORE POP POP JUMP JUMPDEST PUSH0 PUSH1 0x20 DUP3 ADD SWAP1 POP PUSH2 0x1330 PUSH0 DUP4 ADD DUP5 PUSH2 0x130E JUMP JUMPDEST SWAP3 SWAP2 POP POP JUMP JUMPDEST PUSH0 PUSH0 PUSH1 0x40 DUP4 DUP6 SUB SLT ISZERO PUSH2 0x134C JUMPI PUSH2 0x134B PUSH2 0x11B9 JUMP JUMPDEST JUMPDEST PUSH0 PUSH2 0x1359 DUP6 DUP3 DUP7 ADD PUSH2 0x11DC JUMP JUMPDEST SWAP3 POP POP PUSH1 0x20 PUSH2 0x136A DUP6 DUP3 DUP7 ADD PUSH2 0x11DC JUMP JUMPDEST SWAP2 POP POP SWAP3 POP SWAP3 SWAP1 POP JUMP JUMPDEST PUSH0 DUP3 DUP3 MSTORE PUSH1 0x20 DUP3 ADD SWAP1 POP SWAP3 SWAP2 POP POP JUMP JUMPDEST PUSH32 0x416D6F756E74206D7573742062652067726561746572207468616E2030000000 PUSH0 DUP3 ADD MSTORE POP JUMP JUMPDEST PUSH0 PUSH2 0x13B8 PUSH1 0x1D DUP4 PUSH2 0x1374 JUMP JUMPDEST SWAP2 POP PUSH2 0x13C3 DUP3 PUSH2 0x1384 JUMP JUMPDEST PUSH1 0x20 DUP3 ADD SWAP1 POP SWAP2 SWAP1 POP JUMP JUMPDEST PUSH0 PUSH1 0x20 DUP3 ADD SWAP1 POP DUP2 DUP2 SUB PUSH0 DUP4 ADD MSTORE PUSH2 0x13E5 DUP2 PUSH2 0x13AC JUMP JUMPDEST SWAP1 POP SWAP2 SWAP1 POP JUMP JUMPDEST PUSH32 0x506F6F6C20686173206E6F206C69717569646974790000000000000000000000 PUSH0 DUP3 ADD MSTORE POP JUMP JUMPDEST PUSH0 PUSH2 0x1420 PUSH1 0x15 DUP4 PUSH2 0x1374 JUMP JUMPDEST SWAP2 POP PUSH2 0x142B DUP3 PUSH2 0x13EC JUMP JUMPDEST PUSH1 0x20 DUP3 ADD SWAP1 POP SWAP2 SWAP1 POP JUMP JUMPDEST PUSH0 PUSH1 0x20 DUP3 ADD SWAP1 POP DUP2 DUP2 SUB PUSH0 DUP4 ADD MSTORE PUSH2 0x144D DUP2 PUSH2 0x1414 JUMP JUMPDEST SWAP1 POP SWAP2 SWAP1 POP JUMP JUMPDEST PUSH32 0x4E487B7100000000000000000000000000000000000000000000000000000000 PUSH0 MSTORE PUSH1 0x11 PUSH1 0x4 MSTORE PUSH1 0x24 PUSH0 REVERT JUMPDEST PUSH0 PUSH2 0x148B DUP3 PUSH2 0x11BD JUMP JUMPDEST SWAP2 POP PUSH2 0x1496 DUP4 PUSH2 0x11BD JUMP JUMPDEST SWAP3 POP DUP3 DUP3 MUL PUSH2 0x14A4 DUP2 PUSH2 0x11BD JUMP JUMPDEST SWAP2 POP DUP3 DUP3 DIV DUP5 EQ DUP4 ISZERO OR PUSH2 0x14BB JUMPI PUSH2 0x14BA PUSH2 0x1454 JUMP JUMPDEST JUMPDEST POP SWAP3 SWAP2 POP POP JUMP JUMPDEST PUSH0 PUSH2 0x14CC DUP3 PUSH2 0x11BD JUMP JUMPDEST SWAP2 POP PUSH2 0x14D7 DUP4 PUSH2 0x11BD JUMP JUMPDEST SWAP3 POP DUP3 DUP3 ADD SWAP1 POP DUP1 DUP3 GT ISZERO PUSH2 0x14EF JUMPI PUSH2 0x14EE PUSH2 0x1454 JUMP JUMPDEST JUMPDEST SWAP3 SWAP2 POP POP JUMP JUMPDEST PUSH32 0x4E487B7100000000000000000000000000000000000000000000000000000000 PUSH0 MSTORE PUSH1 0x12 PUSH1 0x4 MSTORE PUSH1 0x24 PUSH0 REVERT JUMPDEST PUSH0 PUSH2 0x152C DUP3 PUSH2 0x11BD JUMP JUMPDEST SWAP2 POP PUSH2 0x1537 DUP4 PUSH2 0x11BD JUMP JUMPDEST SWAP3 POP DUP3 PUSH2 0x1547 JUMPI PUSH2 0x1546 PUSH2 0x14F5 JUMP JUMPDEST JUMPDEST DUP3 DUP3 DIV SWAP1 POP SWAP3 SWAP2 POP POP JUMP JUMPDEST PUSH32 0x496E73756666696369656E74206F757470757420616D6F756E74000000000000 PUSH0 DUP3 ADD MSTORE POP JUMP JUMPDEST PUSH0 PUSH2 0x1586 PUSH1 0x1A DUP4 PUSH2 0x1374 JUMP JUMPDEST SWAP2 POP PUSH2 0x1591 DUP3 PUSH2 0x1552 JUMP JUMPDEST PUSH1 0x20 DUP3 ADD SWAP1 POP SWAP2 SWAP1 POP JUMP JUMPDEST PUSH0 PUSH1 0x20 DUP3 ADD SWAP1 POP DUP2 DUP2 SUB PUSH0 DUP4 ADD MSTORE PUSH2 0x15B3 DUP2 PUSH2 0x157A JUMP JUMPDEST SWAP1 POP SWAP2 SWAP1 POP JUMP JUMPDEST PUSH32 0x496E73756666696369656E7420706F6F6C206C69717569646974790000000000 PUSH0 DUP3 ADD MSTORE POP JUMP JUMPDEST PUSH0 PUSH2 0x15EE PUSH1 0x1B DUP4 PUSH2 0x1374 JUMP JUMPDEST SWAP2 POP PUSH2 0x15F9 DUP3 PUSH2 0x15BA JUMP JUMPDEST PUSH1 0x20 DUP3 ADD SWAP1 POP SWAP2 SWAP1 POP JUMP JUMPDEST PUSH0 PUSH1 0x20 DUP3 ADD SWAP1 POP DUP2 DUP2 SUB PUSH0 DUP4 ADD MSTORE PUSH2 0x161B DUP2 PUSH2 0x15E2 JUMP JUMPDEST SWAP1 POP SWAP2 SWAP1 POP JUMP JUMPDEST PUSH0 PUSH2 0x162C DUP3 PUSH2 0x1251 JUMP JUMPDEST SWAP1 POP SWAP2 SWAP1 POP JUMP JUMPDEST PUSH2 0x163C DUP2 PUSH2 0x1622 JUMP JUMPDEST DUP3 MSTORE POP POP JUMP JUMPDEST PUSH0 PUSH1 0x60 DUP3 ADD SWAP1 POP PUSH2 0x1655 PUSH0 DUP4 ADD DUP7 PUSH2 0x1633 JUMP JUMPDEST PUSH2 0x1662 PUSH1 0x20 DUP4 ADD DUP6 PUSH2 0x1633 JUMP JUMPDEST PUSH2 0x166F PUSH1 0x40 DUP4 ADD DUP5 PUSH2 0x121B JUMP JUMPDEST SWAP5 SWAP4 POP POP POP POP JUMP JUMPDEST PUSH0 DUP2 ISZERO ISZERO SWAP1 POP SWAP2 SWAP1 POP JUMP JUMPDEST PUSH2 0x168B DUP2 PUSH2 0x1677 JUMP JUMPDEST DUP2 EQ PUSH2 0x1695 JUMPI PUSH0 PUSH0 REVERT JUMPDEST POP JUMP JUMPDEST PUSH0 DUP2 MLOAD SWAP1 POP PUSH2 0x16A6 DUP2 PUSH2 0x1682 JUMP JUMPDEST SWAP3 SWAP2 POP POP JUMP JUMPDEST PUSH0 PUSH1 0x20 DUP3 DUP5 SUB SLT ISZERO PUSH2 0x16C1 JUMPI PUSH2 0x16C0 PUSH2 0x11B9 JUMP JUMPDEST JUMPDEST PUSH0 PUSH2 0x16CE DUP5 DUP3 DUP6 ADD PUSH2 0x1698 JUMP JUMPDEST SWAP2 POP POP SWAP3 SWAP2 POP POP JUMP JUMPDEST PUSH0 PUSH2 0x16E1 DUP3 PUSH2 0x11BD JUMP JUMPDEST SWAP2 POP PUSH2 0x16EC DUP4 PUSH2 0x11BD JUMP JUMPDEST SWAP3 POP DUP3 DUP3 SUB SWAP1 POP DUP2 DUP2 GT ISZERO PUSH2 0x1704 JUMPI PUSH2 0x1703 PUSH2 0x1454 JUMP JUMPDEST JUMPDEST SWAP3 SWAP2 POP POP JUMP JUMPDEST PUSH0 PUSH1 0x40 DUP3 ADD SWAP1 POP PUSH2 0x171D PUSH0 DUP4 ADD DUP6 PUSH2 0x1633 JUMP JUMPDEST PUSH2 0x172A PUSH1 0x20 DUP4 ADD DUP5 PUSH2 0x121B JUMP JUMPDEST SWAP4 SWAP3 POP POP POP JUMP JUMPDEST PUSH0 PUSH1 0x60 DUP3 ADD SWAP1 POP PUSH2 0x1744 PUSH0 DUP4 ADD DUP7 PUSH2 0x1633 JUMP JUMPDEST PUSH2 0x1751 PUSH1 0x20 DUP4 ADD DUP6 PUSH2 0x121B JUMP JUMPDEST PUSH2 0x175E PUSH1 0x40 DUP4 ADD DUP5 PUSH2 0x121B JUMP JUMPDEST SWAP5 SWAP4 POP POP POP POP JUMP JUMPDEST PUSH32 0x4E6F206C69717569646974790000000000000000000000000000000000000000 PUSH0 DUP3 ADD MSTORE POP JUMP JUMPDEST PUSH0 PUSH2 0x179A PUSH1 0xC DUP4 PUSH2 0x1374 JUMP JUMPDEST SWAP2 POP PUSH2 0x17A5 DUP3 PUSH2 0x1766 JUMP JUMPDEST PUSH1 0x20 DUP3 ADD SWAP1 POP SWAP2 SWAP1 POP JUMP JUMPDEST PUSH0 PUSH1 0x20 DUP3 ADD SWAP1 POP DUP2 DUP2 SUB PUSH0 DUP4 ADD MSTORE PUSH2 0x17C7 DUP2 PUSH2 0x178E JUMP JUMPDEST SWAP1 POP SWAP2 SWAP1 POP JUMP JUMPDEST PUSH32 0x4C5020616D6F756E74206D7573742062652067726561746572207468616E2030 PUSH0 DUP3 ADD MSTORE POP JUMP JUMPDEST PUSH0 PUSH2 0x1802 PUSH1 0x20 DUP4 PUSH2 0x1374 JUMP JUMPDEST SWAP2 POP PUSH2 0x180D DUP3 PUSH2 0x17CE JUMP JUMPDEST PUSH1 0x20 DUP3 ADD SWAP1 POP SWAP2 SWAP1 POP JUMP JUMPDEST PUSH0 PUSH1 0x20 DUP3 ADD SWAP1 POP DUP2 DUP2 SUB PUSH0 DUP4 ADD MSTORE PUSH2 0x182F DUP2 PUSH2 0x17F6 JUMP JUMPDEST SWAP1 POP SWAP2 SWAP1 POP JUMP JUMPDEST PUSH0 DUP2 MLOAD SWAP1 POP PUSH2 0x1844 DUP2 PUSH2 0x11C6 JUMP JUMPDEST SWAP3 SWAP2 POP POP JUMP JUMPDEST PUSH0 PUSH1 0x20 DUP3 DUP5 SUB SLT ISZERO PUSH2 0x185F JUMPI PUSH2 0x185E PUSH2 0x11B9 JUMP JUMPDEST JUMPDEST PUSH0 PUSH2 0x186C DUP5 DUP3 DUP6 ADD PUSH2 0x1836 JUMP JUMPDEST SWAP2 POP POP SWAP3 SWAP2 POP POP JUMP JUMPDEST PUSH32 0x4E6F206C697175696469747920696E20706F6F6C000000000000000000000000 PUSH0 DUP3 ADD MSTORE POP JUMP JUMPDEST PUSH0 PUSH2 0x18A9 PUSH1 0x14 DUP4 PUSH2 0x1374 JUMP JUMPDEST SWAP2 POP PUSH2 0x18B4 DUP3 PUSH2 0x1875 JUMP JUMPDEST PUSH1 0x20 DUP3 ADD SWAP1 POP SWAP2 SWAP1 POP JUMP JUMPDEST PUSH0 PUSH1 0x20 DUP3 ADD SWAP1 POP DUP2 DUP2 SUB PUSH0 DUP4 ADD MSTORE PUSH2 0x18D6 DUP2 PUSH2 0x189D JUMP JUMPDEST SWAP1 POP SWAP2 SWAP1 POP JUMP JUMPDEST PUSH32 0x496E73756666696369656E74206C6971756964697479206275726E6564000000 PUSH0 DUP3 ADD MSTORE POP JUMP JUMPDEST PUSH0 PUSH2 0x1911 PUSH1 0x1D DUP4 PUSH2 0x1374 JUMP JUMPDEST SWAP2 POP PUSH2 0x191C DUP3 PUSH2 0x18DD JUMP JUMPDEST PUSH1 0x20 DUP3 ADD SWAP1 POP SWAP2 SWAP1 POP JUMP JUMPDEST PUSH0 PUSH1 0x20 DUP3 ADD SWAP1 POP DUP2 DUP2 SUB PUSH0 DUP4 ADD MSTORE PUSH2 0x193E DUP2 PUSH2 0x1905 JUMP JUMPDEST SWAP1 POP SWAP2 SWAP1 POP JUMP JUMPDEST PUSH0 PUSH1 0x60 DUP3 ADD SWAP1 POP PUSH2 0x1958 PUSH0 DUP4 ADD DUP7 PUSH2 0x121B JUMP JUMPDEST PUSH2 0x1965 PUSH1 0x20 DUP4 ADD DUP6 PUSH2 0x121B JUMP JUMPDEST PUSH2 0x1972 PUSH1 0x40 DUP4 ADD DUP5 PUSH2 0x121B JUMP JUMPDEST SWAP5 SWAP4 POP POP POP POP JUMP JUMPDEST PUSH32 0x416D6F756E7473206D7573742062652067726561746572207468616E20300000 PUSH0 DUP3 ADD MSTORE POP JUMP JUMPDEST PUSH0 PUSH2 0x19AE PUSH1 0x1E DUP4 PUSH2 0x1374 JUMP JUMPDEST SWAP2 POP PUSH2 0x19B9 DUP3 PUSH2 0x197A JUMP JUMPDEST PUSH1 0x20 DUP3 ADD SWAP1 POP SWAP2 SWAP1 POP JUMP JUMPDEST PUSH0 PUSH1 0x20 DUP3 ADD SWAP1 POP DUP2 DUP2 SUB PUSH0 DUP4 ADD MSTORE PUSH2 0x19DB DUP2 PUSH2 0x19A2 JUMP JUMPDEST SWAP1 POP SWAP2 SWAP1 POP JUMP JUMPDEST PUSH32 0x546F6B656E20726174696F206D757374206D6174636820706F6F6C2072617469 PUSH0 DUP3 ADD MSTORE PUSH32 0x6F00000000000000000000000000000000000000000000000000000000000000 PUSH1 0x20 DUP3 ADD MSTORE POP JUMP JUMPDEST PUSH0 PUSH2 0x1A3C PUSH1 0x21 DUP4 PUSH2 0x1374 JUMP JUMPDEST SWAP2 POP PUSH2 0x1A47 DUP3 PUSH2 0x19E2 JUMP JUMPDEST PUSH1 0x40 DUP3 ADD SWAP1 POP SWAP2 SWAP1 POP JUMP JUMPDEST PUSH0 PUSH1 0x20 DUP3 ADD SWAP1 POP DUP2 DUP2 SUB PUSH0 DUP4 ADD MSTORE PUSH2 0x1A69 DUP2 PUSH2 0x1A30 JUMP JUMPDEST SWAP1 POP SWAP2 SWAP1 POP JUMP INVALID LOG2 PUSH5 0x6970667358 0x22 SLT KECCAK256 COINBASE 0xCB 0x2A DUPN 0xB0 0xE8 0x24 EXP BLOBBASEFEE 0xC8 0xAC EXTDELEGATECALL CALLF 0xCE0E 0xB5 0xC9 DUP5 SHL PUSH14 0x1A92B4794F8884AF3BC3F3CB6473 PUSH16 0x6C634300081F00336080604052348015 PUSH2 0xF JUMPI PUSH0 PUSH0 REVERT JUMPDEST POP CALLER PUSH1 0x40 MLOAD DUP1 PUSH1 0x40 ADD PUSH1 0x40 MSTORE DUP1 PUSH1 0x8 DUP2 MSTORE PUSH1 0x20 ADD PUSH32 0x4C5020546F6B656E000000000000000000000000000000000000000000000000 DUP2 MSTORE POP PUSH1 0x40 MLOAD DUP1 PUSH1 0x40 ADD PUSH1 0x40 MSTORE DUP1 PUSH1 0x3 DUP2 MSTORE PUSH1 0x20 ADD PUSH32 0x4C50540000000000000000000000000000000000000000000000000000000000 DUP2 MSTORE POP DUP2 PUSH1 0x3 SWAP1 DUP2 PUSH2 0x8C SWAP2 SWAP1 PUSH2 0x424 JUMP JUMPDEST POP DUP1 PUSH1 0x4 SWAP1 DUP2 PUSH2 0x9C SWAP2 SWAP1 PUSH2 0x424 JUMP JUMPDEST POP POP POP PUSH0 PUSH20 0xFFFFFFFFFFFFFFFFFFFFFFFFFFFFFFFFFFFFFFFF AND DUP2 PUSH20 0xFFFFFFFFFFFFFFFFFFFFFFFFFFFFFFFFFFFFFFFF AND SUB PUSH2 0x10F JUMPI PUSH0 PUSH1 0x40 MLOAD PUSH32 0x1E4FBDF700000000000000000000000000000000000000000000000000000000 DUP2 MSTORE PUSH1 0x4 ADD PUSH2 0x106 SWAP2 SWAP1 PUSH2 0x532 JUMP JUMPDEST PUSH1 0x40 MLOAD DUP1 SWAP2 SUB SWAP1 REVERT JUMPDEST PUSH2 0x11E DUP2 PUSH2 0x124 PUSH1 0x20 SHL PUSH1 0x20 SHR JUMP JUMPDEST POP PUSH2 0x54B JUMP JUMPDEST PUSH0 PUSH1 0x5 PUSH0 SWAP1 SLOAD SWAP1 PUSH2 0x100 EXP SWAP1 DIV PUSH20 0xFFFFFFFFFFFFFFFFFFFFFFFFFFFFFFFFFFFFFFFF AND SWAP1 POP DUP2 PUSH1 0x5 PUSH0 PUSH2 0x100 EXP DUP2 SLOAD DUP2 PUSH20 0xFFFFFFFFFFFFFFFFFFFFFFFFFFFFFFFFFFFFFFFF MUL NOT AND SWAP1 DUP4 PUSH20 0xFFFFFFFFFFFFFFFFFFFFFFFFFFFFFFFFFFFFFFFF AND MUL OR SWAP1 SSTORE POP DUP2 PUSH20 0xFFFFFFFFFFFFFFFFFFFFFFFFFFFFFFFFFFFFFFFF AND DUP2 PUSH20 0xFFFFFFFFFFFFFFFFFFFFFFFFFFFFFFFFFFFFFFFF AND PUSH32 0x8BE0079C531659141344CD1FD0A4F28419497F9722A3DAAFE3B4186F6B6457E0 PUSH1 0x40 MLOAD PUSH1 0x40 MLOAD DUP1 SWAP2 SUB SWAP1 LOG3 POP POP JUMP JUMPDEST PUSH0 DUP2 MLOAD SWAP1 POP SWAP2 SWAP1 POP JUMP JUMPDEST PUSH32 0x4E487B7100000000000000000000000000000000000000000000000000000000 PUSH0 MSTORE PUSH1 0x41 PUSH1 0x4 MSTORE PUSH1 0x24 PUSH0 REVERT JUMPDEST PUSH32 0x4E487B7100000000000000000000000000000000000000000000000000000000 PUSH0 MSTORE PUSH1 0x22 PUSH1 0x4 MSTORE PUSH1 0x24 PUSH0 REVERT JUMPDEST PUSH0 PUSH1 0x2 DUP3 DIV SWAP1 POP PUSH1 0x1 DUP3 AND DUP1 PUSH2 0x262 JUMPI PUSH1 0x7F DUP3 AND SWAP2 POP JUMPDEST PUSH1 0x20 DUP3 LT DUP2 SUB PUSH2 0x275 JUMPI PUSH2 0x274 PUSH2 0x21E JUMP JUMPDEST JUMPDEST POP SWAP2 SWAP1 POP JUMP JUMPDEST PUSH0 DUP2 SWAP1 POP DUP2 PUSH0 MSTORE PUSH1 0x20 PUSH0 KECCAK256 SWAP1 POP SWAP2 SWAP1 POP JUMP JUMPDEST PUSH0 PUSH1 0x20 PUSH1 0x1F DUP4 ADD DIV SWAP1 POP SWAP2 SWAP1 POP JUMP JUMPDEST PUSH0 DUP3 DUP3 SHL SWAP1 POP SWAP3 SWAP2 POP POP JUMP JUMPDEST PUSH0 PUSH1 0x8 DUP4 MUL PUSH2 0x2D7 PUSH32 0xFFFFFFFFFFFFFFFFFFFFFFFFFFFFFFFFFFFFFFFFFFFFFFFFFFFFFFFFFFFFFFFF DUP3 PUSH2 0x29C JUMP JUMPDEST PUSH2 0x2E1 DUP7 DUP4 PUSH2 0x29C JUMP JUMPDEST SWAP6 POP DUP1 NOT DUP5 AND SWAP4 POP DUP1 DUP7 AND DUP5 OR SWAP3 POP POP POP SWAP4 SWAP3 POP POP POP JUMP JUMPDEST PUSH0 DUP2 SWAP1 POP SWAP2 SWAP1 POP JUMP JUMPDEST PUSH0 DUP2 SWAP1 POP SWAP2 SWAP1 POP JUMP JUMPDEST PUSH0 PUSH2 0x325 PUSH2 0x320 PUSH2 0x31B DUP5 PUSH2 0x2F9 JUMP JUMPDEST PUSH2 0x302 JUMP JUMPDEST PUSH2 0x2F9 JUMP JUMPDEST SWAP1 POP SWAP2 SWAP1 POP JUMP JUMPDEST PUSH0 DUP2 SWAP1 POP SWAP2 SWAP1 POP JUMP JUMPDEST PUSH2 0x33E DUP4 PUSH2 0x30B JUMP JUMPDEST PUSH2 0x352 PUSH2 0x34A DUP3 PUSH2 0x32C JUMP JUMPDEST DUP5 DUP5 SLOAD PUSH2 0x2A8 JUMP JUMPDEST DUP3 SSTORE POP POP POP POP JUMP JUMPDEST PUSH0 PUSH0 SWAP1 POP SWAP1 JUMP JUMPDEST PUSH2 0x369 PUSH2 0x35A JUMP JUMPDEST PUSH2 0x374 DUP2 DUP5 DUP5 PUSH2 0x335 JUMP JUMPDEST POP POP POP JUMP JUMPDEST JUMPDEST DUP2 DUP2 LT ISZERO PUSH2 0x397 JUMPI PUSH2 0x38C PUSH0 DUP3 PUSH2 0x361 JUMP JUMPDEST PUSH1 0x1 DUP2 ADD SWAP1 POP PUSH2 0x37A JUMP JUMPDEST POP POP JUMP JUMPDEST PUSH1 0x1F DUP3 GT ISZERO PUSH2 0x3DC JUMPI PUSH2 0x3AD DUP2 PUSH2 0x27B JUMP JUMPDEST PUSH2 0x3B6 DUP5 PUSH2 0x28D JUMP JUMPDEST DUP2 ADD PUSH1 0x20 DUP6 LT ISZERO PUSH2 0x3C5 JUMPI DUP2 SWAP1 POP JUMPDEST PUSH2 0x3D9 PUSH2 0x3D1 DUP6 PUSH2 0x28D JUMP JUMPDEST DUP4 ADD DUP3 PUSH2 0x379 JUMP JUMPDEST POP POP JUMPDEST POP POP POP JUMP JUMPDEST PUSH0 DUP3 DUP3 SHR SWAP1 POP SWAP3 SWAP2 POP POP JUMP JUMPDEST PUSH0 PUSH2 0x3FC PUSH0 NOT DUP5 PUSH1 0x8 MUL PUSH2 0x3E1 JUMP JUMPDEST NOT DUP1 DUP4 AND SWAP2 POP POP SWAP3 SWAP2 POP POP JUMP JUMPDEST PUSH0 PUSH2 0x414 DUP4 DUP4 PUSH2 0x3ED JUMP JUMPDEST SWAP2 POP DUP3 PUSH1 0x2 MUL DUP3 OR SWAP1 POP SWAP3 SWAP2 POP POP JUMP JUMPDEST PUSH2 0x42D DUP3 PUSH2 0x1E7 JUMP JUMPDEST PUSH8 0xFFFFFFFFFFFFFFFF DUP2 GT ISZERO PUSH2 0x446 JUMPI PUSH2 0x445 PUSH2 0x1F1 JUMP JUMPDEST JUMPDEST PUSH2 0x450 DUP3 SLOAD PUSH2 0x24B JUMP JUMPDEST PUSH2 0x45B DUP3 DUP3 DUP6 PUSH2 0x39B JUMP JUMPDEST PUSH0 PUSH1 0x20 SWAP1 POP PUSH1 0x1F DUP4 GT PUSH1 0x1 DUP2 EQ PUSH2 0x48C JUMPI PUSH0 DUP5 ISZERO PUSH2 0x47A JUMPI DUP3 DUP8 ADD MLOAD SWAP1 POP JUMPDEST PUSH2 0x484 DUP6 DUP3 PUSH2 0x409 JUMP JUMPDEST DUP7 SSTORE POP PUSH2 0x4EB JUMP JUMPDEST PUSH1 0x1F NOT DUP5 AND PUSH2 0x49A DUP7 PUSH2 0x27B JUMP JUMPDEST PUSH0 JUMPDEST DUP3 DUP2 LT ISZERO PUSH2 0x4C1 JUMPI DUP5 DUP10 ADD MLOAD DUP3 SSTORE PUSH1 0x1 DUP3 ADD SWAP2 POP PUSH1 0x20 DUP6 ADD SWAP5 POP PUSH1 0x20 DUP2 ADD SWAP1 POP PUSH2 0x49C JUMP JUMPDEST DUP7 DUP4 LT ISZERO PUSH2 0x4DE JUMPI DUP5 DUP10 ADD MLOAD PUSH2 0x4DA PUSH1 0x1F DUP10 AND DUP3 PUSH2 0x3ED JUMP JUMPDEST DUP4 SSTORE POP JUMPDEST PUSH1 0x1 PUSH1 0x2 DUP9 MUL ADD DUP9 SSTORE POP POP POP JUMPDEST POP POP POP POP POP POP JUMP JUMPDEST PUSH0 PUSH20 0xFFFFFFFFFFFFFFFFFFFFFFFFFFFFFFFFFFFFFFFF DUP3 AND SWAP1 POP SWAP2 SWAP1 POP JUMP JUMPDEST PUSH0 PUSH2 0x51C DUP3 PUSH2 0x4F3 JUMP JUMPDEST SWAP1 POP SWAP2 SWAP1 POP JUMP JUMPDEST PUSH2 0x52C DUP2 PUSH2 0x512 JUMP JUMPDEST DUP3 MSTORE POP POP JUMP JUMPDEST PUSH0 PUSH1 0x20 DUP3 ADD SWAP1 POP PUSH2 0x545 PUSH0 DUP4 ADD DUP5 PUSH2 0x523 JUMP JUMPDEST SWAP3 SWAP2 POP POP JUMP JUMPDEST PUSH2 0x11E8 DUP1 PUSH2 0x558 PUSH0 CODECOPY PUSH0 RETURN INVALID PUSH1 0x80 PUSH1 0x40 MSTORE CALLVALUE DUP1 ISZERO PUSH2 0xF JUMPI PUSH0 PUSH0 REVERT JUMPDEST POP PUSH1 0x4 CALLDATASIZE LT PUSH2 0xE8 JUMPI PUSH0 CALLDATALOAD PUSH1 0xE0 SHR DUP1 PUSH4 0x715018A6 GT PUSH2 0x8A JUMPI DUP1 PUSH4 0x9DC29FAC GT PUSH2 0x64 JUMPI DUP1 PUSH4 0x9DC29FAC EQ PUSH2 0x238 JUMPI DUP1 PUSH4 0xA9059CBB EQ PUSH2 0x254 JUMPI DUP1 PUSH4 0xDD62ED3E EQ PUSH2 0x284 JUMPI DUP1 PUSH4 0xF2FDE38B EQ PUSH2 0x2B4 JUMPI PUSH2 0xE8 JUMP JUMPDEST DUP1 PUSH4 0x715018A6 EQ PUSH2 0x1F2 JUMPI DUP1 PUSH4 0x8DA5CB5B EQ PUSH2 0x1FC JUMPI DUP1 PUSH4 0x95D89B41 EQ PUSH2 0x21A JUMPI PUSH2 0xE8 JUMP JUMPDEST DUP1 PUSH4 0x23B872DD GT PUSH2 0xC6 JUMPI DUP1 PUSH4 0x23B872DD EQ PUSH2 0x158 JUMPI DUP1 PUSH4 0x313CE567 EQ PUSH2 0x188 JUMPI DUP1 PUSH4 0x40C10F19 EQ PUSH2 0x1A6 JUMPI DUP1 PUSH4 0x70A08231 EQ PUSH2 0x1C2 JUMPI PUSH2 0xE8 JUMP JUMPDEST DUP1 PUSH4 0x6FDDE03 EQ PUSH2 0xEC JUMPI DUP1 PUSH4 0x95EA7B3 EQ PUSH2 0x10A JUMPI DUP1 PUSH4 0x18160DDD EQ PUSH2 0x13A JUMPI JUMPDEST PUSH0 PUSH0 REVERT JUMPDEST PUSH2 0xF4 PUSH2 0x2D0 JUMP JUMPDEST PUSH1 0x40 MLOAD PUSH2 0x101 SWAP2 SWAP1 PUSH2 0xE61 JUMP JUMPDEST PUSH1 0x40 MLOAD DUP1 SWAP2 SUB SWAP1 RETURN JUMPDEST PUSH2 0x124 PUSH1 0x4 DUP1 CALLDATASIZE SUB DUP2 ADD SWAP1 PUSH2 0x11F SWAP2 SWAP1 PUSH2 0xF12 JUMP JUMPDEST PUSH2 0x360 JUMP JUMPDEST PUSH1 0x40 MLOAD PUSH2 0x131 SWAP2 SWAP1 PUSH2 0xF6A JUMP JUMPDEST PUSH1 0x40 MLOAD DUP1 SWAP2 SUB SWAP1 RETURN JUMPDEST PUSH2 0x142 PUSH2 0x382 JUMP JUMPDEST PUSH1 0x40 MLOAD PUSH2 0x14F SWAP2 SWAP1 PUSH2 0xF92 JUMP JUMPDEST PUSH1 0x40 MLOAD DUP1 SWAP2 SUB SWAP1 RETURN JUMPDEST PUSH2 0x172 PUSH1 0x4 DUP1 CALLDATASIZE SUB DUP2 ADD SWAP1 PUSH2 0x16D SWAP2 SWAP1 PUSH2 0xFAB JUMP JUMPDEST PUSH2 0x38B JUMP JUMPDEST PUSH1 0x40 MLOAD PUSH2 0x17F SWAP2 SWAP1 PUSH2 0xF6A JUMP JUMPDEST PUSH1 0x40 MLOAD DUP1 SWAP2 SUB SWAP1 RETURN JUMPDEST PUSH2 0x190 PUSH2 0x3B9 JUMP JUMPDEST PUSH1 0x40 MLOAD PUSH2 0x19D SWAP2 SWAP1 PUSH2 0x1016 JUMP JUMPDEST PUSH1 0x40 MLOAD DUP1 SWAP2 SUB SWAP1 RETURN JUMPDEST PUSH2 0x1C0 PUSH1 0x4 DUP1 CALLDATASIZE SUB DUP2 ADD SWAP1 PUSH2 0x1BB SWAP2 SWAP1 PUSH2 0xF12 JUMP JUMPDEST PUSH2 0x3C1 JUMP JUMPDEST STOP JUMPDEST PUSH2 0x1DC PUSH1 0x4 DUP1 CALLDATASIZE SUB DUP2 ADD SWAP1 PUSH2 0x1D7 SWAP2 SWAP1 PUSH2 0x102F JUMP JUMPDEST PUSH2 0x3D7 JUMP JUMPDEST PUSH1 0x40 MLOAD PUSH2 0x1E9 SWAP2 SWAP1 PUSH2 0xF92 JUMP JUMPDEST PUSH1 0x40 MLOAD DUP1 SWAP2 SUB SWAP1 RETURN JUMPDEST PUSH2 0x1FA PUSH2 0x41C JUMP JUMPDEST STOP JUMPDEST PUSH2 0x204 PUSH2 0x42F JUMP JUMPDEST PUSH1 0x40 MLOAD PUSH2 0x211 SWAP2 SWAP1 PUSH2 0x1069 JUMP JUMPDEST PUSH1 0x40 MLOAD DUP1 SWAP2 SUB SWAP1 RETURN JUMPDEST PUSH2 0x222 PUSH2 0x457 JUMP JUMPDEST PUSH1 0x40 MLOAD PUSH2 0x22F SWAP2 SWAP1 PUSH2 0xE61 JUMP JUMPDEST PUSH1 0x40 MLOAD DUP1 SWAP2 SUB SWAP1 RETURN JUMPDEST PUSH2 0x252 PUSH1 0x4 DUP1 CALLDATASIZE SUB DUP2 ADD SWAP1 PUSH2 0x24D SWAP2 SWAP1 PUSH2 0xF12 JUMP JUMPDEST PUSH2 0x4E7 JUMP JUMPDEST STOP JUMPDEST PUSH2 0x26E PUSH1 0x4 DUP1 CALLDATASIZE SUB DUP2 ADD SWAP1 PUSH2 0x269 SWAP2 SWAP1 PUSH2 0xF12 JUMP JUMPDEST PUSH2 0x4FD JUMP JUMPDEST PUSH1 0x40 MLOAD PUSH2 0x27B SWAP2 SWAP1 PUSH2 0xF6A JUMP JUMPDEST PUSH1 0x40 MLOAD DUP1 SWAP2 SUB SWAP1 RETURN JUMPDEST PUSH2 0x29E PUSH1 0x4 DUP1 CALLDATASIZE SUB DUP2 ADD SWAP1 PUSH2 0x299 SWAP2 SWAP1 PUSH2 0x1082 JUMP JUMPDEST PUSH2 0x51F JUMP JUMPDEST PUSH1 0x40 MLOAD PUSH2 0x2AB SWAP2 SWAP1 PUSH2 0xF92 JUMP JUMPDEST PUSH1 0x40 MLOAD DUP1 SWAP2 SUB SWAP1 RETURN JUMPDEST PUSH2 0x2CE PUSH1 0x4 DUP1 CALLDATASIZE SUB DUP2 ADD SWAP1 PUSH2 0x2C9 SWAP2 SWAP1 PUSH2 0x102F JUMP JUMPDEST PUSH2 0x5A1 JUMP JUMPDEST STOP JUMPDEST PUSH1 0x60 PUSH1 0x3 DUP1 SLOAD PUSH2 0x2DF SWAP1 PUSH2 0x10ED JUMP JUMPDEST DUP1 PUSH1 0x1F ADD PUSH1 0x20 DUP1 SWAP2 DIV MUL PUSH1 0x20 ADD PUSH1 0x40 MLOAD SWAP1 DUP2 ADD PUSH1 0x40 MSTORE DUP1 SWAP3 SWAP2 SWAP1 DUP2 DUP2 MSTORE PUSH1 0x20 ADD DUP3 DUP1 SLOAD PUSH2 0x30B SWAP1 PUSH2 0x10ED JUMP JUMPDEST DUP1 ISZERO PUSH2 0x356 JUMPI DUP1 PUSH1 0x1F LT PUSH2 0x32D JUMPI PUSH2 0x100 DUP1 DUP4 SLOAD DIV MUL DUP4 MSTORE SWAP2 PUSH1 0x20 ADD SWAP2 PUSH2 0x356 JUMP JUMPDEST DUP3 ADD SWAP2 SWAP1 PUSH0 MSTORE PUSH1 0x20 PUSH0 KECCAK256 SWAP1 JUMPDEST DUP2 SLOAD DUP2 MSTORE SWAP1 PUSH1 0x1 ADD SWAP1 PUSH1 0x20 ADD DUP1 DUP4 GT PUSH2 0x339 JUMPI DUP3 SWAP1 SUB PUSH1 0x1F AND DUP3 ADD SWAP2 JUMPDEST POP POP POP POP POP SWAP1 POP SWAP1 JUMP JUMPDEST PUSH0 PUSH0 PUSH2 0x36A PUSH2 0x625 JUMP JUMPDEST SWAP1 POP PUSH2 0x377 DUP2 DUP6 DUP6 PUSH2 0x62C JUMP JUMPDEST PUSH1 0x1 SWAP2 POP POP SWAP3 SWAP2 POP POP JUMP JUMPDEST PUSH0 PUSH1 0x2 SLOAD SWAP1 POP SWAP1 JUMP JUMPDEST PUSH0 PUSH0 PUSH2 0x395 PUSH2 0x625 JUMP JUMPDEST SWAP1 POP PUSH2 0x3A2 DUP6 DUP3 DUP6 PUSH2 0x63E JUMP JUMPDEST PUSH2 0x3AD DUP6 DUP6 DUP6 PUSH2 0x6D1 JUMP JUMPDEST PUSH1 0x1 SWAP2 POP POP SWAP4 SWAP3 POP POP POP JUMP JUMPDEST PUSH0 PUSH1 0x12 SWAP1 POP SWAP1 JUMP JUMPDEST PUSH2 0x3C9 PUSH2 0x7C1 JUMP JUMPDEST PUSH2 0x3D3 DUP3 DUP3 PUSH2 0x848 JUMP JUMPDEST POP POP JUMP JUMPDEST PUSH0 PUSH0 PUSH0 DUP4 PUSH20 0xFFFFFFFFFFFFFFFFFFFFFFFFFFFFFFFFFFFFFFFF AND PUSH20 0xFFFFFFFFFFFFFFFFFFFFFFFFFFFFFFFFFFFFFFFF AND DUP2 MSTORE PUSH1 0x20 ADD SWAP1 DUP2 MSTORE PUSH1 0x20 ADD PUSH0 KECCAK256 SLOAD SWAP1 POP SWAP2 SWAP1 POP JUMP JUMPDEST PUSH2 0x424 PUSH2 0x7C1 JUMP JUMPDEST PUSH2 0x42D PUSH0 PUSH2 0x8C7 JUMP JUMPDEST JUMP JUMPDEST PUSH0 PUSH1 0x5 PUSH0 SWAP1 SLOAD SWAP1 PUSH2 0x100 EXP SWAP1 DIV PUSH20 0xFFFFFFFFFFFFFFFFFFFFFFFFFFFFFFFFFFFFFFFF AND SWAP1 POP SWAP1 JUMP JUMPDEST PUSH1 0x60 PUSH1 0x4 DUP1 SLOAD PUSH2 0x466 SWAP1 PUSH2 0x10ED JUMP JUMPDEST DUP1 PUSH1 0x1F ADD PUSH1 0x20 DUP1 SWAP2 DIV MUL PUSH1 0x20 ADD PUSH1 0x40 MLOAD SWAP1 DUP2 ADD PUSH1 0x40 MSTORE DUP1 SWAP3 SWAP2 SWAP1 DUP2 DUP2 MSTORE PUSH1 0x20 ADD DUP3 DUP1 SLOAD PUSH2 0x492 SWAP1 PUSH2 0x10ED JUMP JUMPDEST DUP1 ISZERO PUSH2 0x4DD JUMPI DUP1 PUSH1 0x1F LT PUSH2 0x4B4 JUMPI PUSH2 0x100 DUP1 DUP4 SLOAD DIV MUL DUP4 MSTORE SWAP2 PUSH1 0x20 ADD SWAP2 PUSH2 0x4DD JUMP JUMPDEST DUP3 ADD SWAP2 SWAP1 PUSH0 MSTORE PUSH1 0x20 PUSH0 KECCAK256 SWAP1 JUMPDEST DUP2 SLOAD DUP2 MSTORE SWAP1 PUSH1 0x1 ADD SWAP1 PUSH1 0x20 ADD DUP1 DUP4 GT PUSH2 0x4C0 JUMPI DUP3 SWAP1 SUB PUSH1 0x1F AND DUP3 ADD SWAP2 JUMPDEST POP POP POP POP POP SWAP1 POP SWAP1 JUMP JUMPDEST PUSH2 0x4EF PUSH2 0x7C1 JUMP JUMPDEST PUSH2 0x4F9 DUP3 DUP3 PUSH2 0x98A JUMP JUMPDEST POP POP JUMP JUMPDEST PUSH0 PUSH0 PUSH2 0x507 PUSH2 0x625 JUMP JUMPDEST SWAP1 POP PUSH2 0x514 DUP2 DUP6 DUP6 PUSH2 0x6D1 JUMP JUMPDEST PUSH1 0x1 SWAP2 POP POP SWAP3 SWAP2 POP POP JUMP JUMPDEST PUSH0 PUSH1 0x1 PUSH0 DUP5 PUSH20 0xFFFFFFFFFFFFFFFFFFFFFFFFFFFFFFFFFFFFFFFF AND PUSH20 0xFFFFFFFFFFFFFFFFFFFFFFFFFFFFFFFFFFFFFFFF AND DUP2 MSTORE PUSH1 0x20 ADD SWAP1 DUP2 MSTORE PUSH1 0x20 ADD PUSH0 KECCAK256 PUSH0 DUP4 PUSH20 0xFFFFFFFFFFFFFFFFFFFFFFFFFFFFFFFFFFFFFFFF AND PUSH20 0xFFFFFFFFFFFFFFFFFFFFFFFFFFFFFFFFFFFFFFFF AND DUP2 MSTORE PUSH1 0x20 ADD SWAP1 DUP2 MSTORE PUSH1 0x20 ADD PUSH0 KECCAK256 SLOAD SWAP1 POP SWAP3 SWAP2 POP POP JUMP JUMPDEST PUSH2 0x5A9 PUSH2 0x7C1 JUMP JUMPDEST PUSH0 PUSH20 0xFFFFFFFFFFFFFFFFFFFFFFFFFFFFFFFFFFFFFFFF AND DUP2 PUSH20 0xFFFFFFFFFFFFFFFFFFFFFFFFFFFFFFFFFFFFFFFF AND SUB PUSH2 0x619 JUMPI PUSH0 PUSH1 0x40 MLOAD PUSH32 0x1E4FBDF700000000000000000000000000000000000000000000000000000000 DUP2 MSTORE PUSH1 0x4 ADD PUSH2 0x610 SWAP2 SWAP1 PUSH2 0x1069 JUMP JUMPDEST PUSH1 0x40 MLOAD DUP1 SWAP2 SUB SWAP1 REVERT JUMPDEST PUSH2 0x622 DUP2 PUSH2 0x8C7 JUMP JUMPDEST POP JUMP JUMPDEST PUSH0 CALLER SWAP1 POP SWAP1 JUMP JUMPDEST PUSH2 0x639 DUP4 DUP4 DUP4 PUSH1 0x1 PUSH2 0xA09 JUMP JUMPDEST POP POP POP JUMP JUMPDEST PUSH0 PUSH2 0x649 DUP5 DUP5 PUSH2 0x51F JUMP JUMPDEST SWAP1 POP PUSH32 0xFFFFFFFFFFFFFFFFFFFFFFFFFFFFFFFFFFFFFFFFFFFFFFFFFFFFFFFFFFFFFFFF DUP2 LT ISZERO PUSH2 0x6CB JUMPI DUP2 DUP2 LT ISZERO PUSH2 0x6BC JUMPI DUP3 DUP2 DUP4 PUSH1 0x40 MLOAD PUSH32 0xFB8F41B200000000000000000000000000000000000000000000000000000000 DUP2 MSTORE PUSH1 0x4 ADD PUSH2 0x6B3 SWAP4 SWAP3 SWAP2 SWAP1 PUSH2 0x111D JUMP JUMPDEST PUSH1 0x40 MLOAD DUP1 SWAP2 SUB SWAP1 REVERT JUMPDEST PUSH2 0x6CA DUP5 DUP5 DUP5 DUP5 SUB PUSH0 PUSH2 0xA09 JUMP JUMPDEST JUMPDEST POP POP POP POP JUMP JUMPDEST PUSH0 PUSH20 0xFFFFFFFFFFFFFFFFFFFFFFFFFFFFFFFFFFFFFFFF AND DUP4 PUSH20 0xFFFFFFFFFFFFFFFFFFFFFFFFFFFFFFFFFFFFFFFF AND SUB PUSH2 0x741 JUMPI PUSH0 PUSH1 0x40 MLOAD PUSH32 0x96C6FD1E00000000000000000000000000000000000000000000000000000000 DUP2 MSTORE PUSH1 0x4 ADD PUSH2 0x738 SWAP2 SWAP1 PUSH2 0x1069 JUMP JUMPDEST PUSH1 0x40 MLOAD DUP1 SWAP2 SUB SWAP1 REVERT JUMPDEST PUSH0 PUSH20 0xFFFFFFFFFFFFFFFFFFFFFFFFFFFFFFFFFFFFFFFF AND DUP3 PUSH20 0xFFFFFFFFFFFFFFFFFFFFFFFFFFFFFFFFFFFFFFFF AND SUB PUSH2 0x7B1 JUMPI PUSH0 PUSH1 0x40 MLOAD PUSH32 0xEC442F0500000000000000000000000000000000000000000000000000000000 DUP2 MSTORE PUSH1 0x4 ADD PUSH2 0x7A8 SWAP2 SWAP1 PUSH2 0x1069 JUMP JUMPDEST PUSH1 0x40 MLOAD DUP1 SWAP2 SUB SWAP1 REVERT JUMPDEST PUSH2 0x7BC DUP4 DUP4 DUP4 PUSH2 0xBD8 JUMP JUMPDEST POP POP POP JUMP JUMPDEST PUSH2 0x7C9 PUSH2 0x625 JUMP JUMPDEST PUSH20 0xFFFFFFFFFFFFFFFFFFFFFFFFFFFFFFFFFFFFFFFF AND PUSH2 0x7E7 PUSH2 0x42F JUMP JUMPDEST PUSH20 0xFFFFFFFFFFFFFFFFFFFFFFFFFFFFFFFFFFFFFFFF AND EQ PUSH2 0x846 JUMPI PUSH2 0x80A PUSH2 0x625 JUMP JUMPDEST PUSH1 0x40 MLOAD PUSH32 0x118CDAA700000000000000000000000000000000000000000000000000000000 DUP2 MSTORE PUSH1 0x4 ADD PUSH2 0x83D SWAP2 SWAP1 PUSH2 0x1069 JUMP JUMPDEST PUSH1 0x40 MLOAD DUP1 SWAP2 SUB SWAP1 REVERT JUMPDEST JUMP JUMPDEST PUSH0 PUSH20 0xFFFFFFFFFFFFFFFFFFFFFFFFFFFFFFFFFFFFFFFF AND DUP3 PUSH20 0xFFFFFFFFFFFFFFFFFFFFFFFFFFFFFFFFFFFFFFFF AND SUB PUSH2 0x8B8 JUMPI PUSH0 PUSH1 0x40 MLOAD PUSH32 0xEC442F0500000000000000000000000000000000000000000000000000000000 DUP2 MSTORE PUSH1 0x4 ADD PUSH2 0x8AF SWAP2 SWAP1 PUSH2 0x1069 JUMP JUMPDEST PUSH1 0x40 MLOAD DUP1 SWAP2 SUB SWAP1 REVERT JUMPDEST PUSH2 0x8C3 PUSH0 DUP4 DUP4 PUSH2 0xBD8 JUMP JUMPDEST POP POP JUMP JUMPDEST PUSH0 PUSH1 0x5 PUSH0 SWAP1 SLOAD SWAP1 PUSH2 0x100 EXP SWAP1 DIV PUSH20 0xFFFFFFFFFFFFFFFFFFFFFFFFFFFFFFFFFFFFFFFF AND SWAP1 POP DUP2 PUSH1 0x5 PUSH0 PUSH2 0x100 EXP DUP2 SLOAD DUP2 PUSH20 0xFFFFFFFFFFFFFFFFFFFFFFFFFFFFFFFFFFFFFFFF MUL NOT AND SWAP1 DUP4 PUSH20 0xFFFFFFFFFFFFFFFFFFFFFFFFFFFFFFFFFFFFFFFF AND MUL OR SWAP1 SSTORE POP DUP2 PUSH20 0xFFFFFFFFFFFFFFFFFFFFFFFFFFFFFFFFFFFFFFFF AND DUP2 PUSH20 0xFFFFFFFFFFFFFFFFFFFFFFFFFFFFFFFFFFFFFFFF AND PUSH32 0x8BE0079C531659141344CD1FD0A4F28419497F9722A3DAAFE3B4186F6B6457E0 PUSH1 0x40 MLOAD PUSH1 0x40 MLOAD DUP1 SWAP2 SUB SWAP1 LOG3 POP POP JUMP JUMPDEST PUSH0 PUSH20 0xFFFFFFFFFFFFFFFFFFFFFFFFFFFFFFFFFFFFFFFF AND DUP3 PUSH20 0xFFFFFFFFFFFFFFFFFFFFFFFFFFFFFFFFFFFFFFFF AND SUB PUSH2 0x9FA JUMPI PUSH0 PUSH1 0x40 MLOAD PUSH32 0x96C6FD1E00000000000000000000000000000000000000000000000000000000 DUP2 MSTORE PUSH1 0x4 ADD PUSH2 0x9F1 SWAP2 SWAP1 PUSH2 0x1069 JUMP JUMPDEST PUSH1 0x40 MLOAD DUP1 SWAP2 SUB SWAP1 REVERT JUMPDEST PUSH2 0xA05 DUP3 PUSH0 DUP4 PUSH2 0xBD8 JUMP JUMPDEST POP POP JUMP JUMPDEST PUSH0 PUSH20 0xFFFFFFFFFFFFFFFFFFFFFFFFFFFFFFFFFFFFFFFF AND DUP5 PUSH20 0xFFFFFFFFFFFFFFFFFFFFFFFFFFFFFFFFFFFFFFFF AND SUB PUSH2 0xA79 JUMPI PUSH0 PUSH1 0x40 MLOAD PUSH32 0xE602DF0500000000000000000000000000000000000000000000000000000000 DUP2 MSTORE PUSH1 0x4 ADD PUSH2 0xA70 SWAP2 SWAP1 PUSH2 0x1069 JUMP JUMPDEST PUSH1 0x40 MLOAD DUP1 SWAP2 SUB SWAP1 REVERT JUMPDEST PUSH0 PUSH20 0xFFFFFFFFFFFFFFFFFFFFFFFFFFFFFFFFFFFFFFFF AND DUP4 PUSH20 0xFFFFFFFFFFFFFFFFFFFFFFFFFFFFFFFFFFFFFFFF AND SUB PUSH2 0xAE9 JUMPI PUSH0 PUSH1 0x40 MLOAD PUSH32 0x94280D6200000000000000000000000000000000000000000000000000000000 DUP2 MSTORE PUSH1 0x4 ADD PUSH2 0xAE0 SWAP2 SWAP1 PUSH2 0x1069 JUMP JUMPDEST PUSH1 0x40 MLOAD DUP1 SWAP2 SUB SWAP1 REVERT JUMPDEST DUP2 PUSH1 0x1 PUSH0 DUP7 PUSH20 0xFFFFFFFFFFFFFFFFFFFFFFFFFFFFFFFFFFFFFFFF AND PUSH20 0xFFFFFFFFFFFFFFFFFFFFFFFFFFFFFFFFFFFFFFFF AND DUP2 MSTORE PUSH1 0x20 ADD SWAP1 DUP2 MSTORE PUSH1 0x20 ADD PUSH0 KECCAK256 PUSH0 DUP6 PUSH20 0xFFFFFFFFFFFFFFFFFFFFFFFFFFFFFFFFFFFFFFFF AND PUSH20 0xFFFFFFFFFFFFFFFFFFFFFFFFFFFFFFFFFFFFFFFF AND DUP2 MSTORE PUSH1 0x20 ADD SWAP1 DUP2 MSTORE PUSH1 0x20 ADD PUSH0 KECCAK256 DUP2 SWAP1 SSTORE POP DUP1 ISZERO PUSH2 0xBD2 JUMPI DUP3 PUSH20 0xFFFFFFFFFFFFFFFFFFFFFFFFFFFFFFFFFFFFFFFF AND DUP5 PUSH20 0xFFFFFFFFFFFFFFFFFFFFFFFFFFFFFFFFFFFFFFFF AND PUSH32 0x8C5BE1E5EBEC7D5BD14F71427D1E84F3DD0314C0F7B2291E5B200AC8C7C3B925 DUP5 PUSH1 0x40 MLOAD PUSH2 0xBC9 SWAP2 SWAP1 PUSH2 0xF92 JUMP JUMPDEST PUSH1 0x40 MLOAD DUP1 SWAP2 SUB SWAP1 LOG3 JUMPDEST POP POP POP POP JUMP JUMPDEST PUSH0 PUSH20 0xFFFFFFFFFFFFFFFFFFFFFFFFFFFFFFFFFFFFFFFF AND DUP4 PUSH20 0xFFFFFFFFFFFFFFFFFFFFFFFFFFFFFFFFFFFFFFFF AND SUB PUSH2 0xC28 JUMPI DUP1 PUSH1 0x2 PUSH0 DUP3 DUP3 SLOAD PUSH2 0xC1C SWAP2 SWAP1 PUSH2 0x117F JUMP JUMPDEST SWAP3 POP POP DUP2 SWAP1 SSTORE POP PUSH2 0xCF6 JUMP JUMPDEST PUSH0 PUSH0 PUSH0 DUP6 PUSH20 0xFFFFFFFFFFFFFFFFFFFFFFFFFFFFFFFFFFFFFFFF AND PUSH20 0xFFFFFFFFFFFFFFFFFFFFFFFFFFFFFFFFFFFFFFFF AND DUP2 MSTORE PUSH1 0x20 ADD SWAP1 DUP2 MSTORE PUSH1 0x20 ADD PUSH0 KECCAK256 SLOAD SWAP1 POP DUP2 DUP2 LT ISZERO PUSH2 0xCB1 JUMPI DUP4 DUP2 DUP4 PUSH1 0x40 MLOAD PUSH32 0xE450D38C00000000000000000000000000000000000000000000000000000000 DUP2 MSTORE PUSH1 0x4 ADD PUSH2 0xCA8 SWAP4 SWAP3 SWAP2 SWAP1 PUSH2 0x111D JUMP JUMPDEST PUSH1 0x40 MLOAD DUP1 SWAP2 SUB SWAP1 REVERT JUMPDEST DUP2 DUP2 SUB PUSH0 PUSH0 DUP7 PUSH20 0xFFFFFFFFFFFFFFFFFFFFFFFFFFFFFFFFFFFFFFFF AND PUSH20 0xFFFFFFFFFFFFFFFFFFFFFFFFFFFFFFFFFFFFFFFF AND DUP2 MSTORE PUSH1 0x20 ADD SWAP1 DUP2 MSTORE PUSH1 0x20 ADD PUSH0 KECCAK256 DUP2 SWAP1 SSTORE POP POP JUMPDEST PUSH0 PUSH20 0xFFFFFFFFFFFFFFFFFFFFFFFFFFFFFFFFFFFFFFFF AND DUP3 PUSH20 0xFFFFFFFFFFFFFFFFFFFFFFFFFFFFFFFFFFFFFFFF AND SUB PUSH2 0xD3D JUMPI DUP1 PUSH1 0x2 PUSH0 DUP3 DUP3 SLOAD SUB SWAP3 POP POP DUP2 SWAP1 SSTORE POP PUSH2 0xD87 JUMP JUMPDEST DUP1 PUSH0 PUSH0 DUP5 PUSH20 0xFFFFFFFFFFFFFFFFFFFFFFFFFFFFFFFFFFFFFFFF AND PUSH20 0xFFFFFFFFFFFFFFFFFFFFFFFFFFFFFFFFFFFFFFFF AND DUP2 MSTORE PUSH1 0x20 ADD SWAP1 DUP2 MSTORE PUSH1 0x20 ADD PUSH0 KECCAK256 PUSH0 DUP3 DUP3 SLOAD ADD SWAP3 POP POP DUP2 SWAP1 SSTORE POP JUMPDEST DUP2 PUSH20 0xFFFFFFFFFFFFFFFFFFFFFFFFFFFFFFFFFFFFFFFF AND DUP4 PUSH20 0xFFFFFFFFFFFFFFFFFFFFFFFFFFFFFFFFFFFFFFFF AND PUSH32 0xDDF252AD1BE2C89B69C2B068FC378DAA952BA7F163C4A11628F55A4DF523B3EF DUP4 PUSH1 0x40 MLOAD PUSH2 0xDE4 SWAP2 SWAP1 PUSH2 0xF92 JUMP JUMPDEST PUSH1 0x40 MLOAD DUP1 SWAP2 SUB SWAP1 LOG3 POP POP POP JUMP JUMPDEST PUSH0 DUP2 MLOAD SWAP1 POP SWAP2 SWAP1 POP JUMP JUMPDEST PUSH0 DUP3 DUP3 MSTORE PUSH1 0x20 DUP3 ADD SWAP1 POP SWAP3 SWAP2 POP POP JUMP JUMPDEST DUP3 DUP2 DUP4 MCOPY PUSH0 DUP4 DUP4 ADD MSTORE POP POP POP JUMP JUMPDEST PUSH0 PUSH1 0x1F NOT PUSH1 0x1F DUP4 ADD AND SWAP1 POP SWAP2 SWAP1 POP JUMP JUMPDEST PUSH0 PUSH2 0xE33 DUP3 PUSH2 0xDF1 JUMP JUMPDEST PUSH2 0xE3D DUP2 DUP6 PUSH2 0xDFB JUMP JUMPDEST SWAP4 POP PUSH2 0xE4D DUP2 DUP6 PUSH1 0x20 DUP7 ADD PUSH2 0xE0B JUMP JUMPDEST PUSH2 0xE56 DUP2 PUSH2 0xE19 JUMP JUMPDEST DUP5 ADD SWAP2 POP POP SWAP3 SWAP2 POP POP JUMP JUMPDEST PUSH0 PUSH1 0x20 DUP3 ADD SWAP1 POP DUP2 DUP2 SUB PUSH0 DUP4 ADD MSTORE PUSH2 0xE79 DUP2 DUP5 PUSH2 0xE29 JUMP JUMPDEST SWAP1 POP SWAP3 SWAP2 POP POP JUMP JUMPDEST PUSH0 PUSH0 REVERT JUMPDEST PUSH0 PUSH20 0xFFFFFFFFFFFFFFFFFFFFFFFFFFFFFFFFFFFFFFFF DUP3 AND SWAP1 POP SWAP2 SWAP1 POP JUMP JUMPDEST PUSH0 PUSH2 0xEAE DUP3 PUSH2 0xE85 JUMP JUMPDEST SWAP1 POP SWAP2 SWAP1 POP JUMP JUMPDEST PUSH2 0xEBE DUP2 PUSH2 0xEA4 JUMP JUMPDEST DUP2 EQ PUSH2 0xEC8 JUMPI PUSH0 PUSH0 REVERT JUMPDEST POP JUMP JUMPDEST PUSH0 DUP2 CALLDATALOAD SWAP1 POP PUSH2 0xED9 DUP2 PUSH2 0xEB5 JUMP JUMPDEST SWAP3 SWAP2 POP POP JUMP JUMPDEST PUSH0 DUP2 SWAP1 POP SWAP2 SWAP1 POP JUMP JUMPDEST PUSH2 0xEF1 DUP2 PUSH2 0xEDF JUMP JUMPDEST DUP2 EQ PUSH2 0xEFB JUMPI PUSH0 PUSH0 REVERT JUMPDEST POP JUMP JUMPDEST PUSH0 DUP2 CALLDATALOAD SWAP1 POP PUSH2 0xF0C DUP2 PUSH2 0xEE8 JUMP JUMPDEST SWAP3 SWAP2 POP POP JUMP JUMPDEST PUSH0 PUSH0 PUSH1 0x40 DUP4 DUP6 SUB SLT ISZERO PUSH2 0xF28 JUMPI PUSH2 0xF27 PUSH2 0xE81 JUMP JUMPDEST JUMPDEST PUSH0 PUSH2 0xF35 DUP6 DUP3 DUP7 ADD PUSH2 0xECB JUMP JUMPDEST SWAP3 POP POP PUSH1 0x20 PUSH2 0xF46 DUP6 DUP3 DUP7 ADD PUSH2 0xEFE JUMP JUMPDEST SWAP2 POP POP SWAP3 POP SWAP3 SWAP1 POP JUMP JUMPDEST PUSH0 DUP2 ISZERO ISZERO SWAP1 POP SWAP2 SWAP1 POP JUMP JUMPDEST PUSH2 0xF64 DUP2 PUSH2 0xF50 JUMP JUMPDEST DUP3 MSTORE POP POP JUMP JUMPDEST PUSH0 PUSH1 0x20 DUP3 ADD SWAP1 POP PUSH2 0xF7D PUSH0 DUP4 ADD DUP5 PUSH2 0xF5B JUMP JUMPDEST SWAP3 SWAP2 POP POP JUMP JUMPDEST PUSH2 0xF8C DUP2 PUSH2 0xEDF JUMP JUMPDEST DUP3 MSTORE POP POP JUMP JUMPDEST PUSH0 PUSH1 0x20 DUP3 ADD SWAP1 POP PUSH2 0xFA5 PUSH0 DUP4 ADD DUP5 PUSH2 0xF83 JUMP JUMPDEST SWAP3 SWAP2 POP POP JUMP JUMPDEST PUSH0 PUSH0 PUSH0 PUSH1 0x60 DUP5 DUP7 SUB SLT ISZERO PUSH2 0xFC2 JUMPI PUSH2 0xFC1 PUSH2 0xE81 JUMP JUMPDEST JUMPDEST PUSH0 PUSH2 0xFCF DUP7 DUP3 DUP8 ADD PUSH2 0xECB JUMP JUMPDEST SWAP4 POP POP PUSH1 0x20 PUSH2 0xFE0 DUP7 DUP3 DUP8 ADD PUSH2 0xECB JUMP JUMPDEST SWAP3 POP POP PUSH1 0x40 PUSH2 0xFF1 DUP7 DUP3 DUP8 ADD PUSH2 0xEFE JUMP JUMPDEST SWAP2 POP POP SWAP3 POP SWAP3 POP SWAP3 JUMP JUMPDEST PUSH0 PUSH1 0xFF DUP3 AND SWAP1 POP SWAP2 SWAP1 POP JUMP JUMPDEST PUSH2 0x1010 DUP2 PUSH2 0xFFB JUMP JUMPDEST DUP3 MSTORE POP POP JUMP JUMPDEST PUSH0 PUSH1 0x20 DUP3 ADD SWAP1 POP PUSH2 0x1029 PUSH0 DUP4 ADD DUP5 PUSH2 0x1007 JUMP JUMPDEST SWAP3 SWAP2 POP POP JUMP JUMPDEST PUSH0 PUSH1 0x20 DUP3 DUP5 SUB SLT ISZERO PUSH2 0x1044 JUMPI PUSH2 0x1043 PUSH2 0xE81 JUMP JUMPDEST JUMPDEST PUSH0 PUSH2 0x1051 DUP5 DUP3 DUP6 ADD PUSH2 0xECB JUMP JUMPDEST SWAP2 POP POP SWAP3 SWAP2 POP POP JUMP JUMPDEST PUSH2 0x1063 DUP2 PUSH2 0xEA4 JUMP JUMPDEST DUP3 MSTORE POP POP JUMP JUMPDEST PUSH0 PUSH1 0x20 DUP3 ADD SWAP1 POP PUSH2 0x107C PUSH0 DUP4 ADD DUP5 PUSH2 0x105A JUMP JUMPDEST SWAP3 SWAP2 POP POP JUMP JUMPDEST PUSH0 PUSH0 PUSH1 0x40 DUP4 DUP6 SUB SLT ISZERO PUSH2 0x1098 JUMPI PUSH2 0x1097 PUSH2 0xE81 JUMP JUMPDEST JUMPDEST PUSH0 PUSH2 0x10A5 DUP6 DUP3 DUP7 ADD PUSH2 0xECB JUMP JUMPDEST SWAP3 POP POP PUSH1 0x20 PUSH2 0x10B6 DUP6 DUP3 DUP7 ADD PUSH2 0xECB JUMP JUMPDEST SWAP2 POP POP SWAP3 POP SWAP3 SWAP1 POP JUMP JUMPDEST PUSH32 0x4E487B7100000000000000000000000000000000000000000000000000000000 PUSH0 MSTORE PUSH1 0x22 PUSH1 0x4 MSTORE PUSH1 0x24 PUSH0 REVERT JUMPDEST PUSH0 PUSH1 0x2 DUP3 DIV SWAP1 POP PUSH1 0x1 DUP3 AND DUP1 PUSH2 0x1104 JUMPI PUSH1 0x7F DUP3 AND SWAP2 POP JUMPDEST PUSH1 0x20 DUP3 LT DUP2 SUB PUSH2 0x1117 JUMPI PUSH2 0x1116 PUSH2 0x10C0 JUMP JUMPDEST JUMPDEST POP SWAP2 SWAP1 POP JUMP JUMPDEST PUSH0 PUSH1 0x60 DUP3 ADD SWAP1 POP PUSH2 0x1130 PUSH0 DUP4 ADD DUP7 PUSH2 0x105A JUMP JUMPDEST PUSH2 0x113D PUSH1 0x20 DUP4 ADD DUP6 PUSH2 0xF83 JUMP JUMPDEST PUSH2 0x114A PUSH1 0x40 DUP4 ADD DUP5 PUSH2 0xF83 JUMP JUMPDEST SWAP5 SWAP4 POP POP POP POP JUMP JUMPDEST PUSH32 0x4E487B7100000000000000000000000000000000000000000000000000000000 PUSH0 MSTORE PUSH1 0x11 PUSH1 0x4 MSTORE PUSH1 0x24 PUSH0 REVERT JUMPDEST PUSH0 PUSH2 0x1189 DUP3 PUSH2 0xEDF JUMP JUMPDEST SWAP2 POP PUSH2 0x1194 DUP4 PUSH2 0xEDF JUMP JUMPDEST SWAP3 POP DUP3 DUP3 ADD SWAP1 POP DUP1 DUP3 GT ISZERO PUSH2 0x11AC JUMPI PUSH2 0x11AB PUSH2 0x1152 JUMP JUMPDEST JUMPDEST SWAP3 SWAP2 POP POP JUMP INVALID LOG2 PUSH5 0x6970667358 0x22 SLT KECCAK256 ISZERO DUP12 0xA6 0xF7 PUSH20 0x3BA4E6ABF42F71A3345C6244E0416D90C693D78E CALL 0xCF 0xD 0xBB PUSH19 0xB89164736F6C634300081F0033000000000000 "
				},
				"gasEstimates": {
					"creation": {
						"codeDepositCost": "1364400",
						"executionCost": "infinite",
						"totalCost": "infinite"
					},
					"external": {
						"addLiquidity(uint256,uint256)": "infinite",
						"getReserves()": "infinite",
						"lpToken()": "infinite",
						"removeLiquidity(uint256)": "infinite",
						"reserveA()": "2513",
						"reserveB()": "2492",
						"spotPrice()": "infinite",
						"spotPriceInverse()": "infinite",
						"swapAForB(uint256)": "infinite",
						"swapBForA(uint256)": "infinite",
						"tokenA()": "infinite",
						"tokenB()": "infinite"
					}
				},
				"methodIdentifiers": {
					"addLiquidity(uint256,uint256)": "9cd441da",
					"getReserves()": "0902f1ac",
					"lpToken()": "5fcbd285",
					"removeLiquidity(uint256)": "9c8f9f23",
					"reserveA()": "dc5fa6c5",
					"reserveB()": "19e36f3b",
					"spotPrice()": "398482d8",
					"spotPriceInverse()": "d2656ddc",
					"swapAForB(uint256)": "03102091",
					"swapBForA(uint256)": "e619a498",
					"tokenA()": "0fc63d10",
					"tokenB()": "5f64b55b"
				}
			},
			"storageLayout": {
				"storage": [
					{
						"astId": 940,
						"contract": "contracts/DEX.sol:DEX",
						"label": "tokenA",
						"offset": 0,
						"slot": "0",
						"type": "t_contract(IERC20)877"
					},
					{
						"astId": 943,
						"contract": "contracts/DEX.sol:DEX",
						"label": "tokenB",
						"offset": 0,
						"slot": "1",
						"type": "t_contract(IERC20)877"
					},
					{
						"astId": 946,
						"contract": "contracts/DEX.sol:DEX",
						"label": "lpToken",
						"offset": 0,
						"slot": "2",
						"type": "t_contract(LPToken)1553"
					},
					{
						"astId": 948,
						"contract": "contracts/DEX.sol:DEX",
						"label": "reserveA",
						"offset": 0,
						"slot": "3",
						"type": "t_uint256"
					},
					{
						"astId": 950,
						"contract": "contracts/DEX.sol:DEX",
						"label": "reserveB",
						"offset": 0,
						"slot": "4",
						"type": "t_uint256"
					}
				],
				"types": {
					"t_contract(IERC20)877": {
						"encoding": "inplace",
						"label": "contract IERC20",
						"numberOfBytes": "20"
					},
					"t_contract(LPToken)1553": {
						"encoding": "inplace",
						"label": "contract LPToken",
						"numberOfBytes": "20"
					},
					"t_uint256": {
						"encoding": "inplace",
						"label": "uint256",
						"numberOfBytes": "32"
					}
				}
			},
			"userdoc": {
				"kind": "user",
				"methods": {},
				"version": 1
			}
		}
	}
}