{
	"data": {
		"bytecode": {
			"linkReferences": {},
			"object": "608060405234801561000f575f5ffd5b50604051611b2b380380611b2b83398181016040528101906100319190610402565b335f5f6101000a81548173ffffffffffffffffffffffffffffffffffffffff021916908373ffffffffffffffffffffffffffffffffffffffff1602179055508460015f6101000a81548173ffffffffffffffffffffffffffffffffffffffff021916908373ffffffffffffffffffffffffffffffffffffffff1602179055508360025f6101000a81548173ffffffffffffffffffffffffffffffffffffffff021916908373ffffffffffffffffffffffffffffffffffffffff160217905550826003819055508473ffffffffffffffffffffffffffffffffffffffff1663095ea7b3837fffffffffffffffffffffffffffffffffffffffffffffffffffffffffffffffff6040518363ffffffff1660e01b8152600401610152929190610497565b6020604051808303815f875af115801561016e573d5f5f3e3d5ffd5b505050506040513d601f19601f8201168201806040525081019061019291906104f3565b508473ffffffffffffffffffffffffffffffffffffffff1663095ea7b3827fffffffffffffffffffffffffffffffffffffffffffffffffffffffffffffffff6040518363ffffffff1660e01b81526004016101ee929190610497565b6020604051808303815f875af115801561020a573d5f5f3e3d5ffd5b505050506040513d601f19601f8201168201806040525081019061022e91906104f3565b508373ffffffffffffffffffffffffffffffffffffffff1663095ea7b3837fffffffffffffffffffffffffffffffffffffffffffffffffffffffffffffffff6040518363ffffffff1660e01b815260040161028a929190610497565b6020604051808303815f875af11580156102a6573d5f5f3e3d5ffd5b505050506040513d601f19601f820116820180604052508101906102ca91906104f3565b508373ffffffffffffffffffffffffffffffffffffffff1663095ea7b3827fffffffffffffffffffffffffffffffffffffffffffffffffffffffffffffffff6040518363ffffffff1660e01b8152600401610326929190610497565b6020604051808303815f875af1158015610342573d5f5f3e3d5ffd5b505050506040513d601f19601f8201168201806040525081019061036691906104f3565b50505050505061051e565b5f5ffd5b5f73ffffffffffffffffffffffffffffffffffffffff82169050919050565b5f61039e82610375565b9050919050565b6103ae81610394565b81146103b8575f5ffd5b50565b5f815190506103c9816103a5565b92915050565b5f819050919050565b6103e1816103cf565b81146103eb575f5ffd5b50565b5f815190506103fc816103d8565b92915050565b5f5f5f5f5f60a0868803121561041b5761041a610371565b5b5f610428888289016103bb565b9550506020610439888289016103bb565b945050604061044a888289016103ee565b935050606061045b888289016103bb565b925050608061046c888289016103bb565b9150509295509295909350565b61048281610394565b82525050565b610491816103cf565b82525050565b5f6040820190506104aa5f830185610479565b6104b76020830184610488565b9392505050565b5f8115159050919050565b6104d2816104be565b81146104dc575f5ffd5b50565b5f815190506104ed816104c9565b92915050565b5f6020828403121561050857610507610371565b5b5f610515848285016104df565b91505092915050565b6116008061052b5f395ff3fe608060405234801561000f575f5ffd5b5060043610610086575f3560e01c80637341ab8c116100595780637341ab8c146100ec5780638da5cb5b1461010a578063b6b55f2514610128578063ff0f0cdf1461014457610086565b80630fc63d101461008a5780633ccfd60b146100a85780635f64b55b146100b2578063650f84be146100d0575b5f5ffd5b610092610176565b60405161009f9190611017565b60405180910390f35b6100b061019b565b005b6100ba6104f1565b6040516100c79190611017565b60405180910390f35b6100ea60048036038101906100e591906110a2565b610516565b005b6100f4610d55565b6040516101019190611101565b60405180910390f35b610112610d5b565b60405161011f9190611129565b60405180910390f35b610142600480360381019061013d9190611142565b610d7f565b005b61015e6004803603810190610159919061116d565b610eaf565b60405161016d939291906111c5565b60405180910390f35b60015f9054906101000a900473ffffffffffffffffffffffffffffffffffffffff1681565b5f5f9054906101000a900473ffffffffffffffffffffffffffffffffffffffff1673ffffffffffffffffffffffffffffffffffffffff163373ffffffffffffffffffffffffffffffffffffffff1614610229576040517f08c379a000000000000000000000000000000000000000000000000000000000815260040161022090611254565b60405180910390fd5b5f60015f9054906101000a900473ffffffffffffffffffffffffffffffffffffffff1673ffffffffffffffffffffffffffffffffffffffff166370a08231306040518263ffffffff1660e01b81526004016102849190611129565b602060405180830381865afa15801561029f573d5f5f3e3d5ffd5b505050506040513d601f19601f820116820180604052508101906102c39190611286565b90505f60025f9054906101000a900473ffffffffffffffffffffffffffffffffffffffff1673ffffffffffffffffffffffffffffffffffffffff166370a08231306040518263ffffffff1660e01b81526004016103209190611129565b602060405180830381865afa15801561033b573d5f5f3e3d5ffd5b505050506040513d601f19601f8201168201806040525081019061035f9190611286565b90505f8211156104275760015f9054906101000a900473ffffffffffffffffffffffffffffffffffffffff1673ffffffffffffffffffffffffffffffffffffffff1663a9059cbb5f5f9054906101000a900473ffffffffffffffffffffffffffffffffffffffff16846040518363ffffffff1660e01b81526004016103e59291906112b1565b6020604051808303815f875af1158015610401573d5f5f3e3d5ffd5b505050506040513d601f19601f820116820180604052508101906104259190611302565b505b5f8111156104ed5760025f9054906101000a900473ffffffffffffffffffffffffffffffffffffffff1673ffffffffffffffffffffffffffffffffffffffff1663a9059cbb5f5f9054906101000a900473ffffffffffffffffffffffffffffffffffffffff16836040518363ffffffff1660e01b81526004016104ab9291906112b1565b6020604051808303815f875af11580156104c7573d5f5f3e3d5ffd5b505050506040513d601f19601f820116820180604052508101906104eb9190611302565b505b5050565b60025f9054906101000a900473ffffffffffffffffffffffffffffffffffffffff1681565b5f5f9054906101000a900473ffffffffffffffffffffffffffffffffffffffff1673ffffffffffffffffffffffffffffffffffffffff163373ffffffffffffffffffffffffffffffffffffffff16146105a4576040517f08c379a000000000000000000000000000000000000000000000000000000000815260040161059b90611254565b60405180910390fd5b5f81116105e6576040517f08c379a00000000000000000000000000000000000000000000000000000000081526004016105dd90611377565b60405180910390fd5b5f60015f9054906101000a900473ffffffffffffffffffffffffffffffffffffffff1673ffffffffffffffffffffffffffffffffffffffff166370a08231306040518263ffffffff1660e01b81526004016106419190611129565b602060405180830381865afa15801561065c573d5f5f3e3d5ffd5b505050506040513d601f19601f820116820180604052508101906106809190611286565b9050818110156106c5576040517f08c379a00000000000000000000000000000000000000000000000000000000081526004016106bc906113df565b60405180910390fd5b5f8473ffffffffffffffffffffffffffffffffffffffff1663398482d86040518163ffffffff1660e01b8152600401602060405180830381865afa15801561070f573d5f5f3e3d5ffd5b505050506040513d601f19601f820116820180604052508101906107339190611286565b90505f8473ffffffffffffffffffffffffffffffffffffffff1663398482d86040518163ffffffff1660e01b8152600401602060405180830381865afa15801561077f573d5f5f3e3d5ffd5b505050506040513d601f19601f820116820180604052508101906107a39190611286565b90508082111561095d578573ffffffffffffffffffffffffffffffffffffffff166303102091856040518263ffffffff1660e01b81526004016107e69190611101565b5f604051808303815f87803b1580156107fd575f5ffd5b505af115801561080f573d5f5f3e3d5ffd5b505050505f60025f9054906101000a900473ffffffffffffffffffffffffffffffffffffffff1673ffffffffffffffffffffffffffffffffffffffff166370a08231306040518263ffffffff1660e01b815260040161086e9190611129565b602060405180830381865afa158015610889573d5f5f3e3d5ffd5b505050506040513d601f19601f820116820180604052508101906108ad9190611286565b90505f81116108f1576040517f08c379a00000000000000000000000000000000000000000000000000000000081526004016108e890611447565b60405180910390fd5b8573ffffffffffffffffffffffffffffffffffffffff1663e619a498826040518263ffffffff1660e01b815260040161092a9190611101565b5f604051808303815f87803b158015610941575f5ffd5b505af1158015610953573d5f5f3e3d5ffd5b5050505050610b51565b81811115610b15578473ffffffffffffffffffffffffffffffffffffffff166303102091856040518263ffffffff1660e01b815260040161099e9190611101565b5f604051808303815f87803b1580156109b5575f5ffd5b505af11580156109c7573d5f5f3e3d5ffd5b505050505f60025f9054906101000a900473ffffffffffffffffffffffffffffffffffffffff1673ffffffffffffffffffffffffffffffffffffffff166370a08231306040518263ffffffff1660e01b8152600401610a269190611129565b602060405180830381865afa158015610a41573d5f5f3e3d5ffd5b505050506040513d601f19601f82011682018060405250810190610a659190611286565b90505f8111610aa9576040517f08c379a0000000000000000000000000000000000000000000000000000000008152600401610aa090611447565b60405180910390fd5b8673ffffffffffffffffffffffffffffffffffffffff1663e619a498826040518263ffffffff1660e01b8152600401610ae29190611101565b5f604051808303815f87803b158015610af9575f5ffd5b505af1158015610b0b573d5f5f3e3d5ffd5b5050505050610b50565b6040517f08c379a0000000000000000000000000000000000000000000000000000000008152600401610b47906114af565b60405180910390fd5b5b5f60015f9054906101000a900473ffffffffffffffffffffffffffffffffffffffff1673ffffffffffffffffffffffffffffffffffffffff166370a08231306040518263ffffffff1660e01b8152600401610bac9190611129565b602060405180830381865afa158015610bc7573d5f5f3e3d5ffd5b505050506040513d601f19601f82011682018060405250810190610beb9190611286565b90505f848211610bfb575f610c08565b8482610c0791906114fa565b5b90506003548111610c4e576040517f08c379a0000000000000000000000000000000000000000000000000000000008152600401610c4590611577565b60405180910390fd5b5f811115610d145760015f9054906101000a900473ffffffffffffffffffffffffffffffffffffffff1673ffffffffffffffffffffffffffffffffffffffff1663a9059cbb5f5f9054906101000a900473ffffffffffffffffffffffffffffffffffffffff16836040518363ffffffff1660e01b8152600401610cd29291906112b1565b6020604051808303815f875af1158015610cee573d5f5f3e3d5ffd5b505050506040513d601f19601f82011682018060405250810190610d129190611302565b505b7fc3dff9ec2a9266191f204f1e39b6d5cebfc2c3d718964dd6699f5e8e6d010fb081604051610d439190611101565b60405180910390a15050505050505050565b60035481565b5f5f9054906101000a900473ffffffffffffffffffffffffffffffffffffffff1681565b5f5f9054906101000a900473ffffffffffffffffffffffffffffffffffffffff1673ffffffffffffffffffffffffffffffffffffffff163373ffffffffffffffffffffffffffffffffffffffff1614610e0d576040517f08c379a0000000000000000000000000000000000000000000000000000000008152600401610e0490611254565b60405180910390fd5b60015f9054906101000a900473ffffffffffffffffffffffffffffffffffffffff1673ffffffffffffffffffffffffffffffffffffffff166323b872dd3330846040518463ffffffff1660e01b8152600401610e6b93929190611595565b6020604051808303815f875af1158015610e87573d5f5f3e3d5ffd5b505050506040513d601f19601f82011682018060405250810190610eab9190611302565b5050565b5f5f5f8473ffffffffffffffffffffffffffffffffffffffff1663398482d86040518163ffffffff1660e01b8152600401602060405180830381865afa158015610efb573d5f5f3e3d5ffd5b505050506040513d601f19601f82011682018060405250810190610f1f9190611286565b92508373ffffffffffffffffffffffffffffffffffffffff1663398482d86040518163ffffffff1660e01b8152600401602060405180830381865afa158015610f6a573d5f5f3e3d5ffd5b505050506040513d601f19601f82011682018060405250810190610f8e9190611286565b91508183141590509250925092565b5f73ffffffffffffffffffffffffffffffffffffffff82169050919050565b5f819050919050565b5f610fdf610fda610fd584610f9d565b610fbc565b610f9d565b9050919050565b5f610ff082610fc5565b9050919050565b5f61100182610fe6565b9050919050565b61101181610ff7565b82525050565b5f60208201905061102a5f830184611008565b92915050565b5f5ffd5b5f61103e82610f9d565b9050919050565b61104e81611034565b8114611058575f5ffd5b50565b5f8135905061106981611045565b92915050565b5f819050919050565b6110818161106f565b811461108b575f5ffd5b50565b5f8135905061109c81611078565b92915050565b5f5f5f606084860312156110b9576110b8611030565b5b5f6110c68682870161105b565b93505060206110d78682870161105b565b92505060406110e88682870161108e565b9150509250925092565b6110fb8161106f565b82525050565b5f6020820190506111145f8301846110f2565b92915050565b61112381611034565b82525050565b5f60208201905061113c5f83018461111a565b92915050565b5f6020828403121561115757611156611030565b5b5f6111648482850161108e565b91505092915050565b5f5f6040838503121561118357611182611030565b5b5f6111908582860161105b565b92505060206111a18582860161105b565b9150509250929050565b5f8115159050919050565b6111bf816111ab565b82525050565b5f6060820190506111d85f8301866110f2565b6111e560208301856110f2565b6111f260408301846111b6565b949350505050565b5f82825260208201905092915050565b7f4e6f74206f776e657200000000000000000000000000000000000000000000005f82015250565b5f61123e6009836111fa565b91506112498261120a565b602082019050919050565b5f6020820190508181035f83015261126b81611232565b9050919050565b5f8151905061128081611078565b92915050565b5f6020828403121561129b5761129a611030565b5b5f6112a884828501611272565b91505092915050565b5f6040820190506112c45f83018561111a565b6112d160208301846110f2565b9392505050565b6112e1816111ab565b81146112eb575f5ffd5b50565b5f815190506112fc816112d8565b92915050565b5f6020828403121561131757611316611030565b5b5f611324848285016112ee565b91505092915050565b7f416d6f756e74206d7573742062652067726561746572207468616e20300000005f82015250565b5f611361601d836111fa565b915061136c8261132d565b602082019050919050565b5f6020820190508181035f83015261138e81611355565b9050919050565b7f496e73756666696369656e74206361706974616c0000000000000000000000005f82015250565b5f6113c96014836111fa565b91506113d482611395565b602082019050919050565b5f6020820190508181035f8301526113f6816113bd565b9050919050565b7f4e6f20546f6b656e4220726563656976656400000000000000000000000000005f82015250565b5f6114316012836111fa565b915061143c826113fd565b602082019050919050565b5f6020820190508181035f83015261145e81611425565b9050919050565b7f4e6f20617262697472616765206f70706f7274756e69747900000000000000005f82015250565b5f6114996018836111fa565b91506114a482611465565b602082019050919050565b5f6020820190508181035f8301526114c68161148d565b9050919050565b7f4e487b71000000000000000000000000000000000000000000000000000000005f52601160045260245ffd5b5f6115048261106f565b915061150f8361106f565b9250828203905081811115611527576115266114cd565b5b92915050565b7f496e73756666696369656e742070726f666974000000000000000000000000005f82015250565b5f6115616013836111fa565b915061156c8261152d565b602082019050919050565b5f6020820190508181035f83015261158e81611555565b9050919050565b5f6060820190506115a85f83018661111a565b6115b5602083018561111a565b6115c260408301846110f2565b94935050505056fea2646970667358221220c83823805c14c957e842a79be07571d128386bf6d2cef8f9ed51fc54e8932f6a64736f6c634300081f0033",
			"opcodes": "PUSH1 0x80 PUSH1 0x40 MSTORE CALLVALUE DUP1 ISZERO PUSH2 0xF JUMPI PUSH0 PUSH0 REVERT JUMPDEST POP PUSH1 0x40 MLOAD PUSH2 0x1B2B CODESIZE SUB DUP1 PUSH2 0x1B2B DUP4 CODECOPY DUP2 DUP2 ADD PUSH1 0x40 MSTORE DUP2 ADD SWAP1 PUSH2 0x31 SWAP2 SWAP1 PUSH2 0x402 JUMP JUMPDEST CALLER PUSH0 PUSH0 PUSH2 0x100 EXP DUP2 SLOAD DUP2 PUSH20 0xFFFFFFFFFFFFFFFFFFFFFFFFFFFFFFFFFFFFFFFF MUL NOT AND SWAP1 DUP4 PUSH20 0xFFFFFFFFFFFFFFFFFFFFFFFFFFFFFFFFFFFFFFFF AND MUL OR SWAP1 SSTORE POP DUP5 PUSH1 0x1 PUSH0 PUSH2 0x100 EXP DUP2 SLOAD DUP2 PUSH20 0xFFFFFFFFFFFFFFFFFFFFFFFFFFFFFFFFFFFFFFFF MUL NOT AND SWAP1 DUP4 PUSH20 0xFFFFFFFFFFFFFFFFFFFFFFFFFFFFFFFFFFFFFFFF AND MUL OR SWAP1 SSTORE POP DUP4 PUSH1 0x2 PUSH0 PUSH2 0x100 EXP DUP2 SLOAD DUP2 PUSH20 0xFFFFFFFFFFFFFFFFFFFFFFFFFFFFFFFFFFFFFFFF MUL NOT AND SWAP1 DUP4 PUSH20 0xFFFFFFFFFFFFFFFFFFFFFFFFFFFFFFFFFFFFFFFF AND MUL OR SWAP1 SSTORE POP DUP3 PUSH1 0x3 DUP2 SWAP1 SSTORE POP DUP5 PUSH20 0xFFFFFFFFFFFFFFFFFFFFFFFFFFFFFFFFFFFFFFFF AND PUSH4 0x95EA7B3 DUP4 PUSH32 0xFFFFFFFFFFFFFFFFFFFFFFFFFFFFFFFFFFFFFFFFFFFFFFFFFFFFFFFFFFFFFFFF PUSH1 0x40 MLOAD DUP4 PUSH4 0xFFFFFFFF AND PUSH1 0xE0 SHL DUP2 MSTORE PUSH1 0x4 ADD PUSH2 0x152 SWAP3 SWAP2 SWAP1 PUSH2 0x497 JUMP JUMPDEST PUSH1 0x20 PUSH1 0x40 MLOAD DUP1 DUP4 SUB DUP2 PUSH0 DUP8 GAS CALL ISZERO DUP1 ISZERO PUSH2 0x16E JUMPI RETURNDATASIZE PUSH0 PUSH0 RETURNDATACOPY RETURNDATASIZE PUSH0 REVERT JUMPDEST POP POP POP POP PUSH1 0x40 MLOAD RETURNDATASIZE PUSH1 0x1F NOT PUSH1 0x1F DUP3 ADD AND DUP3 ADD DUP1 PUSH1 0x40 MSTORE POP DUP2 ADD SWAP1 PUSH2 0x192 SWAP2 SWAP1 PUSH2 0x4F3 JUMP JUMPDEST POP DUP5 PUSH20 0xFFFFFFFFFFFFFFFFFFFFFFFFFFFFFFFFFFFFFFFF AND PUSH4 0x95EA7B3 DUP3 PUSH32 0xFFFFFFFFFFFFFFFFFFFFFFFFFFFFFFFFFFFFFFFFFFFFFFFFFFFFFFFFFFFFFFFF PUSH1 0x40 MLOAD DUP4 PUSH4 0xFFFFFFFF AND PUSH1 0xE0 SHL DUP2 MSTORE PUSH1 0x4 ADD PUSH2 0x1EE SWAP3 SWAP2 SWAP1 PUSH2 0x497 JUMP JUMPDEST PUSH1 0x20 PUSH1 0x40 MLOAD DUP1 DUP4 SUB DUP2 PUSH0 DUP8 GAS CALL ISZERO DUP1 ISZERO PUSH2 0x20A JUMPI RETURNDATASIZE PUSH0 PUSH0 RETURNDATACOPY RETURNDATASIZE PUSH0 REVERT JUMPDEST POP POP POP POP PUSH1 0x40 MLOAD RETURNDATASIZE PUSH1 0x1F NOT PUSH1 0x1F DUP3 ADD AND DUP3 ADD DUP1 PUSH1 0x40 MSTORE POP DUP2 ADD SWAP1 PUSH2 0x22E SWAP2 SWAP1 PUSH2 0x4F3 JUMP JUMPDEST POP DUP4 PUSH20 0xFFFFFFFFFFFFFFFFFFFFFFFFFFFFFFFFFFFFFFFF AND PUSH4 0x95EA7B3 DUP4 PUSH32 0xFFFFFFFFFFFFFFFFFFFFFFFFFFFFFFFFFFFFFFFFFFFFFFFFFFFFFFFFFFFFFFFF PUSH1 0x40 MLOAD DUP4 PUSH4 0xFFFFFFFF AND PUSH1 0xE0 SHL DUP2 MSTORE PUSH1 0x4 ADD PUSH2 0x28A SWAP3 SWAP2 SWAP1 PUSH2 0x497 JUMP JUMPDEST PUSH1 0x20 PUSH1 0x40 MLOAD DUP1 DUP4 SUB DUP2 PUSH0 DUP8 GAS CALL ISZERO DUP1 ISZERO PUSH2 0x2A6 JUMPI RETURNDATASIZE PUSH0 PUSH0 RETURNDATACOPY RETURNDATASIZE PUSH0 REVERT JUMPDEST POP POP POP POP PUSH1 0x40 MLOAD RETURNDATASIZE PUSH1 0x1F NOT PUSH1 0x1F DUP3 ADD AND DUP3 ADD DUP1 PUSH1 0x40 MSTORE POP DUP2 ADD SWAP1 PUSH2 0x2CA SWAP2 SWAP1 PUSH2 0x4F3 JUMP JUMPDEST POP DUP4 PUSH20 0xFFFFFFFFFFFFFFFFFFFFFFFFFFFFFFFFFFFFFFFF AND PUSH4 0x95EA7B3 DUP3 PUSH32 0xFFFFFFFFFFFFFFFFFFFFFFFFFFFFFFFFFFFFFFFFFFFFFFFFFFFFFFFFFFFFFFFF PUSH1 0x40 MLOAD DUP4 PUSH4 0xFFFFFFFF AND PUSH1 0xE0 SHL DUP2 MSTORE PUSH1 0x4 ADD PUSH2 0x326 SWAP3 SWAP2 SWAP1 PUSH2 0x497 JUMP JUMPDEST PUSH1 0x20 PUSH1 0x40 MLOAD DUP1 DUP4 SUB DUP2 PUSH0 DUP8 GAS CALL ISZERO DUP1 ISZERO PUSH2 0x342 JUMPI RETURNDATASIZE PUSH0 PUSH0 RETURNDATACOPY RETURNDATASIZE PUSH0 REVERT JUMPDEST POP POP POP POP PUSH1 0x40 MLOAD RETURNDATASIZE PUSH1 0x1F NOT PUSH1 0x1F DUP3 ADD AND DUP3 ADD DUP1 PUSH1 0x40 MSTORE POP DUP2 ADD SWAP1 PUSH2 0x366 SWAP2 SWAP1 PUSH2 0x4F3 JUMP JUMPDEST POP POP POP POP POP POP PUSH2 0x51E JUMP JUMPDEST PUSH0 PUSH0 REVERT JUMPDEST PUSH0 PUSH20 0xFFFFFFFFFFFFFFFFFFFFFFFFFFFFFFFFFFFFFFFF DUP3 AND SWAP1 POP SWAP2 SWAP1 POP JUMP JUMPDEST PUSH0 PUSH2 0x39E DUP3 PUSH2 0x375 JUMP JUMPDEST SWAP1 POP SWAP2 SWAP1 POP JUMP JUMPDEST PUSH2 0x3AE DUP2 PUSH2 0x394 JUMP JUMPDEST DUP2 EQ PUSH2 0x3B8 JUMPI PUSH0 PUSH0 REVERT JUMPDEST POP JUMP JUMPDEST PUSH0 DUP2 MLOAD SWAP1 POP PUSH2 0x3C9 DUP2 PUSH2 0x3A5 JUMP JUMPDEST SWAP3 SWAP2 POP POP JUMP JUMPDEST PUSH0 DUP2 SWAP1 POP SWAP2 SWAP1 POP JUMP JUMPDEST PUSH2 0x3E1 DUP2 PUSH2 0x3CF JUMP JUMPDEST DUP2 EQ PUSH2 0x3EB JUMPI PUSH0 PUSH0 REVERT JUMPDEST POP JUMP JUMPDEST PUSH0 DUP2 MLOAD SWAP1 POP PUSH2 0x3FC DUP2 PUSH2 0x3D8 JUMP JUMPDEST SWAP3 SWAP2 POP POP JUMP JUMPDEST PUSH0 PUSH0 PUSH0 PUSH0 PUSH0 PUSH1 0xA0 DUP7 DUP9 SUB SLT ISZERO PUSH2 0x41B JUMPI PUSH2 0x41A PUSH2 0x371 JUMP JUMPDEST JUMPDEST PUSH0 PUSH2 0x428 DUP9 DUP3 DUP10 ADD PUSH2 0x3BB JUMP JUMPDEST SWAP6 POP POP PUSH1 0x20 PUSH2 0x439 DUP9 DUP3 DUP10 ADD PUSH2 0x3BB JUMP JUMPDEST SWAP5 POP POP PUSH1 0x40 PUSH2 0x44A DUP9 DUP3 DUP10 ADD PUSH2 0x3EE JUMP JUMPDEST SWAP4 POP POP PUSH1 0x60 PUSH2 0x45B DUP9 DUP3 DUP10 ADD PUSH2 0x3BB JUMP JUMPDEST SWAP3 POP POP PUSH1 0x80 PUSH2 0x46C DUP9 DUP3 DUP10 ADD PUSH2 0x3BB JUMP JUMPDEST SWAP2 POP POP SWAP3 SWAP6 POP SWAP3 SWAP6 SWAP1 SWAP4 POP JUMP JUMPDEST PUSH2 0x482 DUP2 PUSH2 0x394 JUMP JUMPDEST DUP3 MSTORE POP POP JUMP JUMPDEST PUSH2 0x491 DUP2 PUSH2 0x3CF JUMP JUMPDEST DUP3 MSTORE POP POP JUMP JUMPDEST PUSH0 PUSH1 0x40 DUP3 ADD SWAP1 POP PUSH2 0x4AA PUSH0 DUP4 ADD DUP6 PUSH2 0x479 JUMP JUMPDEST PUSH2 0x4B7 PUSH1 0x20 DUP4 ADD DUP5 PUSH2 0x488 JUMP JUMPDEST SWAP4 SWAP3 POP POP POP JUMP JUMPDEST PUSH0 DUP2 ISZERO ISZERO SWAP1 POP SWAP2 SWAP1 POP JUMP JUMPDEST PUSH2 0x4D2 DUP2 PUSH2 0x4BE JUMP JUMPDEST DUP2 EQ PUSH2 0x4DC JUMPI PUSH0 PUSH0 REVERT JUMPDEST POP JUMP JUMPDEST PUSH0 DUP2 MLOAD SWAP1 POP PUSH2 0x4ED DUP2 PUSH2 0x4C9 JUMP JUMPDEST SWAP3 SWAP2 POP POP JUMP JUMPDEST PUSH0 PUSH1 0x20 DUP3 DUP5 SUB SLT ISZERO PUSH2 0x508 JUMPI PUSH2 0x507 PUSH2 0x371 JUMP JUMPDEST JUMPDEST PUSH0 PUSH2 0x515 DUP5 DUP3 DUP6 ADD PUSH2 0x4DF JUMP JUMPDEST SWAP2 POP POP SWAP3 SWAP2 POP POP JUMP JUMPDEST PUSH2 0x1600 DUP1 PUSH2 0x52B PUSH0 CODECOPY PUSH0 RETURN INVALID PUSH1 0x80 PUSH1 0x40 MSTORE CALLVALUE DUP1 ISZERO PUSH2 0xF JUMPI PUSH0 PUSH0 REVERT JUMPDEST POP PUSH1 0x4 CALLDATASIZE LT PUSH2 0x86 JUMPI PUSH0 CALLDATALOAD PUSH1 0xE0 SHR DUP1 PUSH4 0x7341AB8C GT PUSH2 0x59 JUMPI DUP1 PUSH4 0x7341AB8C EQ PUSH2 0xEC JUMPI DUP1 PUSH4 0x8DA5CB5B EQ PUSH2 0x10A JUMPI DUP1 PUSH4 0xB6B55F25 EQ PUSH2 0x128 JUMPI DUP1 PUSH4 0xFF0F0CDF EQ PUSH2 0x144 JUMPI PUSH2 0x86 JUMP JUMPDEST DUP1 PUSH4 0xFC63D10 EQ PUSH2 0x8A JUMPI DUP1 PUSH4 0x3CCFD60B EQ PUSH2 0xA8 JUMPI DUP1 PUSH4 0x5F64B55B EQ PUSH2 0xB2 JUMPI DUP1 PUSH4 0x650F84BE EQ PUSH2 0xD0 JUMPI JUMPDEST PUSH0 PUSH0 REVERT JUMPDEST PUSH2 0x92 PUSH2 0x176 JUMP JUMPDEST PUSH1 0x40 MLOAD PUSH2 0x9F SWAP2 SWAP1 PUSH2 0x1017 JUMP JUMPDEST PUSH1 0x40 MLOAD DUP1 SWAP2 SUB SWAP1 RETURN JUMPDEST PUSH2 0xB0 PUSH2 0x19B JUMP JUMPDEST STOP JUMPDEST PUSH2 0xBA PUSH2 0x4F1 JUMP JUMPDEST PUSH1 0x40 MLOAD PUSH2 0xC7 SWAP2 SWAP1 PUSH2 0x1017 JUMP JUMPDEST PUSH1 0x40 MLOAD DUP1 SWAP2 SUB SWAP1 RETURN JUMPDEST PUSH2 0xEA PUSH1 0x4 DUP1 CALLDATASIZE SUB DUP2 ADD SWAP1 PUSH2 0xE5 SWAP2 SWAP1 PUSH2 0x10A2 JUMP JUMPDEST PUSH2 0x516 JUMP JUMPDEST STOP JUMPDEST PUSH2 0xF4 PUSH2 0xD55 JUMP JUMPDEST PUSH1 0x40 MLOAD PUSH2 0x101 SWAP2 SWAP1 PUSH2 0x1101 JUMP JUMPDEST PUSH1 0x40 MLOAD DUP1 SWAP2 SUB SWAP1 RETURN JUMPDEST PUSH2 0x112 PUSH2 0xD5B JUMP JUMPDEST PUSH1 0x40 MLOAD PUSH2 0x11F SWAP2 SWAP1 PUSH2 0x1129 JUMP JUMPDEST PUSH1 0x40 MLOAD DUP1 SWAP2 SUB SWAP1 RETURN JUMPDEST PUSH2 0x142 PUSH1 0x4 DUP1 CALLDATASIZE SUB DUP2 ADD SWAP1 PUSH2 0x13D SWAP2 SWAP1 PUSH2 0x1142 JUMP JUMPDEST PUSH2 0xD7F JUMP JUMPDEST STOP JUMPDEST PUSH2 0x15E PUSH1 0x4 DUP1 CALLDATASIZE SUB DUP2 ADD SWAP1 PUSH2 0x159 SWAP2 SWAP1 PUSH2 0x116D JUMP JUMPDEST PUSH2 0xEAF JUMP JUMPDEST PUSH1 0x40 MLOAD PUSH2 0x16D SWAP4 SWAP3 SWAP2 SWAP1 PUSH2 0x11C5 JUMP JUMPDEST PUSH1 0x40 MLOAD DUP1 SWAP2 SUB SWAP1 RETURN JUMPDEST PUSH1 0x1 PUSH0 SWAP1 SLOAD SWAP1 PUSH2 0x100 EXP SWAP1 DIV PUSH20 0xFFFFFFFFFFFFFFFFFFFFFFFFFFFFFFFFFFFFFFFF AND DUP2 JUMP JUMPDEST PUSH0 PUSH0 SWAP1 SLOAD SWAP1 PUSH2 0x100 EXP SWAP1 DIV PUSH20 0xFFFFFFFFFFFFFFFFFFFFFFFFFFFFFFFFFFFFFFFF AND PUSH20 0xFFFFFFFFFFFFFFFFFFFFFFFFFFFFFFFFFFFFFFFF AND CALLER PUSH20 0xFFFFFFFFFFFFFFFFFFFFFFFFFFFFFFFFFFFFFFFF AND EQ PUSH2 0x229 JUMPI PUSH1 0x40 MLOAD PUSH32 0x8C379A000000000000000000000000000000000000000000000000000000000 DUP2 MSTORE PUSH1 0x4 ADD PUSH2 0x220 SWAP1 PUSH2 0x1254 JUMP JUMPDEST PUSH1 0x40 MLOAD DUP1 SWAP2 SUB SWAP1 REVERT JUMPDEST PUSH0 PUSH1 0x1 PUSH0 SWAP1 SLOAD SWAP1 PUSH2 0x100 EXP SWAP1 DIV PUSH20 0xFFFFFFFFFFFFFFFFFFFFFFFFFFFFFFFFFFFFFFFF AND PUSH20 0xFFFFFFFFFFFFFFFFFFFFFFFFFFFFFFFFFFFFFFFF AND PUSH4 0x70A08231 ADDRESS PUSH1 0x40 MLOAD DUP3 PUSH4 0xFFFFFFFF AND PUSH1 0xE0 SHL DUP2 MSTORE PUSH1 0x4 ADD PUSH2 0x284 SWAP2 SWAP1 PUSH2 0x1129 JUMP JUMPDEST PUSH1 0x20 PUSH1 0x40 MLOAD DUP1 DUP4 SUB DUP2 DUP7 GAS STATICCALL ISZERO DUP1 ISZERO PUSH2 0x29F JUMPI RETURNDATASIZE PUSH0 PUSH0 RETURNDATACOPY RETURNDATASIZE PUSH0 REVERT JUMPDEST POP POP POP POP PUSH1 0x40 MLOAD RETURNDATASIZE PUSH1 0x1F NOT PUSH1 0x1F DUP3 ADD AND DUP3 ADD DUP1 PUSH1 0x40 MSTORE POP DUP2 ADD SWAP1 PUSH2 0x2C3 SWAP2 SWAP1 PUSH2 0x1286 JUMP JUMPDEST SWAP1 POP PUSH0 PUSH1 0x2 PUSH0 SWAP1 SLOAD SWAP1 PUSH2 0x100 EXP SWAP1 DIV PUSH20 0xFFFFFFFFFFFFFFFFFFFFFFFFFFFFFFFFFFFFFFFF AND PUSH20 0xFFFFFFFFFFFFFFFFFFFFFFFFFFFFFFFFFFFFFFFF AND PUSH4 0x70A08231 ADDRESS PUSH1 0x40 MLOAD DUP3 PUSH4 0xFFFFFFFF AND PUSH1 0xE0 SHL DUP2 MSTORE PUSH1 0x4 ADD PUSH2 0x320 SWAP2 SWAP1 PUSH2 0x1129 JUMP JUMPDEST PUSH1 0x20 PUSH1 0x40 MLOAD DUP1 DUP4 SUB DUP2 DUP7 GAS STATICCALL ISZERO DUP1 ISZERO PUSH2 0x33B JUMPI RETURNDATASIZE PUSH0 PUSH0 RETURNDATACOPY RETURNDATASIZE PUSH0 REVERT JUMPDEST POP POP POP POP PUSH1 0x40 MLOAD RETURNDATASIZE PUSH1 0x1F NOT PUSH1 0x1F DUP3 ADD AND DUP3 ADD DUP1 PUSH1 0x40 MSTORE POP DUP2 ADD SWAP1 PUSH2 0x35F SWAP2 SWAP1 PUSH2 0x1286 JUMP JUMPDEST SWAP1 POP PUSH0 DUP3 GT ISZERO PUSH2 0x427 JUMPI PUSH1 0x1 PUSH0 SWAP1 SLOAD SWAP1 PUSH2 0x100 EXP SWAP1 DIV PUSH20 0xFFFFFFFFFFFFFFFFFFFFFFFFFFFFFFFFFFFFFFFF AND PUSH20 0xFFFFFFFFFFFFFFFFFFFFFFFFFFFFFFFFFFFFFFFF AND PUSH4 0xA9059CBB PUSH0 PUSH0 SWAP1 SLOAD SWAP1 PUSH2 0x100 EXP SWAP1 DIV PUSH20 0xFFFFFFFFFFFFFFFFFFFFFFFFFFFFFFFFFFFFFFFF AND DUP5 PUSH1 0x40 MLOAD DUP4 PUSH4 0xFFFFFFFF AND PUSH1 0xE0 SHL DUP2 MSTORE PUSH1 0x4 ADD PUSH2 0x3E5 SWAP3 SWAP2 SWAP1 PUSH2 0x12B1 JUMP JUMPDEST PUSH1 0x20 PUSH1 0x40 MLOAD DUP1 DUP4 SUB DUP2 PUSH0 DUP8 GAS CALL ISZERO DUP1 ISZERO PUSH2 0x401 JUMPI RETURNDATASIZE PUSH0 PUSH0 RETURNDATACOPY RETURNDATASIZE PUSH0 REVERT JUMPDEST POP POP POP POP PUSH1 0x40 MLOAD RETURNDATASIZE PUSH1 0x1F NOT PUSH1 0x1F DUP3 ADD AND DUP3 ADD DUP1 PUSH1 0x40 MSTORE POP DUP2 ADD SWAP1 PUSH2 0x425 SWAP2 SWAP1 PUSH2 0x1302 JUMP JUMPDEST POP JUMPDEST PUSH0 DUP2 GT ISZERO PUSH2 0x4ED JUMPI PUSH1 0x2 PUSH0 SWAP1 SLOAD SWAP1 PUSH2 0x100 EXP SWAP1 DIV PUSH20 0xFFFFFFFFFFFFFFFFFFFFFFFFFFFFFFFFFFFFFFFF AND PUSH20 0xFFFFFFFFFFFFFFFFFFFFFFFFFFFFFFFFFFFFFFFF AND PUSH4 0xA9059CBB PUSH0 PUSH0 SWAP1 SLOAD SWAP1 PUSH2 0x100 EXP SWAP1 DIV PUSH20 0xFFFFFFFFFFFFFFFFFFFFFFFFFFFFFFFFFFFFFFFF AND DUP4 PUSH1 0x40 MLOAD DUP4 PUSH4 0xFFFFFFFF AND PUSH1 0xE0 SHL DUP2 MSTORE PUSH1 0x4 ADD PUSH2 0x4AB SWAP3 SWAP2 SWAP1 PUSH2 0x12B1 JUMP JUMPDEST PUSH1 0x20 PUSH1 0x40 MLOAD DUP1 DUP4 SUB DUP2 PUSH0 DUP8 GAS CALL ISZERO DUP1 ISZERO PUSH2 0x4C7 JUMPI RETURNDATASIZE PUSH0 PUSH0 RETURNDATACOPY RETURNDATASIZE PUSH0 REVERT JUMPDEST POP POP POP POP PUSH1 0x40 MLOAD RETURNDATASIZE PUSH1 0x1F NOT PUSH1 0x1F DUP3 ADD AND DUP3 ADD DUP1 PUSH1 0x40 MSTORE POP DUP2 ADD SWAP1 PUSH2 0x4EB SWAP2 SWAP1 PUSH2 0x1302 JUMP JUMPDEST POP JUMPDEST POP POP JUMP JUMPDEST PUSH1 0x2 PUSH0 SWAP1 SLOAD SWAP1 PUSH2 0x100 EXP SWAP1 DIV PUSH20 0xFFFFFFFFFFFFFFFFFFFFFFFFFFFFFFFFFFFFFFFF AND DUP2 JUMP JUMPDEST PUSH0 PUSH0 SWAP1 SLOAD SWAP1 PUSH2 0x100 EXP SWAP1 DIV PUSH20 0xFFFFFFFFFFFFFFFFFFFFFFFFFFFFFFFFFFFFFFFF AND PUSH20 0xFFFFFFFFFFFFFFFFFFFFFFFFFFFFFFFFFFFFFFFF AND CALLER PUSH20 0xFFFFFFFFFFFFFFFFFFFFFFFFFFFFFFFFFFFFFFFF AND EQ PUSH2 0x5A4 JUMPI PUSH1 0x40 MLOAD PUSH32 0x8C379A000000000000000000000000000000000000000000000000000000000 DUP2 MSTORE PUSH1 0x4 ADD PUSH2 0x59B SWAP1 PUSH2 0x1254 JUMP JUMPDEST PUSH1 0x40 MLOAD DUP1 SWAP2 SUB SWAP1 REVERT JUMPDEST PUSH0 DUP2 GT PUSH2 0x5E6 JUMPI PUSH1 0x40 MLOAD PUSH32 0x8C379A000000000000000000000000000000000000000000000000000000000 DUP2 MSTORE PUSH1 0x4 ADD PUSH2 0x5DD SWAP1 PUSH2 0x1377 JUMP JUMPDEST PUSH1 0x40 MLOAD DUP1 SWAP2 SUB SWAP1 REVERT JUMPDEST PUSH0 PUSH1 0x1 PUSH0 SWAP1 SLOAD SWAP1 PUSH2 0x100 EXP SWAP1 DIV PUSH20 0xFFFFFFFFFFFFFFFFFFFFFFFFFFFFFFFFFFFFFFFF AND PUSH20 0xFFFFFFFFFFFFFFFFFFFFFFFFFFFFFFFFFFFFFFFF AND PUSH4 0x70A08231 ADDRESS PUSH1 0x40 MLOAD DUP3 PUSH4 0xFFFFFFFF AND PUSH1 0xE0 SHL DUP2 MSTORE PUSH1 0x4 ADD PUSH2 0x641 SWAP2 SWAP1 PUSH2 0x1129 JUMP JUMPDEST PUSH1 0x20 PUSH1 0x40 MLOAD DUP1 DUP4 SUB DUP2 DUP7 GAS STATICCALL ISZERO DUP1 ISZERO PUSH2 0x65C JUMPI RETURNDATASIZE PUSH0 PUSH0 RETURNDATACOPY RETURNDATASIZE PUSH0 REVERT JUMPDEST POP POP POP POP PUSH1 0x40 MLOAD RETURNDATASIZE PUSH1 0x1F NOT PUSH1 0x1F DUP3 ADD AND DUP3 ADD DUP1 PUSH1 0x40 MSTORE POP DUP2 ADD SWAP1 PUSH2 0x680 SWAP2 SWAP1 PUSH2 0x1286 JUMP JUMPDEST SWAP1 POP DUP2 DUP2 LT ISZERO PUSH2 0x6C5 JUMPI PUSH1 0x40 MLOAD PUSH32 0x8C379A000000000000000000000000000000000000000000000000000000000 DUP2 MSTORE PUSH1 0x4 ADD PUSH2 0x6BC SWAP1 PUSH2 0x13DF JUMP JUMPDEST PUSH1 0x40 MLOAD DUP1 SWAP2 SUB SWAP1 REVERT JUMPDEST PUSH0 DUP5 PUSH20 0xFFFFFFFFFFFFFFFFFFFFFFFFFFFFFFFFFFFFFFFF AND PUSH4 0x398482D8 PUSH1 0x40 MLOAD DUP2 PUSH4 0xFFFFFFFF AND PUSH1 0xE0 SHL DUP2 MSTORE PUSH1 0x4 ADD PUSH1 0x20 PUSH1 0x40 MLOAD DUP1 DUP4 SUB DUP2 DUP7 GAS STATICCALL ISZERO DUP1 ISZERO PUSH2 0x70F JUMPI RETURNDATASIZE PUSH0 PUSH0 RETURNDATACOPY RETURNDATASIZE PUSH0 REVERT JUMPDEST POP POP POP POP PUSH1 0x40 MLOAD RETURNDATASIZE PUSH1 0x1F NOT PUSH1 0x1F DUP3 ADD AND DUP3 ADD DUP1 PUSH1 0x40 MSTORE POP DUP2 ADD SWAP1 PUSH2 0x733 SWAP2 SWAP1 PUSH2 0x1286 JUMP JUMPDEST SWAP1 POP PUSH0 DUP5 PUSH20 0xFFFFFFFFFFFFFFFFFFFFFFFFFFFFFFFFFFFFFFFF AND PUSH4 0x398482D8 PUSH1 0x40 MLOAD DUP2 PUSH4 0xFFFFFFFF AND PUSH1 0xE0 SHL DUP2 MSTORE PUSH1 0x4 ADD PUSH1 0x20 PUSH1 0x40 MLOAD DUP1 DUP4 SUB DUP2 DUP7 GAS STATICCALL ISZERO DUP1 ISZERO PUSH2 0x77F JUMPI RETURNDATASIZE PUSH0 PUSH0 RETURNDATACOPY RETURNDATASIZE PUSH0 REVERT JUMPDEST POP POP POP POP PUSH1 0x40 MLOAD RETURNDATASIZE PUSH1 0x1F NOT PUSH1 0x1F DUP3 ADD AND DUP3 ADD DUP1 PUSH1 0x40 MSTORE POP DUP2 ADD SWAP1 PUSH2 0x7A3 SWAP2 SWAP1 PUSH2 0x1286 JUMP JUMPDEST SWAP1 POP DUP1 DUP3 GT ISZERO PUSH2 0x95D JUMPI DUP6 PUSH20 0xFFFFFFFFFFFFFFFFFFFFFFFFFFFFFFFFFFFFFFFF AND PUSH4 0x3102091 DUP6 PUSH1 0x40 MLOAD DUP3 PUSH4 0xFFFFFFFF AND PUSH1 0xE0 SHL DUP2 MSTORE PUSH1 0x4 ADD PUSH2 0x7E6 SWAP2 SWAP1 PUSH2 0x1101 JUMP JUMPDEST PUSH0 PUSH1 0x40 MLOAD DUP1 DUP4 SUB DUP2 PUSH0 DUP8 DUP1 EXTCODESIZE ISZERO DUP1 ISZERO PUSH2 0x7FD JUMPI PUSH0 PUSH0 REVERT JUMPDEST POP GAS CALL ISZERO DUP1 ISZERO PUSH2 0x80F JUMPI RETURNDATASIZE PUSH0 PUSH0 RETURNDATACOPY RETURNDATASIZE PUSH0 REVERT JUMPDEST POP POP POP POP PUSH0 PUSH1 0x2 PUSH0 SWAP1 SLOAD SWAP1 PUSH2 0x100 EXP SWAP1 DIV PUSH20 0xFFFFFFFFFFFFFFFFFFFFFFFFFFFFFFFFFFFFFFFF AND PUSH20 0xFFFFFFFFFFFFFFFFFFFFFFFFFFFFFFFFFFFFFFFF AND PUSH4 0x70A08231 ADDRESS PUSH1 0x40 MLOAD DUP3 PUSH4 0xFFFFFFFF AND PUSH1 0xE0 SHL DUP2 MSTORE PUSH1 0x4 ADD PUSH2 0x86E SWAP2 SWAP1 PUSH2 0x1129 JUMP JUMPDEST PUSH1 0x20 PUSH1 0x40 MLOAD DUP1 DUP4 SUB DUP2 DUP7 GAS STATICCALL ISZERO DUP1 ISZERO PUSH2 0x889 JUMPI RETURNDATASIZE PUSH0 PUSH0 RETURNDATACOPY RETURNDATASIZE PUSH0 REVERT JUMPDEST POP POP POP POP PUSH1 0x40 MLOAD RETURNDATASIZE PUSH1 0x1F NOT PUSH1 0x1F DUP3 ADD AND DUP3 ADD DUP1 PUSH1 0x40 MSTORE POP DUP2 ADD SWAP1 PUSH2 0x8AD SWAP2 SWAP1 PUSH2 0x1286 JUMP JUMPDEST SWAP1 POP PUSH0 DUP2 GT PUSH2 0x8F1 JUMPI PUSH1 0x40 MLOAD PUSH32 0x8C379A000000000000000000000000000000000000000000000000000000000 DUP2 MSTORE PUSH1 0x4 ADD PUSH2 0x8E8 SWAP1 PUSH2 0x1447 JUMP JUMPDEST PUSH1 0x40 MLOAD DUP1 SWAP2 SUB SWAP1 REVERT JUMPDEST DUP6 PUSH20 0xFFFFFFFFFFFFFFFFFFFFFFFFFFFFFFFFFFFFFFFF AND PUSH4 0xE619A498 DUP3 PUSH1 0x40 MLOAD DUP3 PUSH4 0xFFFFFFFF AND PUSH1 0xE0 SHL DUP2 MSTORE PUSH1 0x4 ADD PUSH2 0x92A SWAP2 SWAP1 PUSH2 0x1101 JUMP JUMPDEST PUSH0 PUSH1 0x40 MLOAD DUP1 DUP4 SUB DUP2 PUSH0 DUP8 DUP1 EXTCODESIZE ISZERO DUP1 ISZERO PUSH2 0x941 JUMPI PUSH0 PUSH0 REVERT JUMPDEST POP GAS CALL ISZERO DUP1 ISZERO PUSH2 0x953 JUMPI RETURNDATASIZE PUSH0 PUSH0 RETURNDATACOPY RETURNDATASIZE PUSH0 REVERT JUMPDEST POP POP POP POP POP PUSH2 0xB51 JUMP JUMPDEST DUP2 DUP2 GT ISZERO PUSH2 0xB15 JUMPI DUP5 PUSH20 0xFFFFFFFFFFFFFFFFFFFFFFFFFFFFFFFFFFFFFFFF AND PUSH4 0x3102091 DUP6 PUSH1 0x40 MLOAD DUP3 PUSH4 0xFFFFFFFF AND PUSH1 0xE0 SHL DUP2 MSTORE PUSH1 0x4 ADD PUSH2 0x99E SWAP2 SWAP1 PUSH2 0x1101 JUMP JUMPDEST PUSH0 PUSH1 0x40 MLOAD DUP1 DUP4 SUB DUP2 PUSH0 DUP8 DUP1 EXTCODESIZE ISZERO DUP1 ISZERO PUSH2 0x9B5 JUMPI PUSH0 PUSH0 REVERT JUMPDEST POP GAS CALL ISZERO DUP1 ISZERO PUSH2 0x9C7 JUMPI RETURNDATASIZE PUSH0 PUSH0 RETURNDATACOPY RETURNDATASIZE PUSH0 REVERT JUMPDEST POP POP POP POP PUSH0 PUSH1 0x2 PUSH0 SWAP1 SLOAD SWAP1 PUSH2 0x100 EXP SWAP1 DIV PUSH20 0xFFFFFFFFFFFFFFFFFFFFFFFFFFFFFFFFFFFFFFFF AND PUSH20 0xFFFFFFFFFFFFFFFFFFFFFFFFFFFFFFFFFFFFFFFF AND PUSH4 0x70A08231 ADDRESS PUSH1 0x40 MLOAD DUP3 PUSH4 0xFFFFFFFF AND PUSH1 0xE0 SHL DUP2 MSTORE PUSH1 0x4 ADD PUSH2 0xA26 SWAP2 SWAP1 PUSH2 0x1129 JUMP JUMPDEST PUSH1 0x20 PUSH1 0x40 MLOAD DUP1 DUP4 SUB DUP2 DUP7 GAS STATICCALL ISZERO DUP1 ISZERO PUSH2 0xA41 JUMPI RETURNDATASIZE PUSH0 PUSH0 RETURNDATACOPY RETURNDATASIZE PUSH0 REVERT JUMPDEST POP POP POP POP PUSH1 0x40 MLOAD RETURNDATASIZE PUSH1 0x1F NOT PUSH1 0x1F DUP3 ADD AND DUP3 ADD DUP1 PUSH1 0x40 MSTORE POP DUP2 ADD SWAP1 PUSH2 0xA65 SWAP2 SWAP1 PUSH2 0x1286 JUMP JUMPDEST SWAP1 POP PUSH0 DUP2 GT PUSH2 0xAA9 JUMPI PUSH1 0x40 MLOAD PUSH32 0x8C379A000000000000000000000000000000000000000000000000000000000 DUP2 MSTORE PUSH1 0x4 ADD PUSH2 0xAA0 SWAP1 PUSH2 0x1447 JUMP JUMPDEST PUSH1 0x40 MLOAD DUP1 SWAP2 SUB SWAP1 REVERT JUMPDEST DUP7 PUSH20 0xFFFFFFFFFFFFFFFFFFFFFFFFFFFFFFFFFFFFFFFF AND PUSH4 0xE619A498 DUP3 PUSH1 0x40 MLOAD DUP3 PUSH4 0xFFFFFFFF AND PUSH1 0xE0 SHL DUP2 MSTORE PUSH1 0x4 ADD PUSH2 0xAE2 SWAP2 SWAP1 PUSH2 0x1101 JUMP JUMPDEST PUSH0 PUSH1 0x40 MLOAD DUP1 DUP4 SUB DUP2 PUSH0 DUP8 DUP1 EXTCODESIZE ISZERO DUP1 ISZERO PUSH2 0xAF9 JUMPI PUSH0 PUSH0 REVERT JUMPDEST POP GAS CALL ISZERO DUP1 ISZERO PUSH2 0xB0B JUMPI RETURNDATASIZE PUSH0 PUSH0 RETURNDATACOPY RETURNDATASIZE PUSH0 REVERT JUMPDEST POP POP POP POP POP PUSH2 0xB50 JUMP JUMPDEST PUSH1 0x40 MLOAD PUSH32 0x8C379A000000000000000000000000000000000000000000000000000000000 DUP2 MSTORE PUSH1 0x4 ADD PUSH2 0xB47 SWAP1 PUSH2 0x14AF JUMP JUMPDEST PUSH1 0x40 MLOAD DUP1 SWAP2 SUB SWAP1 REVERT JUMPDEST JUMPDEST PUSH0 PUSH1 0x1 PUSH0 SWAP1 SLOAD SWAP1 PUSH2 0x100 EXP SWAP1 DIV PUSH20 0xFFFFFFFFFFFFFFFFFFFFFFFFFFFFFFFFFFFFFFFF AND PUSH20 0xFFFFFFFFFFFFFFFFFFFFFFFFFFFFFFFFFFFFFFFF AND PUSH4 0x70A08231 ADDRESS PUSH1 0x40 MLOAD DUP3 PUSH4 0xFFFFFFFF AND PUSH1 0xE0 SHL DUP2 MSTORE PUSH1 0x4 ADD PUSH2 0xBAC SWAP2 SWAP1 PUSH2 0x1129 JUMP JUMPDEST PUSH1 0x20 PUSH1 0x40 MLOAD DUP1 DUP4 SUB DUP2 DUP7 GAS STATICCALL ISZERO DUP1 ISZERO PUSH2 0xBC7 JUMPI RETURNDATASIZE PUSH0 PUSH0 RETURNDATACOPY RETURNDATASIZE PUSH0 REVERT JUMPDEST POP POP POP POP PUSH1 0x40 MLOAD RETURNDATASIZE PUSH1 0x1F NOT PUSH1 0x1F DUP3 ADD AND DUP3 ADD DUP1 PUSH1 0x40 MSTORE POP DUP2 ADD SWAP1 PUSH2 0xBEB SWAP2 SWAP1 PUSH2 0x1286 JUMP JUMPDEST SWAP1 POP PUSH0 DUP5 DUP3 GT PUSH2 0xBFB JUMPI PUSH0 PUSH2 0xC08 JUMP JUMPDEST DUP5 DUP3 PUSH2 0xC07 SWAP2 SWAP1 PUSH2 0x14FA JUMP JUMPDEST JUMPDEST SWAP1 POP PUSH1 0x3 SLOAD DUP2 GT PUSH2 0xC4E JUMPI PUSH1 0x40 MLOAD PUSH32 0x8C379A000000000000000000000000000000000000000000000000000000000 DUP2 MSTORE PUSH1 0x4 ADD PUSH2 0xC45 SWAP1 PUSH2 0x1577 JUMP JUMPDEST PUSH1 0x40 MLOAD DUP1 SWAP2 SUB SWAP1 REVERT JUMPDEST PUSH0 DUP2 GT ISZERO PUSH2 0xD14 JUMPI PUSH1 0x1 PUSH0 SWAP1 SLOAD SWAP1 PUSH2 0x100 EXP SWAP1 DIV PUSH20 0xFFFFFFFFFFFFFFFFFFFFFFFFFFFFFFFFFFFFFFFF AND PUSH20 0xFFFFFFFFFFFFFFFFFFFFFFFFFFFFFFFFFFFFFFFF AND PUSH4 0xA9059CBB PUSH0 PUSH0 SWAP1 SLOAD SWAP1 PUSH2 0x100 EXP SWAP1 DIV PUSH20 0xFFFFFFFFFFFFFFFFFFFFFFFFFFFFFFFFFFFFFFFF AND DUP4 PUSH1 0x40 MLOAD DUP4 PUSH4 0xFFFFFFFF AND PUSH1 0xE0 SHL DUP2 MSTORE PUSH1 0x4 ADD PUSH2 0xCD2 SWAP3 SWAP2 SWAP1 PUSH2 0x12B1 JUMP JUMPDEST PUSH1 0x20 PUSH1 0x40 MLOAD DUP1 DUP4 SUB DUP2 PUSH0 DUP8 GAS CALL ISZERO DUP1 ISZERO PUSH2 0xCEE JUMPI RETURNDATASIZE PUSH0 PUSH0 RETURNDATACOPY RETURNDATASIZE PUSH0 REVERT JUMPDEST POP POP POP POP PUSH1 0x40 MLOAD RETURNDATASIZE PUSH1 0x1F NOT PUSH1 0x1F DUP3 ADD AND DUP3 ADD DUP1 PUSH1 0x40 MSTORE POP DUP2 ADD SWAP1 PUSH2 0xD12 SWAP2 SWAP1 PUSH2 0x1302 JUMP JUMPDEST POP JUMPDEST PUSH32 0xC3DFF9EC2A9266191F204F1E39B6D5CEBFC2C3D718964DD6699F5E8E6D010FB0 DUP2 PUSH1 0x40 MLOAD PUSH2 0xD43 SWAP2 SWAP1 PUSH2 0x1101 JUMP JUMPDEST PUSH1 0x40 MLOAD DUP1 SWAP2 SUB SWAP1 LOG1 POP POP POP POP POP POP POP POP JUMP JUMPDEST PUSH1 0x3 SLOAD DUP2 JUMP JUMPDEST PUSH0 PUSH0 SWAP1 SLOAD SWAP1 PUSH2 0x100 EXP SWAP1 DIV PUSH20 0xFFFFFFFFFFFFFFFFFFFFFFFFFFFFFFFFFFFFFFFF AND DUP2 JUMP JUMPDEST PUSH0 PUSH0 SWAP1 SLOAD SWAP1 PUSH2 0x100 EXP SWAP1 DIV PUSH20 0xFFFFFFFFFFFFFFFFFFFFFFFFFFFFFFFFFFFFFFFF AND PUSH20 0xFFFFFFFFFFFFFFFFFFFFFFFFFFFFFFFFFFFFFFFF AND CALLER PUSH20 0xFFFFFFFFFFFFFFFFFFFFFFFFFFFFFFFFFFFFFFFF AND EQ PUSH2 0xE0D JUMPI PUSH1 0x40 MLOAD PUSH32 0x8C379A000000000000000000000000000000000000000000000000000000000 DUP2 MSTORE PUSH1 0x4 ADD PUSH2 0xE04 SWAP1 PUSH2 0x1254 JUMP JUMPDEST PUSH1 0x40 MLOAD DUP1 SWAP2 SUB SWAP1 REVERT JUMPDEST PUSH1 0x1 PUSH0 SWAP1 SLOAD SWAP1 PUSH2 0x100 EXP SWAP1 DIV PUSH20 0xFFFFFFFFFFFFFFFFFFFFFFFFFFFFFFFFFFFFFFFF AND PUSH20 0xFFFFFFFFFFFFFFFFFFFFFFFFFFFFFFFFFFFFFFFF AND PUSH4 0x23B872DD CALLER ADDRESS DUP5 PUSH1 0x40 MLOAD DUP5 PUSH4 0xFFFFFFFF AND PUSH1 0xE0 SHL DUP2 MSTORE PUSH1 0x4 ADD PUSH2 0xE6B SWAP4 SWAP3 SWAP2 SWAP1 PUSH2 0x1595 JUMP JUMPDEST PUSH1 0x20 PUSH1 0x40 MLOAD DUP1 DUP4 SUB DUP2 PUSH0 DUP8 GAS CALL ISZERO DUP1 ISZERO PUSH2 0xE87 JUMPI RETURNDATASIZE PUSH0 PUSH0 RETURNDATACOPY RETURNDATASIZE PUSH0 REVERT JUMPDEST POP POP POP POP PUSH1 0x40 MLOAD RETURNDATASIZE PUSH1 0x1F NOT PUSH1 0x1F DUP3 ADD AND DUP3 ADD DUP1 PUSH1 0x40 MSTORE POP DUP2 ADD SWAP1 PUSH2 0xEAB SWAP2 SWAP1 PUSH2 0x1302 JUMP JUMPDEST POP POP JUMP JUMPDEST PUSH0 PUSH0 PUSH0 DUP5 PUSH20 0xFFFFFFFFFFFFFFFFFFFFFFFFFFFFFFFFFFFFFFFF AND PUSH4 0x398482D8 PUSH1 0x40 MLOAD DUP2 PUSH4 0xFFFFFFFF AND PUSH1 0xE0 SHL DUP2 MSTORE PUSH1 0x4 ADD PUSH1 0x20 PUSH1 0x40 MLOAD DUP1 DUP4 SUB DUP2 DUP7 GAS STATICCALL ISZERO DUP1 ISZERO PUSH2 0xEFB JUMPI RETURNDATASIZE PUSH0 PUSH0 RETURNDATACOPY RETURNDATASIZE PUSH0 REVERT JUMPDEST POP POP POP POP PUSH1 0x40 MLOAD RETURNDATASIZE PUSH1 0x1F NOT PUSH1 0x1F DUP3 ADD AND DUP3 ADD DUP1 PUSH1 0x40 MSTORE POP DUP2 ADD SWAP1 PUSH2 0xF1F SWAP2 SWAP1 PUSH2 0x1286 JUMP JUMPDEST SWAP3 POP DUP4 PUSH20 0xFFFFFFFFFFFFFFFFFFFFFFFFFFFFFFFFFFFFFFFF AND PUSH4 0x398482D8 PUSH1 0x40 MLOAD DUP2 PUSH4 0xFFFFFFFF AND PUSH1 0xE0 SHL DUP2 MSTORE PUSH1 0x4 ADD PUSH1 0x20 PUSH1 0x40 MLOAD DUP1 DUP4 SUB DUP2 DUP7 GAS STATICCALL ISZERO DUP1 ISZERO PUSH2 0xF6A JUMPI RETURNDATASIZE PUSH0 PUSH0 RETURNDATACOPY RETURNDATASIZE PUSH0 REVERT JUMPDEST POP POP POP POP PUSH1 0x40 MLOAD RETURNDATASIZE PUSH1 0x1F NOT PUSH1 0x1F DUP3 ADD AND DUP3 ADD DUP1 PUSH1 0x40 MSTORE POP DUP2 ADD SWAP1 PUSH2 0xF8E SWAP2 SWAP1 PUSH2 0x1286 JUMP JUMPDEST SWAP2 POP DUP2 DUP4 EQ ISZERO SWAP1 POP SWAP3 POP SWAP3 POP SWAP3 JUMP JUMPDEST PUSH0 PUSH20 0xFFFFFFFFFFFFFFFFFFFFFFFFFFFFFFFFFFFFFFFF DUP3 AND SWAP1 POP SWAP2 SWAP1 POP JUMP JUMPDEST PUSH0 DUP2 SWAP1 POP SWAP2 SWAP1 POP JUMP JUMPDEST PUSH0 PUSH2 0xFDF PUSH2 0xFDA PUSH2 0xFD5 DUP5 PUSH2 0xF9D JUMP JUMPDEST PUSH2 0xFBC JUMP JUMPDEST PUSH2 0xF9D JUMP JUMPDEST SWAP1 POP SWAP2 SWAP1 POP JUMP JUMPDEST PUSH0 PUSH2 0xFF0 DUP3 PUSH2 0xFC5 JUMP JUMPDEST SWAP1 POP SWAP2 SWAP1 POP JUMP JUMPDEST PUSH0 PUSH2 0x1001 DUP3 PUSH2 0xFE6 JUMP JUMPDEST SWAP1 POP SWAP2 SWAP1 POP JUMP JUMPDEST PUSH2 0x1011 DUP2 PUSH2 0xFF7 JUMP JUMPDEST DUP3 MSTORE POP POP JUMP JUMPDEST PUSH0 PUSH1 0x20 DUP3 ADD SWAP1 POP PUSH2 0x102A PUSH0 DUP4 ADD DUP5 PUSH2 0x1008 JUMP JUMPDEST SWAP3 SWAP2 POP POP JUMP JUMPDEST PUSH0 PUSH0 REVERT JUMPDEST PUSH0 PUSH2 0x103E DUP3 PUSH2 0xF9D JUMP JUMPDEST SWAP1 POP SWAP2 SWAP1 POP JUMP JUMPDEST PUSH2 0x104E DUP2 PUSH2 0x1034 JUMP JUMPDEST DUP2 EQ PUSH2 0x1058 JUMPI PUSH0 PUSH0 REVERT JUMPDEST POP JUMP JUMPDEST PUSH0 DUP2 CALLDATALOAD SWAP1 POP PUSH2 0x1069 DUP2 PUSH2 0x1045 JUMP JUMPDEST SWAP3 SWAP2 POP POP JUMP JUMPDEST PUSH0 DUP2 SWAP1 POP SWAP2 SWAP1 POP JUMP JUMPDEST PUSH2 0x1081 DUP2 PUSH2 0x106F JUMP JUMPDEST DUP2 EQ PUSH2 0x108B JUMPI PUSH0 PUSH0 REVERT JUMPDEST POP JUMP JUMPDEST PUSH0 DUP2 CALLDATALOAD SWAP1 POP PUSH2 0x109C DUP2 PUSH2 0x1078 JUMP JUMPDEST SWAP3 SWAP2 POP POP JUMP JUMPDEST PUSH0 PUSH0 PUSH0 PUSH1 0x60 DUP5 DUP7 SUB SLT ISZERO PUSH2 0x10B9 JUMPI PUSH2 0x10B8 PUSH2 0x1030 JUMP JUMPDEST JUMPDEST PUSH0 PUSH2 0x10C6 DUP7 DUP3 DUP8 ADD PUSH2 0x105B JUMP JUMPDEST SWAP4 POP POP PUSH1 0x20 PUSH2 0x10D7 DUP7 DUP3 DUP8 ADD PUSH2 0x105B JUMP JUMPDEST SWAP3 POP POP PUSH1 0x40 PUSH2 0x10E8 DUP7 DUP3 DUP8 ADD PUSH2 0x108E JUMP JUMPDEST SWAP2 POP POP SWAP3 POP SWAP3 POP SWAP3 JUMP JUMPDEST PUSH2 0x10FB DUP2 PUSH2 0x106F JUMP JUMPDEST DUP3 MSTORE POP POP JUMP JUMPDEST PUSH0 PUSH1 0x20 DUP3 ADD SWAP1 POP PUSH2 0x1114 PUSH0 DUP4 ADD DUP5 PUSH2 0x10F2 JUMP JUMPDEST SWAP3 SWAP2 POP POP JUMP JUMPDEST PUSH2 0x1123 DUP2 PUSH2 0x1034 JUMP JUMPDEST DUP3 MSTORE POP POP JUMP JUMPDEST PUSH0 PUSH1 0x20 DUP3 ADD SWAP1 POP PUSH2 0x113C PUSH0 DUP4 ADD DUP5 PUSH2 0x111A JUMP JUMPDEST SWAP3 SWAP2 POP POP JUMP JUMPDEST PUSH0 PUSH1 0x20 DUP3 DUP5 SUB SLT ISZERO PUSH2 0x1157 JUMPI PUSH2 0x1156 PUSH2 0x1030 JUMP JUMPDEST JUMPDEST PUSH0 PUSH2 0x1164 DUP5 DUP3 DUP6 ADD PUSH2 0x108E JUMP JUMPDEST SWAP2 POP POP SWAP3 SWAP2 POP POP JUMP JUMPDEST PUSH0 PUSH0 PUSH1 0x40 DUP4 DUP6 SUB SLT ISZERO PUSH2 0x1183 JUMPI PUSH2 0x1182 PUSH2 0x1030 JUMP JUMPDEST JUMPDEST PUSH0 PUSH2 0x1190 DUP6 DUP3 DUP7 ADD PUSH2 0x105B JUMP JUMPDEST SWAP3 POP POP PUSH1 0x20 PUSH2 0x11A1 DUP6 DUP3 DUP7 ADD PUSH2 0x105B JUMP JUMPDEST SWAP2 POP POP SWAP3 POP SWAP3 SWAP1 POP JUMP JUMPDEST PUSH0 DUP2 ISZERO ISZERO SWAP1 POP SWAP2 SWAP1 POP JUMP JUMPDEST PUSH2 0x11BF DUP2 PUSH2 0x11AB JUMP JUMPDEST DUP3 MSTORE POP POP JUMP JUMPDEST PUSH0 PUSH1 0x60 DUP3 ADD SWAP1 POP PUSH2 0x11D8 PUSH0 DUP4 ADD DUP7 PUSH2 0x10F2 JUMP JUMPDEST PUSH2 0x11E5 PUSH1 0x20 DUP4 ADD DUP6 PUSH2 0x10F2 JUMP JUMPDEST PUSH2 0x11F2 PUSH1 0x40 DUP4 ADD DUP5 PUSH2 0x11B6 JUMP JUMPDEST SWAP5 SWAP4 POP POP POP POP JUMP JUMPDEST PUSH0 DUP3 DUP3 MSTORE PUSH1 0x20 DUP3 ADD SWAP1 POP SWAP3 SWAP2 POP POP JUMP JUMPDEST PUSH32 0x4E6F74206F776E65720000000000000000000000000000000000000000000000 PUSH0 DUP3 ADD MSTORE POP JUMP JUMPDEST PUSH0 PUSH2 0x123E PUSH1 0x9 DUP4 PUSH2 0x11FA JUMP JUMPDEST SWAP2 POP PUSH2 0x1249 DUP3 PUSH2 0x120A JUMP JUMPDEST PUSH1 0x20 DUP3 ADD SWAP1 POP SWAP2 SWAP1 POP JUMP JUMPDEST PUSH0 PUSH1 0x20 DUP3 ADD SWAP1 POP DUP2 DUP2 SUB PUSH0 DUP4 ADD MSTORE PUSH2 0x126B DUP2 PUSH2 0x1232 JUMP JUMPDEST SWAP1 POP SWAP2 SWAP1 POP JUMP JUMPDEST PUSH0 DUP2 MLOAD SWAP1 POP PUSH2 0x1280 DUP2 PUSH2 0x1078 JUMP JUMPDEST SWAP3 SWAP2 POP POP JUMP JUMPDEST PUSH0 PUSH1 0x20 DUP3 DUP5 SUB SLT ISZERO PUSH2 0x129B JUMPI PUSH2 0x129A PUSH2 0x1030 JUMP JUMPDEST JUMPDEST PUSH0 PUSH2 0x12A8 DUP5 DUP3 DUP6 ADD PUSH2 0x1272 JUMP JUMPDEST SWAP2 POP POP SWAP3 SWAP2 POP POP JUMP JUMPDEST PUSH0 PUSH1 0x40 DUP3 ADD SWAP1 POP PUSH2 0x12C4 PUSH0 DUP4 ADD DUP6 PUSH2 0x111A JUMP JUMPDEST PUSH2 0x12D1 PUSH1 0x20 DUP4 ADD DUP5 PUSH2 0x10F2 JUMP JUMPDEST SWAP4 SWAP3 POP POP POP JUMP JUMPDEST PUSH2 0x12E1 DUP2 PUSH2 0x11AB JUMP JUMPDEST DUP2 EQ PUSH2 0x12EB JUMPI PUSH0 PUSH0 REVERT JUMPDEST POP JUMP JUMPDEST PUSH0 DUP2 MLOAD SWAP1 POP PUSH2 0x12FC DUP2 PUSH2 0x12D8 JUMP JUMPDEST SWAP3 SWAP2 POP POP JUMP JUMPDEST PUSH0 PUSH1 0x20 DUP3 DUP5 SUB SLT ISZERO PUSH2 0x1317 JUMPI PUSH2 0x1316 PUSH2 0x1030 JUMP JUMPDEST JUMPDEST PUSH0 PUSH2 0x1324 DUP5 DUP3 DUP6 ADD PUSH2 0x12EE JUMP JUMPDEST SWAP2 POP POP SWAP3 SWAP2 POP POP JUMP JUMPDEST PUSH32 0x416D6F756E74206D7573742062652067726561746572207468616E2030000000 PUSH0 DUP3 ADD MSTORE POP JUMP JUMPDEST PUSH0 PUSH2 0x1361 PUSH1 0x1D DUP4 PUSH2 0x11FA JUMP JUMPDEST SWAP2 POP PUSH2 0x136C DUP3 PUSH2 0x132D JUMP JUMPDEST PUSH1 0x20 DUP3 ADD SWAP1 POP SWAP2 SWAP1 POP JUMP JUMPDEST PUSH0 PUSH1 0x20 DUP3 ADD SWAP1 POP DUP2 DUP2 SUB PUSH0 DUP4 ADD MSTORE PUSH2 0x138E DUP2 PUSH2 0x1355 JUMP JUMPDEST SWAP1 POP SWAP2 SWAP1 POP JUMP JUMPDEST PUSH32 0x496E73756666696369656E74206361706974616C000000000000000000000000 PUSH0 DUP3 ADD MSTORE POP JUMP JUMPDEST PUSH0 PUSH2 0x13C9 PUSH1 0x14 DUP4 PUSH2 0x11FA JUMP JUMPDEST SWAP2 POP PUSH2 0x13D4 DUP3 PUSH2 0x1395 JUMP JUMPDEST PUSH1 0x20 DUP3 ADD SWAP1 POP SWAP2 SWAP1 POP JUMP JUMPDEST PUSH0 PUSH1 0x20 DUP3 ADD SWAP1 POP DUP2 DUP2 SUB PUSH0 DUP4 ADD MSTORE PUSH2 0x13F6 DUP2 PUSH2 0x13BD JUMP JUMPDEST SWAP1 POP SWAP2 SWAP1 POP JUMP JUMPDEST PUSH32 0x4E6F20546F6B656E422072656365697665640000000000000000000000000000 PUSH0 DUP3 ADD MSTORE POP JUMP JUMPDEST PUSH0 PUSH2 0x1431 PUSH1 0x12 DUP4 PUSH2 0x11FA JUMP JUMPDEST SWAP2 POP PUSH2 0x143C DUP3 PUSH2 0x13FD JUMP JUMPDEST PUSH1 0x20 DUP3 ADD SWAP1 POP SWAP2 SWAP1 POP JUMP JUMPDEST PUSH0 PUSH1 0x20 DUP3 ADD SWAP1 POP DUP2 DUP2 SUB PUSH0 DUP4 ADD MSTORE PUSH2 0x145E DUP2 PUSH2 0x1425 JUMP JUMPDEST SWAP1 POP SWAP2 SWAP1 POP JUMP JUMPDEST PUSH32 0x4E6F20617262697472616765206F70706F7274756E6974790000000000000000 PUSH0 DUP3 ADD MSTORE POP JUMP JUMPDEST PUSH0 PUSH2 0x1499 PUSH1 0x18 DUP4 PUSH2 0x11FA JUMP JUMPDEST SWAP2 POP PUSH2 0x14A4 DUP3 PUSH2 0x1465 JUMP JUMPDEST PUSH1 0x20 DUP3 ADD SWAP1 POP SWAP2 SWAP1 POP JUMP JUMPDEST PUSH0 PUSH1 0x20 DUP3 ADD SWAP1 POP DUP2 DUP2 SUB PUSH0 DUP4 ADD MSTORE PUSH2 0x14C6 DUP2 PUSH2 0x148D JUMP JUMPDEST SWAP1 POP SWAP2 SWAP1 POP JUMP JUMPDEST PUSH32 0x4E487B7100000000000000000000000000000000000000000000000000000000 PUSH0 MSTORE PUSH1 0x11 PUSH1 0x4 MSTORE PUSH1 0x24 PUSH0 REVERT JUMPDEST PUSH0 PUSH2 0x1504 DUP3 PUSH2 0x106F JUMP JUMPDEST SWAP2 POP PUSH2 0x150F DUP4 PUSH2 0x106F JUMP JUMPDEST SWAP3 POP DUP3 DUP3 SUB SWAP1 POP DUP2 DUP2 GT ISZERO PUSH2 0x1527 JUMPI PUSH2 0x1526 PUSH2 0x14CD JUMP JUMPDEST JUMPDEST SWAP3 SWAP2 POP POP JUMP JUMPDEST PUSH32 0x496E73756666696369656E742070726F66697400000000000000000000000000 PUSH0 DUP3 ADD MSTORE POP JUMP JUMPDEST PUSH0 PUSH2 0x1561 PUSH1 0x13 DUP4 PUSH2 0x11FA JUMP JUMPDEST SWAP2 POP PUSH2 0x156C DUP3 PUSH2 0x152D JUMP JUMPDEST PUSH1 0x20 DUP3 ADD SWAP1 POP SWAP2 SWAP1 POP JUMP JUMPDEST PUSH0 PUSH1 0x20 DUP3 ADD SWAP1 POP DUP2 DUP2 SUB PUSH0 DUP4 ADD MSTORE PUSH2 0x158E DUP2 PUSH2 0x1555 JUMP JUMPDEST SWAP1 POP SWAP2 SWAP1 POP JUMP JUMPDEST PUSH0 PUSH1 0x60 DUP3 ADD SWAP1 POP PUSH2 0x15A8 PUSH0 DUP4 ADD DUP7 PUSH2 0x111A JUMP JUMPDEST PUSH2 0x15B5 PUSH1 0x20 DUP4 ADD DUP6 PUSH2 0x111A JUMP JUMPDEST PUSH2 0x15C2 PUSH1 0x40 DUP4 ADD DUP5 PUSH2 0x10F2 JUMP JUMPDEST SWAP5 SWAP4 POP POP POP POP JUMP INVALID LOG2 PUSH5 0x6970667358 0x22 SLT KECCAK256 0xC8 CODESIZE 0x23 DUP1 TLOAD EQ 0xC9 JUMPI 0xE8 TIMESTAMP 0xA7 SWAP12 RJUMP 0x7571 DATALOADN 0x2838 PUSH12 0xF6D2CEF8F9ED51FC54E8932F PUSH11 0x64736F6C634300081F0033 "
		},
		"gasEstimates": {
			"creation": {
				"codeDepositCost": "1126400",
				"executionCost": "infinite",
				"totalCost": "infinite"
			},
			"external": {
				"checkOpportunity(address,address)": "infinite",
				"deposit(uint256)": "infinite",
				"executeArbitrage(address,address,uint256)": "infinite",
				"minProfitThreshold()": "2425",
				"owner()": "2529",
				"tokenA()": "infinite",
				"tokenB()": "infinite",
				"withdraw()": "infinite"
			}
		},
		"methodIdentifiers": {
			"checkOpportunity(address,address)": "ff0f0cdf",
			"deposit(uint256)": "b6b55f25",
			"executeArbitrage(address,address,uint256)": "650f84be",
			"minProfitThreshold()": "7341ab8c",
			"owner()": "8da5cb5b",
			"tokenA()": "0fc63d10",
			"tokenB()": "5f64b55b",
			"withdraw()": "3ccfd60b"
		}
	},
	"abi": [
		{
			"inputs": [
				{
					"internalType": "address",
					"name": "_tokenA",
					"type": "address"
				},
				{
					"internalType": "address",
					"name": "_tokenB",
					"type": "address"
				},
				{
					"internalType": "uint256",
					"name": "_minProfitThreshold",
					"type": "uint256"
				},
				{
					"internalType": "address",
					"name": "_dex1",
					"type": "address"
				},
				{
					"internalType": "address",
					"name": "_dex2",
					"type": "address"
				}
			],
			"stateMutability": "nonpayable",
			"type": "constructor"
		},
		{
			"anonymous": false,
			"inputs": [
				{
					"indexed": false,
					"internalType": "uint256",
					"name": "profit",
					"type": "uint256"
				}
			],
			"name": "ArbitrageExecuted",
			"type": "event"
		},
		{
			"inputs": [
				{
					"internalType": "address",
					"name": "dex1",
					"type": "address"
				},
				{
					"internalType": "address",
					"name": "dex2",
					"type": "address"
				}
			],
			"name": "checkOpportunity",
			"outputs": [
				{
					"internalType": "uint256",
					"name": "p1",
					"type": "uint256"
				},
				{
					"internalType": "uint256",
					"name": "p2",
					"type": "uint256"
				},
				{
					"internalType": "bool",
					"name": "hasOpp",
					"type": "bool"
				}
			],
			"stateMutability": "view",
			"type": "function"
		},
		{
			"inputs": [
				{
					"internalType": "uint256",
					"name": "amount",
					"type": "uint256"
				}
			],
			"name": "deposit",
			"outputs": [],
			"stateMutability": "nonpayable",
			"type": "function"
		},
		{
			"inputs": [
				{
					"internalType": "address",
					"name": "dex1",
					"type": "address"
				},
				{
					"internalType": "address",
					"name": "dex2",
					"type": "address"
				},
				{
					"internalType": "uint256",
					"name": "amountIn",
					"type": "uint256"
				}
			],
			"name": "executeArbitrage",
			"outputs": [],
			"stateMutability": "nonpayable",
			"type": "function"
		},
		{
			"inputs": [],
			"name": "minProfitThreshold",
			"outputs": [
				{
					"internalType": "uint256",
					"name": "",
					"type": "uint256"
				}
			],
			"stateMutability": "view",
			"type": "function"
		},
		{
			"inputs": [],
			"name": "owner",
			"outputs": [
				{
					"internalType": "address",
					"name": "",
					"type": "address"
				}
			],
			"stateMutability": "view",
			"type": "function"
		},
		{
			"inputs": [],
			"name": "tokenA",
			"outputs": [
				{
					"internalType": "contract IERC20",
					"name": "",
					"type": "address"
				}
			],
			"stateMutability": "view",
			"type": "function"
		},
		{
			"inputs": [],
			"name": "tokenB",
			"outputs": [
				{
					"internalType": "contract IERC20",
					"name": "",
					"type": "address"
				}
			],
			"stateMutability": "view",
			"type": "function"
		},
		{
			"inputs": [],
			"name": "withdraw",
			"outputs": [],
			"stateMutability": "nonpayable",
			"type": "function"
		}
	]
}